{
	"contracts/Escrow.sol": {
		"Escrow": {
			"abi": [
				{
					"inputs": [
						{
							"internalType": "uint256",
							"name": "_escFee",
							"type": "uint256"
						}
					],
					"stateMutability": "nonpayable",
					"type": "constructor"
				},
				{
					"anonymous": false,
					"inputs": [
						{
							"indexed": false,
							"internalType": "uint256",
							"name": "itemId",
							"type": "uint256"
						},
						{
							"indexed": false,
							"internalType": "string",
							"name": "actionType",
							"type": "string"
						},
						{
							"indexed": false,
							"internalType": "enum Escrow.Status",
							"name": "status",
							"type": "uint8"
						},
						{
							"indexed": true,
							"internalType": "address",
							"name": "executor",
							"type": "address"
						}
					],
					"name": "Action",
					"type": "event"
				},
				{
					"inputs": [
						{
							"internalType": "uint256",
							"name": "itemId",
							"type": "uint256"
						},
						{
							"internalType": "address",
							"name": "provider",
							"type": "address"
						}
					],
					"name": "approveRequest",
					"outputs": [
						{
							"internalType": "bool",
							"name": "",
							"type": "bool"
						}
					],
					"stateMutability": "nonpayable",
					"type": "function"
				},
				{
					"inputs": [
						{
							"internalType": "uint256",
							"name": "itemId",
							"type": "uint256"
						},
						{
							"internalType": "bool",
							"name": "provided",
							"type": "bool"
						}
					],
					"name": "confirmDelivery",
					"outputs": [
						{
							"internalType": "bool",
							"name": "",
							"type": "bool"
						}
					],
					"stateMutability": "nonpayable",
					"type": "function"
				},
				{
					"inputs": [
						{
							"internalType": "string",
							"name": "purpose",
							"type": "string"
						}
					],
					"name": "createItem",
					"outputs": [
						{
							"internalType": "bool",
							"name": "",
							"type": "bool"
						}
					],
					"stateMutability": "payable",
					"type": "function"
				},
				{
					"inputs": [],
					"name": "escAcc",
					"outputs": [
						{
							"internalType": "address",
							"name": "",
							"type": "address"
						}
					],
					"stateMutability": "view",
					"type": "function"
				},
				{
					"inputs": [],
					"name": "escAvailBal",
					"outputs": [
						{
							"internalType": "uint256",
							"name": "",
							"type": "uint256"
						}
					],
					"stateMutability": "view",
					"type": "function"
				},
				{
					"inputs": [],
					"name": "escBal",
					"outputs": [
						{
							"internalType": "uint256",
							"name": "",
							"type": "uint256"
						}
					],
					"stateMutability": "view",
					"type": "function"
				},
				{
					"inputs": [],
					"name": "escFee",
					"outputs": [
						{
							"internalType": "uint256",
							"name": "",
							"type": "uint256"
						}
					],
					"stateMutability": "view",
					"type": "function"
				},
				{
					"inputs": [
						{
							"internalType": "uint256",
							"name": "itemId",
							"type": "uint256"
						}
					],
					"name": "getItem",
					"outputs": [
						{
							"components": [
								{
									"internalType": "uint256",
									"name": "itemId",
									"type": "uint256"
								},
								{
									"internalType": "string",
									"name": "purpose",
									"type": "string"
								},
								{
									"internalType": "uint256",
									"name": "amount",
									"type": "uint256"
								},
								{
									"internalType": "uint256",
									"name": "timestamp",
									"type": "uint256"
								},
								{
									"internalType": "address",
									"name": "owner",
									"type": "address"
								},
								{
									"internalType": "address",
									"name": "provider",
									"type": "address"
								},
								{
									"internalType": "enum Escrow.Status",
									"name": "status",
									"type": "uint8"
								},
								{
									"internalType": "bool",
									"name": "provided",
									"type": "bool"
								},
								{
									"internalType": "bool",
									"name": "confirmed",
									"type": "bool"
								}
							],
							"internalType": "struct Escrow.ItemStruct",
							"name": "",
							"type": "tuple"
						}
					],
					"stateMutability": "view",
					"type": "function"
				},
				{
					"inputs": [],
					"name": "getItems",
					"outputs": [
						{
							"components": [
								{
									"internalType": "uint256",
									"name": "itemId",
									"type": "uint256"
								},
								{
									"internalType": "string",
									"name": "purpose",
									"type": "string"
								},
								{
									"internalType": "uint256",
									"name": "amount",
									"type": "uint256"
								},
								{
									"internalType": "uint256",
									"name": "timestamp",
									"type": "uint256"
								},
								{
									"internalType": "address",
									"name": "owner",
									"type": "address"
								},
								{
									"internalType": "address",
									"name": "provider",
									"type": "address"
								},
								{
									"internalType": "enum Escrow.Status",
									"name": "status",
									"type": "uint8"
								},
								{
									"internalType": "bool",
									"name": "provided",
									"type": "bool"
								},
								{
									"internalType": "bool",
									"name": "confirmed",
									"type": "bool"
								}
							],
							"internalType": "struct Escrow.ItemStruct[]",
							"name": "props",
							"type": "tuple[]"
						}
					],
					"stateMutability": "view",
					"type": "function"
				},
				{
					"inputs": [
						{
							"internalType": "uint256",
							"name": "",
							"type": "uint256"
						}
					],
					"name": "isAvailable",
					"outputs": [
						{
							"internalType": "enum Escrow.Available",
							"name": "",
							"type": "uint8"
						}
					],
					"stateMutability": "view",
					"type": "function"
				},
				{
					"inputs": [],
					"name": "myItems",
					"outputs": [
						{
							"components": [
								{
									"internalType": "uint256",
									"name": "itemId",
									"type": "uint256"
								},
								{
									"internalType": "string",
									"name": "purpose",
									"type": "string"
								},
								{
									"internalType": "uint256",
									"name": "amount",
									"type": "uint256"
								},
								{
									"internalType": "uint256",
									"name": "timestamp",
									"type": "uint256"
								},
								{
									"internalType": "address",
									"name": "owner",
									"type": "address"
								},
								{
									"internalType": "address",
									"name": "provider",
									"type": "address"
								},
								{
									"internalType": "enum Escrow.Status",
									"name": "status",
									"type": "uint8"
								},
								{
									"internalType": "bool",
									"name": "provided",
									"type": "bool"
								},
								{
									"internalType": "bool",
									"name": "confirmed",
									"type": "bool"
								}
							],
							"internalType": "struct Escrow.ItemStruct[]",
							"name": "",
							"type": "tuple[]"
						}
					],
					"stateMutability": "view",
					"type": "function"
				},
				{
					"inputs": [
						{
							"internalType": "uint256",
							"name": "",
							"type": "uint256"
						}
					],
					"name": "ownerOf",
					"outputs": [
						{
							"internalType": "address",
							"name": "",
							"type": "address"
						}
					],
					"stateMutability": "view",
					"type": "function"
				},
				{
					"inputs": [
						{
							"internalType": "uint256",
							"name": "itemId",
							"type": "uint256"
						}
					],
					"name": "performDelievery",
					"outputs": [
						{
							"internalType": "bool",
							"name": "",
							"type": "bool"
						}
					],
					"stateMutability": "nonpayable",
					"type": "function"
				},
				{
					"inputs": [
						{
							"internalType": "uint256",
							"name": "itemId",
							"type": "uint256"
						}
					],
					"name": "refundItem",
					"outputs": [
						{
							"internalType": "bool",
							"name": "",
							"type": "bool"
						}
					],
					"stateMutability": "nonpayable",
					"type": "function"
				},
				{
					"inputs": [
						{
							"internalType": "uint256",
							"name": "itemId",
							"type": "uint256"
						}
					],
					"name": "requestItem",
					"outputs": [
						{
							"internalType": "bool",
							"name": "",
							"type": "bool"
						}
					],
					"stateMutability": "nonpayable",
					"type": "function"
				},
				{
					"inputs": [
						{
							"internalType": "address",
							"name": "",
							"type": "address"
						},
						{
							"internalType": "uint256",
							"name": "",
							"type": "uint256"
						}
					],
					"name": "requested",
					"outputs": [
						{
							"internalType": "bool",
							"name": "",
							"type": "bool"
						}
					],
					"stateMutability": "view",
					"type": "function"
				},
				{
					"inputs": [],
					"name": "totalConfirmed",
					"outputs": [
						{
							"internalType": "uint256",
							"name": "",
							"type": "uint256"
						}
					],
					"stateMutability": "view",
					"type": "function"
				},
				{
					"inputs": [],
					"name": "totalDisputed",
					"outputs": [
						{
							"internalType": "uint256",
							"name": "",
							"type": "uint256"
						}
					],
					"stateMutability": "view",
					"type": "function"
				},
				{
					"inputs": [],
					"name": "totalItems",
					"outputs": [
						{
							"internalType": "uint256",
							"name": "",
							"type": "uint256"
						}
					],
					"stateMutability": "view",
					"type": "function"
				},
				{
					"inputs": [
						{
							"internalType": "address",
							"name": "to",
							"type": "address"
						},
						{
							"internalType": "uint256",
							"name": "amount",
							"type": "uint256"
						}
					],
					"name": "withdrawFund",
					"outputs": [
						{
							"internalType": "bool",
							"name": "",
							"type": "bool"
						}
					],
					"stateMutability": "nonpayable",
					"type": "function"
				}
			],
			"devdoc": {
				"kind": "dev",
				"methods": {},
				"version": 1
			},
			"evm": {
				"assembly": "    /* \"contracts/Escrow.sol\":247:6889  contract Escrow is ReentrancyGuard {... */\n  mstore(0x40, 0x80)\n    /* \"contracts/Escrow.sol\":434:435  0 */\n  0x00\n    /* \"contracts/Escrow.sol\":406:435  uint256 public totalItems = 0 */\n  0x05\n  sstore\n    /* \"contracts/Escrow.sol\":474:475  0 */\n  0x00\n    /* \"contracts/Escrow.sol\":442:475  uint256 public totalConfirmed = 0 */\n  0x06\n  sstore\n    /* \"contracts/Escrow.sol\":513:514  0 */\n  0x00\n    /* \"contracts/Escrow.sol\":482:514  uint256 public totalDisputed = 0 */\n  0x07\n  sstore\n    /* \"contracts/Escrow.sol\":1398:1539  constructor(uint256 _escFee) {... */\n  callvalue\n  dup1\n  iszero\n  tag_1\n  jumpi\n  0x00\n  dup1\n  revert\ntag_1:\n  pop\n  mload(0x40)\n  sub(codesize, bytecodeSize)\n  dup1\n  bytecodeSize\n  dup4\n  codecopy\n  dup2\n  dup2\n  add\n  0x40\n  mstore\n  dup2\n  add\n  swap1\n  tag_2\n  swap2\n  swap1\n  tag_3\n  jump\t// in\ntag_2:\n    /* \"@openzeppelin/contracts/security/ReentrancyGuard.sol\":1716:1717  1 */\n  0x01\n    /* \"@openzeppelin/contracts/security/ReentrancyGuard.sol\":1821:1828  _status */\n  0x00\n    /* \"@openzeppelin/contracts/security/ReentrancyGuard.sol\":1821:1843  _status = _NOT_ENTERED */\n  dup2\n  swap1\n  sstore\n  pop\n    /* \"contracts/Escrow.sol\":1447:1457  msg.sender */\n  caller\n    /* \"contracts/Escrow.sol\":1438:1444  escAcc */\n  0x01\n  0x00\n    /* \"contracts/Escrow.sol\":1438:1457  escAcc = msg.sender */\n  0x0100\n  exp\n  dup2\n  sload\n  dup2\n  0xffffffffffffffffffffffffffffffffffffffff\n  mul\n  not\n  and\n  swap1\n  dup4\n  0xffffffffffffffffffffffffffffffffffffffff\n  and\n  mul\n  or\n  swap1\n  sstore\n  pop\n    /* \"contracts/Escrow.sol\":1477:1478  0 */\n  0x00\n    /* \"contracts/Escrow.sol\":1468:1474  escBal */\n  0x02\n    /* \"contracts/Escrow.sol\":1468:1478  escBal = 0 */\n  dup2\n  swap1\n  sstore\n  pop\n    /* \"contracts/Escrow.sol\":1503:1504  0 */\n  0x00\n    /* \"contracts/Escrow.sol\":1489:1500  escAvailBal */\n  0x03\n    /* \"contracts/Escrow.sol\":1489:1504  escAvailBal = 0 */\n  dup2\n  swap1\n  sstore\n  pop\n    /* \"contracts/Escrow.sol\":1524:1531  _escFee */\n  dup1\n    /* \"contracts/Escrow.sol\":1515:1521  escFee */\n  0x04\n    /* \"contracts/Escrow.sol\":1515:1531  escFee = _escFee */\n  dup2\n  swap1\n  sstore\n  pop\n    /* \"contracts/Escrow.sol\":1398:1539  constructor(uint256 _escFee) {... */\n  pop\n    /* \"contracts/Escrow.sol\":247:6889  contract Escrow is ReentrancyGuard {... */\n  jump(tag_8)\n    /* \"#utility.yul\":88:205   */\ntag_10:\n    /* \"#utility.yul\":197:198   */\n  0x00\n    /* \"#utility.yul\":194:195   */\n  dup1\n    /* \"#utility.yul\":187:199   */\n  revert\n    /* \"#utility.yul\":334:411   */\ntag_12:\n    /* \"#utility.yul\":371:378   */\n  0x00\n    /* \"#utility.yul\":400:405   */\n  dup2\n    /* \"#utility.yul\":389:405   */\n  swap1\n  pop\n    /* \"#utility.yul\":334:411   */\n  swap2\n  swap1\n  pop\n  jump\t// out\n    /* \"#utility.yul\":417:539   */\ntag_13:\n    /* \"#utility.yul\":490:514   */\n  tag_21\n    /* \"#utility.yul\":508:513   */\n  dup2\n    /* \"#utility.yul\":490:514   */\n  tag_12\n  jump\t// in\ntag_21:\n    /* \"#utility.yul\":483:488   */\n  dup2\n    /* \"#utility.yul\":480:515   */\n  eq\n    /* \"#utility.yul\":470:533   */\n  tag_22\n  jumpi\n    /* \"#utility.yul\":529:530   */\n  0x00\n    /* \"#utility.yul\":526:527   */\n  dup1\n    /* \"#utility.yul\":519:531   */\n  revert\n    /* \"#utility.yul\":470:533   */\ntag_22:\n    /* \"#utility.yul\":417:539   */\n  pop\n  jump\t// out\n    /* \"#utility.yul\":545:688   */\ntag_14:\n    /* \"#utility.yul\":602:607   */\n  0x00\n    /* \"#utility.yul\":633:639   */\n  dup2\n    /* \"#utility.yul\":627:640   */\n  mload\n    /* \"#utility.yul\":618:640   */\n  swap1\n  pop\n    /* \"#utility.yul\":649:682   */\n  tag_24\n    /* \"#utility.yul\":676:681   */\n  dup2\n    /* \"#utility.yul\":649:682   */\n  tag_13\n  jump\t// in\ntag_24:\n    /* \"#utility.yul\":545:688   */\n  swap3\n  swap2\n  pop\n  pop\n  jump\t// out\n    /* \"#utility.yul\":694:1045   */\ntag_3:\n    /* \"#utility.yul\":764:770   */\n  0x00\n    /* \"#utility.yul\":813:815   */\n  0x20\n    /* \"#utility.yul\":801:810   */\n  dup3\n    /* \"#utility.yul\":792:799   */\n  dup5\n    /* \"#utility.yul\":788:811   */\n  sub\n    /* \"#utility.yul\":784:816   */\n  slt\n    /* \"#utility.yul\":781:900   */\n  iszero\n  tag_26\n  jumpi\n    /* \"#utility.yul\":819:898   */\n  tag_27\n  tag_10\n  jump\t// in\ntag_27:\n    /* \"#utility.yul\":781:900   */\ntag_26:\n    /* \"#utility.yul\":939:940   */\n  0x00\n    /* \"#utility.yul\":964:1028   */\n  tag_28\n    /* \"#utility.yul\":1020:1027   */\n  dup5\n    /* \"#utility.yul\":1011:1017   */\n  dup3\n    /* \"#utility.yul\":1000:1009   */\n  dup6\n    /* \"#utility.yul\":996:1018   */\n  add\n    /* \"#utility.yul\":964:1028   */\n  tag_14\n  jump\t// in\ntag_28:\n    /* \"#utility.yul\":954:1028   */\n  swap2\n  pop\n    /* \"#utility.yul\":910:1038   */\n  pop\n    /* \"#utility.yul\":694:1045   */\n  swap3\n  swap2\n  pop\n  pop\n  jump\t// out\n    /* \"contracts/Escrow.sol\":247:6889  contract Escrow is ReentrancyGuard {... */\ntag_8:\n  dataSize(sub_0)\n  dup1\n  dataOffset(sub_0)\n  0x00\n  codecopy\n  0x00\n  return\nstop\n\nsub_0: assembly {\n        /* \"contracts/Escrow.sol\":247:6889  contract Escrow is ReentrancyGuard {... */\n      mstore(0x40, 0x80)\n      jumpi(tag_1, lt(calldatasize, 0x04))\n      shr(0xe0, calldataload(0x00))\n      dup1\n      0x50f18cb7\n      gt\n      tag_22\n      jumpi\n      dup1\n      0xbc045df8\n      gt\n      tag_23\n      jumpi\n      dup1\n      0xbc045df8\n      eq\n      tag_17\n      jumpi\n      dup1\n      0xc86d9da2\n      eq\n      tag_18\n      jumpi\n      dup1\n      0xc9958c4d\n      eq\n      tag_19\n      jumpi\n      dup1\n      0xd62a4887\n      eq\n      tag_20\n      jumpi\n      dup1\n      0xf7c8d221\n      eq\n      tag_21\n      jumpi\n      jump(tag_1)\n    tag_23:\n      dup1\n      0x50f18cb7\n      eq\n      tag_12\n      jumpi\n      dup1\n      0x618f0ea7\n      eq\n      tag_13\n      jumpi\n      dup1\n      0x6352211e\n      eq\n      tag_14\n      jumpi\n      dup1\n      0x6754cc28\n      eq\n      tag_15\n      jumpi\n      dup1\n      0x7216f123\n      eq\n      tag_16\n      jumpi\n      jump(tag_1)\n    tag_22:\n      dup1\n      0x3a178d99\n      gt\n      tag_24\n      jumpi\n      dup1\n      0x3a178d99\n      eq\n      tag_7\n      jumpi\n      dup1\n      0x3d54eebb\n      eq\n      tag_8\n      jumpi\n      dup1\n      0x4028a0f1\n      eq\n      tag_9\n      jumpi\n      dup1\n      0x410d59cc\n      eq\n      tag_10\n      jumpi\n      dup1\n      0x4e47368b\n      eq\n      tag_11\n      jumpi\n      jump(tag_1)\n    tag_24:\n      dup1\n      0x04ef0781\n      eq\n      tag_2\n      jumpi\n      dup1\n      0x10dd7a4c\n      eq\n      tag_3\n      jumpi\n      dup1\n      0x18059aad\n      eq\n      tag_4\n      jumpi\n      dup1\n      0x2799276d\n      eq\n      tag_5\n      jumpi\n      dup1\n      0x3129e773\n      eq\n      tag_6\n      jumpi\n    tag_1:\n      0x00\n      dup1\n      revert\n        /* \"contracts/Escrow.sol\":4622:5591  function confirmDelivery(... */\n    tag_2:\n      callvalue\n      dup1\n      iszero\n      tag_25\n      jumpi\n      0x00\n      dup1\n      revert\n    tag_25:\n      pop\n      tag_26\n      0x04\n      dup1\n      calldatasize\n      sub\n      dup2\n      add\n      swap1\n      tag_27\n      swap2\n      swap1\n      tag_28\n      jump\t// in\n    tag_27:\n      tag_29\n      jump\t// in\n    tag_26:\n      mload(0x40)\n      tag_30\n      swap2\n      swap1\n      tag_31\n      jump\t// in\n    tag_30:\n      mload(0x40)\n      dup1\n      swap2\n      sub\n      swap1\n      return\n        /* \"contracts/Escrow.sol\":2827:2962  function myItems()... */\n    tag_3:\n      callvalue\n      dup1\n      iszero\n      tag_32\n      jumpi\n      0x00\n      dup1\n      revert\n    tag_32:\n      pop\n      tag_33\n      tag_34\n      jump\t// in\n    tag_33:\n      mload(0x40)\n      tag_35\n      swap2\n      swap1\n      tag_36\n      jump\t// in\n    tag_35:\n      mload(0x40)\n      dup1\n      swap2\n      sub\n      swap1\n      return\n        /* \"contracts/Escrow.sol\":5599:6140  function refundItem(uint256 itemId) external returns (bool) {... */\n    tag_4:\n      callvalue\n      dup1\n      iszero\n      tag_37\n      jumpi\n      0x00\n      dup1\n      revert\n    tag_37:\n      pop\n      tag_38\n      0x04\n      dup1\n      calldatasize\n      sub\n      dup2\n      add\n      swap1\n      tag_39\n      swap2\n      swap1\n      tag_40\n      jump\t// in\n    tag_39:\n      tag_41\n      jump\t// in\n    tag_38:\n      mload(0x40)\n      tag_42\n      swap2\n      swap1\n      tag_31\n      jump\t// in\n    tag_42:\n      mload(0x40)\n      dup1\n      swap2\n      sub\n      swap1\n      return\n        /* \"contracts/Escrow.sol\":406:435  uint256 public totalItems = 0 */\n    tag_5:\n      callvalue\n      dup1\n      iszero\n      tag_43\n      jumpi\n      0x00\n      dup1\n      revert\n    tag_43:\n      pop\n      tag_44\n      tag_45\n      jump\t// in\n    tag_44:\n      mload(0x40)\n      tag_46\n      swap2\n      swap1\n      tag_47\n      jump\t// in\n    tag_46:\n      mload(0x40)\n      dup1\n      swap2\n      sub\n      swap1\n      return\n        /* \"contracts/Escrow.sol\":2678:2819  function getItem(uint256 itemId)... */\n    tag_6:\n      callvalue\n      dup1\n      iszero\n      tag_48\n      jumpi\n      0x00\n      dup1\n      revert\n    tag_48:\n      pop\n      tag_49\n      0x04\n      dup1\n      calldatasize\n      sub\n      dup2\n      add\n      swap1\n      tag_50\n      swap2\n      swap1\n      tag_40\n      jump\t// in\n    tag_50:\n      tag_51\n      jump\t// in\n    tag_49:\n      mload(0x40)\n      tag_52\n      swap2\n      swap1\n      tag_53\n      jump\t// in\n    tag_52:\n      mload(0x40)\n      dup1\n      swap2\n      sub\n      swap1\n      return\n        /* \"contracts/Escrow.sol\":746:794  mapping(uint256 => Available) public isAvailable */\n    tag_7:\n      callvalue\n      dup1\n      iszero\n      tag_54\n      jumpi\n      0x00\n      dup1\n      revert\n    tag_54:\n      pop\n      tag_55\n      0x04\n      dup1\n      calldatasize\n      sub\n      dup2\n      add\n      swap1\n      tag_56\n      swap2\n      swap1\n      tag_40\n      jump\t// in\n    tag_56:\n      tag_57\n      jump\t// in\n    tag_55:\n      mload(0x40)\n      tag_58\n      swap2\n      swap1\n      tag_59\n      jump\t// in\n    tag_58:\n      mload(0x40)\n      dup1\n      swap2\n      sub\n      swap1\n      return\n        /* \"contracts/Escrow.sol\":1547:2411  function createItem(... */\n    tag_8:\n      tag_60\n      0x04\n      dup1\n      calldatasize\n      sub\n      dup2\n      add\n      swap1\n      tag_61\n      swap2\n      swap1\n      tag_62\n      jump\t// in\n    tag_61:\n      tag_63\n      jump\t// in\n    tag_60:\n      mload(0x40)\n      tag_64\n      swap2\n      swap1\n      tag_31\n      jump\t// in\n    tag_64:\n      mload(0x40)\n      dup1\n      swap2\n      sub\n      swap1\n      return\n        /* \"contracts/Escrow.sol\":442:475  uint256 public totalConfirmed = 0 */\n    tag_9:\n      callvalue\n      dup1\n      iszero\n      tag_65\n      jumpi\n      0x00\n      dup1\n      revert\n    tag_65:\n      pop\n      tag_66\n      tag_67\n      jump\t// in\n    tag_66:\n      mload(0x40)\n      tag_68\n      swap2\n      swap1\n      tag_47\n      jump\t// in\n    tag_68:\n      mload(0x40)\n      dup1\n      swap2\n      sub\n      swap1\n      return\n        /* \"contracts/Escrow.sol\":2419:2670  function getItems()... */\n    tag_10:\n      callvalue\n      dup1\n      iszero\n      tag_69\n      jumpi\n      0x00\n      dup1\n      revert\n    tag_69:\n      pop\n      tag_70\n      tag_71\n      jump\t// in\n    tag_70:\n      mload(0x40)\n      tag_72\n      swap2\n      swap1\n      tag_36\n      jump\t// in\n    tag_72:\n      mload(0x40)\n      dup1\n      swap2\n      sub\n      swap1\n      return\n        /* \"contracts/Escrow.sol\":378:399  uint256 public escFee */\n    tag_11:\n      callvalue\n      dup1\n      iszero\n      tag_73\n      jumpi\n      0x00\n      dup1\n      revert\n    tag_73:\n      pop\n      tag_74\n      tag_75\n      jump\t// in\n    tag_74:\n      mload(0x40)\n      tag_76\n      swap2\n      swap1\n      tag_47\n      jump\t// in\n    tag_76:\n      mload(0x40)\n      dup1\n      swap2\n      sub\n      swap1\n      return\n        /* \"contracts/Escrow.sol\":345:371  uint256 public escAvailBal */\n    tag_12:\n      callvalue\n      dup1\n      iszero\n      tag_77\n      jumpi\n      0x00\n      dup1\n      revert\n    tag_77:\n      pop\n      tag_78\n      tag_79\n      jump\t// in\n    tag_78:\n      mload(0x40)\n      tag_80\n      swap2\n      swap1\n      tag_47\n      jump\t// in\n    tag_80:\n      mload(0x40)\n      dup1\n      swap2\n      sub\n      swap1\n      return\n        /* \"contracts/Escrow.sol\":289:310  address public escAcc */\n    tag_13:\n      callvalue\n      dup1\n      iszero\n      tag_81\n      jumpi\n      0x00\n      dup1\n      revert\n    tag_81:\n      pop\n      tag_82\n      tag_83\n      jump\t// in\n    tag_82:\n      mload(0x40)\n      tag_84\n      swap2\n      swap1\n      tag_85\n      jump\t// in\n    tag_84:\n      mload(0x40)\n      dup1\n      swap2\n      sub\n      swap1\n      return\n        /* \"contracts/Escrow.sol\":697:739  mapping(uint256 => address) public ownerOf */\n    tag_14:\n      callvalue\n      dup1\n      iszero\n      tag_86\n      jumpi\n      0x00\n      dup1\n      revert\n    tag_86:\n      pop\n      tag_87\n      0x04\n      dup1\n      calldatasize\n      sub\n      dup2\n      add\n      swap1\n      tag_88\n      swap2\n      swap1\n      tag_40\n      jump\t// in\n    tag_88:\n      tag_89\n      jump\t// in\n    tag_87:\n      mload(0x40)\n      tag_90\n      swap2\n      swap1\n      tag_85\n      jump\t// in\n    tag_90:\n      mload(0x40)\n      dup1\n      swap2\n      sub\n      swap1\n      return\n        /* \"contracts/Escrow.sol\":629:690  mapping(address => mapping(uint256 => bool)) public requested */\n    tag_15:\n      callvalue\n      dup1\n      iszero\n      tag_91\n      jumpi\n      0x00\n      dup1\n      revert\n    tag_91:\n      pop\n      tag_92\n      0x04\n      dup1\n      calldatasize\n      sub\n      dup2\n      add\n      swap1\n      tag_93\n      swap2\n      swap1\n      tag_94\n      jump\t// in\n    tag_93:\n      tag_95\n      jump\t// in\n    tag_92:\n      mload(0x40)\n      tag_96\n      swap2\n      swap1\n      tag_31\n      jump\t// in\n    tag_96:\n      mload(0x40)\n      dup1\n      swap2\n      sub\n      swap1\n      return\n        /* \"contracts/Escrow.sol\":4049:4614  function performDelievery(uint256 itemId) external returns (bool) {... */\n    tag_16:\n      callvalue\n      dup1\n      iszero\n      tag_97\n      jumpi\n      0x00\n      dup1\n      revert\n    tag_97:\n      pop\n      tag_98\n      0x04\n      dup1\n      calldatasize\n      sub\n      dup2\n      add\n      swap1\n      tag_99\n      swap2\n      swap1\n      tag_40\n      jump\t// in\n    tag_99:\n      tag_100\n      jump\t// in\n    tag_98:\n      mload(0x40)\n      tag_101\n      swap2\n      swap1\n      tag_31\n      jump\t// in\n    tag_101:\n      mload(0x40)\n      dup1\n      swap2\n      sub\n      swap1\n      return\n        /* \"contracts/Escrow.sol\":3402:4041  function approveRequest(... */\n    tag_17:\n      callvalue\n      dup1\n      iszero\n      tag_102\n      jumpi\n      0x00\n      dup1\n      revert\n    tag_102:\n      pop\n      tag_103\n      0x04\n      dup1\n      calldatasize\n      sub\n      dup2\n      add\n      swap1\n      tag_104\n      swap2\n      swap1\n      tag_105\n      jump\t// in\n    tag_104:\n      tag_106\n      jump\t// in\n    tag_103:\n      mload(0x40)\n      tag_107\n      swap2\n      swap1\n      tag_31\n      jump\t// in\n    tag_107:\n      mload(0x40)\n      dup1\n      swap2\n      sub\n      swap1\n      return\n        /* \"contracts/Escrow.sol\":317:338  uint256 public escBal */\n    tag_18:\n      callvalue\n      dup1\n      iszero\n      tag_108\n      jumpi\n      0x00\n      dup1\n      revert\n    tag_108:\n      pop\n      tag_109\n      tag_110\n      jump\t// in\n    tag_109:\n      mload(0x40)\n      tag_111\n      swap2\n      swap1\n      tag_47\n      jump\t// in\n    tag_111:\n      mload(0x40)\n      dup1\n      swap2\n      sub\n      swap1\n      return\n        /* \"contracts/Escrow.sol\":482:514  uint256 public totalDisputed = 0 */\n    tag_19:\n      callvalue\n      dup1\n      iszero\n      tag_112\n      jumpi\n      0x00\n      dup1\n      revert\n    tag_112:\n      pop\n      tag_113\n      tag_114\n      jump\t// in\n    tag_113:\n      mload(0x40)\n      tag_115\n      swap2\n      swap1\n      tag_47\n      jump\t// in\n    tag_115:\n      mload(0x40)\n      dup1\n      swap2\n      sub\n      swap1\n      return\n        /* \"contracts/Escrow.sol\":2970:3394  function requestItem(uint256 itemId) external returns (bool) {... */\n    tag_20:\n      callvalue\n      dup1\n      iszero\n      tag_116\n      jumpi\n      0x00\n      dup1\n      revert\n    tag_116:\n      pop\n      tag_117\n      0x04\n      dup1\n      calldatasize\n      sub\n      dup2\n      add\n      swap1\n      tag_118\n      swap2\n      swap1\n      tag_40\n      jump\t// in\n    tag_118:\n      tag_119\n      jump\t// in\n    tag_117:\n      mload(0x40)\n      tag_120\n      swap2\n      swap1\n      tag_31\n      jump\t// in\n    tag_120:\n      mload(0x40)\n      dup1\n      swap2\n      sub\n      swap1\n      return\n        /* \"contracts/Escrow.sol\":6148:6646  function withdrawFund(... */\n    tag_21:\n      callvalue\n      dup1\n      iszero\n      tag_121\n      jumpi\n      0x00\n      dup1\n      revert\n    tag_121:\n      pop\n      tag_122\n      0x04\n      dup1\n      calldatasize\n      sub\n      dup2\n      add\n      swap1\n      tag_123\n      swap2\n      swap1\n      tag_94\n      jump\t// in\n    tag_123:\n      tag_124\n      jump\t// in\n    tag_122:\n      mload(0x40)\n      tag_125\n      swap2\n      swap1\n      tag_31\n      jump\t// in\n    tag_125:\n      mload(0x40)\n      dup1\n      swap2\n      sub\n      swap1\n      return\n        /* \"contracts/Escrow.sol\":4622:5591  function confirmDelivery(... */\n    tag_29:\n        /* \"contracts/Escrow.sol\":4721:4725  bool */\n      0x00\n        /* \"contracts/Escrow.sol\":4760:4767  ownerOf */\n      0x0b\n        /* \"contracts/Escrow.sol\":4760:4775  ownerOf[itemId] */\n      0x00\n        /* \"contracts/Escrow.sol\":4768:4774  itemId */\n      dup5\n        /* \"contracts/Escrow.sol\":4760:4775  ownerOf[itemId] */\n      dup2\n      mstore\n      0x20\n      add\n      swap1\n      dup2\n      mstore\n      0x20\n      add\n      0x00\n      keccak256\n      0x00\n      swap1\n      sload\n      swap1\n      0x0100\n      exp\n      swap1\n      div\n      0xffffffffffffffffffffffffffffffffffffffff\n      and\n        /* \"contracts/Escrow.sol\":4746:4775  msg.sender == ownerOf[itemId] */\n      0xffffffffffffffffffffffffffffffffffffffff\n      and\n        /* \"contracts/Escrow.sol\":4746:4756  msg.sender */\n      caller\n        /* \"contracts/Escrow.sol\":4746:4775  msg.sender == ownerOf[itemId] */\n      0xffffffffffffffffffffffffffffffffffffffff\n      and\n      eq\n        /* \"contracts/Escrow.sol\":4738:4798  require(msg.sender == ownerOf[itemId], \"Only owner allowed\") */\n      tag_127\n      jumpi\n      mload(0x40)\n      0x08c379a000000000000000000000000000000000000000000000000000000000\n      dup2\n      mstore\n      0x04\n      add\n      tag_128\n      swap1\n      tag_129\n      jump\t// in\n    tag_128:\n      mload(0x40)\n      dup1\n      swap2\n      sub\n      swap1\n      revert\n    tag_127:\n        /* \"contracts/Escrow.sol\":4817:4822  items */\n      0x08\n        /* \"contracts/Escrow.sol\":4817:4830  items[itemId] */\n      0x00\n        /* \"contracts/Escrow.sol\":4823:4829  itemId */\n      dup5\n        /* \"contracts/Escrow.sol\":4817:4830  items[itemId] */\n      dup2\n      mstore\n      0x20\n      add\n      swap1\n      dup2\n      mstore\n      0x20\n      add\n      0x00\n      keccak256\n        /* \"contracts/Escrow.sol\":4817:4839  items[itemId].provided */\n      0x05\n      add\n      0x15\n      swap1\n      sload\n      swap1\n      0x0100\n      exp\n      swap1\n      div\n      0xff\n      and\n        /* \"contracts/Escrow.sol\":4809:4864  require(items[itemId].provided, \"Service not provided\") */\n      tag_130\n      jumpi\n      mload(0x40)\n      0x08c379a000000000000000000000000000000000000000000000000000000000\n      dup2\n      mstore\n      0x04\n      add\n      tag_131\n      swap1\n      tag_132\n      jump\t// in\n    tag_131:\n      mload(0x40)\n      dup1\n      swap2\n      sub\n      swap1\n      revert\n    tag_130:\n        /* \"contracts/Escrow.sol\":4907:4922  Status.REFUNDED */\n      0x05\n        /* \"contracts/Escrow.sol\":4883:4922  items[itemId].status != Status.REFUNDED */\n      0x06\n      dup2\n      gt\n      iszero\n      tag_133\n      jumpi\n      tag_134\n      tag_135\n      jump\t// in\n    tag_134:\n    tag_133:\n        /* \"contracts/Escrow.sol\":4883:4888  items */\n      0x08\n        /* \"contracts/Escrow.sol\":4883:4896  items[itemId] */\n      0x00\n        /* \"contracts/Escrow.sol\":4889:4895  itemId */\n      dup6\n        /* \"contracts/Escrow.sol\":4883:4896  items[itemId] */\n      dup2\n      mstore\n      0x20\n      add\n      swap1\n      dup2\n      mstore\n      0x20\n      add\n      0x00\n      keccak256\n        /* \"contracts/Escrow.sol\":4883:4903  items[itemId].status */\n      0x05\n      add\n      0x14\n      swap1\n      sload\n      swap1\n      0x0100\n      exp\n      swap1\n      div\n      0xff\n      and\n        /* \"contracts/Escrow.sol\":4883:4922  items[itemId].status != Status.REFUNDED */\n      0x06\n      dup2\n      gt\n      iszero\n      tag_136\n      jumpi\n      tag_137\n      tag_135\n      jump\t// in\n    tag_137:\n    tag_136:\n      sub\n        /* \"contracts/Escrow.sol\":4875:4962  require(items[itemId].status != Status.REFUNDED, \"Already refunded, create a new Item\") */\n      tag_138\n      jumpi\n      mload(0x40)\n      0x08c379a000000000000000000000000000000000000000000000000000000000\n      dup2\n      mstore\n      0x04\n      add\n      tag_139\n      swap1\n      tag_140\n      jump\t// in\n    tag_139:\n      mload(0x40)\n      dup1\n      swap2\n      sub\n      swap1\n      revert\n    tag_138:\n        /* \"contracts/Escrow.sol\":4978:4986  provided */\n      dup2\n        /* \"contracts/Escrow.sol\":4975:5421  if(provided) {... */\n      iszero\n      tag_141\n      jumpi\n        /* \"contracts/Escrow.sol\":5003:5014  uint256 fee */\n      0x00\n        /* \"contracts/Escrow.sol\":5051:5054  100 */\n      0x64\n        /* \"contracts/Escrow.sol\":5041:5047  escFee */\n      sload(0x04)\n        /* \"contracts/Escrow.sol\":5018:5023  items */\n      0x08\n        /* \"contracts/Escrow.sol\":5018:5031  items[itemId] */\n      0x00\n        /* \"contracts/Escrow.sol\":5024:5030  itemId */\n      dup8\n        /* \"contracts/Escrow.sol\":5018:5031  items[itemId] */\n      dup2\n      mstore\n      0x20\n      add\n      swap1\n      dup2\n      mstore\n      0x20\n      add\n      0x00\n      keccak256\n        /* \"contracts/Escrow.sol\":5018:5038  items[itemId].amount */\n      0x02\n      add\n      sload\n        /* \"contracts/Escrow.sol\":5018:5047  items[itemId].amount * escFee */\n      tag_142\n      swap2\n      swap1\n      tag_143\n      jump\t// in\n    tag_142:\n        /* \"contracts/Escrow.sol\":5017:5054  (items[itemId].amount * escFee) / 100 */\n      tag_144\n      swap2\n      swap1\n      tag_145\n      jump\t// in\n    tag_144:\n        /* \"contracts/Escrow.sol\":5003:5054  uint256 fee = (items[itemId].amount * escFee) / 100 */\n      swap1\n      pop\n        /* \"contracts/Escrow.sol\":5069:5128  payTo(items[itemId].provider, (items[itemId].amount - fee)) */\n      tag_146\n        /* \"contracts/Escrow.sol\":5075:5080  items */\n      0x08\n        /* \"contracts/Escrow.sol\":5075:5088  items[itemId] */\n      0x00\n        /* \"contracts/Escrow.sol\":5081:5087  itemId */\n      dup7\n        /* \"contracts/Escrow.sol\":5075:5088  items[itemId] */\n      dup2\n      mstore\n      0x20\n      add\n      swap1\n      dup2\n      mstore\n      0x20\n      add\n      0x00\n      keccak256\n        /* \"contracts/Escrow.sol\":5075:5097  items[itemId].provider */\n      0x05\n      add\n      0x00\n      swap1\n      sload\n      swap1\n      0x0100\n      exp\n      swap1\n      div\n      0xffffffffffffffffffffffffffffffffffffffff\n      and\n        /* \"contracts/Escrow.sol\":5123:5126  fee */\n      dup3\n        /* \"contracts/Escrow.sol\":5100:5105  items */\n      0x08\n        /* \"contracts/Escrow.sol\":5100:5113  items[itemId] */\n      0x00\n        /* \"contracts/Escrow.sol\":5106:5112  itemId */\n      dup9\n        /* \"contracts/Escrow.sol\":5100:5113  items[itemId] */\n      dup2\n      mstore\n      0x20\n      add\n      swap1\n      dup2\n      mstore\n      0x20\n      add\n      0x00\n      keccak256\n        /* \"contracts/Escrow.sol\":5100:5120  items[itemId].amount */\n      0x02\n      add\n      sload\n        /* \"contracts/Escrow.sol\":5100:5126  items[itemId].amount - fee */\n      tag_147\n      swap2\n      swap1\n      tag_148\n      jump\t// in\n    tag_147:\n        /* \"contracts/Escrow.sol\":5069:5074  payTo */\n      tag_149\n        /* \"contracts/Escrow.sol\":5069:5128  payTo(items[itemId].provider, (items[itemId].amount - fee)) */\n      jump\t// in\n    tag_146:\n      pop\n        /* \"contracts/Escrow.sol\":5153:5158  items */\n      0x08\n        /* \"contracts/Escrow.sol\":5153:5166  items[itemId] */\n      0x00\n        /* \"contracts/Escrow.sol\":5159:5165  itemId */\n      dup6\n        /* \"contracts/Escrow.sol\":5153:5166  items[itemId] */\n      dup2\n      mstore\n      0x20\n      add\n      swap1\n      dup2\n      mstore\n      0x20\n      add\n      0x00\n      keccak256\n        /* \"contracts/Escrow.sol\":5153:5173  items[itemId].amount */\n      0x02\n      add\n      sload\n        /* \"contracts/Escrow.sol\":5143:5149  escBal */\n      0x02\n      0x00\n        /* \"contracts/Escrow.sol\":5143:5173  escBal -= items[itemId].amount */\n      dup3\n      dup3\n      sload\n      tag_150\n      swap2\n      swap1\n      tag_148\n      jump\t// in\n    tag_150:\n      swap3\n      pop\n      pop\n      dup2\n      swap1\n      sstore\n      pop\n        /* \"contracts/Escrow.sol\":5203:5206  fee */\n      dup1\n        /* \"contracts/Escrow.sol\":5188:5199  escAvailBal */\n      0x03\n      0x00\n        /* \"contracts/Escrow.sol\":5188:5206  escAvailBal += fee */\n      dup3\n      dup3\n      sload\n      tag_151\n      swap2\n      swap1\n      tag_152\n      jump\t// in\n    tag_151:\n      swap3\n      pop\n      pop\n      dup2\n      swap1\n      sstore\n      pop\n        /* \"contracts/Escrow.sol\":5249:5253  true */\n      0x01\n        /* \"contracts/Escrow.sol\":5223:5228  items */\n      0x08\n        /* \"contracts/Escrow.sol\":5223:5236  items[itemId] */\n      0x00\n        /* \"contracts/Escrow.sol\":5229:5235  itemId */\n      dup7\n        /* \"contracts/Escrow.sol\":5223:5236  items[itemId] */\n      dup2\n      mstore\n      0x20\n      add\n      swap1\n      dup2\n      mstore\n      0x20\n      add\n      0x00\n      keccak256\n        /* \"contracts/Escrow.sol\":5223:5246  items[itemId].confirmed */\n      0x05\n      add\n      0x16\n        /* \"contracts/Escrow.sol\":5223:5253  items[itemId].confirmed = true */\n      0x0100\n      exp\n      dup2\n      sload\n      dup2\n      0xff\n      mul\n      not\n      and\n      swap1\n      dup4\n      iszero\n      iszero\n      mul\n      or\n      swap1\n      sstore\n      pop\n        /* \"contracts/Escrow.sol\":5291:5307  Status.CONFIRMED */\n      0x03\n        /* \"contracts/Escrow.sol\":5268:5273  items */\n      0x08\n        /* \"contracts/Escrow.sol\":5268:5281  items[itemId] */\n      0x00\n        /* \"contracts/Escrow.sol\":5274:5280  itemId */\n      dup7\n        /* \"contracts/Escrow.sol\":5268:5281  items[itemId] */\n      dup2\n      mstore\n      0x20\n      add\n      swap1\n      dup2\n      mstore\n      0x20\n      add\n      0x00\n      keccak256\n        /* \"contracts/Escrow.sol\":5268:5288  items[itemId].status */\n      0x05\n      add\n      0x14\n        /* \"contracts/Escrow.sol\":5268:5307  items[itemId].status = Status.CONFIRMED */\n      0x0100\n      exp\n      dup2\n      sload\n      dup2\n      0xff\n      mul\n      not\n      and\n      swap1\n      dup4\n      0x06\n      dup2\n      gt\n      iszero\n      tag_153\n      jumpi\n      tag_154\n      tag_135\n      jump\t// in\n    tag_154:\n    tag_153:\n      mul\n      or\n      swap1\n      sstore\n      pop\n        /* \"contracts/Escrow.sol\":5322:5336  totalConfirmed */\n      0x06\n      0x00\n        /* \"contracts/Escrow.sol\":5322:5338  totalConfirmed++ */\n      dup2\n      sload\n      dup1\n      swap3\n      swap2\n      swap1\n      tag_155\n      swap1\n      tag_156\n      jump\t// in\n    tag_155:\n      swap2\n      swap1\n      pop\n      sstore\n      pop\n        /* \"contracts/Escrow.sol\":4988:5350  {... */\n      pop\n        /* \"contracts/Escrow.sol\":4975:5421  if(provided) {... */\n      jump(tag_157)\n    tag_141:\n        /* \"contracts/Escrow.sol\":5392:5408  Status.DISPUTTED */\n      0x04\n        /* \"contracts/Escrow.sol\":5369:5374  items */\n      0x08\n        /* \"contracts/Escrow.sol\":5369:5382  items[itemId] */\n      0x00\n        /* \"contracts/Escrow.sol\":5375:5381  itemId */\n      dup6\n        /* \"contracts/Escrow.sol\":5369:5382  items[itemId] */\n      dup2\n      mstore\n      0x20\n      add\n      swap1\n      dup2\n      mstore\n      0x20\n      add\n      0x00\n      keccak256\n        /* \"contracts/Escrow.sol\":5369:5389  items[itemId].status */\n      0x05\n      add\n      0x14\n        /* \"contracts/Escrow.sol\":5369:5408  items[itemId].status = Status.DISPUTTED */\n      0x0100\n      exp\n      dup2\n      sload\n      dup2\n      0xff\n      mul\n      not\n      and\n      swap1\n      dup4\n      0x06\n      dup2\n      gt\n      iszero\n      tag_158\n      jumpi\n      tag_159\n      tag_135\n      jump\t// in\n    tag_159:\n    tag_158:\n      mul\n      or\n      swap1\n      sstore\n      pop\n        /* \"contracts/Escrow.sol\":4975:5421  if(provided) {... */\n    tag_157:\n        /* \"contracts/Escrow.sol\":5538:5548  msg.sender */\n      caller\n        /* \"contracts/Escrow.sol\":5438:5559  Action (... */\n      0xffffffffffffffffffffffffffffffffffffffff\n      and\n      0x23ad0062ad47da0f27f5c07751751e4b60afc16bf6fe03a24266a01ec4897931\n        /* \"contracts/Escrow.sol\":5460:5466  itemId */\n      dup5\n        /* \"contracts/Escrow.sol\":5507:5523  Status.DISPUTTED */\n      0x04\n        /* \"contracts/Escrow.sol\":5438:5559  Action (... */\n      mload(0x40)\n      tag_160\n      swap3\n      swap2\n      swap1\n      tag_161\n      jump\t// in\n    tag_160:\n      mload(0x40)\n      dup1\n      swap2\n      sub\n      swap1\n      log2\n        /* \"contracts/Escrow.sol\":5579:5583  true */\n      0x01\n        /* \"contracts/Escrow.sol\":5572:5583  return true */\n      swap1\n      pop\n        /* \"contracts/Escrow.sol\":4622:5591  function confirmDelivery(... */\n      swap3\n      swap2\n      pop\n      pop\n      jump\t// out\n        /* \"contracts/Escrow.sol\":2827:2962  function myItems()... */\n    tag_34:\n        /* \"contracts/Escrow.sol\":2896:2915  ItemStruct[] memory */\n      0x60\n        /* \"contracts/Escrow.sol\":2935:2942  itemsOf */\n      0x09\n        /* \"contracts/Escrow.sol\":2935:2954  itemsOf[msg.sender] */\n      0x00\n        /* \"contracts/Escrow.sol\":2943:2953  msg.sender */\n      caller\n        /* \"contracts/Escrow.sol\":2935:2954  itemsOf[msg.sender] */\n      0xffffffffffffffffffffffffffffffffffffffff\n      and\n      0xffffffffffffffffffffffffffffffffffffffff\n      and\n      dup2\n      mstore\n      0x20\n      add\n      swap1\n      dup2\n      mstore\n      0x20\n      add\n      0x00\n      keccak256\n        /* \"contracts/Escrow.sol\":2928:2954  return itemsOf[msg.sender] */\n      dup1\n      sload\n      dup1\n      0x20\n      mul\n      0x20\n      add\n      mload(0x40)\n      swap1\n      dup2\n      add\n      0x40\n      mstore\n      dup1\n      swap3\n      swap2\n      swap1\n      dup2\n      dup2\n      mstore\n      0x20\n      add\n      0x00\n      swap1\n    tag_163:\n      dup3\n      dup3\n      lt\n      iszero\n      tag_164\n      jumpi\n      dup4\n      dup3\n      swap1\n      0x00\n      mstore\n      keccak256(0x00, 0x20)\n      swap1\n      0x06\n      mul\n      add\n      mload(0x40)\n      dup1\n      0x0120\n      add\n      0x40\n      mstore\n      swap1\n      dup2\n      0x00\n      dup3\n      add\n      sload\n      dup2\n      mstore\n      0x20\n      add\n      0x01\n      dup3\n      add\n      dup1\n      sload\n      tag_166\n      swap1\n      tag_167\n      jump\t// in\n    tag_166:\n      dup1\n      0x1f\n      add\n      0x20\n      dup1\n      swap2\n      div\n      mul\n      0x20\n      add\n      mload(0x40)\n      swap1\n      dup2\n      add\n      0x40\n      mstore\n      dup1\n      swap3\n      swap2\n      swap1\n      dup2\n      dup2\n      mstore\n      0x20\n      add\n      dup3\n      dup1\n      sload\n      tag_168\n      swap1\n      tag_167\n      jump\t// in\n    tag_168:\n      dup1\n      iszero\n      tag_169\n      jumpi\n      dup1\n      0x1f\n      lt\n      tag_170\n      jumpi\n      0x0100\n      dup1\n      dup4\n      sload\n      div\n      mul\n      dup4\n      mstore\n      swap2\n      0x20\n      add\n      swap2\n      jump(tag_169)\n    tag_170:\n      dup3\n      add\n      swap2\n      swap1\n      0x00\n      mstore\n      keccak256(0x00, 0x20)\n      swap1\n    tag_171:\n      dup2\n      sload\n      dup2\n      mstore\n      swap1\n      0x01\n      add\n      swap1\n      0x20\n      add\n      dup1\n      dup4\n      gt\n      tag_171\n      jumpi\n      dup3\n      swap1\n      sub\n      0x1f\n      and\n      dup3\n      add\n      swap2\n    tag_169:\n      pop\n      pop\n      pop\n      pop\n      pop\n      dup2\n      mstore\n      0x20\n      add\n      0x02\n      dup3\n      add\n      sload\n      dup2\n      mstore\n      0x20\n      add\n      0x03\n      dup3\n      add\n      sload\n      dup2\n      mstore\n      0x20\n      add\n      0x04\n      dup3\n      add\n      0x00\n      swap1\n      sload\n      swap1\n      0x0100\n      exp\n      swap1\n      div\n      0xffffffffffffffffffffffffffffffffffffffff\n      and\n      0xffffffffffffffffffffffffffffffffffffffff\n      and\n      0xffffffffffffffffffffffffffffffffffffffff\n      and\n      dup2\n      mstore\n      0x20\n      add\n      0x05\n      dup3\n      add\n      0x00\n      swap1\n      sload\n      swap1\n      0x0100\n      exp\n      swap1\n      div\n      0xffffffffffffffffffffffffffffffffffffffff\n      and\n      0xffffffffffffffffffffffffffffffffffffffff\n      and\n      0xffffffffffffffffffffffffffffffffffffffff\n      and\n      dup2\n      mstore\n      0x20\n      add\n      0x05\n      dup3\n      add\n      0x14\n      swap1\n      sload\n      swap1\n      0x0100\n      exp\n      swap1\n      div\n      0xff\n      and\n      0x06\n      dup2\n      gt\n      iszero\n      tag_172\n      jumpi\n      tag_173\n      tag_135\n      jump\t// in\n    tag_173:\n    tag_172:\n      0x06\n      dup2\n      gt\n      iszero\n      tag_174\n      jumpi\n      tag_175\n      tag_135\n      jump\t// in\n    tag_175:\n    tag_174:\n      dup2\n      mstore\n      0x20\n      add\n      0x05\n      dup3\n      add\n      0x15\n      swap1\n      sload\n      swap1\n      0x0100\n      exp\n      swap1\n      div\n      0xff\n      and\n      iszero\n      iszero\n      iszero\n      iszero\n      dup2\n      mstore\n      0x20\n      add\n      0x05\n      dup3\n      add\n      0x16\n      swap1\n      sload\n      swap1\n      0x0100\n      exp\n      swap1\n      div\n      0xff\n      and\n      iszero\n      iszero\n      iszero\n      iszero\n      dup2\n      mstore\n      pop\n      pop\n      dup2\n      mstore\n      0x20\n      add\n      swap1\n      0x01\n      add\n      swap1\n      jump(tag_163)\n    tag_164:\n      pop\n      pop\n      pop\n      pop\n      swap1\n      pop\n        /* \"contracts/Escrow.sol\":2827:2962  function myItems()... */\n      swap1\n      jump\t// out\n        /* \"contracts/Escrow.sol\":5599:6140  function refundItem(uint256 itemId) external returns (bool) {... */\n    tag_41:\n        /* \"contracts/Escrow.sol\":5653:5657  bool */\n      0x00\n        /* \"contracts/Escrow.sol\":5692:5698  escAcc */\n      0x01\n      0x00\n      swap1\n      sload\n      swap1\n      0x0100\n      exp\n      swap1\n      div\n      0xffffffffffffffffffffffffffffffffffffffff\n      and\n        /* \"contracts/Escrow.sol\":5678:5698  msg.sender == escAcc */\n      0xffffffffffffffffffffffffffffffffffffffff\n      and\n        /* \"contracts/Escrow.sol\":5678:5688  msg.sender */\n      caller\n        /* \"contracts/Escrow.sol\":5678:5698  msg.sender == escAcc */\n      0xffffffffffffffffffffffffffffffffffffffff\n      and\n      eq\n        /* \"contracts/Escrow.sol\":5670:5722  require(msg.sender == escAcc, \"Only Escrow allowed\") */\n      tag_177\n      jumpi\n      mload(0x40)\n      0x08c379a000000000000000000000000000000000000000000000000000000000\n      dup2\n      mstore\n      0x04\n      add\n      tag_178\n      swap1\n      tag_179\n      jump\t// in\n    tag_178:\n      mload(0x40)\n      dup1\n      swap2\n      sub\n      swap1\n      revert\n    tag_177:\n        /* \"contracts/Escrow.sol\":5742:5747  items */\n      0x08\n        /* \"contracts/Escrow.sol\":5742:5755  items[itemId] */\n      0x00\n        /* \"contracts/Escrow.sol\":5748:5754  itemId */\n      dup4\n        /* \"contracts/Escrow.sol\":5742:5755  items[itemId] */\n      dup2\n      mstore\n      0x20\n      add\n      swap1\n      dup2\n      mstore\n      0x20\n      add\n      0x00\n      keccak256\n        /* \"contracts/Escrow.sol\":5742:5765  items[itemId].confirmed */\n      0x05\n      add\n      0x16\n      swap1\n      sload\n      swap1\n      0x0100\n      exp\n      swap1\n      div\n      0xff\n      and\n        /* \"contracts/Escrow.sol\":5741:5765  !items[itemId].confirmed */\n      iszero\n        /* \"contracts/Escrow.sol\":5733:5794  require(!items[itemId].confirmed, \"Service already provided\") */\n      tag_180\n      jumpi\n      mload(0x40)\n      0x08c379a000000000000000000000000000000000000000000000000000000000\n      dup2\n      mstore\n      0x04\n      add\n      tag_181\n      swap1\n      tag_182\n      jump\t// in\n    tag_181:\n      mload(0x40)\n      dup1\n      swap2\n      sub\n      swap1\n      revert\n    tag_180:\n        /* \"contracts/Escrow.sol\":5807:5855  payTo(items[itemId].owner, items[itemId].amount) */\n      tag_183\n        /* \"contracts/Escrow.sol\":5813:5818  items */\n      0x08\n        /* \"contracts/Escrow.sol\":5813:5826  items[itemId] */\n      0x00\n        /* \"contracts/Escrow.sol\":5819:5825  itemId */\n      dup5\n        /* \"contracts/Escrow.sol\":5813:5826  items[itemId] */\n      dup2\n      mstore\n      0x20\n      add\n      swap1\n      dup2\n      mstore\n      0x20\n      add\n      0x00\n      keccak256\n        /* \"contracts/Escrow.sol\":5813:5832  items[itemId].owner */\n      0x04\n      add\n      0x00\n      swap1\n      sload\n      swap1\n      0x0100\n      exp\n      swap1\n      div\n      0xffffffffffffffffffffffffffffffffffffffff\n      and\n        /* \"contracts/Escrow.sol\":5834:5839  items */\n      0x08\n        /* \"contracts/Escrow.sol\":5834:5847  items[itemId] */\n      0x00\n        /* \"contracts/Escrow.sol\":5840:5846  itemId */\n      dup6\n        /* \"contracts/Escrow.sol\":5834:5847  items[itemId] */\n      dup2\n      mstore\n      0x20\n      add\n      swap1\n      dup2\n      mstore\n      0x20\n      add\n      0x00\n      keccak256\n        /* \"contracts/Escrow.sol\":5834:5854  items[itemId].amount */\n      0x02\n      add\n      sload\n        /* \"contracts/Escrow.sol\":5807:5812  payTo */\n      tag_149\n        /* \"contracts/Escrow.sol\":5807:5855  payTo(items[itemId].owner, items[itemId].amount) */\n      jump\t// in\n    tag_183:\n      pop\n        /* \"contracts/Escrow.sol\":5876:5881  items */\n      0x08\n        /* \"contracts/Escrow.sol\":5876:5889  items[itemId] */\n      0x00\n        /* \"contracts/Escrow.sol\":5882:5888  itemId */\n      dup4\n        /* \"contracts/Escrow.sol\":5876:5889  items[itemId] */\n      dup2\n      mstore\n      0x20\n      add\n      swap1\n      dup2\n      mstore\n      0x20\n      add\n      0x00\n      keccak256\n        /* \"contracts/Escrow.sol\":5876:5896  items[itemId].amount */\n      0x02\n      add\n      sload\n        /* \"contracts/Escrow.sol\":5866:5872  escBal */\n      0x02\n      0x00\n        /* \"contracts/Escrow.sol\":5866:5896  escBal -= items[itemId].amount */\n      dup3\n      dup3\n      sload\n      tag_184\n      swap2\n      swap1\n      tag_148\n      jump\t// in\n    tag_184:\n      swap3\n      pop\n      pop\n      dup2\n      swap1\n      sstore\n      pop\n        /* \"contracts/Escrow.sol\":5930:5945  Status.REFUNDED */\n      0x05\n        /* \"contracts/Escrow.sol\":5907:5912  items */\n      0x08\n        /* \"contracts/Escrow.sol\":5907:5920  items[itemId] */\n      0x00\n        /* \"contracts/Escrow.sol\":5913:5919  itemId */\n      dup5\n        /* \"contracts/Escrow.sol\":5907:5920  items[itemId] */\n      dup2\n      mstore\n      0x20\n      add\n      swap1\n      dup2\n      mstore\n      0x20\n      add\n      0x00\n      keccak256\n        /* \"contracts/Escrow.sol\":5907:5927  items[itemId].status */\n      0x05\n      add\n      0x14\n        /* \"contracts/Escrow.sol\":5907:5945  items[itemId].status = Status.REFUNDED */\n      0x0100\n      exp\n      dup2\n      sload\n      dup2\n      0xff\n      mul\n      not\n      and\n      swap1\n      dup4\n      0x06\n      dup2\n      gt\n      iszero\n      tag_185\n      jumpi\n      tag_186\n      tag_135\n      jump\t// in\n    tag_186:\n    tag_185:\n      mul\n      or\n      swap1\n      sstore\n      pop\n        /* \"contracts/Escrow.sol\":5956:5969  totalDisputed */\n      0x07\n      0x00\n        /* \"contracts/Escrow.sol\":5956:5971  totalDisputed++ */\n      dup2\n      sload\n      dup1\n      swap3\n      swap2\n      swap1\n      tag_187\n      swap1\n      tag_156\n      jump\t// in\n    tag_187:\n      swap2\n      swap1\n      pop\n      sstore\n      pop\n        /* \"contracts/Escrow.sol\":6087:6097  msg.sender */\n      caller\n        /* \"contracts/Escrow.sol\":5989:6108  Action (... */\n      0xffffffffffffffffffffffffffffffffffffffff\n      and\n      0x23ad0062ad47da0f27f5c07751751e4b60afc16bf6fe03a24266a01ec4897931\n        /* \"contracts/Escrow.sol\":6011:6017  itemId */\n      dup4\n        /* \"contracts/Escrow.sol\":6057:6072  Status.REFUNDED */\n      0x05\n        /* \"contracts/Escrow.sol\":5989:6108  Action (... */\n      mload(0x40)\n      tag_188\n      swap3\n      swap2\n      swap1\n      tag_189\n      jump\t// in\n    tag_188:\n      mload(0x40)\n      dup1\n      swap2\n      sub\n      swap1\n      log2\n        /* \"contracts/Escrow.sol\":6128:6132  true */\n      0x01\n        /* \"contracts/Escrow.sol\":6121:6132  return true */\n      swap1\n      pop\n        /* \"contracts/Escrow.sol\":5599:6140  function refundItem(uint256 itemId) external returns (bool) {... */\n      swap2\n      swap1\n      pop\n      jump\t// out\n        /* \"contracts/Escrow.sol\":406:435  uint256 public totalItems = 0 */\n    tag_45:\n      sload(0x05)\n      dup2\n      jump\t// out\n        /* \"contracts/Escrow.sol\":2678:2819  function getItem(uint256 itemId)... */\n    tag_51:\n        /* \"contracts/Escrow.sol\":2761:2778  ItemStruct memory */\n      tag_190\n      tag_191\n      jump\t// in\n    tag_190:\n        /* \"contracts/Escrow.sol\":2798:2803  items */\n      0x08\n        /* \"contracts/Escrow.sol\":2798:2811  items[itemId] */\n      0x00\n        /* \"contracts/Escrow.sol\":2804:2810  itemId */\n      dup4\n        /* \"contracts/Escrow.sol\":2798:2811  items[itemId] */\n      dup2\n      mstore\n      0x20\n      add\n      swap1\n      dup2\n      mstore\n      0x20\n      add\n      0x00\n      keccak256\n        /* \"contracts/Escrow.sol\":2791:2811  return items[itemId] */\n      mload(0x40)\n      dup1\n      0x0120\n      add\n      0x40\n      mstore\n      swap1\n      dup2\n      0x00\n      dup3\n      add\n      sload\n      dup2\n      mstore\n      0x20\n      add\n      0x01\n      dup3\n      add\n      dup1\n      sload\n      tag_193\n      swap1\n      tag_167\n      jump\t// in\n    tag_193:\n      dup1\n      0x1f\n      add\n      0x20\n      dup1\n      swap2\n      div\n      mul\n      0x20\n      add\n      mload(0x40)\n      swap1\n      dup2\n      add\n      0x40\n      mstore\n      dup1\n      swap3\n      swap2\n      swap1\n      dup2\n      dup2\n      mstore\n      0x20\n      add\n      dup3\n      dup1\n      sload\n      tag_194\n      swap1\n      tag_167\n      jump\t// in\n    tag_194:\n      dup1\n      iszero\n      tag_195\n      jumpi\n      dup1\n      0x1f\n      lt\n      tag_196\n      jumpi\n      0x0100\n      dup1\n      dup4\n      sload\n      div\n      mul\n      dup4\n      mstore\n      swap2\n      0x20\n      add\n      swap2\n      jump(tag_195)\n    tag_196:\n      dup3\n      add\n      swap2\n      swap1\n      0x00\n      mstore\n      keccak256(0x00, 0x20)\n      swap1\n    tag_197:\n      dup2\n      sload\n      dup2\n      mstore\n      swap1\n      0x01\n      add\n      swap1\n      0x20\n      add\n      dup1\n      dup4\n      gt\n      tag_197\n      jumpi\n      dup3\n      swap1\n      sub\n      0x1f\n      and\n      dup3\n      add\n      swap2\n    tag_195:\n      pop\n      pop\n      pop\n      pop\n      pop\n      dup2\n      mstore\n      0x20\n      add\n      0x02\n      dup3\n      add\n      sload\n      dup2\n      mstore\n      0x20\n      add\n      0x03\n      dup3\n      add\n      sload\n      dup2\n      mstore\n      0x20\n      add\n      0x04\n      dup3\n      add\n      0x00\n      swap1\n      sload\n      swap1\n      0x0100\n      exp\n      swap1\n      div\n      0xffffffffffffffffffffffffffffffffffffffff\n      and\n      0xffffffffffffffffffffffffffffffffffffffff\n      and\n      0xffffffffffffffffffffffffffffffffffffffff\n      and\n      dup2\n      mstore\n      0x20\n      add\n      0x05\n      dup3\n      add\n      0x00\n      swap1\n      sload\n      swap1\n      0x0100\n      exp\n      swap1\n      div\n      0xffffffffffffffffffffffffffffffffffffffff\n      and\n      0xffffffffffffffffffffffffffffffffffffffff\n      and\n      0xffffffffffffffffffffffffffffffffffffffff\n      and\n      dup2\n      mstore\n      0x20\n      add\n      0x05\n      dup3\n      add\n      0x14\n      swap1\n      sload\n      swap1\n      0x0100\n      exp\n      swap1\n      div\n      0xff\n      and\n      0x06\n      dup2\n      gt\n      iszero\n      tag_198\n      jumpi\n      tag_199\n      tag_135\n      jump\t// in\n    tag_199:\n    tag_198:\n      0x06\n      dup2\n      gt\n      iszero\n      tag_200\n      jumpi\n      tag_201\n      tag_135\n      jump\t// in\n    tag_201:\n    tag_200:\n      dup2\n      mstore\n      0x20\n      add\n      0x05\n      dup3\n      add\n      0x15\n      swap1\n      sload\n      swap1\n      0x0100\n      exp\n      swap1\n      div\n      0xff\n      and\n      iszero\n      iszero\n      iszero\n      iszero\n      dup2\n      mstore\n      0x20\n      add\n      0x05\n      dup3\n      add\n      0x16\n      swap1\n      sload\n      swap1\n      0x0100\n      exp\n      swap1\n      div\n      0xff\n      and\n      iszero\n      iszero\n      iszero\n      iszero\n      dup2\n      mstore\n      pop\n      pop\n      swap1\n      pop\n        /* \"contracts/Escrow.sol\":2678:2819  function getItem(uint256 itemId)... */\n      swap2\n      swap1\n      pop\n      jump\t// out\n        /* \"contracts/Escrow.sol\":746:794  mapping(uint256 => Available) public isAvailable */\n    tag_57:\n      mstore(0x20, 0x0c)\n      dup1\n      0x00\n      mstore\n      keccak256(0x00, 0x40)\n      0x00\n      swap2\n      pop\n      sload\n      swap1\n      0x0100\n      exp\n      swap1\n      div\n      0xff\n      and\n      dup2\n      jump\t// out\n        /* \"contracts/Escrow.sol\":1547:2411  function createItem(... */\n    tag_63:\n        /* \"contracts/Escrow.sol\":1634:1638  bool */\n      0x00\n        /* \"contracts/Escrow.sol\":1683:1684  0 */\n      dup1\n        /* \"contracts/Escrow.sol\":1665:1672  purpose */\n      dup4\n      dup4\n        /* \"contracts/Escrow.sol\":1659:1680  bytes(purpose).length */\n      swap1\n      pop\n        /* \"contracts/Escrow.sol\":1659:1684  bytes(purpose).length > 0 */\n      gt\n        /* \"contracts/Escrow.sol\":1651:1712  require(bytes(purpose).length > 0, \"Purpose cannot be empty\") */\n      tag_203\n      jumpi\n      mload(0x40)\n      0x08c379a000000000000000000000000000000000000000000000000000000000\n      dup2\n      mstore\n      0x04\n      add\n      tag_204\n      swap1\n      tag_205\n      jump\t// in\n    tag_204:\n      mload(0x40)\n      dup1\n      swap2\n      sub\n      swap1\n      revert\n    tag_203:\n        /* \"contracts/Escrow.sol\":1743:1750  0 ether */\n      0x00\n        /* \"contracts/Escrow.sol\":1731:1740  msg.value */\n      callvalue\n        /* \"contracts/Escrow.sol\":1731:1750  msg.value > 0 ether */\n      gt\n        /* \"contracts/Escrow.sol\":1723:1781  require(msg.value > 0 ether, \"Item cannot be zero ethers\") */\n      tag_206\n      jumpi\n      mload(0x40)\n      0x08c379a000000000000000000000000000000000000000000000000000000000\n      dup2\n      mstore\n      0x04\n      add\n      tag_207\n      swap1\n      tag_208\n      jump\t// in\n    tag_207:\n      mload(0x40)\n      dup1\n      swap2\n      sub\n      swap1\n      revert\n    tag_206:\n        /* \"contracts/Escrow.sol\":1794:1808  uint256 itemId */\n      0x00\n        /* \"contracts/Escrow.sol\":1811:1821  totalItems */\n      0x05\n      0x00\n        /* \"contracts/Escrow.sol\":1811:1823  totalItems++ */\n      dup2\n      sload\n      dup1\n      swap3\n      swap2\n      swap1\n      tag_209\n      swap1\n      tag_156\n      jump\t// in\n    tag_209:\n      swap2\n      swap1\n      pop\n      sstore\n        /* \"contracts/Escrow.sol\":1794:1823  uint256 itemId = totalItems++ */\n      swap1\n      pop\n        /* \"contracts/Escrow.sol\":1834:1857  ItemStruct storage item */\n      0x00\n        /* \"contracts/Escrow.sol\":1860:1865  items */\n      0x08\n        /* \"contracts/Escrow.sol\":1860:1873  items[itemId] */\n      0x00\n        /* \"contracts/Escrow.sol\":1866:1872  itemId */\n      dup4\n        /* \"contracts/Escrow.sol\":1860:1873  items[itemId] */\n      dup2\n      mstore\n      0x20\n      add\n      swap1\n      dup2\n      mstore\n      0x20\n      add\n      0x00\n      keccak256\n        /* \"contracts/Escrow.sol\":1834:1873  ItemStruct storage item = items[itemId] */\n      swap1\n      pop\n        /* \"contracts/Escrow.sol\":1900:1906  itemId */\n      dup2\n        /* \"contracts/Escrow.sol\":1886:1890  item */\n      dup2\n        /* \"contracts/Escrow.sol\":1886:1897  item.itemId */\n      0x00\n      add\n        /* \"contracts/Escrow.sol\":1886:1906  item.itemId = itemId */\n      dup2\n      swap1\n      sstore\n      pop\n        /* \"contracts/Escrow.sol\":1932:1939  purpose */\n      dup5\n      dup5\n        /* \"contracts/Escrow.sol\":1917:1921  item */\n      dup3\n        /* \"contracts/Escrow.sol\":1917:1929  item.purpose */\n      0x01\n      add\n        /* \"contracts/Escrow.sol\":1917:1939  item.purpose = purpose */\n      swap2\n      dup3\n      tag_210\n      swap3\n      swap2\n      swap1\n      tag_211\n      jump\t// in\n    tag_210:\n      pop\n        /* \"contracts/Escrow.sol\":1964:1973  msg.value */\n      callvalue\n        /* \"contracts/Escrow.sol\":1950:1954  item */\n      dup2\n        /* \"contracts/Escrow.sol\":1950:1961  item.amount */\n      0x02\n      add\n        /* \"contracts/Escrow.sol\":1950:1973  item.amount = msg.value */\n      dup2\n      swap1\n      sstore\n      pop\n        /* \"contracts/Escrow.sol\":2001:2016  block.timestamp */\n      timestamp\n        /* \"contracts/Escrow.sol\":1984:1988  item */\n      dup2\n        /* \"contracts/Escrow.sol\":1984:1998  item.timestamp */\n      0x03\n      add\n        /* \"contracts/Escrow.sol\":1984:2016  item.timestamp = block.timestamp */\n      dup2\n      swap1\n      sstore\n      pop\n        /* \"contracts/Escrow.sol\":2040:2050  msg.sender */\n      caller\n        /* \"contracts/Escrow.sol\":2027:2031  item */\n      dup2\n        /* \"contracts/Escrow.sol\":2027:2037  item.owner */\n      0x04\n      add\n      0x00\n        /* \"contracts/Escrow.sol\":2027:2050  item.owner = msg.sender */\n      0x0100\n      exp\n      dup2\n      sload\n      dup2\n      0xffffffffffffffffffffffffffffffffffffffff\n      mul\n      not\n      and\n      swap1\n      dup4\n      0xffffffffffffffffffffffffffffffffffffffff\n      and\n      mul\n      or\n      swap1\n      sstore\n      pop\n        /* \"contracts/Escrow.sol\":2075:2086  Status.OPEN */\n      0x00\n        /* \"contracts/Escrow.sol\":2061:2065  item */\n      dup2\n        /* \"contracts/Escrow.sol\":2061:2072  item.status */\n      0x05\n      add\n      0x14\n        /* \"contracts/Escrow.sol\":2061:2086  item.status = Status.OPEN */\n      0x0100\n      exp\n      dup2\n      sload\n      dup2\n      0xff\n      mul\n      not\n      and\n      swap1\n      dup4\n      0x06\n      dup2\n      gt\n      iszero\n      tag_212\n      jumpi\n      tag_213\n      tag_135\n      jump\t// in\n    tag_213:\n    tag_212:\n      mul\n      or\n      swap1\n      sstore\n      pop\n        /* \"contracts/Escrow.sol\":2099:2106  itemsOf */\n      0x09\n        /* \"contracts/Escrow.sol\":2099:2118  itemsOf[msg.sender] */\n      0x00\n        /* \"contracts/Escrow.sol\":2107:2117  msg.sender */\n      caller\n        /* \"contracts/Escrow.sol\":2099:2118  itemsOf[msg.sender] */\n      0xffffffffffffffffffffffffffffffffffffffff\n      and\n      0xffffffffffffffffffffffffffffffffffffffff\n      and\n      dup2\n      mstore\n      0x20\n      add\n      swap1\n      dup2\n      mstore\n      0x20\n      add\n      0x00\n      keccak256\n        /* \"contracts/Escrow.sol\":2124:2128  item */\n      dup2\n        /* \"contracts/Escrow.sol\":2099:2129  itemsOf[msg.sender].push(item) */\n      swap1\n      dup1\n      0x01\n      dup2\n      sload\n      add\n      dup1\n      dup3\n      sstore\n      dup1\n      swap2\n      pop\n      pop\n      0x01\n      swap1\n      sub\n      swap1\n      0x00\n      mstore\n      keccak256(0x00, 0x20)\n      swap1\n      0x06\n      mul\n      add\n      0x00\n      swap1\n      swap2\n      swap1\n      swap2\n      swap1\n      swap2\n      pop\n      0x00\n      dup3\n      add\n      sload\n      dup2\n      0x00\n      add\n      sstore\n      0x01\n      dup3\n      add\n      dup2\n      0x01\n      add\n      swap1\n      dup2\n      tag_215\n      swap2\n      swap1\n      tag_216\n      jump\t// in\n    tag_215:\n      pop\n      0x02\n      dup3\n      add\n      sload\n      dup2\n      0x02\n      add\n      sstore\n      0x03\n      dup3\n      add\n      sload\n      dup2\n      0x03\n      add\n      sstore\n      0x04\n      dup3\n      add\n      0x00\n      swap1\n      sload\n      swap1\n      0x0100\n      exp\n      swap1\n      div\n      0xffffffffffffffffffffffffffffffffffffffff\n      and\n      dup2\n      0x04\n      add\n      exp(0x0100, 0x00)\n      dup2\n      sload\n      dup2\n      0xffffffffffffffffffffffffffffffffffffffff\n      mul\n      not\n      and\n      swap1\n      dup4\n      0xffffffffffffffffffffffffffffffffffffffff\n      and\n      mul\n      or\n      swap1\n      sstore\n      pop\n      0x05\n      dup3\n      add\n      0x00\n      swap1\n      sload\n      swap1\n      0x0100\n      exp\n      swap1\n      div\n      0xffffffffffffffffffffffffffffffffffffffff\n      and\n      dup2\n      0x05\n      add\n      exp(0x0100, 0x00)\n      dup2\n      sload\n      dup2\n      0xffffffffffffffffffffffffffffffffffffffff\n      mul\n      not\n      and\n      swap1\n      dup4\n      0xffffffffffffffffffffffffffffffffffffffff\n      and\n      mul\n      or\n      swap1\n      sstore\n      pop\n      0x05\n      dup3\n      add\n      0x14\n      swap1\n      sload\n      swap1\n      0x0100\n      exp\n      swap1\n      div\n      0xff\n      and\n      dup2\n      0x05\n      add\n      exp(0x0100, 0x14)\n      dup2\n      sload\n      dup2\n      0xff\n      mul\n      not\n      and\n      swap1\n      dup4\n      0x06\n      dup2\n      gt\n      iszero\n      tag_217\n      jumpi\n      tag_218\n      tag_135\n      jump\t// in\n    tag_218:\n    tag_217:\n      mul\n      or\n      swap1\n      sstore\n      pop\n      0x05\n      dup3\n      add\n      0x15\n      swap1\n      sload\n      swap1\n      0x0100\n      exp\n      swap1\n      div\n      0xff\n      and\n      dup2\n      0x05\n      add\n      exp(0x0100, 0x15)\n      dup2\n      sload\n      dup2\n      0xff\n      mul\n      not\n      and\n      swap1\n      dup4\n      iszero\n      iszero\n      mul\n      or\n      swap1\n      sstore\n      pop\n      0x05\n      dup3\n      add\n      0x16\n      swap1\n      sload\n      swap1\n      0x0100\n      exp\n      swap1\n      div\n      0xff\n      and\n      dup2\n      0x05\n      add\n      exp(0x0100, 0x16)\n      dup2\n      sload\n      dup2\n      0xff\n      mul\n      not\n      and\n      swap1\n      dup4\n      iszero\n      iszero\n      mul\n      or\n      swap1\n      sstore\n      pop\n      pop\n      pop\n        /* \"contracts/Escrow.sol\":2158:2168  msg.sender */\n      caller\n        /* \"contracts/Escrow.sol\":2140:2147  ownerOf */\n      0x0b\n        /* \"contracts/Escrow.sol\":2140:2155  ownerOf[itemId] */\n      0x00\n        /* \"contracts/Escrow.sol\":2148:2154  itemId */\n      dup5\n        /* \"contracts/Escrow.sol\":2140:2155  ownerOf[itemId] */\n      dup2\n      mstore\n      0x20\n      add\n      swap1\n      dup2\n      mstore\n      0x20\n      add\n      0x00\n      keccak256\n      0x00\n        /* \"contracts/Escrow.sol\":2140:2168  ownerOf[itemId] = msg.sender */\n      0x0100\n      exp\n      dup2\n      sload\n      dup2\n      0xffffffffffffffffffffffffffffffffffffffff\n      mul\n      not\n      and\n      swap1\n      dup4\n      0xffffffffffffffffffffffffffffffffffffffff\n      and\n      mul\n      or\n      swap1\n      sstore\n      pop\n        /* \"contracts/Escrow.sol\":2201:2214  Available.YES */\n      0x01\n        /* \"contracts/Escrow.sol\":2179:2190  isAvailable */\n      0x0c\n        /* \"contracts/Escrow.sol\":2179:2198  isAvailable[itemId] */\n      0x00\n        /* \"contracts/Escrow.sol\":2191:2197  itemId */\n      dup5\n        /* \"contracts/Escrow.sol\":2179:2198  isAvailable[itemId] */\n      dup2\n      mstore\n      0x20\n      add\n      swap1\n      dup2\n      mstore\n      0x20\n      add\n      0x00\n      keccak256\n      0x00\n        /* \"contracts/Escrow.sol\":2179:2214  isAvailable[itemId] = Available.YES */\n      0x0100\n      exp\n      dup2\n      sload\n      dup2\n      0xff\n      mul\n      not\n      and\n      swap1\n      dup4\n      0x01\n      dup2\n      gt\n      iszero\n      tag_219\n      jumpi\n      tag_220\n      tag_135\n      jump\t// in\n    tag_220:\n    tag_219:\n      mul\n      or\n      swap1\n      sstore\n      pop\n        /* \"contracts/Escrow.sol\":2235:2244  msg.value */\n      callvalue\n        /* \"contracts/Escrow.sol\":2225:2231  escBal */\n      0x02\n      0x00\n        /* \"contracts/Escrow.sol\":2225:2244  escBal += msg.value */\n      dup3\n      dup3\n      sload\n      tag_221\n      swap2\n      swap1\n      tag_152\n      jump\t// in\n    tag_221:\n      swap3\n      pop\n      pop\n      dup2\n      swap1\n      sstore\n      pop\n        /* \"contracts/Escrow.sol\":2360:2370  msg.sender */\n      caller\n        /* \"contracts/Escrow.sol\":2262:2381  Action (... */\n      0xffffffffffffffffffffffffffffffffffffffff\n      and\n      0x23ad0062ad47da0f27f5c07751751e4b60afc16bf6fe03a24266a01ec4897931\n        /* \"contracts/Escrow.sol\":2284:2290  itemId */\n      dup4\n        /* \"contracts/Escrow.sol\":2334:2345  Status.OPEN */\n      0x00\n        /* \"contracts/Escrow.sol\":2262:2381  Action (... */\n      mload(0x40)\n      tag_222\n      swap3\n      swap2\n      swap1\n      tag_223\n      jump\t// in\n    tag_222:\n      mload(0x40)\n      dup1\n      swap2\n      sub\n      swap1\n      log2\n        /* \"contracts/Escrow.sol\":2399:2403  true */\n      0x01\n        /* \"contracts/Escrow.sol\":2392:2403  return true */\n      swap3\n      pop\n      pop\n      pop\n        /* \"contracts/Escrow.sol\":1547:2411  function createItem(... */\n      swap3\n      swap2\n      pop\n      pop\n      jump\t// out\n        /* \"contracts/Escrow.sol\":442:475  uint256 public totalConfirmed = 0 */\n    tag_67:\n      sload(0x06)\n      dup2\n      jump\t// out\n        /* \"contracts/Escrow.sol\":2419:2670  function getItems()... */\n    tag_71:\n        /* \"contracts/Escrow.sol\":2489:2514  ItemStruct[] memory props */\n      0x60\n        /* \"contracts/Escrow.sol\":2552:2562  totalItems */\n      sload(0x05)\n        /* \"contracts/Escrow.sol\":2535:2563  new ItemStruct[](totalItems) */\n      0xffffffffffffffff\n      dup2\n      gt\n      iszero\n      tag_225\n      jumpi\n      tag_226\n      tag_227\n      jump\t// in\n    tag_226:\n    tag_225:\n      mload(0x40)\n      swap1\n      dup1\n      dup3\n      mstore\n      dup1\n      0x20\n      mul\n      0x20\n      add\n      dup3\n      add\n      0x40\n      mstore\n      dup1\n      iszero\n      tag_228\n      jumpi\n      dup2\n      0x20\n      add\n    tag_229:\n      tag_230\n      tag_191\n      jump\t// in\n    tag_230:\n      dup2\n      mstore\n      0x20\n      add\n      swap1\n      0x01\n      swap1\n      sub\n      swap1\n      dup2\n      tag_229\n      jumpi\n      swap1\n      pop\n    tag_228:\n      pop\n        /* \"contracts/Escrow.sol\":2527:2563  props = new ItemStruct[](totalItems) */\n      swap1\n      pop\n        /* \"contracts/Escrow.sol\":2581:2590  uint256 i */\n      0x00\n        /* \"contracts/Escrow.sol\":2576:2663  for (uint256 i = 0; i < totalItems; i++) {... */\n    tag_231:\n        /* \"contracts/Escrow.sol\":2600:2610  totalItems */\n      sload(0x05)\n        /* \"contracts/Escrow.sol\":2596:2597  i */\n      dup2\n        /* \"contracts/Escrow.sol\":2596:2610  i < totalItems */\n      lt\n        /* \"contracts/Escrow.sol\":2576:2663  for (uint256 i = 0; i < totalItems; i++) {... */\n      iszero\n      tag_232\n      jumpi\n        /* \"contracts/Escrow.sol\":2643:2648  items */\n      0x08\n        /* \"contracts/Escrow.sol\":2643:2651  items[i] */\n      0x00\n        /* \"contracts/Escrow.sol\":2649:2650  i */\n      dup3\n        /* \"contracts/Escrow.sol\":2643:2651  items[i] */\n      dup2\n      mstore\n      0x20\n      add\n      swap1\n      dup2\n      mstore\n      0x20\n      add\n      0x00\n      keccak256\n        /* \"contracts/Escrow.sol\":2632:2651  props[i] = items[i] */\n      mload(0x40)\n      dup1\n      0x0120\n      add\n      0x40\n      mstore\n      swap1\n      dup2\n      0x00\n      dup3\n      add\n      sload\n      dup2\n      mstore\n      0x20\n      add\n      0x01\n      dup3\n      add\n      dup1\n      sload\n      tag_234\n      swap1\n      tag_167\n      jump\t// in\n    tag_234:\n      dup1\n      0x1f\n      add\n      0x20\n      dup1\n      swap2\n      div\n      mul\n      0x20\n      add\n      mload(0x40)\n      swap1\n      dup2\n      add\n      0x40\n      mstore\n      dup1\n      swap3\n      swap2\n      swap1\n      dup2\n      dup2\n      mstore\n      0x20\n      add\n      dup3\n      dup1\n      sload\n      tag_235\n      swap1\n      tag_167\n      jump\t// in\n    tag_235:\n      dup1\n      iszero\n      tag_236\n      jumpi\n      dup1\n      0x1f\n      lt\n      tag_237\n      jumpi\n      0x0100\n      dup1\n      dup4\n      sload\n      div\n      mul\n      dup4\n      mstore\n      swap2\n      0x20\n      add\n      swap2\n      jump(tag_236)\n    tag_237:\n      dup3\n      add\n      swap2\n      swap1\n      0x00\n      mstore\n      keccak256(0x00, 0x20)\n      swap1\n    tag_238:\n      dup2\n      sload\n      dup2\n      mstore\n      swap1\n      0x01\n      add\n      swap1\n      0x20\n      add\n      dup1\n      dup4\n      gt\n      tag_238\n      jumpi\n      dup3\n      swap1\n      sub\n      0x1f\n      and\n      dup3\n      add\n      swap2\n    tag_236:\n      pop\n      pop\n      pop\n      pop\n      pop\n      dup2\n      mstore\n      0x20\n      add\n      0x02\n      dup3\n      add\n      sload\n      dup2\n      mstore\n      0x20\n      add\n      0x03\n      dup3\n      add\n      sload\n      dup2\n      mstore\n      0x20\n      add\n      0x04\n      dup3\n      add\n      0x00\n      swap1\n      sload\n      swap1\n      0x0100\n      exp\n      swap1\n      div\n      0xffffffffffffffffffffffffffffffffffffffff\n      and\n      0xffffffffffffffffffffffffffffffffffffffff\n      and\n      0xffffffffffffffffffffffffffffffffffffffff\n      and\n      dup2\n      mstore\n      0x20\n      add\n      0x05\n      dup3\n      add\n      0x00\n      swap1\n      sload\n      swap1\n      0x0100\n      exp\n      swap1\n      div\n      0xffffffffffffffffffffffffffffffffffffffff\n      and\n      0xffffffffffffffffffffffffffffffffffffffff\n      and\n      0xffffffffffffffffffffffffffffffffffffffff\n      and\n      dup2\n      mstore\n      0x20\n      add\n      0x05\n      dup3\n      add\n      0x14\n      swap1\n      sload\n      swap1\n      0x0100\n      exp\n      swap1\n      div\n      0xff\n      and\n      0x06\n      dup2\n      gt\n      iszero\n      tag_239\n      jumpi\n      tag_240\n      tag_135\n      jump\t// in\n    tag_240:\n    tag_239:\n      0x06\n      dup2\n      gt\n      iszero\n      tag_241\n      jumpi\n      tag_242\n      tag_135\n      jump\t// in\n    tag_242:\n    tag_241:\n      dup2\n      mstore\n      0x20\n      add\n      0x05\n      dup3\n      add\n      0x15\n      swap1\n      sload\n      swap1\n      0x0100\n      exp\n      swap1\n      div\n      0xff\n      and\n      iszero\n      iszero\n      iszero\n      iszero\n      dup2\n      mstore\n      0x20\n      add\n      0x05\n      dup3\n      add\n      0x16\n      swap1\n      sload\n      swap1\n      0x0100\n      exp\n      swap1\n      div\n      0xff\n      and\n      iszero\n      iszero\n      iszero\n      iszero\n      dup2\n      mstore\n      pop\n      pop\n        /* \"contracts/Escrow.sol\":2632:2637  props */\n      dup3\n        /* \"contracts/Escrow.sol\":2638:2639  i */\n      dup3\n        /* \"contracts/Escrow.sol\":2632:2640  props[i] */\n      dup2\n      mload\n      dup2\n      lt\n      tag_243\n      jumpi\n      tag_244\n      tag_245\n      jump\t// in\n    tag_244:\n    tag_243:\n      0x20\n      mul\n      0x20\n      add\n      add\n        /* \"contracts/Escrow.sol\":2632:2651  props[i] = items[i] */\n      dup2\n      swap1\n      mstore\n      pop\n        /* \"contracts/Escrow.sol\":2612:2615  i++ */\n      dup1\n      dup1\n      0x01\n      add\n      swap2\n      pop\n      pop\n        /* \"contracts/Escrow.sol\":2576:2663  for (uint256 i = 0; i < totalItems; i++) {... */\n      jump(tag_231)\n    tag_232:\n      pop\n        /* \"contracts/Escrow.sol\":2419:2670  function getItems()... */\n      swap1\n      jump\t// out\n        /* \"contracts/Escrow.sol\":378:399  uint256 public escFee */\n    tag_75:\n      sload(0x04)\n      dup2\n      jump\t// out\n        /* \"contracts/Escrow.sol\":345:371  uint256 public escAvailBal */\n    tag_79:\n      sload(0x03)\n      dup2\n      jump\t// out\n        /* \"contracts/Escrow.sol\":289:310  address public escAcc */\n    tag_83:\n      0x01\n      0x00\n      swap1\n      sload\n      swap1\n      0x0100\n      exp\n      swap1\n      div\n      0xffffffffffffffffffffffffffffffffffffffff\n      and\n      dup2\n      jump\t// out\n        /* \"contracts/Escrow.sol\":697:739  mapping(uint256 => address) public ownerOf */\n    tag_89:\n      mstore(0x20, 0x0b)\n      dup1\n      0x00\n      mstore\n      keccak256(0x00, 0x40)\n      0x00\n      swap2\n      pop\n      sload\n      swap1\n      0x0100\n      exp\n      swap1\n      div\n      0xffffffffffffffffffffffffffffffffffffffff\n      and\n      dup2\n      jump\t// out\n        /* \"contracts/Escrow.sol\":629:690  mapping(address => mapping(uint256 => bool)) public requested */\n    tag_95:\n      mstore(0x20, 0x0a)\n      dup2\n      0x00\n      mstore\n      mstore(0x20, keccak256(0x00, 0x40))\n      dup1\n      0x00\n      mstore\n      keccak256(0x00, 0x40)\n      0x00\n      swap2\n      pop\n      swap2\n      pop\n      swap1\n      sload\n      swap1\n      0x0100\n      exp\n      swap1\n      div\n      0xff\n      and\n      dup2\n      jump\t// out\n        /* \"contracts/Escrow.sol\":4049:4614  function performDelievery(uint256 itemId) external returns (bool) {... */\n    tag_100:\n        /* \"contracts/Escrow.sol\":4109:4113  bool */\n      0x00\n        /* \"contracts/Escrow.sol\":4148:4153  items */\n      0x08\n        /* \"contracts/Escrow.sol\":4148:4161  items[itemId] */\n      0x00\n        /* \"contracts/Escrow.sol\":4154:4160  itemId */\n      dup4\n        /* \"contracts/Escrow.sol\":4148:4161  items[itemId] */\n      dup2\n      mstore\n      0x20\n      add\n      swap1\n      dup2\n      mstore\n      0x20\n      add\n      0x00\n      keccak256\n        /* \"contracts/Escrow.sol\":4148:4170  items[itemId].provider */\n      0x05\n      add\n      0x00\n      swap1\n      sload\n      swap1\n      0x0100\n      exp\n      swap1\n      div\n      0xffffffffffffffffffffffffffffffffffffffff\n      and\n        /* \"contracts/Escrow.sol\":4134:4170  msg.sender == items[itemId].provider */\n      0xffffffffffffffffffffffffffffffffffffffff\n      and\n        /* \"contracts/Escrow.sol\":4134:4144  msg.sender */\n      caller\n        /* \"contracts/Escrow.sol\":4134:4170  msg.sender == items[itemId].provider */\n      0xffffffffffffffffffffffffffffffffffffffff\n      and\n      eq\n        /* \"contracts/Escrow.sol\":4126:4201  require(msg.sender == items[itemId].provider, \"Service not awarded to you\") */\n      tag_247\n      jumpi\n      mload(0x40)\n      0x08c379a000000000000000000000000000000000000000000000000000000000\n      dup2\n      mstore\n      0x04\n      add\n      tag_248\n      swap1\n      tag_249\n      jump\t// in\n    tag_248:\n      mload(0x40)\n      dup1\n      swap2\n      sub\n      swap1\n      revert\n    tag_247:\n        /* \"contracts/Escrow.sol\":4221:4226  items */\n      0x08\n        /* \"contracts/Escrow.sol\":4221:4234  items[itemId] */\n      0x00\n        /* \"contracts/Escrow.sol\":4227:4233  itemId */\n      dup4\n        /* \"contracts/Escrow.sol\":4221:4234  items[itemId] */\n      dup2\n      mstore\n      0x20\n      add\n      swap1\n      dup2\n      mstore\n      0x20\n      add\n      0x00\n      keccak256\n        /* \"contracts/Escrow.sol\":4221:4243  items[itemId].provided */\n      0x05\n      add\n      0x15\n      swap1\n      sload\n      swap1\n      0x0100\n      exp\n      swap1\n      div\n      0xff\n      and\n        /* \"contracts/Escrow.sol\":4220:4243  !items[itemId].provided */\n      iszero\n        /* \"contracts/Escrow.sol\":4212:4272  require(!items[itemId].provided, \"Service already provided\") */\n      tag_250\n      jumpi\n      mload(0x40)\n      0x08c379a000000000000000000000000000000000000000000000000000000000\n      dup2\n      mstore\n      0x04\n      add\n      tag_251\n      swap1\n      tag_182\n      jump\t// in\n    tag_251:\n      mload(0x40)\n      dup1\n      swap2\n      sub\n      swap1\n      revert\n    tag_250:\n        /* \"contracts/Escrow.sol\":4292:4297  items */\n      0x08\n        /* \"contracts/Escrow.sol\":4292:4305  items[itemId] */\n      0x00\n        /* \"contracts/Escrow.sol\":4298:4304  itemId */\n      dup4\n        /* \"contracts/Escrow.sol\":4292:4305  items[itemId] */\n      dup2\n      mstore\n      0x20\n      add\n      swap1\n      dup2\n      mstore\n      0x20\n      add\n      0x00\n      keccak256\n        /* \"contracts/Escrow.sol\":4292:4315  items[itemId].confirmed */\n      0x05\n      add\n      0x16\n      swap1\n      sload\n      swap1\n      0x0100\n      exp\n      swap1\n      div\n      0xff\n      and\n        /* \"contracts/Escrow.sol\":4291:4315  !items[itemId].confirmed */\n      iszero\n        /* \"contracts/Escrow.sol\":4283:4345  require(!items[itemId].confirmed, \"Service already confirmed\") */\n      tag_252\n      jumpi\n      mload(0x40)\n      0x08c379a000000000000000000000000000000000000000000000000000000000\n      dup2\n      mstore\n      0x04\n      add\n      tag_253\n      swap1\n      tag_254\n      jump\t// in\n    tag_253:\n      mload(0x40)\n      dup1\n      swap2\n      sub\n      swap1\n      revert\n    tag_252:\n        /* \"contracts/Escrow.sol\":4383:4387  true */\n      0x01\n        /* \"contracts/Escrow.sol\":4358:4363  items */\n      0x08\n        /* \"contracts/Escrow.sol\":4358:4371  items[itemId] */\n      0x00\n        /* \"contracts/Escrow.sol\":4364:4370  itemId */\n      dup5\n        /* \"contracts/Escrow.sol\":4358:4371  items[itemId] */\n      dup2\n      mstore\n      0x20\n      add\n      swap1\n      dup2\n      mstore\n      0x20\n      add\n      0x00\n      keccak256\n        /* \"contracts/Escrow.sol\":4358:4380  items[itemId].provided */\n      0x05\n      add\n      0x15\n        /* \"contracts/Escrow.sol\":4358:4387  items[itemId].provided = true */\n      0x0100\n      exp\n      dup2\n      sload\n      dup2\n      0xff\n      mul\n      not\n      and\n      swap1\n      dup4\n      iszero\n      iszero\n      mul\n      or\n      swap1\n      sstore\n      pop\n        /* \"contracts/Escrow.sol\":4421:4436  Status.DELIVERY */\n      0x02\n        /* \"contracts/Escrow.sol\":4398:4403  items */\n      0x08\n        /* \"contracts/Escrow.sol\":4398:4411  items[itemId] */\n      0x00\n        /* \"contracts/Escrow.sol\":4404:4410  itemId */\n      dup5\n        /* \"contracts/Escrow.sol\":4398:4411  items[itemId] */\n      dup2\n      mstore\n      0x20\n      add\n      swap1\n      dup2\n      mstore\n      0x20\n      add\n      0x00\n      keccak256\n        /* \"contracts/Escrow.sol\":4398:4418  items[itemId].status */\n      0x05\n      add\n      0x14\n        /* \"contracts/Escrow.sol\":4398:4436  items[itemId].status = Status.DELIVERY */\n      0x0100\n      exp\n      dup2\n      sload\n      dup2\n      0xff\n      mul\n      not\n      and\n      swap1\n      dup4\n      0x06\n      dup2\n      gt\n      iszero\n      tag_255\n      jumpi\n      tag_256\n      tag_135\n      jump\t// in\n    tag_256:\n    tag_255:\n      mul\n      or\n      swap1\n      sstore\n      pop\n        /* \"contracts/Escrow.sol\":4561:4571  msg.sender */\n      caller\n        /* \"contracts/Escrow.sol\":4454:4582  Action (... */\n      0xffffffffffffffffffffffffffffffffffffffff\n      and\n      0x23ad0062ad47da0f27f5c07751751e4b60afc16bf6fe03a24266a01ec4897931\n        /* \"contracts/Escrow.sol\":4476:4482  itemId */\n      dup4\n        /* \"contracts/Escrow.sol\":4531:4546  Status.DELIVERY */\n      0x02\n        /* \"contracts/Escrow.sol\":4454:4582  Action (... */\n      mload(0x40)\n      tag_257\n      swap3\n      swap2\n      swap1\n      tag_258\n      jump\t// in\n    tag_257:\n      mload(0x40)\n      dup1\n      swap2\n      sub\n      swap1\n      log2\n        /* \"contracts/Escrow.sol\":4602:4606  true */\n      0x01\n        /* \"contracts/Escrow.sol\":4595:4606  return true */\n      swap1\n      pop\n        /* \"contracts/Escrow.sol\":4049:4614  function performDelievery(uint256 itemId) external returns (bool) {... */\n      swap2\n      swap1\n      pop\n      jump\t// out\n        /* \"contracts/Escrow.sol\":3402:4041  function approveRequest(... */\n    tag_106:\n        /* \"contracts/Escrow.sol\":3503:3507  bool */\n      0x00\n        /* \"contracts/Escrow.sol\":3542:3549  ownerOf */\n      0x0b\n        /* \"contracts/Escrow.sol\":3542:3557  ownerOf[itemId] */\n      0x00\n        /* \"contracts/Escrow.sol\":3550:3556  itemId */\n      dup5\n        /* \"contracts/Escrow.sol\":3542:3557  ownerOf[itemId] */\n      dup2\n      mstore\n      0x20\n      add\n      swap1\n      dup2\n      mstore\n      0x20\n      add\n      0x00\n      keccak256\n      0x00\n      swap1\n      sload\n      swap1\n      0x0100\n      exp\n      swap1\n      div\n      0xffffffffffffffffffffffffffffffffffffffff\n      and\n        /* \"contracts/Escrow.sol\":3528:3557  msg.sender == ownerOf[itemId] */\n      0xffffffffffffffffffffffffffffffffffffffff\n      and\n        /* \"contracts/Escrow.sol\":3528:3538  msg.sender */\n      caller\n        /* \"contracts/Escrow.sol\":3528:3557  msg.sender == ownerOf[itemId] */\n      0xffffffffffffffffffffffffffffffffffffffff\n      and\n      eq\n        /* \"contracts/Escrow.sol\":3520:3580  require(msg.sender == ownerOf[itemId], \"Only owner allowed\") */\n      tag_260\n      jumpi\n      mload(0x40)\n      0x08c379a000000000000000000000000000000000000000000000000000000000\n      dup2\n      mstore\n      0x04\n      add\n      tag_261\n      swap1\n      tag_129\n      jump\t// in\n    tag_261:\n      mload(0x40)\n      dup1\n      swap2\n      sub\n      swap1\n      revert\n    tag_260:\n        /* \"contracts/Escrow.sol\":3622:3635  Available.YES */\n      0x01\n        /* \"contracts/Escrow.sol\":3599:3635  isAvailable[itemId] == Available.YES */\n      dup1\n      dup2\n      gt\n      iszero\n      tag_262\n      jumpi\n      tag_263\n      tag_135\n      jump\t// in\n    tag_263:\n    tag_262:\n        /* \"contracts/Escrow.sol\":3599:3610  isAvailable */\n      0x0c\n        /* \"contracts/Escrow.sol\":3599:3618  isAvailable[itemId] */\n      0x00\n        /* \"contracts/Escrow.sol\":3611:3617  itemId */\n      dup6\n        /* \"contracts/Escrow.sol\":3599:3618  isAvailable[itemId] */\n      dup2\n      mstore\n      0x20\n      add\n      swap1\n      dup2\n      mstore\n      0x20\n      add\n      0x00\n      keccak256\n      0x00\n      swap1\n      sload\n      swap1\n      0x0100\n      exp\n      swap1\n      div\n      0xff\n      and\n        /* \"contracts/Escrow.sol\":3599:3635  isAvailable[itemId] == Available.YES */\n      0x01\n      dup2\n      gt\n      iszero\n      tag_264\n      jumpi\n      tag_265\n      tag_135\n      jump\t// in\n    tag_265:\n    tag_264:\n      eq\n        /* \"contracts/Escrow.sol\":3591:3658  require(isAvailable[itemId] == Available.YES, \"Item not available\") */\n      tag_266\n      jumpi\n      mload(0x40)\n      0x08c379a000000000000000000000000000000000000000000000000000000000\n      dup2\n      mstore\n      0x04\n      add\n      tag_267\n      swap1\n      tag_268\n      jump\t// in\n    tag_267:\n      mload(0x40)\n      dup1\n      swap2\n      sub\n      swap1\n      revert\n    tag_266:\n        /* \"contracts/Escrow.sol\":3677:3686  requested */\n      0x0a\n        /* \"contracts/Escrow.sol\":3677:3696  requested[provider] */\n      0x00\n        /* \"contracts/Escrow.sol\":3687:3695  provider */\n      dup4\n        /* \"contracts/Escrow.sol\":3677:3696  requested[provider] */\n      0xffffffffffffffffffffffffffffffffffffffff\n      and\n      0xffffffffffffffffffffffffffffffffffffffff\n      and\n      dup2\n      mstore\n      0x20\n      add\n      swap1\n      dup2\n      mstore\n      0x20\n      add\n      0x00\n      keccak256\n        /* \"contracts/Escrow.sol\":3677:3704  requested[provider][itemId] */\n      0x00\n        /* \"contracts/Escrow.sol\":3697:3703  itemId */\n      dup5\n        /* \"contracts/Escrow.sol\":3677:3704  requested[provider][itemId] */\n      dup2\n      mstore\n      0x20\n      add\n      swap1\n      dup2\n      mstore\n      0x20\n      add\n      0x00\n      keccak256\n      0x00\n      swap1\n      sload\n      swap1\n      0x0100\n      exp\n      swap1\n      div\n      0xff\n      and\n        /* \"contracts/Escrow.sol\":3669:3733  require(requested[provider][itemId], \"Provider not on the list\") */\n      tag_269\n      jumpi\n      mload(0x40)\n      0x08c379a000000000000000000000000000000000000000000000000000000000\n      dup2\n      mstore\n      0x04\n      add\n      tag_270\n      swap1\n      tag_271\n      jump\t// in\n    tag_270:\n      mload(0x40)\n      dup1\n      swap2\n      sub\n      swap1\n      revert\n    tag_269:\n        /* \"contracts/Escrow.sol\":3769:3781  Available.NO */\n      0x00\n        /* \"contracts/Escrow.sol\":3746:3781  isAvailable[itemId] == Available.NO */\n      0x01\n      dup2\n      gt\n      iszero\n      tag_272\n      jumpi\n      tag_273\n      tag_135\n      jump\t// in\n    tag_273:\n    tag_272:\n        /* \"contracts/Escrow.sol\":3746:3757  isAvailable */\n      0x0c\n        /* \"contracts/Escrow.sol\":3746:3765  isAvailable[itemId] */\n      0x00\n        /* \"contracts/Escrow.sol\":3758:3764  itemId */\n      dup6\n        /* \"contracts/Escrow.sol\":3746:3765  isAvailable[itemId] */\n      dup2\n      mstore\n      0x20\n      add\n      swap1\n      dup2\n      mstore\n      0x20\n      add\n      0x00\n      keccak256\n      0x00\n      swap1\n      sload\n      swap1\n      0x0100\n      exp\n      swap1\n      div\n      0xff\n      and\n        /* \"contracts/Escrow.sol\":3746:3781  isAvailable[itemId] == Available.NO */\n      0x01\n      dup2\n      gt\n      iszero\n      tag_274\n      jumpi\n      tag_275\n      tag_135\n      jump\t// in\n    tag_275:\n    tag_274:\n      pop\n      pop\n        /* \"contracts/Escrow.sol\":3815:3829  Status.PENDING */\n      0x01\n        /* \"contracts/Escrow.sol\":3792:3797  items */\n      0x08\n        /* \"contracts/Escrow.sol\":3792:3805  items[itemId] */\n      0x00\n        /* \"contracts/Escrow.sol\":3798:3804  itemId */\n      dup6\n        /* \"contracts/Escrow.sol\":3792:3805  items[itemId] */\n      dup2\n      mstore\n      0x20\n      add\n      swap1\n      dup2\n      mstore\n      0x20\n      add\n      0x00\n      keccak256\n        /* \"contracts/Escrow.sol\":3792:3812  items[itemId].status */\n      0x05\n      add\n      0x14\n        /* \"contracts/Escrow.sol\":3792:3829  items[itemId].status = Status.PENDING */\n      0x0100\n      exp\n      dup2\n      sload\n      dup2\n      0xff\n      mul\n      not\n      and\n      swap1\n      dup4\n      0x06\n      dup2\n      gt\n      iszero\n      tag_276\n      jumpi\n      tag_277\n      tag_135\n      jump\t// in\n    tag_277:\n    tag_276:\n      mul\n      or\n      swap1\n      sstore\n      pop\n        /* \"contracts/Escrow.sol\":3865:3873  provider */\n      dup2\n        /* \"contracts/Escrow.sol\":3840:3845  items */\n      0x08\n        /* \"contracts/Escrow.sol\":3840:3853  items[itemId] */\n      0x00\n        /* \"contracts/Escrow.sol\":3846:3852  itemId */\n      dup6\n        /* \"contracts/Escrow.sol\":3840:3853  items[itemId] */\n      dup2\n      mstore\n      0x20\n      add\n      swap1\n      dup2\n      mstore\n      0x20\n      add\n      0x00\n      keccak256\n        /* \"contracts/Escrow.sol\":3840:3862  items[itemId].provider */\n      0x05\n      add\n      0x00\n        /* \"contracts/Escrow.sol\":3840:3873  items[itemId].provider = provider */\n      0x0100\n      exp\n      dup2\n      sload\n      dup2\n      0xffffffffffffffffffffffffffffffffffffffff\n      mul\n      not\n      and\n      swap1\n      dup4\n      0xffffffffffffffffffffffffffffffffffffffff\n      and\n      mul\n      or\n      swap1\n      sstore\n      pop\n        /* \"contracts/Escrow.sol\":3988:3998  msg.sender */\n      caller\n        /* \"contracts/Escrow.sol\":3891:4009  Action (... */\n      0xffffffffffffffffffffffffffffffffffffffff\n      and\n      0x23ad0062ad47da0f27f5c07751751e4b60afc16bf6fe03a24266a01ec4897931\n        /* \"contracts/Escrow.sol\":3913:3919  itemId */\n      dup5\n        /* \"contracts/Escrow.sol\":3959:3973  Status.PENDING */\n      0x01\n        /* \"contracts/Escrow.sol\":3891:4009  Action (... */\n      mload(0x40)\n      tag_278\n      swap3\n      swap2\n      swap1\n      tag_279\n      jump\t// in\n    tag_278:\n      mload(0x40)\n      dup1\n      swap2\n      sub\n      swap1\n      log2\n        /* \"contracts/Escrow.sol\":4029:4033  true */\n      0x01\n        /* \"contracts/Escrow.sol\":4022:4033  return true */\n      swap1\n      pop\n        /* \"contracts/Escrow.sol\":3402:4041  function approveRequest(... */\n      swap3\n      swap2\n      pop\n      pop\n      jump\t// out\n        /* \"contracts/Escrow.sol\":317:338  uint256 public escBal */\n    tag_110:\n      sload(0x02)\n      dup2\n      jump\t// out\n        /* \"contracts/Escrow.sol\":482:514  uint256 public totalDisputed = 0 */\n    tag_114:\n      sload(0x07)\n      dup2\n      jump\t// out\n        /* \"contracts/Escrow.sol\":2970:3394  function requestItem(uint256 itemId) external returns (bool) {... */\n    tag_119:\n        /* \"contracts/Escrow.sol\":3025:3029  bool */\n      0x00\n        /* \"contracts/Escrow.sol\":3064:3071  ownerOf */\n      0x0b\n        /* \"contracts/Escrow.sol\":3064:3079  ownerOf[itemId] */\n      0x00\n        /* \"contracts/Escrow.sol\":3072:3078  itemId */\n      dup4\n        /* \"contracts/Escrow.sol\":3064:3079  ownerOf[itemId] */\n      dup2\n      mstore\n      0x20\n      add\n      swap1\n      dup2\n      mstore\n      0x20\n      add\n      0x00\n      keccak256\n      0x00\n      swap1\n      sload\n      swap1\n      0x0100\n      exp\n      swap1\n      div\n      0xffffffffffffffffffffffffffffffffffffffff\n      and\n        /* \"contracts/Escrow.sol\":3050:3079  msg.sender != ownerOf[itemId] */\n      0xffffffffffffffffffffffffffffffffffffffff\n      and\n        /* \"contracts/Escrow.sol\":3050:3060  msg.sender */\n      caller\n        /* \"contracts/Escrow.sol\":3050:3079  msg.sender != ownerOf[itemId] */\n      0xffffffffffffffffffffffffffffffffffffffff\n      and\n      sub\n        /* \"contracts/Escrow.sol\":3042:3101  require(msg.sender != ownerOf[itemId], \"Owner not allowed\") */\n      tag_281\n      jumpi\n      mload(0x40)\n      0x08c379a000000000000000000000000000000000000000000000000000000000\n      dup2\n      mstore\n      0x04\n      add\n      tag_282\n      swap1\n      tag_283\n      jump\t// in\n    tag_282:\n      mload(0x40)\n      dup1\n      swap2\n      sub\n      swap1\n      revert\n    tag_281:\n        /* \"contracts/Escrow.sol\":3143:3156  Available.YES */\n      0x01\n        /* \"contracts/Escrow.sol\":3120:3156  isAvailable[itemId] == Available.YES */\n      dup1\n      dup2\n      gt\n      iszero\n      tag_284\n      jumpi\n      tag_285\n      tag_135\n      jump\t// in\n    tag_285:\n    tag_284:\n        /* \"contracts/Escrow.sol\":3120:3131  isAvailable */\n      0x0c\n        /* \"contracts/Escrow.sol\":3120:3139  isAvailable[itemId] */\n      0x00\n        /* \"contracts/Escrow.sol\":3132:3138  itemId */\n      dup5\n        /* \"contracts/Escrow.sol\":3120:3139  isAvailable[itemId] */\n      dup2\n      mstore\n      0x20\n      add\n      swap1\n      dup2\n      mstore\n      0x20\n      add\n      0x00\n      keccak256\n      0x00\n      swap1\n      sload\n      swap1\n      0x0100\n      exp\n      swap1\n      div\n      0xff\n      and\n        /* \"contracts/Escrow.sol\":3120:3156  isAvailable[itemId] == Available.YES */\n      0x01\n      dup2\n      gt\n      iszero\n      tag_286\n      jumpi\n      tag_287\n      tag_135\n      jump\t// in\n    tag_287:\n    tag_286:\n      eq\n        /* \"contracts/Escrow.sol\":3112:3179  require(isAvailable[itemId] == Available.YES, \"Item not available\") */\n      tag_288\n      jumpi\n      mload(0x40)\n      0x08c379a000000000000000000000000000000000000000000000000000000000\n      dup2\n      mstore\n      0x04\n      add\n      tag_289\n      swap1\n      tag_268\n      jump\t// in\n    tag_289:\n      mload(0x40)\n      dup1\n      swap2\n      sub\n      swap1\n      revert\n    tag_288:\n        /* \"contracts/Escrow.sol\":3224:3228  true */\n      0x01\n        /* \"contracts/Escrow.sol\":3192:3201  requested */\n      0x0a\n        /* \"contracts/Escrow.sol\":3192:3213  requested[msg.sender] */\n      0x00\n        /* \"contracts/Escrow.sol\":3202:3212  msg.sender */\n      caller\n        /* \"contracts/Escrow.sol\":3192:3213  requested[msg.sender] */\n      0xffffffffffffffffffffffffffffffffffffffff\n      and\n      0xffffffffffffffffffffffffffffffffffffffff\n      and\n      dup2\n      mstore\n      0x20\n      add\n      swap1\n      dup2\n      mstore\n      0x20\n      add\n      0x00\n      keccak256\n        /* \"contracts/Escrow.sol\":3192:3221  requested[msg.sender][itemId] */\n      0x00\n        /* \"contracts/Escrow.sol\":3214:3220  itemId */\n      dup5\n        /* \"contracts/Escrow.sol\":3192:3221  requested[msg.sender][itemId] */\n      dup2\n      mstore\n      0x20\n      add\n      swap1\n      dup2\n      mstore\n      0x20\n      add\n      0x00\n      keccak256\n      0x00\n        /* \"contracts/Escrow.sol\":3192:3228  requested[msg.sender][itemId] = true */\n      0x0100\n      exp\n      dup2\n      sload\n      dup2\n      0xff\n      mul\n      not\n      and\n      swap1\n      dup4\n      iszero\n      iszero\n      mul\n      or\n      swap1\n      sstore\n      pop\n        /* \"contracts/Escrow.sol\":3341:3351  msg.sender */\n      caller\n        /* \"contracts/Escrow.sol\":3246:3362  Action (... */\n      0xffffffffffffffffffffffffffffffffffffffff\n      and\n      0x23ad0062ad47da0f27f5c07751751e4b60afc16bf6fe03a24266a01ec4897931\n        /* \"contracts/Escrow.sol\":3268:3274  itemId */\n      dup4\n        /* \"contracts/Escrow.sol\":3315:3326  Status.OPEN */\n      0x00\n        /* \"contracts/Escrow.sol\":3246:3362  Action (... */\n      mload(0x40)\n      tag_290\n      swap3\n      swap2\n      swap1\n      tag_291\n      jump\t// in\n    tag_290:\n      mload(0x40)\n      dup1\n      swap2\n      sub\n      swap1\n      log2\n        /* \"contracts/Escrow.sol\":3382:3386  true */\n      0x01\n        /* \"contracts/Escrow.sol\":3375:3386  return true */\n      swap1\n      pop\n        /* \"contracts/Escrow.sol\":2970:3394  function requestItem(uint256 itemId) external returns (bool) {... */\n      swap2\n      swap1\n      pop\n      jump\t// out\n        /* \"contracts/Escrow.sol\":6148:6646  function withdrawFund(... */\n    tag_124:\n        /* \"contracts/Escrow.sol\":6241:6245  bool */\n      0x00\n        /* \"contracts/Escrow.sol\":6280:6286  escAcc */\n      0x01\n      0x00\n      swap1\n      sload\n      swap1\n      0x0100\n      exp\n      swap1\n      div\n      0xffffffffffffffffffffffffffffffffffffffff\n      and\n        /* \"contracts/Escrow.sol\":6266:6286  msg.sender == escAcc */\n      0xffffffffffffffffffffffffffffffffffffffff\n      and\n        /* \"contracts/Escrow.sol\":6266:6276  msg.sender */\n      caller\n        /* \"contracts/Escrow.sol\":6266:6286  msg.sender == escAcc */\n      0xffffffffffffffffffffffffffffffffffffffff\n      and\n      eq\n        /* \"contracts/Escrow.sol\":6258:6310  require(msg.sender == escAcc, \"Only Escrow allowed\") */\n      tag_293\n      jumpi\n      mload(0x40)\n      0x08c379a000000000000000000000000000000000000000000000000000000000\n      dup2\n      mstore\n      0x04\n      add\n      tag_294\n      swap1\n      tag_179\n      jump\t// in\n    tag_294:\n      mload(0x40)\n      dup1\n      swap2\n      sub\n      swap1\n      revert\n    tag_293:\n        /* \"contracts/Escrow.sol\":6338:6345  0 ether */\n      0x00\n        /* \"contracts/Escrow.sol\":6329:6335  amount */\n      dup3\n        /* \"contracts/Escrow.sol\":6329:6345  amount > 0 ether */\n      gt\n        /* \"contracts/Escrow.sol\":6329:6370  amount > 0 ether && amount <= escAvailBal */\n      dup1\n      iszero\n      tag_295\n      jumpi\n      pop\n        /* \"contracts/Escrow.sol\":6359:6370  escAvailBal */\n      sload(0x03)\n        /* \"contracts/Escrow.sol\":6349:6355  amount */\n      dup3\n        /* \"contracts/Escrow.sol\":6349:6370  amount <= escAvailBal */\n      gt\n      iszero\n        /* \"contracts/Escrow.sol\":6329:6370  amount > 0 ether && amount <= escAvailBal */\n    tag_295:\n        /* \"contracts/Escrow.sol\":6321:6402  require(amount > 0 ether && amount <= escAvailBal, \"Zero withdrawal not allowed\") */\n      tag_296\n      jumpi\n      mload(0x40)\n      0x08c379a000000000000000000000000000000000000000000000000000000000\n      dup2\n      mstore\n      0x04\n      add\n      tag_297\n      swap1\n      tag_298\n      jump\t// in\n    tag_297:\n      mload(0x40)\n      dup1\n      swap2\n      sub\n      swap1\n      revert\n    tag_296:\n        /* \"contracts/Escrow.sol\":6415:6432  payTo(to, amount) */\n      tag_299\n        /* \"contracts/Escrow.sol\":6421:6423  to */\n      dup4\n        /* \"contracts/Escrow.sol\":6425:6431  amount */\n      dup4\n        /* \"contracts/Escrow.sol\":6415:6420  payTo */\n      tag_149\n        /* \"contracts/Escrow.sol\":6415:6432  payTo(to, amount) */\n      jump\t// in\n    tag_299:\n      pop\n        /* \"contracts/Escrow.sol\":6458:6464  amount */\n      dup2\n        /* \"contracts/Escrow.sol\":6443:6454  escAvailBal */\n      0x03\n      0x00\n        /* \"contracts/Escrow.sol\":6443:6464  escAvailBal -= amount */\n      dup3\n      dup3\n      sload\n      tag_300\n      swap2\n      swap1\n      tag_148\n      jump\t// in\n    tag_300:\n      swap3\n      pop\n      pop\n      dup2\n      swap1\n      sstore\n      pop\n        /* \"contracts/Escrow.sol\":6593:6603  msg.sender */\n      caller\n        /* \"contracts/Escrow.sol\":6482:6614  Action (... */\n      0xffffffffffffffffffffffffffffffffffffffff\n      and\n      0x23ad0062ad47da0f27f5c07751751e4b60afc16bf6fe03a24266a01ec4897931\n        /* \"contracts/Escrow.sol\":6504:6519  block.timestamp */\n      timestamp\n        /* \"contracts/Escrow.sol\":6561:6578  Status.WITHDRAWED */\n      0x06\n        /* \"contracts/Escrow.sol\":6482:6614  Action (... */\n      mload(0x40)\n      tag_301\n      swap3\n      swap2\n      swap1\n      tag_302\n      jump\t// in\n    tag_301:\n      mload(0x40)\n      dup1\n      swap2\n      sub\n      swap1\n      log2\n        /* \"contracts/Escrow.sol\":6634:6638  true */\n      0x01\n        /* \"contracts/Escrow.sol\":6627:6638  return true */\n      swap1\n      pop\n        /* \"contracts/Escrow.sol\":6148:6646  function withdrawFund(... */\n      swap3\n      swap2\n      pop\n      pop\n      jump\t// out\n        /* \"contracts/Escrow.sol\":6654:6886  function payTo(... */\n    tag_149:\n        /* \"contracts/Escrow.sol\":6741:6745  bool */\n      0x00\n        /* \"contracts/Escrow.sol\":6759:6771  bool success */\n      dup1\n        /* \"contracts/Escrow.sol\":6784:6786  to */\n      dup4\n        /* \"contracts/Escrow.sol\":6776:6792  payable(to).call */\n      0xffffffffffffffffffffffffffffffffffffffff\n      and\n        /* \"contracts/Escrow.sol\":6800:6806  amount */\n      dup4\n        /* \"contracts/Escrow.sol\":6776:6811  payable(to).call{value: amount}(\"\") */\n      mload(0x40)\n      tag_304\n      swap1\n      tag_305\n      jump\t// in\n    tag_304:\n      0x00\n      mload(0x40)\n      dup1\n      dup4\n      sub\n      dup2\n      dup6\n      dup8\n      gas\n      call\n      swap3\n      pop\n      pop\n      pop\n      returndatasize\n      dup1\n      0x00\n      dup2\n      eq\n      tag_308\n      jumpi\n      mload(0x40)\n      swap2\n      pop\n      and(add(returndatasize, 0x3f), not(0x1f))\n      dup3\n      add\n      0x40\n      mstore\n      returndatasize\n      dup3\n      mstore\n      returndatasize\n      0x00\n      0x20\n      dup5\n      add\n      returndatacopy\n      jump(tag_307)\n    tag_308:\n      0x60\n      swap2\n      pop\n    tag_307:\n      pop\n        /* \"contracts/Escrow.sol\":6758:6811  (bool success,) = payable(to).call{value: amount}(\"\") */\n      pop\n      swap1\n      pop\n        /* \"contracts/Escrow.sol\":6830:6837  success */\n      dup1\n        /* \"contracts/Escrow.sol\":6822:6856  require(success, \"Payment failed\") */\n      tag_309\n      jumpi\n      mload(0x40)\n      0x08c379a000000000000000000000000000000000000000000000000000000000\n      dup2\n      mstore\n      0x04\n      add\n      tag_310\n      swap1\n      tag_311\n      jump\t// in\n    tag_310:\n      mload(0x40)\n      dup1\n      swap2\n      sub\n      swap1\n      revert\n    tag_309:\n        /* \"contracts/Escrow.sol\":6874:6878  true */\n      0x01\n        /* \"contracts/Escrow.sol\":6867:6878  return true */\n      swap2\n      pop\n      pop\n        /* \"contracts/Escrow.sol\":6654:6886  function payTo(... */\n      swap3\n      swap2\n      pop\n      pop\n      jump\t// out\n    tag_191:\n      mload(0x40)\n      dup1\n      0x0120\n      add\n      0x40\n      mstore\n      dup1\n      0x00\n      dup2\n      mstore\n      0x20\n      add\n      0x60\n      dup2\n      mstore\n      0x20\n      add\n      0x00\n      dup2\n      mstore\n      0x20\n      add\n      0x00\n      dup2\n      mstore\n      0x20\n      add\n      and(0xffffffffffffffffffffffffffffffffffffffff, 0x00)\n      dup2\n      mstore\n      0x20\n      add\n      and(0xffffffffffffffffffffffffffffffffffffffff, 0x00)\n      dup2\n      mstore\n      0x20\n      add\n      0x00\n      0x06\n      dup2\n      gt\n      iszero\n      tag_312\n      jumpi\n      tag_313\n      tag_135\n      jump\t// in\n    tag_313:\n    tag_312:\n      dup2\n      mstore\n      0x20\n      add\n      iszero(iszero(0x00))\n      dup2\n      mstore\n      0x20\n      add\n      iszero(iszero(0x00))\n      dup2\n      mstore\n      pop\n      swap1\n      jump\t// out\n        /* \"#utility.yul\":88:205   */\n    tag_315:\n        /* \"#utility.yul\":197:198   */\n      0x00\n        /* \"#utility.yul\":194:195   */\n      dup1\n        /* \"#utility.yul\":187:199   */\n      revert\n        /* \"#utility.yul\":211:328   */\n    tag_316:\n        /* \"#utility.yul\":320:321   */\n      0x00\n        /* \"#utility.yul\":317:318   */\n      dup1\n        /* \"#utility.yul\":310:322   */\n      revert\n        /* \"#utility.yul\":334:411   */\n    tag_317:\n        /* \"#utility.yul\":371:378   */\n      0x00\n        /* \"#utility.yul\":400:405   */\n      dup2\n        /* \"#utility.yul\":389:405   */\n      swap1\n      pop\n        /* \"#utility.yul\":334:411   */\n      swap2\n      swap1\n      pop\n      jump\t// out\n        /* \"#utility.yul\":417:539   */\n    tag_318:\n        /* \"#utility.yul\":490:514   */\n      tag_431\n        /* \"#utility.yul\":508:513   */\n      dup2\n        /* \"#utility.yul\":490:514   */\n      tag_317\n      jump\t// in\n    tag_431:\n        /* \"#utility.yul\":483:488   */\n      dup2\n        /* \"#utility.yul\":480:515   */\n      eq\n        /* \"#utility.yul\":470:533   */\n      tag_432\n      jumpi\n        /* \"#utility.yul\":529:530   */\n      0x00\n        /* \"#utility.yul\":526:527   */\n      dup1\n        /* \"#utility.yul\":519:531   */\n      revert\n        /* \"#utility.yul\":470:533   */\n    tag_432:\n        /* \"#utility.yul\":417:539   */\n      pop\n      jump\t// out\n        /* \"#utility.yul\":545:684   */\n    tag_319:\n        /* \"#utility.yul\":591:596   */\n      0x00\n        /* \"#utility.yul\":629:635   */\n      dup2\n        /* \"#utility.yul\":616:636   */\n      calldataload\n        /* \"#utility.yul\":607:636   */\n      swap1\n      pop\n        /* \"#utility.yul\":645:678   */\n      tag_434\n        /* \"#utility.yul\":672:677   */\n      dup2\n        /* \"#utility.yul\":645:678   */\n      tag_318\n      jump\t// in\n    tag_434:\n        /* \"#utility.yul\":545:684   */\n      swap3\n      swap2\n      pop\n      pop\n      jump\t// out\n        /* \"#utility.yul\":690:780   */\n    tag_320:\n        /* \"#utility.yul\":724:731   */\n      0x00\n        /* \"#utility.yul\":767:772   */\n      dup2\n        /* \"#utility.yul\":760:773   */\n      iszero\n        /* \"#utility.yul\":753:774   */\n      iszero\n        /* \"#utility.yul\":742:774   */\n      swap1\n      pop\n        /* \"#utility.yul\":690:780   */\n      swap2\n      swap1\n      pop\n      jump\t// out\n        /* \"#utility.yul\":786:902   */\n    tag_321:\n        /* \"#utility.yul\":856:877   */\n      tag_437\n        /* \"#utility.yul\":871:876   */\n      dup2\n        /* \"#utility.yul\":856:877   */\n      tag_320\n      jump\t// in\n    tag_437:\n        /* \"#utility.yul\":849:854   */\n      dup2\n        /* \"#utility.yul\":846:878   */\n      eq\n        /* \"#utility.yul\":836:896   */\n      tag_438\n      jumpi\n        /* \"#utility.yul\":892:893   */\n      0x00\n        /* \"#utility.yul\":889:890   */\n      dup1\n        /* \"#utility.yul\":882:894   */\n      revert\n        /* \"#utility.yul\":836:896   */\n    tag_438:\n        /* \"#utility.yul\":786:902   */\n      pop\n      jump\t// out\n        /* \"#utility.yul\":908:1041   */\n    tag_322:\n        /* \"#utility.yul\":951:956   */\n      0x00\n        /* \"#utility.yul\":989:995   */\n      dup2\n        /* \"#utility.yul\":976:996   */\n      calldataload\n        /* \"#utility.yul\":967:996   */\n      swap1\n      pop\n        /* \"#utility.yul\":1005:1035   */\n      tag_440\n        /* \"#utility.yul\":1029:1034   */\n      dup2\n        /* \"#utility.yul\":1005:1035   */\n      tag_321\n      jump\t// in\n    tag_440:\n        /* \"#utility.yul\":908:1041   */\n      swap3\n      swap2\n      pop\n      pop\n      jump\t// out\n        /* \"#utility.yul\":1047:1515   */\n    tag_28:\n        /* \"#utility.yul\":1112:1118   */\n      0x00\n        /* \"#utility.yul\":1120:1126   */\n      dup1\n        /* \"#utility.yul\":1169:1171   */\n      0x40\n        /* \"#utility.yul\":1157:1166   */\n      dup4\n        /* \"#utility.yul\":1148:1155   */\n      dup6\n        /* \"#utility.yul\":1144:1167   */\n      sub\n        /* \"#utility.yul\":1140:1172   */\n      slt\n        /* \"#utility.yul\":1137:1256   */\n      iszero\n      tag_442\n      jumpi\n        /* \"#utility.yul\":1175:1254   */\n      tag_443\n      tag_315\n      jump\t// in\n    tag_443:\n        /* \"#utility.yul\":1137:1256   */\n    tag_442:\n        /* \"#utility.yul\":1295:1296   */\n      0x00\n        /* \"#utility.yul\":1320:1373   */\n      tag_444\n        /* \"#utility.yul\":1365:1372   */\n      dup6\n        /* \"#utility.yul\":1356:1362   */\n      dup3\n        /* \"#utility.yul\":1345:1354   */\n      dup7\n        /* \"#utility.yul\":1341:1363   */\n      add\n        /* \"#utility.yul\":1320:1373   */\n      tag_319\n      jump\t// in\n    tag_444:\n        /* \"#utility.yul\":1310:1373   */\n      swap3\n      pop\n        /* \"#utility.yul\":1266:1383   */\n      pop\n        /* \"#utility.yul\":1422:1424   */\n      0x20\n        /* \"#utility.yul\":1448:1498   */\n      tag_445\n        /* \"#utility.yul\":1490:1497   */\n      dup6\n        /* \"#utility.yul\":1481:1487   */\n      dup3\n        /* \"#utility.yul\":1470:1479   */\n      dup7\n        /* \"#utility.yul\":1466:1488   */\n      add\n        /* \"#utility.yul\":1448:1498   */\n      tag_322\n      jump\t// in\n    tag_445:\n        /* \"#utility.yul\":1438:1498   */\n      swap2\n      pop\n        /* \"#utility.yul\":1393:1508   */\n      pop\n        /* \"#utility.yul\":1047:1515   */\n      swap3\n      pop\n      swap3\n      swap1\n      pop\n      jump\t// out\n        /* \"#utility.yul\":1521:1630   */\n    tag_323:\n        /* \"#utility.yul\":1602:1623   */\n      tag_447\n        /* \"#utility.yul\":1617:1622   */\n      dup2\n        /* \"#utility.yul\":1602:1623   */\n      tag_320\n      jump\t// in\n    tag_447:\n        /* \"#utility.yul\":1597:1600   */\n      dup3\n        /* \"#utility.yul\":1590:1624   */\n      mstore\n        /* \"#utility.yul\":1521:1630   */\n      pop\n      pop\n      jump\t// out\n        /* \"#utility.yul\":1636:1846   */\n    tag_31:\n        /* \"#utility.yul\":1723:1727   */\n      0x00\n        /* \"#utility.yul\":1761:1763   */\n      0x20\n        /* \"#utility.yul\":1750:1759   */\n      dup3\n        /* \"#utility.yul\":1746:1764   */\n      add\n        /* \"#utility.yul\":1738:1764   */\n      swap1\n      pop\n        /* \"#utility.yul\":1774:1839   */\n      tag_449\n        /* \"#utility.yul\":1836:1837   */\n      0x00\n        /* \"#utility.yul\":1825:1834   */\n      dup4\n        /* \"#utility.yul\":1821:1838   */\n      add\n        /* \"#utility.yul\":1812:1818   */\n      dup5\n        /* \"#utility.yul\":1774:1839   */\n      tag_323\n      jump\t// in\n    tag_449:\n        /* \"#utility.yul\":1636:1846   */\n      swap3\n      swap2\n      pop\n      pop\n      jump\t// out\n        /* \"#utility.yul\":1852:1993   */\n    tag_324:\n        /* \"#utility.yul\":1946:1952   */\n      0x00\n        /* \"#utility.yul\":1980:1985   */\n      dup2\n        /* \"#utility.yul\":1974:1986   */\n      mload\n        /* \"#utility.yul\":1964:1986   */\n      swap1\n      pop\n        /* \"#utility.yul\":1852:1993   */\n      swap2\n      swap1\n      pop\n      jump\t// out\n        /* \"#utility.yul\":1999:2210   */\n    tag_325:\n        /* \"#utility.yul\":2125:2136   */\n      0x00\n        /* \"#utility.yul\":2159:2165   */\n      dup3\n        /* \"#utility.yul\":2154:2157   */\n      dup3\n        /* \"#utility.yul\":2147:2166   */\n      mstore\n        /* \"#utility.yul\":2199:2203   */\n      0x20\n        /* \"#utility.yul\":2194:2197   */\n      dup3\n        /* \"#utility.yul\":2190:2204   */\n      add\n        /* \"#utility.yul\":2175:2204   */\n      swap1\n      pop\n        /* \"#utility.yul\":1999:2210   */\n      swap3\n      swap2\n      pop\n      pop\n      jump\t// out\n        /* \"#utility.yul\":2216:2375   */\n    tag_326:\n        /* \"#utility.yul\":2310:2314   */\n      0x00\n        /* \"#utility.yul\":2333:2336   */\n      dup2\n        /* \"#utility.yul\":2325:2336   */\n      swap1\n      pop\n        /* \"#utility.yul\":2363:2367   */\n      0x20\n        /* \"#utility.yul\":2358:2361   */\n      dup3\n        /* \"#utility.yul\":2354:2368   */\n      add\n        /* \"#utility.yul\":2346:2368   */\n      swap1\n      pop\n        /* \"#utility.yul\":2216:2375   */\n      swap2\n      swap1\n      pop\n      jump\t// out\n        /* \"#utility.yul\":2381:2489   */\n    tag_327:\n        /* \"#utility.yul\":2458:2482   */\n      tag_454\n        /* \"#utility.yul\":2476:2481   */\n      dup2\n        /* \"#utility.yul\":2458:2482   */\n      tag_317\n      jump\t// in\n    tag_454:\n        /* \"#utility.yul\":2453:2456   */\n      dup3\n        /* \"#utility.yul\":2446:2483   */\n      mstore\n        /* \"#utility.yul\":2381:2489   */\n      pop\n      pop\n      jump\t// out\n        /* \"#utility.yul\":2495:2594   */\n    tag_328:\n        /* \"#utility.yul\":2547:2553   */\n      0x00\n        /* \"#utility.yul\":2581:2586   */\n      dup2\n        /* \"#utility.yul\":2575:2587   */\n      mload\n        /* \"#utility.yul\":2565:2587   */\n      swap1\n      pop\n        /* \"#utility.yul\":2495:2594   */\n      swap2\n      swap1\n      pop\n      jump\t// out\n        /* \"#utility.yul\":2600:2759   */\n    tag_329:\n        /* \"#utility.yul\":2674:2685   */\n      0x00\n        /* \"#utility.yul\":2708:2714   */\n      dup3\n        /* \"#utility.yul\":2703:2706   */\n      dup3\n        /* \"#utility.yul\":2696:2715   */\n      mstore\n        /* \"#utility.yul\":2748:2752   */\n      0x20\n        /* \"#utility.yul\":2743:2746   */\n      dup3\n        /* \"#utility.yul\":2739:2753   */\n      add\n        /* \"#utility.yul\":2724:2753   */\n      swap1\n      pop\n        /* \"#utility.yul\":2600:2759   */\n      swap3\n      swap2\n      pop\n      pop\n      jump\t// out\n        /* \"#utility.yul\":2765:3011   */\n    tag_330:\n        /* \"#utility.yul\":2846:2847   */\n      0x00\n        /* \"#utility.yul\":2856:2969   */\n    tag_458:\n        /* \"#utility.yul\":2870:2876   */\n      dup4\n        /* \"#utility.yul\":2867:2868   */\n      dup2\n        /* \"#utility.yul\":2864:2877   */\n      lt\n        /* \"#utility.yul\":2856:2969   */\n      iszero\n      tag_460\n      jumpi\n        /* \"#utility.yul\":2955:2956   */\n      dup1\n        /* \"#utility.yul\":2950:2953   */\n      dup3\n        /* \"#utility.yul\":2946:2957   */\n      add\n        /* \"#utility.yul\":2940:2958   */\n      mload\n        /* \"#utility.yul\":2936:2937   */\n      dup2\n        /* \"#utility.yul\":2931:2934   */\n      dup5\n        /* \"#utility.yul\":2927:2938   */\n      add\n        /* \"#utility.yul\":2920:2959   */\n      mstore\n        /* \"#utility.yul\":2892:2894   */\n      0x20\n        /* \"#utility.yul\":2889:2890   */\n      dup2\n        /* \"#utility.yul\":2885:2895   */\n      add\n        /* \"#utility.yul\":2880:2895   */\n      swap1\n      pop\n        /* \"#utility.yul\":2856:2969   */\n      jump(tag_458)\n    tag_460:\n        /* \"#utility.yul\":3003:3004   */\n      0x00\n        /* \"#utility.yul\":2994:3000   */\n      dup5\n        /* \"#utility.yul\":2989:2992   */\n      dup5\n        /* \"#utility.yul\":2985:3001   */\n      add\n        /* \"#utility.yul\":2978:3005   */\n      mstore\n        /* \"#utility.yul\":2827:3011   */\n      pop\n        /* \"#utility.yul\":2765:3011   */\n      pop\n      pop\n      pop\n      jump\t// out\n        /* \"#utility.yul\":3017:3119   */\n    tag_331:\n        /* \"#utility.yul\":3058:3064   */\n      0x00\n        /* \"#utility.yul\":3109:3111   */\n      0x1f\n        /* \"#utility.yul\":3105:3112   */\n      not\n        /* \"#utility.yul\":3100:3102   */\n      0x1f\n        /* \"#utility.yul\":3093:3098   */\n      dup4\n        /* \"#utility.yul\":3089:3103   */\n      add\n        /* \"#utility.yul\":3085:3113   */\n      and\n        /* \"#utility.yul\":3075:3113   */\n      swap1\n      pop\n        /* \"#utility.yul\":3017:3119   */\n      swap2\n      swap1\n      pop\n      jump\t// out\n        /* \"#utility.yul\":3125:3482   */\n    tag_332:\n        /* \"#utility.yul\":3203:3206   */\n      0x00\n        /* \"#utility.yul\":3231:3270   */\n      tag_463\n        /* \"#utility.yul\":3264:3269   */\n      dup3\n        /* \"#utility.yul\":3231:3270   */\n      tag_328\n      jump\t// in\n    tag_463:\n        /* \"#utility.yul\":3286:3347   */\n      tag_464\n        /* \"#utility.yul\":3340:3346   */\n      dup2\n        /* \"#utility.yul\":3335:3338   */\n      dup6\n        /* \"#utility.yul\":3286:3347   */\n      tag_329\n      jump\t// in\n    tag_464:\n        /* \"#utility.yul\":3279:3347   */\n      swap4\n      pop\n        /* \"#utility.yul\":3356:3421   */\n      tag_465\n        /* \"#utility.yul\":3414:3420   */\n      dup2\n        /* \"#utility.yul\":3409:3412   */\n      dup6\n        /* \"#utility.yul\":3402:3406   */\n      0x20\n        /* \"#utility.yul\":3395:3400   */\n      dup7\n        /* \"#utility.yul\":3391:3407   */\n      add\n        /* \"#utility.yul\":3356:3421   */\n      tag_330\n      jump\t// in\n    tag_465:\n        /* \"#utility.yul\":3446:3475   */\n      tag_466\n        /* \"#utility.yul\":3468:3474   */\n      dup2\n        /* \"#utility.yul\":3446:3475   */\n      tag_331\n      jump\t// in\n    tag_466:\n        /* \"#utility.yul\":3441:3444   */\n      dup5\n        /* \"#utility.yul\":3437:3476   */\n      add\n        /* \"#utility.yul\":3430:3476   */\n      swap2\n      pop\n        /* \"#utility.yul\":3207:3482   */\n      pop\n        /* \"#utility.yul\":3125:3482   */\n      swap3\n      swap2\n      pop\n      pop\n      jump\t// out\n        /* \"#utility.yul\":3488:3614   */\n    tag_333:\n        /* \"#utility.yul\":3525:3532   */\n      0x00\n        /* \"#utility.yul\":3565:3607   */\n      0xffffffffffffffffffffffffffffffffffffffff\n        /* \"#utility.yul\":3558:3563   */\n      dup3\n        /* \"#utility.yul\":3554:3608   */\n      and\n        /* \"#utility.yul\":3543:3608   */\n      swap1\n      pop\n        /* \"#utility.yul\":3488:3614   */\n      swap2\n      swap1\n      pop\n      jump\t// out\n        /* \"#utility.yul\":3620:3716   */\n    tag_334:\n        /* \"#utility.yul\":3657:3664   */\n      0x00\n        /* \"#utility.yul\":3686:3710   */\n      tag_469\n        /* \"#utility.yul\":3704:3709   */\n      dup3\n        /* \"#utility.yul\":3686:3710   */\n      tag_333\n      jump\t// in\n    tag_469:\n        /* \"#utility.yul\":3675:3710   */\n      swap1\n      pop\n        /* \"#utility.yul\":3620:3716   */\n      swap2\n      swap1\n      pop\n      jump\t// out\n        /* \"#utility.yul\":3722:3830   */\n    tag_335:\n        /* \"#utility.yul\":3799:3823   */\n      tag_471\n        /* \"#utility.yul\":3817:3822   */\n      dup2\n        /* \"#utility.yul\":3799:3823   */\n      tag_334\n      jump\t// in\n    tag_471:\n        /* \"#utility.yul\":3794:3797   */\n      dup3\n        /* \"#utility.yul\":3787:3824   */\n      mstore\n        /* \"#utility.yul\":3722:3830   */\n      pop\n      pop\n      jump\t// out\n        /* \"#utility.yul\":3836:4016   */\n    tag_135:\n        /* \"#utility.yul\":3884:3961   */\n      0x4e487b7100000000000000000000000000000000000000000000000000000000\n        /* \"#utility.yul\":3881:3882   */\n      0x00\n        /* \"#utility.yul\":3874:3962   */\n      mstore\n        /* \"#utility.yul\":3981:3985   */\n      0x21\n        /* \"#utility.yul\":3978:3979   */\n      0x04\n        /* \"#utility.yul\":3971:3986   */\n      mstore\n        /* \"#utility.yul\":4005:4009   */\n      0x24\n        /* \"#utility.yul\":4002:4003   */\n      0x00\n        /* \"#utility.yul\":3995:4010   */\n      revert\n        /* \"#utility.yul\":4022:4137   */\n    tag_336:\n        /* \"#utility.yul\":4105:4106   */\n      0x07\n        /* \"#utility.yul\":4098:4103   */\n      dup2\n        /* \"#utility.yul\":4095:4107   */\n      lt\n        /* \"#utility.yul\":4085:4131   */\n      tag_474\n      jumpi\n        /* \"#utility.yul\":4111:4129   */\n      tag_475\n      tag_135\n      jump\t// in\n    tag_475:\n        /* \"#utility.yul\":4085:4131   */\n    tag_474:\n        /* \"#utility.yul\":4022:4137   */\n      pop\n      jump\t// out\n        /* \"#utility.yul\":4143:4274   */\n    tag_337:\n        /* \"#utility.yul\":4190:4197   */\n      0x00\n        /* \"#utility.yul\":4219:4224   */\n      dup2\n        /* \"#utility.yul\":4208:4224   */\n      swap1\n      pop\n        /* \"#utility.yul\":4225:4268   */\n      tag_477\n        /* \"#utility.yul\":4262:4267   */\n      dup3\n        /* \"#utility.yul\":4225:4268   */\n      tag_336\n      jump\t// in\n    tag_477:\n        /* \"#utility.yul\":4143:4274   */\n      swap2\n      swap1\n      pop\n      jump\t// out\n        /* \"#utility.yul\":4280:4411   */\n    tag_338:\n        /* \"#utility.yul\":4338:4347   */\n      0x00\n        /* \"#utility.yul\":4371:4405   */\n      tag_479\n        /* \"#utility.yul\":4399:4404   */\n      dup3\n        /* \"#utility.yul\":4371:4405   */\n      tag_337\n      jump\t// in\n    tag_479:\n        /* \"#utility.yul\":4358:4405   */\n      swap1\n      pop\n        /* \"#utility.yul\":4280:4411   */\n      swap2\n      swap1\n      pop\n      jump\t// out\n        /* \"#utility.yul\":4417:4554   */\n    tag_339:\n        /* \"#utility.yul\":4502:4547   */\n      tag_481\n        /* \"#utility.yul\":4541:4546   */\n      dup2\n        /* \"#utility.yul\":4502:4547   */\n      tag_338\n      jump\t// in\n    tag_481:\n        /* \"#utility.yul\":4497:4500   */\n      dup3\n        /* \"#utility.yul\":4490:4548   */\n      mstore\n        /* \"#utility.yul\":4417:4554   */\n      pop\n      pop\n      jump\t// out\n        /* \"#utility.yul\":4560:4659   */\n    tag_340:\n        /* \"#utility.yul\":4631:4652   */\n      tag_483\n        /* \"#utility.yul\":4646:4651   */\n      dup2\n        /* \"#utility.yul\":4631:4652   */\n      tag_320\n      jump\t// in\n    tag_483:\n        /* \"#utility.yul\":4626:4629   */\n      dup3\n        /* \"#utility.yul\":4619:4653   */\n      mstore\n        /* \"#utility.yul\":4560:4659   */\n      pop\n      pop\n      jump\t// out\n        /* \"#utility.yul\":4725:6573   */\n    tag_341:\n        /* \"#utility.yul\":4838:4841   */\n      0x00\n        /* \"#utility.yul\":4874:4880   */\n      0x0120\n        /* \"#utility.yul\":4869:4872   */\n      dup4\n        /* \"#utility.yul\":4865:4881   */\n      add\n        /* \"#utility.yul\":4965:4969   */\n      0x00\n        /* \"#utility.yul\":4958:4963   */\n      dup4\n        /* \"#utility.yul\":4954:4970   */\n      add\n        /* \"#utility.yul\":4948:4971   */\n      mload\n        /* \"#utility.yul\":4984:5047   */\n      tag_485\n        /* \"#utility.yul\":5041:5045   */\n      0x00\n        /* \"#utility.yul\":5036:5039   */\n      dup7\n        /* \"#utility.yul\":5032:5046   */\n      add\n        /* \"#utility.yul\":5018:5030   */\n      dup3\n        /* \"#utility.yul\":4984:5047   */\n      tag_327\n      jump\t// in\n    tag_485:\n        /* \"#utility.yul\":4891:5057   */\n      pop\n        /* \"#utility.yul\":5142:5146   */\n      0x20\n        /* \"#utility.yul\":5135:5140   */\n      dup4\n        /* \"#utility.yul\":5131:5147   */\n      add\n        /* \"#utility.yul\":5125:5148   */\n      mload\n        /* \"#utility.yul\":5195:5198   */\n      dup5\n        /* \"#utility.yul\":5189:5193   */\n      dup3\n        /* \"#utility.yul\":5185:5199   */\n      sub\n        /* \"#utility.yul\":5178:5182   */\n      0x20\n        /* \"#utility.yul\":5173:5176   */\n      dup7\n        /* \"#utility.yul\":5169:5183   */\n      add\n        /* \"#utility.yul\":5162:5200   */\n      mstore\n        /* \"#utility.yul\":5221:5294   */\n      tag_486\n        /* \"#utility.yul\":5289:5293   */\n      dup3\n        /* \"#utility.yul\":5275:5287   */\n      dup3\n        /* \"#utility.yul\":5221:5294   */\n      tag_332\n      jump\t// in\n    tag_486:\n        /* \"#utility.yul\":5213:5294   */\n      swap2\n      pop\n        /* \"#utility.yul\":5067:5305   */\n      pop\n        /* \"#utility.yul\":5389:5393   */\n      0x40\n        /* \"#utility.yul\":5382:5387   */\n      dup4\n        /* \"#utility.yul\":5378:5394   */\n      add\n        /* \"#utility.yul\":5372:5395   */\n      mload\n        /* \"#utility.yul\":5408:5471   */\n      tag_487\n        /* \"#utility.yul\":5465:5469   */\n      0x40\n        /* \"#utility.yul\":5460:5463   */\n      dup7\n        /* \"#utility.yul\":5456:5470   */\n      add\n        /* \"#utility.yul\":5442:5454   */\n      dup3\n        /* \"#utility.yul\":5408:5471   */\n      tag_327\n      jump\t// in\n    tag_487:\n        /* \"#utility.yul\":5315:5481   */\n      pop\n        /* \"#utility.yul\":5568:5572   */\n      0x60\n        /* \"#utility.yul\":5561:5566   */\n      dup4\n        /* \"#utility.yul\":5557:5573   */\n      add\n        /* \"#utility.yul\":5551:5574   */\n      mload\n        /* \"#utility.yul\":5587:5650   */\n      tag_488\n        /* \"#utility.yul\":5644:5648   */\n      0x60\n        /* \"#utility.yul\":5639:5642   */\n      dup7\n        /* \"#utility.yul\":5635:5649   */\n      add\n        /* \"#utility.yul\":5621:5633   */\n      dup3\n        /* \"#utility.yul\":5587:5650   */\n      tag_327\n      jump\t// in\n    tag_488:\n        /* \"#utility.yul\":5491:5660   */\n      pop\n        /* \"#utility.yul\":5743:5747   */\n      0x80\n        /* \"#utility.yul\":5736:5741   */\n      dup4\n        /* \"#utility.yul\":5732:5748   */\n      add\n        /* \"#utility.yul\":5726:5749   */\n      mload\n        /* \"#utility.yul\":5762:5825   */\n      tag_489\n        /* \"#utility.yul\":5819:5823   */\n      0x80\n        /* \"#utility.yul\":5814:5817   */\n      dup7\n        /* \"#utility.yul\":5810:5824   */\n      add\n        /* \"#utility.yul\":5796:5808   */\n      dup3\n        /* \"#utility.yul\":5762:5825   */\n      tag_335\n      jump\t// in\n    tag_489:\n        /* \"#utility.yul\":5670:5835   */\n      pop\n        /* \"#utility.yul\":5921:5925   */\n      0xa0\n        /* \"#utility.yul\":5914:5919   */\n      dup4\n        /* \"#utility.yul\":5910:5926   */\n      add\n        /* \"#utility.yul\":5904:5927   */\n      mload\n        /* \"#utility.yul\":5940:6003   */\n      tag_490\n        /* \"#utility.yul\":5997:6001   */\n      0xa0\n        /* \"#utility.yul\":5992:5995   */\n      dup7\n        /* \"#utility.yul\":5988:6002   */\n      add\n        /* \"#utility.yul\":5974:5986   */\n      dup3\n        /* \"#utility.yul\":5940:6003   */\n      tag_335\n      jump\t// in\n    tag_490:\n        /* \"#utility.yul\":5845:6013   */\n      pop\n        /* \"#utility.yul\":6097:6101   */\n      0xc0\n        /* \"#utility.yul\":6090:6095   */\n      dup4\n        /* \"#utility.yul\":6086:6102   */\n      add\n        /* \"#utility.yul\":6080:6103   */\n      mload\n        /* \"#utility.yul\":6116:6187   */\n      tag_491\n        /* \"#utility.yul\":6181:6185   */\n      0xc0\n        /* \"#utility.yul\":6176:6179   */\n      dup7\n        /* \"#utility.yul\":6172:6186   */\n      add\n        /* \"#utility.yul\":6158:6170   */\n      dup3\n        /* \"#utility.yul\":6116:6187   */\n      tag_339\n      jump\t// in\n    tag_491:\n        /* \"#utility.yul\":6023:6197   */\n      pop\n        /* \"#utility.yul\":6283:6287   */\n      0xe0\n        /* \"#utility.yul\":6276:6281   */\n      dup4\n        /* \"#utility.yul\":6272:6288   */\n      add\n        /* \"#utility.yul\":6266:6289   */\n      mload\n        /* \"#utility.yul\":6302:6359   */\n      tag_492\n        /* \"#utility.yul\":6353:6357   */\n      0xe0\n        /* \"#utility.yul\":6348:6351   */\n      dup7\n        /* \"#utility.yul\":6344:6358   */\n      add\n        /* \"#utility.yul\":6330:6342   */\n      dup3\n        /* \"#utility.yul\":6302:6359   */\n      tag_340\n      jump\t// in\n    tag_492:\n        /* \"#utility.yul\":6207:6369   */\n      pop\n        /* \"#utility.yul\":6456:6462   */\n      0x0100\n        /* \"#utility.yul\":6449:6454   */\n      dup4\n        /* \"#utility.yul\":6445:6463   */\n      add\n        /* \"#utility.yul\":6439:6464   */\n      mload\n        /* \"#utility.yul\":6477:6536   */\n      tag_493\n        /* \"#utility.yul\":6528:6534   */\n      0x0100\n        /* \"#utility.yul\":6523:6526   */\n      dup7\n        /* \"#utility.yul\":6519:6535   */\n      add\n        /* \"#utility.yul\":6505:6517   */\n      dup3\n        /* \"#utility.yul\":6477:6536   */\n      tag_340\n      jump\t// in\n    tag_493:\n        /* \"#utility.yul\":6379:6546   */\n      pop\n        /* \"#utility.yul\":6563:6567   */\n      dup1\n        /* \"#utility.yul\":6556:6567   */\n      swap2\n      pop\n        /* \"#utility.yul\":4843:6573   */\n      pop\n        /* \"#utility.yul\":4725:6573   */\n      swap3\n      swap2\n      pop\n      pop\n      jump\t// out\n        /* \"#utility.yul\":6579:6843   */\n    tag_342:\n        /* \"#utility.yul\":6702:6712   */\n      0x00\n        /* \"#utility.yul\":6737:6837   */\n      tag_495\n        /* \"#utility.yul\":6833:6836   */\n      dup4\n        /* \"#utility.yul\":6825:6831   */\n      dup4\n        /* \"#utility.yul\":6737:6837   */\n      tag_341\n      jump\t// in\n    tag_495:\n        /* \"#utility.yul\":6723:6837   */\n      swap1\n      pop\n        /* \"#utility.yul\":6579:6843   */\n      swap3\n      swap2\n      pop\n      pop\n      jump\t// out\n        /* \"#utility.yul\":6849:6989   */\n    tag_343:\n        /* \"#utility.yul\":6946:6950   */\n      0x00\n        /* \"#utility.yul\":6978:6982   */\n      0x20\n        /* \"#utility.yul\":6973:6976   */\n      dup3\n        /* \"#utility.yul\":6969:6983   */\n      add\n        /* \"#utility.yul\":6961:6983   */\n      swap1\n      pop\n        /* \"#utility.yul\":6849:6989   */\n      swap2\n      swap1\n      pop\n      jump\t// out\n        /* \"#utility.yul\":7059:8186   */\n    tag_344:\n        /* \"#utility.yul\":7232:7235   */\n      0x00\n        /* \"#utility.yul\":7261:7342   */\n      tag_498\n        /* \"#utility.yul\":7336:7341   */\n      dup3\n        /* \"#utility.yul\":7261:7342   */\n      tag_324\n      jump\t// in\n    tag_498:\n        /* \"#utility.yul\":7358:7471   */\n      tag_499\n        /* \"#utility.yul\":7464:7470   */\n      dup2\n        /* \"#utility.yul\":7459:7462   */\n      dup6\n        /* \"#utility.yul\":7358:7471   */\n      tag_325\n      jump\t// in\n    tag_499:\n        /* \"#utility.yul\":7351:7471   */\n      swap4\n      pop\n        /* \"#utility.yul\":7497:7500   */\n      dup4\n        /* \"#utility.yul\":7542:7546   */\n      0x20\n        /* \"#utility.yul\":7534:7540   */\n      dup3\n        /* \"#utility.yul\":7530:7547   */\n      mul\n        /* \"#utility.yul\":7525:7528   */\n      dup6\n        /* \"#utility.yul\":7521:7548   */\n      add\n        /* \"#utility.yul\":7572:7655   */\n      tag_500\n        /* \"#utility.yul\":7649:7654   */\n      dup6\n        /* \"#utility.yul\":7572:7655   */\n      tag_326\n      jump\t// in\n    tag_500:\n        /* \"#utility.yul\":7678:7685   */\n      dup1\n        /* \"#utility.yul\":7709:7710   */\n      0x00\n        /* \"#utility.yul\":7694:8141   */\n    tag_501:\n        /* \"#utility.yul\":7719:7725   */\n      dup6\n        /* \"#utility.yul\":7716:7717   */\n      dup2\n        /* \"#utility.yul\":7713:7726   */\n      lt\n        /* \"#utility.yul\":7694:8141   */\n      iszero\n      tag_503\n      jumpi\n        /* \"#utility.yul\":7790:7799   */\n      dup5\n        /* \"#utility.yul\":7784:7788   */\n      dup5\n        /* \"#utility.yul\":7780:7800   */\n      sub\n        /* \"#utility.yul\":7775:7778   */\n      dup10\n        /* \"#utility.yul\":7768:7801   */\n      mstore\n        /* \"#utility.yul\":7841:7847   */\n      dup2\n        /* \"#utility.yul\":7835:7848   */\n      mload\n        /* \"#utility.yul\":7869:7987   */\n      tag_504\n        /* \"#utility.yul\":7982:7986   */\n      dup6\n        /* \"#utility.yul\":7967:7980   */\n      dup3\n        /* \"#utility.yul\":7869:7987   */\n      tag_342\n      jump\t// in\n    tag_504:\n        /* \"#utility.yul\":7861:7987   */\n      swap5\n      pop\n        /* \"#utility.yul\":8010:8097   */\n      tag_505\n        /* \"#utility.yul\":8090:8096   */\n      dup4\n        /* \"#utility.yul\":8010:8097   */\n      tag_343\n      jump\t// in\n    tag_505:\n        /* \"#utility.yul\":8000:8097   */\n      swap3\n      pop\n        /* \"#utility.yul\":8126:8130   */\n      0x20\n        /* \"#utility.yul\":8121:8124   */\n      dup11\n        /* \"#utility.yul\":8117:8131   */\n      add\n        /* \"#utility.yul\":8110:8131   */\n      swap10\n      pop\n        /* \"#utility.yul\":7754:8141   */\n      pop\n        /* \"#utility.yul\":7741:7742   */\n      0x01\n        /* \"#utility.yul\":7738:7739   */\n      dup2\n        /* \"#utility.yul\":7734:7743   */\n      add\n        /* \"#utility.yul\":7729:7743   */\n      swap1\n      pop\n        /* \"#utility.yul\":7694:8141   */\n      jump(tag_501)\n    tag_503:\n        /* \"#utility.yul\":7698:7712   */\n      pop\n        /* \"#utility.yul\":8157:8161   */\n      dup3\n        /* \"#utility.yul\":8150:8161   */\n      swap8\n      pop\n        /* \"#utility.yul\":8177:8180   */\n      dup8\n        /* \"#utility.yul\":8170:8180   */\n      swap6\n      pop\n        /* \"#utility.yul\":7237:8186   */\n      pop\n      pop\n      pop\n      pop\n      pop\n        /* \"#utility.yul\":7059:8186   */\n      swap3\n      swap2\n      pop\n      pop\n      jump\t// out\n        /* \"#utility.yul\":8192:8673   */\n    tag_36:\n        /* \"#utility.yul\":8389:8393   */\n      0x00\n        /* \"#utility.yul\":8427:8429   */\n      0x20\n        /* \"#utility.yul\":8416:8425   */\n      dup3\n        /* \"#utility.yul\":8412:8430   */\n      add\n        /* \"#utility.yul\":8404:8430   */\n      swap1\n      pop\n        /* \"#utility.yul\":8476:8485   */\n      dup2\n        /* \"#utility.yul\":8470:8474   */\n      dup2\n        /* \"#utility.yul\":8466:8486   */\n      sub\n        /* \"#utility.yul\":8462:8463   */\n      0x00\n        /* \"#utility.yul\":8451:8460   */\n      dup4\n        /* \"#utility.yul\":8447:8464   */\n      add\n        /* \"#utility.yul\":8440:8487   */\n      mstore\n        /* \"#utility.yul\":8504:8666   */\n      tag_507\n        /* \"#utility.yul\":8661:8665   */\n      dup2\n        /* \"#utility.yul\":8652:8658   */\n      dup5\n        /* \"#utility.yul\":8504:8666   */\n      tag_344\n      jump\t// in\n    tag_507:\n        /* \"#utility.yul\":8496:8666   */\n      swap1\n      pop\n        /* \"#utility.yul\":8192:8673   */\n      swap3\n      swap2\n      pop\n      pop\n      jump\t// out\n        /* \"#utility.yul\":8679:9008   */\n    tag_40:\n        /* \"#utility.yul\":8738:8744   */\n      0x00\n        /* \"#utility.yul\":8787:8789   */\n      0x20\n        /* \"#utility.yul\":8775:8784   */\n      dup3\n        /* \"#utility.yul\":8766:8773   */\n      dup5\n        /* \"#utility.yul\":8762:8785   */\n      sub\n        /* \"#utility.yul\":8758:8790   */\n      slt\n        /* \"#utility.yul\":8755:8874   */\n      iszero\n      tag_509\n      jumpi\n        /* \"#utility.yul\":8793:8872   */\n      tag_510\n      tag_315\n      jump\t// in\n    tag_510:\n        /* \"#utility.yul\":8755:8874   */\n    tag_509:\n        /* \"#utility.yul\":8913:8914   */\n      0x00\n        /* \"#utility.yul\":8938:8991   */\n      tag_511\n        /* \"#utility.yul\":8983:8990   */\n      dup5\n        /* \"#utility.yul\":8974:8980   */\n      dup3\n        /* \"#utility.yul\":8963:8972   */\n      dup6\n        /* \"#utility.yul\":8959:8981   */\n      add\n        /* \"#utility.yul\":8938:8991   */\n      tag_319\n      jump\t// in\n    tag_511:\n        /* \"#utility.yul\":8928:8991   */\n      swap2\n      pop\n        /* \"#utility.yul\":8884:9001   */\n      pop\n        /* \"#utility.yul\":8679:9008   */\n      swap3\n      swap2\n      pop\n      pop\n      jump\t// out\n        /* \"#utility.yul\":9014:9132   */\n    tag_345:\n        /* \"#utility.yul\":9101:9125   */\n      tag_513\n        /* \"#utility.yul\":9119:9124   */\n      dup2\n        /* \"#utility.yul\":9101:9125   */\n      tag_317\n      jump\t// in\n    tag_513:\n        /* \"#utility.yul\":9096:9099   */\n      dup3\n        /* \"#utility.yul\":9089:9126   */\n      mstore\n        /* \"#utility.yul\":9014:9132   */\n      pop\n      pop\n      jump\t// out\n        /* \"#utility.yul\":9138:9360   */\n    tag_47:\n        /* \"#utility.yul\":9231:9235   */\n      0x00\n        /* \"#utility.yul\":9269:9271   */\n      0x20\n        /* \"#utility.yul\":9258:9267   */\n      dup3\n        /* \"#utility.yul\":9254:9272   */\n      add\n        /* \"#utility.yul\":9246:9272   */\n      swap1\n      pop\n        /* \"#utility.yul\":9282:9353   */\n      tag_515\n        /* \"#utility.yul\":9350:9351   */\n      0x00\n        /* \"#utility.yul\":9339:9348   */\n      dup4\n        /* \"#utility.yul\":9335:9352   */\n      add\n        /* \"#utility.yul\":9326:9332   */\n      dup5\n        /* \"#utility.yul\":9282:9353   */\n      tag_345\n      jump\t// in\n    tag_515:\n        /* \"#utility.yul\":9138:9360   */\n      swap3\n      swap2\n      pop\n      pop\n      jump\t// out\n        /* \"#utility.yul\":9426:11284   */\n    tag_346:\n        /* \"#utility.yul\":9549:9552   */\n      0x00\n        /* \"#utility.yul\":9585:9591   */\n      0x0120\n        /* \"#utility.yul\":9580:9583   */\n      dup4\n        /* \"#utility.yul\":9576:9592   */\n      add\n        /* \"#utility.yul\":9676:9680   */\n      0x00\n        /* \"#utility.yul\":9669:9674   */\n      dup4\n        /* \"#utility.yul\":9665:9681   */\n      add\n        /* \"#utility.yul\":9659:9682   */\n      mload\n        /* \"#utility.yul\":9695:9758   */\n      tag_517\n        /* \"#utility.yul\":9752:9756   */\n      0x00\n        /* \"#utility.yul\":9747:9750   */\n      dup7\n        /* \"#utility.yul\":9743:9757   */\n      add\n        /* \"#utility.yul\":9729:9741   */\n      dup3\n        /* \"#utility.yul\":9695:9758   */\n      tag_327\n      jump\t// in\n    tag_517:\n        /* \"#utility.yul\":9602:9768   */\n      pop\n        /* \"#utility.yul\":9853:9857   */\n      0x20\n        /* \"#utility.yul\":9846:9851   */\n      dup4\n        /* \"#utility.yul\":9842:9858   */\n      add\n        /* \"#utility.yul\":9836:9859   */\n      mload\n        /* \"#utility.yul\":9906:9909   */\n      dup5\n        /* \"#utility.yul\":9900:9904   */\n      dup3\n        /* \"#utility.yul\":9896:9910   */\n      sub\n        /* \"#utility.yul\":9889:9893   */\n      0x20\n        /* \"#utility.yul\":9884:9887   */\n      dup7\n        /* \"#utility.yul\":9880:9894   */\n      add\n        /* \"#utility.yul\":9873:9911   */\n      mstore\n        /* \"#utility.yul\":9932:10005   */\n      tag_518\n        /* \"#utility.yul\":10000:10004   */\n      dup3\n        /* \"#utility.yul\":9986:9998   */\n      dup3\n        /* \"#utility.yul\":9932:10005   */\n      tag_332\n      jump\t// in\n    tag_518:\n        /* \"#utility.yul\":9924:10005   */\n      swap2\n      pop\n        /* \"#utility.yul\":9778:10016   */\n      pop\n        /* \"#utility.yul\":10100:10104   */\n      0x40\n        /* \"#utility.yul\":10093:10098   */\n      dup4\n        /* \"#utility.yul\":10089:10105   */\n      add\n        /* \"#utility.yul\":10083:10106   */\n      mload\n        /* \"#utility.yul\":10119:10182   */\n      tag_519\n        /* \"#utility.yul\":10176:10180   */\n      0x40\n        /* \"#utility.yul\":10171:10174   */\n      dup7\n        /* \"#utility.yul\":10167:10181   */\n      add\n        /* \"#utility.yul\":10153:10165   */\n      dup3\n        /* \"#utility.yul\":10119:10182   */\n      tag_327\n      jump\t// in\n    tag_519:\n        /* \"#utility.yul\":10026:10192   */\n      pop\n        /* \"#utility.yul\":10279:10283   */\n      0x60\n        /* \"#utility.yul\":10272:10277   */\n      dup4\n        /* \"#utility.yul\":10268:10284   */\n      add\n        /* \"#utility.yul\":10262:10285   */\n      mload\n        /* \"#utility.yul\":10298:10361   */\n      tag_520\n        /* \"#utility.yul\":10355:10359   */\n      0x60\n        /* \"#utility.yul\":10350:10353   */\n      dup7\n        /* \"#utility.yul\":10346:10360   */\n      add\n        /* \"#utility.yul\":10332:10344   */\n      dup3\n        /* \"#utility.yul\":10298:10361   */\n      tag_327\n      jump\t// in\n    tag_520:\n        /* \"#utility.yul\":10202:10371   */\n      pop\n        /* \"#utility.yul\":10454:10458   */\n      0x80\n        /* \"#utility.yul\":10447:10452   */\n      dup4\n        /* \"#utility.yul\":10443:10459   */\n      add\n        /* \"#utility.yul\":10437:10460   */\n      mload\n        /* \"#utility.yul\":10473:10536   */\n      tag_521\n        /* \"#utility.yul\":10530:10534   */\n      0x80\n        /* \"#utility.yul\":10525:10528   */\n      dup7\n        /* \"#utility.yul\":10521:10535   */\n      add\n        /* \"#utility.yul\":10507:10519   */\n      dup3\n        /* \"#utility.yul\":10473:10536   */\n      tag_335\n      jump\t// in\n    tag_521:\n        /* \"#utility.yul\":10381:10546   */\n      pop\n        /* \"#utility.yul\":10632:10636   */\n      0xa0\n        /* \"#utility.yul\":10625:10630   */\n      dup4\n        /* \"#utility.yul\":10621:10637   */\n      add\n        /* \"#utility.yul\":10615:10638   */\n      mload\n        /* \"#utility.yul\":10651:10714   */\n      tag_522\n        /* \"#utility.yul\":10708:10712   */\n      0xa0\n        /* \"#utility.yul\":10703:10706   */\n      dup7\n        /* \"#utility.yul\":10699:10713   */\n      add\n        /* \"#utility.yul\":10685:10697   */\n      dup3\n        /* \"#utility.yul\":10651:10714   */\n      tag_335\n      jump\t// in\n    tag_522:\n        /* \"#utility.yul\":10556:10724   */\n      pop\n        /* \"#utility.yul\":10808:10812   */\n      0xc0\n        /* \"#utility.yul\":10801:10806   */\n      dup4\n        /* \"#utility.yul\":10797:10813   */\n      add\n        /* \"#utility.yul\":10791:10814   */\n      mload\n        /* \"#utility.yul\":10827:10898   */\n      tag_523\n        /* \"#utility.yul\":10892:10896   */\n      0xc0\n        /* \"#utility.yul\":10887:10890   */\n      dup7\n        /* \"#utility.yul\":10883:10897   */\n      add\n        /* \"#utility.yul\":10869:10881   */\n      dup3\n        /* \"#utility.yul\":10827:10898   */\n      tag_339\n      jump\t// in\n    tag_523:\n        /* \"#utility.yul\":10734:10908   */\n      pop\n        /* \"#utility.yul\":10994:10998   */\n      0xe0\n        /* \"#utility.yul\":10987:10992   */\n      dup4\n        /* \"#utility.yul\":10983:10999   */\n      add\n        /* \"#utility.yul\":10977:11000   */\n      mload\n        /* \"#utility.yul\":11013:11070   */\n      tag_524\n        /* \"#utility.yul\":11064:11068   */\n      0xe0\n        /* \"#utility.yul\":11059:11062   */\n      dup7\n        /* \"#utility.yul\":11055:11069   */\n      add\n        /* \"#utility.yul\":11041:11053   */\n      dup3\n        /* \"#utility.yul\":11013:11070   */\n      tag_340\n      jump\t// in\n    tag_524:\n        /* \"#utility.yul\":10918:11080   */\n      pop\n        /* \"#utility.yul\":11167:11173   */\n      0x0100\n        /* \"#utility.yul\":11160:11165   */\n      dup4\n        /* \"#utility.yul\":11156:11174   */\n      add\n        /* \"#utility.yul\":11150:11175   */\n      mload\n        /* \"#utility.yul\":11188:11247   */\n      tag_525\n        /* \"#utility.yul\":11239:11245   */\n      0x0100\n        /* \"#utility.yul\":11234:11237   */\n      dup7\n        /* \"#utility.yul\":11230:11246   */\n      add\n        /* \"#utility.yul\":11216:11228   */\n      dup3\n        /* \"#utility.yul\":11188:11247   */\n      tag_340\n      jump\t// in\n    tag_525:\n        /* \"#utility.yul\":11090:11257   */\n      pop\n        /* \"#utility.yul\":11274:11278   */\n      dup1\n        /* \"#utility.yul\":11267:11278   */\n      swap2\n      pop\n        /* \"#utility.yul\":9554:11284   */\n      pop\n        /* \"#utility.yul\":9426:11284   */\n      swap3\n      swap2\n      pop\n      pop\n      jump\t// out\n        /* \"#utility.yul\":11290:11671   */\n    tag_53:\n        /* \"#utility.yul\":11437:11441   */\n      0x00\n        /* \"#utility.yul\":11475:11477   */\n      0x20\n        /* \"#utility.yul\":11464:11473   */\n      dup3\n        /* \"#utility.yul\":11460:11478   */\n      add\n        /* \"#utility.yul\":11452:11478   */\n      swap1\n      pop\n        /* \"#utility.yul\":11524:11533   */\n      dup2\n        /* \"#utility.yul\":11518:11522   */\n      dup2\n        /* \"#utility.yul\":11514:11534   */\n      sub\n        /* \"#utility.yul\":11510:11511   */\n      0x00\n        /* \"#utility.yul\":11499:11508   */\n      dup4\n        /* \"#utility.yul\":11495:11512   */\n      add\n        /* \"#utility.yul\":11488:11535   */\n      mstore\n        /* \"#utility.yul\":11552:11664   */\n      tag_527\n        /* \"#utility.yul\":11659:11663   */\n      dup2\n        /* \"#utility.yul\":11650:11656   */\n      dup5\n        /* \"#utility.yul\":11552:11664   */\n      tag_346\n      jump\t// in\n    tag_527:\n        /* \"#utility.yul\":11544:11664   */\n      swap1\n      pop\n        /* \"#utility.yul\":11290:11671   */\n      swap3\n      swap2\n      pop\n      pop\n      jump\t// out\n        /* \"#utility.yul\":11677:11795   */\n    tag_347:\n        /* \"#utility.yul\":11763:11764   */\n      0x02\n        /* \"#utility.yul\":11756:11761   */\n      dup2\n        /* \"#utility.yul\":11753:11765   */\n      lt\n        /* \"#utility.yul\":11743:11789   */\n      tag_529\n      jumpi\n        /* \"#utility.yul\":11769:11787   */\n      tag_530\n      tag_135\n      jump\t// in\n    tag_530:\n        /* \"#utility.yul\":11743:11789   */\n    tag_529:\n        /* \"#utility.yul\":11677:11795   */\n      pop\n      jump\t// out\n        /* \"#utility.yul\":11801:11938   */\n    tag_348:\n        /* \"#utility.yul\":11851:11858   */\n      0x00\n        /* \"#utility.yul\":11880:11885   */\n      dup2\n        /* \"#utility.yul\":11869:11885   */\n      swap1\n      pop\n        /* \"#utility.yul\":11886:11932   */\n      tag_532\n        /* \"#utility.yul\":11926:11931   */\n      dup3\n        /* \"#utility.yul\":11886:11932   */\n      tag_347\n      jump\t// in\n    tag_532:\n        /* \"#utility.yul\":11801:11938   */\n      swap2\n      swap1\n      pop\n      jump\t// out\n        /* \"#utility.yul\":11944:12081   */\n    tag_349:\n        /* \"#utility.yul\":12005:12014   */\n      0x00\n        /* \"#utility.yul\":12038:12075   */\n      tag_534\n        /* \"#utility.yul\":12069:12074   */\n      dup3\n        /* \"#utility.yul\":12038:12075   */\n      tag_348\n      jump\t// in\n    tag_534:\n        /* \"#utility.yul\":12025:12075   */\n      swap1\n      pop\n        /* \"#utility.yul\":11944:12081   */\n      swap2\n      swap1\n      pop\n      jump\t// out\n        /* \"#utility.yul\":12087:12240   */\n    tag_350:\n        /* \"#utility.yul\":12185:12233   */\n      tag_536\n        /* \"#utility.yul\":12227:12232   */\n      dup2\n        /* \"#utility.yul\":12185:12233   */\n      tag_349\n      jump\t// in\n    tag_536:\n        /* \"#utility.yul\":12180:12183   */\n      dup3\n        /* \"#utility.yul\":12173:12234   */\n      mstore\n        /* \"#utility.yul\":12087:12240   */\n      pop\n      pop\n      jump\t// out\n        /* \"#utility.yul\":12246:12490   */\n    tag_59:\n        /* \"#utility.yul\":12350:12354   */\n      0x00\n        /* \"#utility.yul\":12388:12390   */\n      0x20\n        /* \"#utility.yul\":12377:12386   */\n      dup3\n        /* \"#utility.yul\":12373:12391   */\n      add\n        /* \"#utility.yul\":12365:12391   */\n      swap1\n      pop\n        /* \"#utility.yul\":12401:12483   */\n      tag_538\n        /* \"#utility.yul\":12480:12481   */\n      0x00\n        /* \"#utility.yul\":12469:12478   */\n      dup4\n        /* \"#utility.yul\":12465:12482   */\n      add\n        /* \"#utility.yul\":12456:12462   */\n      dup5\n        /* \"#utility.yul\":12401:12483   */\n      tag_350\n      jump\t// in\n    tag_538:\n        /* \"#utility.yul\":12246:12490   */\n      swap3\n      swap2\n      pop\n      pop\n      jump\t// out\n        /* \"#utility.yul\":12496:12613   */\n    tag_351:\n        /* \"#utility.yul\":12605:12606   */\n      0x00\n        /* \"#utility.yul\":12602:12603   */\n      dup1\n        /* \"#utility.yul\":12595:12607   */\n      revert\n        /* \"#utility.yul\":12619:12736   */\n    tag_352:\n        /* \"#utility.yul\":12728:12729   */\n      0x00\n        /* \"#utility.yul\":12725:12726   */\n      dup1\n        /* \"#utility.yul\":12718:12730   */\n      revert\n        /* \"#utility.yul\":12742:12859   */\n    tag_353:\n        /* \"#utility.yul\":12851:12852   */\n      0x00\n        /* \"#utility.yul\":12848:12849   */\n      dup1\n        /* \"#utility.yul\":12841:12853   */\n      revert\n        /* \"#utility.yul\":12879:13432   */\n    tag_354:\n        /* \"#utility.yul\":12937:12945   */\n      0x00\n        /* \"#utility.yul\":12947:12953   */\n      dup1\n        /* \"#utility.yul\":12997:13000   */\n      dup4\n        /* \"#utility.yul\":12990:12994   */\n      0x1f\n        /* \"#utility.yul\":12982:12988   */\n      dup5\n        /* \"#utility.yul\":12978:12995   */\n      add\n        /* \"#utility.yul\":12974:13001   */\n      slt\n        /* \"#utility.yul\":12964:13086   */\n      tag_543\n      jumpi\n        /* \"#utility.yul\":13005:13084   */\n      tag_544\n      tag_351\n      jump\t// in\n    tag_544:\n        /* \"#utility.yul\":12964:13086   */\n    tag_543:\n        /* \"#utility.yul\":13118:13124   */\n      dup3\n        /* \"#utility.yul\":13105:13125   */\n      calldataload\n        /* \"#utility.yul\":13095:13125   */\n      swap1\n      pop\n        /* \"#utility.yul\":13148:13166   */\n      0xffffffffffffffff\n        /* \"#utility.yul\":13140:13146   */\n      dup2\n        /* \"#utility.yul\":13137:13167   */\n      gt\n        /* \"#utility.yul\":13134:13251   */\n      iszero\n      tag_545\n      jumpi\n        /* \"#utility.yul\":13170:13249   */\n      tag_546\n      tag_352\n      jump\t// in\n    tag_546:\n        /* \"#utility.yul\":13134:13251   */\n    tag_545:\n        /* \"#utility.yul\":13284:13288   */\n      0x20\n        /* \"#utility.yul\":13276:13282   */\n      dup4\n        /* \"#utility.yul\":13272:13289   */\n      add\n        /* \"#utility.yul\":13260:13289   */\n      swap2\n      pop\n        /* \"#utility.yul\":13338:13341   */\n      dup4\n        /* \"#utility.yul\":13330:13334   */\n      0x01\n        /* \"#utility.yul\":13322:13328   */\n      dup3\n        /* \"#utility.yul\":13318:13335   */\n      mul\n        /* \"#utility.yul\":13308:13316   */\n      dup4\n        /* \"#utility.yul\":13304:13336   */\n      add\n        /* \"#utility.yul\":13301:13342   */\n      gt\n        /* \"#utility.yul\":13298:13426   */\n      iszero\n      tag_547\n      jumpi\n        /* \"#utility.yul\":13345:13424   */\n      tag_548\n      tag_353\n      jump\t// in\n    tag_548:\n        /* \"#utility.yul\":13298:13426   */\n    tag_547:\n        /* \"#utility.yul\":12879:13432   */\n      swap3\n      pop\n      swap3\n      swap1\n      pop\n      jump\t// out\n        /* \"#utility.yul\":13438:13967   */\n    tag_62:\n        /* \"#utility.yul\":13509:13515   */\n      0x00\n        /* \"#utility.yul\":13517:13523   */\n      dup1\n        /* \"#utility.yul\":13566:13568   */\n      0x20\n        /* \"#utility.yul\":13554:13563   */\n      dup4\n        /* \"#utility.yul\":13545:13552   */\n      dup6\n        /* \"#utility.yul\":13541:13564   */\n      sub\n        /* \"#utility.yul\":13537:13569   */\n      slt\n        /* \"#utility.yul\":13534:13653   */\n      iszero\n      tag_550\n      jumpi\n        /* \"#utility.yul\":13572:13651   */\n      tag_551\n      tag_315\n      jump\t// in\n    tag_551:\n        /* \"#utility.yul\":13534:13653   */\n    tag_550:\n        /* \"#utility.yul\":13720:13721   */\n      0x00\n        /* \"#utility.yul\":13709:13718   */\n      dup4\n        /* \"#utility.yul\":13705:13722   */\n      add\n        /* \"#utility.yul\":13692:13723   */\n      calldataload\n        /* \"#utility.yul\":13750:13768   */\n      0xffffffffffffffff\n        /* \"#utility.yul\":13742:13748   */\n      dup2\n        /* \"#utility.yul\":13739:13769   */\n      gt\n        /* \"#utility.yul\":13736:13853   */\n      iszero\n      tag_552\n      jumpi\n        /* \"#utility.yul\":13772:13851   */\n      tag_553\n      tag_316\n      jump\t// in\n    tag_553:\n        /* \"#utility.yul\":13736:13853   */\n    tag_552:\n        /* \"#utility.yul\":13885:13950   */\n      tag_554\n        /* \"#utility.yul\":13942:13949   */\n      dup6\n        /* \"#utility.yul\":13933:13939   */\n      dup3\n        /* \"#utility.yul\":13922:13931   */\n      dup7\n        /* \"#utility.yul\":13918:13940   */\n      add\n        /* \"#utility.yul\":13885:13950   */\n      tag_354\n      jump\t// in\n    tag_554:\n        /* \"#utility.yul\":13867:13950   */\n      swap3\n      pop\n      swap3\n      pop\n        /* \"#utility.yul\":13663:13960   */\n      pop\n        /* \"#utility.yul\":13438:13967   */\n      swap3\n      pop\n      swap3\n      swap1\n      pop\n      jump\t// out\n        /* \"#utility.yul\":13973:14091   */\n    tag_355:\n        /* \"#utility.yul\":14060:14084   */\n      tag_556\n        /* \"#utility.yul\":14078:14083   */\n      dup2\n        /* \"#utility.yul\":14060:14084   */\n      tag_334\n      jump\t// in\n    tag_556:\n        /* \"#utility.yul\":14055:14058   */\n      dup3\n        /* \"#utility.yul\":14048:14085   */\n      mstore\n        /* \"#utility.yul\":13973:14091   */\n      pop\n      pop\n      jump\t// out\n        /* \"#utility.yul\":14097:14319   */\n    tag_85:\n        /* \"#utility.yul\":14190:14194   */\n      0x00\n        /* \"#utility.yul\":14228:14230   */\n      0x20\n        /* \"#utility.yul\":14217:14226   */\n      dup3\n        /* \"#utility.yul\":14213:14231   */\n      add\n        /* \"#utility.yul\":14205:14231   */\n      swap1\n      pop\n        /* \"#utility.yul\":14241:14312   */\n      tag_558\n        /* \"#utility.yul\":14309:14310   */\n      0x00\n        /* \"#utility.yul\":14298:14307   */\n      dup4\n        /* \"#utility.yul\":14294:14311   */\n      add\n        /* \"#utility.yul\":14285:14291   */\n      dup5\n        /* \"#utility.yul\":14241:14312   */\n      tag_355\n      jump\t// in\n    tag_558:\n        /* \"#utility.yul\":14097:14319   */\n      swap3\n      swap2\n      pop\n      pop\n      jump\t// out\n        /* \"#utility.yul\":14325:14447   */\n    tag_356:\n        /* \"#utility.yul\":14398:14422   */\n      tag_560\n        /* \"#utility.yul\":14416:14421   */\n      dup2\n        /* \"#utility.yul\":14398:14422   */\n      tag_334\n      jump\t// in\n    tag_560:\n        /* \"#utility.yul\":14391:14396   */\n      dup2\n        /* \"#utility.yul\":14388:14423   */\n      eq\n        /* \"#utility.yul\":14378:14441   */\n      tag_561\n      jumpi\n        /* \"#utility.yul\":14437:14438   */\n      0x00\n        /* \"#utility.yul\":14434:14435   */\n      dup1\n        /* \"#utility.yul\":14427:14439   */\n      revert\n        /* \"#utility.yul\":14378:14441   */\n    tag_561:\n        /* \"#utility.yul\":14325:14447   */\n      pop\n      jump\t// out\n        /* \"#utility.yul\":14453:14592   */\n    tag_357:\n        /* \"#utility.yul\":14499:14504   */\n      0x00\n        /* \"#utility.yul\":14537:14543   */\n      dup2\n        /* \"#utility.yul\":14524:14544   */\n      calldataload\n        /* \"#utility.yul\":14515:14544   */\n      swap1\n      pop\n        /* \"#utility.yul\":14553:14586   */\n      tag_563\n        /* \"#utility.yul\":14580:14585   */\n      dup2\n        /* \"#utility.yul\":14553:14586   */\n      tag_356\n      jump\t// in\n    tag_563:\n        /* \"#utility.yul\":14453:14592   */\n      swap3\n      swap2\n      pop\n      pop\n      jump\t// out\n        /* \"#utility.yul\":14598:15072   */\n    tag_94:\n        /* \"#utility.yul\":14666:14672   */\n      0x00\n        /* \"#utility.yul\":14674:14680   */\n      dup1\n        /* \"#utility.yul\":14723:14725   */\n      0x40\n        /* \"#utility.yul\":14711:14720   */\n      dup4\n        /* \"#utility.yul\":14702:14709   */\n      dup6\n        /* \"#utility.yul\":14698:14721   */\n      sub\n        /* \"#utility.yul\":14694:14726   */\n      slt\n        /* \"#utility.yul\":14691:14810   */\n      iszero\n      tag_565\n      jumpi\n        /* \"#utility.yul\":14729:14808   */\n      tag_566\n      tag_315\n      jump\t// in\n    tag_566:\n        /* \"#utility.yul\":14691:14810   */\n    tag_565:\n        /* \"#utility.yul\":14849:14850   */\n      0x00\n        /* \"#utility.yul\":14874:14927   */\n      tag_567\n        /* \"#utility.yul\":14919:14926   */\n      dup6\n        /* \"#utility.yul\":14910:14916   */\n      dup3\n        /* \"#utility.yul\":14899:14908   */\n      dup7\n        /* \"#utility.yul\":14895:14917   */\n      add\n        /* \"#utility.yul\":14874:14927   */\n      tag_357\n      jump\t// in\n    tag_567:\n        /* \"#utility.yul\":14864:14927   */\n      swap3\n      pop\n        /* \"#utility.yul\":14820:14937   */\n      pop\n        /* \"#utility.yul\":14976:14978   */\n      0x20\n        /* \"#utility.yul\":15002:15055   */\n      tag_568\n        /* \"#utility.yul\":15047:15054   */\n      dup6\n        /* \"#utility.yul\":15038:15044   */\n      dup3\n        /* \"#utility.yul\":15027:15036   */\n      dup7\n        /* \"#utility.yul\":15023:15045   */\n      add\n        /* \"#utility.yul\":15002:15055   */\n      tag_319\n      jump\t// in\n    tag_568:\n        /* \"#utility.yul\":14992:15055   */\n      swap2\n      pop\n        /* \"#utility.yul\":14947:15065   */\n      pop\n        /* \"#utility.yul\":14598:15072   */\n      swap3\n      pop\n      swap3\n      swap1\n      pop\n      jump\t// out\n        /* \"#utility.yul\":15078:15552   */\n    tag_105:\n        /* \"#utility.yul\":15146:15152   */\n      0x00\n        /* \"#utility.yul\":15154:15160   */\n      dup1\n        /* \"#utility.yul\":15203:15205   */\n      0x40\n        /* \"#utility.yul\":15191:15200   */\n      dup4\n        /* \"#utility.yul\":15182:15189   */\n      dup6\n        /* \"#utility.yul\":15178:15201   */\n      sub\n        /* \"#utility.yul\":15174:15206   */\n      slt\n        /* \"#utility.yul\":15171:15290   */\n      iszero\n      tag_570\n      jumpi\n        /* \"#utility.yul\":15209:15288   */\n      tag_571\n      tag_315\n      jump\t// in\n    tag_571:\n        /* \"#utility.yul\":15171:15290   */\n    tag_570:\n        /* \"#utility.yul\":15329:15330   */\n      0x00\n        /* \"#utility.yul\":15354:15407   */\n      tag_572\n        /* \"#utility.yul\":15399:15406   */\n      dup6\n        /* \"#utility.yul\":15390:15396   */\n      dup3\n        /* \"#utility.yul\":15379:15388   */\n      dup7\n        /* \"#utility.yul\":15375:15397   */\n      add\n        /* \"#utility.yul\":15354:15407   */\n      tag_319\n      jump\t// in\n    tag_572:\n        /* \"#utility.yul\":15344:15407   */\n      swap3\n      pop\n        /* \"#utility.yul\":15300:15417   */\n      pop\n        /* \"#utility.yul\":15456:15458   */\n      0x20\n        /* \"#utility.yul\":15482:15535   */\n      tag_573\n        /* \"#utility.yul\":15527:15534   */\n      dup6\n        /* \"#utility.yul\":15518:15524   */\n      dup3\n        /* \"#utility.yul\":15507:15516   */\n      dup7\n        /* \"#utility.yul\":15503:15525   */\n      add\n        /* \"#utility.yul\":15482:15535   */\n      tag_357\n      jump\t// in\n    tag_573:\n        /* \"#utility.yul\":15472:15535   */\n      swap2\n      pop\n        /* \"#utility.yul\":15427:15545   */\n      pop\n        /* \"#utility.yul\":15078:15552   */\n      swap3\n      pop\n      swap3\n      swap1\n      pop\n      jump\t// out\n        /* \"#utility.yul\":15558:15727   */\n    tag_358:\n        /* \"#utility.yul\":15642:15653   */\n      0x00\n        /* \"#utility.yul\":15676:15682   */\n      dup3\n        /* \"#utility.yul\":15671:15674   */\n      dup3\n        /* \"#utility.yul\":15664:15683   */\n      mstore\n        /* \"#utility.yul\":15716:15720   */\n      0x20\n        /* \"#utility.yul\":15711:15714   */\n      dup3\n        /* \"#utility.yul\":15707:15721   */\n      add\n        /* \"#utility.yul\":15692:15721   */\n      swap1\n      pop\n        /* \"#utility.yul\":15558:15727   */\n      swap3\n      swap2\n      pop\n      pop\n      jump\t// out\n        /* \"#utility.yul\":15733:15901   */\n    tag_359:\n        /* \"#utility.yul\":15873:15893   */\n      0x4f6e6c79206f776e657220616c6c6f7765640000000000000000000000000000\n        /* \"#utility.yul\":15869:15870   */\n      0x00\n        /* \"#utility.yul\":15861:15867   */\n      dup3\n        /* \"#utility.yul\":15857:15871   */\n      add\n        /* \"#utility.yul\":15850:15894   */\n      mstore\n        /* \"#utility.yul\":15733:15901   */\n      pop\n      jump\t// out\n        /* \"#utility.yul\":15907:16273   */\n    tag_360:\n        /* \"#utility.yul\":16049:16052   */\n      0x00\n        /* \"#utility.yul\":16070:16137   */\n      tag_577\n        /* \"#utility.yul\":16134:16136   */\n      0x12\n        /* \"#utility.yul\":16129:16132   */\n      dup4\n        /* \"#utility.yul\":16070:16137   */\n      tag_358\n      jump\t// in\n    tag_577:\n        /* \"#utility.yul\":16063:16137   */\n      swap2\n      pop\n        /* \"#utility.yul\":16146:16239   */\n      tag_578\n        /* \"#utility.yul\":16235:16238   */\n      dup3\n        /* \"#utility.yul\":16146:16239   */\n      tag_359\n      jump\t// in\n    tag_578:\n        /* \"#utility.yul\":16264:16266   */\n      0x20\n        /* \"#utility.yul\":16259:16262   */\n      dup3\n        /* \"#utility.yul\":16255:16267   */\n      add\n        /* \"#utility.yul\":16248:16267   */\n      swap1\n      pop\n        /* \"#utility.yul\":15907:16273   */\n      swap2\n      swap1\n      pop\n      jump\t// out\n        /* \"#utility.yul\":16279:16698   */\n    tag_129:\n        /* \"#utility.yul\":16445:16449   */\n      0x00\n        /* \"#utility.yul\":16483:16485   */\n      0x20\n        /* \"#utility.yul\":16472:16481   */\n      dup3\n        /* \"#utility.yul\":16468:16486   */\n      add\n        /* \"#utility.yul\":16460:16486   */\n      swap1\n      pop\n        /* \"#utility.yul\":16532:16541   */\n      dup2\n        /* \"#utility.yul\":16526:16530   */\n      dup2\n        /* \"#utility.yul\":16522:16542   */\n      sub\n        /* \"#utility.yul\":16518:16519   */\n      0x00\n        /* \"#utility.yul\":16507:16516   */\n      dup4\n        /* \"#utility.yul\":16503:16520   */\n      add\n        /* \"#utility.yul\":16496:16543   */\n      mstore\n        /* \"#utility.yul\":16560:16691   */\n      tag_580\n        /* \"#utility.yul\":16686:16690   */\n      dup2\n        /* \"#utility.yul\":16560:16691   */\n      tag_360\n      jump\t// in\n    tag_580:\n        /* \"#utility.yul\":16552:16691   */\n      swap1\n      pop\n        /* \"#utility.yul\":16279:16698   */\n      swap2\n      swap1\n      pop\n      jump\t// out\n        /* \"#utility.yul\":16704:16874   */\n    tag_361:\n        /* \"#utility.yul\":16844:16866   */\n      0x53657276696365206e6f742070726f7669646564000000000000000000000000\n        /* \"#utility.yul\":16840:16841   */\n      0x00\n        /* \"#utility.yul\":16832:16838   */\n      dup3\n        /* \"#utility.yul\":16828:16842   */\n      add\n        /* \"#utility.yul\":16821:16867   */\n      mstore\n        /* \"#utility.yul\":16704:16874   */\n      pop\n      jump\t// out\n        /* \"#utility.yul\":16880:17246   */\n    tag_362:\n        /* \"#utility.yul\":17022:17025   */\n      0x00\n        /* \"#utility.yul\":17043:17110   */\n      tag_583\n        /* \"#utility.yul\":17107:17109   */\n      0x14\n        /* \"#utility.yul\":17102:17105   */\n      dup4\n        /* \"#utility.yul\":17043:17110   */\n      tag_358\n      jump\t// in\n    tag_583:\n        /* \"#utility.yul\":17036:17110   */\n      swap2\n      pop\n        /* \"#utility.yul\":17119:17212   */\n      tag_584\n        /* \"#utility.yul\":17208:17211   */\n      dup3\n        /* \"#utility.yul\":17119:17212   */\n      tag_361\n      jump\t// in\n    tag_584:\n        /* \"#utility.yul\":17237:17239   */\n      0x20\n        /* \"#utility.yul\":17232:17235   */\n      dup3\n        /* \"#utility.yul\":17228:17240   */\n      add\n        /* \"#utility.yul\":17221:17240   */\n      swap1\n      pop\n        /* \"#utility.yul\":16880:17246   */\n      swap2\n      swap1\n      pop\n      jump\t// out\n        /* \"#utility.yul\":17252:17671   */\n    tag_132:\n        /* \"#utility.yul\":17418:17422   */\n      0x00\n        /* \"#utility.yul\":17456:17458   */\n      0x20\n        /* \"#utility.yul\":17445:17454   */\n      dup3\n        /* \"#utility.yul\":17441:17459   */\n      add\n        /* \"#utility.yul\":17433:17459   */\n      swap1\n      pop\n        /* \"#utility.yul\":17505:17514   */\n      dup2\n        /* \"#utility.yul\":17499:17503   */\n      dup2\n        /* \"#utility.yul\":17495:17515   */\n      sub\n        /* \"#utility.yul\":17491:17492   */\n      0x00\n        /* \"#utility.yul\":17480:17489   */\n      dup4\n        /* \"#utility.yul\":17476:17493   */\n      add\n        /* \"#utility.yul\":17469:17516   */\n      mstore\n        /* \"#utility.yul\":17533:17664   */\n      tag_586\n        /* \"#utility.yul\":17659:17663   */\n      dup2\n        /* \"#utility.yul\":17533:17664   */\n      tag_362\n      jump\t// in\n    tag_586:\n        /* \"#utility.yul\":17525:17664   */\n      swap1\n      pop\n        /* \"#utility.yul\":17252:17671   */\n      swap2\n      swap1\n      pop\n      jump\t// out\n        /* \"#utility.yul\":17677:17899   */\n    tag_363:\n        /* \"#utility.yul\":17817:17851   */\n      0x416c726561647920726566756e6465642c206372656174652061206e65772049\n        /* \"#utility.yul\":17813:17814   */\n      0x00\n        /* \"#utility.yul\":17805:17811   */\n      dup3\n        /* \"#utility.yul\":17801:17815   */\n      add\n        /* \"#utility.yul\":17794:17852   */\n      mstore\n        /* \"#utility.yul\":17886:17891   */\n      0x74656d0000000000000000000000000000000000000000000000000000000000\n        /* \"#utility.yul\":17881:17883   */\n      0x20\n        /* \"#utility.yul\":17873:17879   */\n      dup3\n        /* \"#utility.yul\":17869:17884   */\n      add\n        /* \"#utility.yul\":17862:17892   */\n      mstore\n        /* \"#utility.yul\":17677:17899   */\n      pop\n      jump\t// out\n        /* \"#utility.yul\":17905:18271   */\n    tag_364:\n        /* \"#utility.yul\":18047:18050   */\n      0x00\n        /* \"#utility.yul\":18068:18135   */\n      tag_589\n        /* \"#utility.yul\":18132:18134   */\n      0x23\n        /* \"#utility.yul\":18127:18130   */\n      dup4\n        /* \"#utility.yul\":18068:18135   */\n      tag_358\n      jump\t// in\n    tag_589:\n        /* \"#utility.yul\":18061:18135   */\n      swap2\n      pop\n        /* \"#utility.yul\":18144:18237   */\n      tag_590\n        /* \"#utility.yul\":18233:18236   */\n      dup3\n        /* \"#utility.yul\":18144:18237   */\n      tag_363\n      jump\t// in\n    tag_590:\n        /* \"#utility.yul\":18262:18264   */\n      0x40\n        /* \"#utility.yul\":18257:18260   */\n      dup3\n        /* \"#utility.yul\":18253:18265   */\n      add\n        /* \"#utility.yul\":18246:18265   */\n      swap1\n      pop\n        /* \"#utility.yul\":17905:18271   */\n      swap2\n      swap1\n      pop\n      jump\t// out\n        /* \"#utility.yul\":18277:18696   */\n    tag_140:\n        /* \"#utility.yul\":18443:18447   */\n      0x00\n        /* \"#utility.yul\":18481:18483   */\n      0x20\n        /* \"#utility.yul\":18470:18479   */\n      dup3\n        /* \"#utility.yul\":18466:18484   */\n      add\n        /* \"#utility.yul\":18458:18484   */\n      swap1\n      pop\n        /* \"#utility.yul\":18530:18539   */\n      dup2\n        /* \"#utility.yul\":18524:18528   */\n      dup2\n        /* \"#utility.yul\":18520:18540   */\n      sub\n        /* \"#utility.yul\":18516:18517   */\n      0x00\n        /* \"#utility.yul\":18505:18514   */\n      dup4\n        /* \"#utility.yul\":18501:18518   */\n      add\n        /* \"#utility.yul\":18494:18541   */\n      mstore\n        /* \"#utility.yul\":18558:18689   */\n      tag_592\n        /* \"#utility.yul\":18684:18688   */\n      dup2\n        /* \"#utility.yul\":18558:18689   */\n      tag_364\n      jump\t// in\n    tag_592:\n        /* \"#utility.yul\":18550:18689   */\n      swap1\n      pop\n        /* \"#utility.yul\":18277:18696   */\n      swap2\n      swap1\n      pop\n      jump\t// out\n        /* \"#utility.yul\":18702:18882   */\n    tag_365:\n        /* \"#utility.yul\":18750:18827   */\n      0x4e487b7100000000000000000000000000000000000000000000000000000000\n        /* \"#utility.yul\":18747:18748   */\n      0x00\n        /* \"#utility.yul\":18740:18828   */\n      mstore\n        /* \"#utility.yul\":18847:18851   */\n      0x11\n        /* \"#utility.yul\":18844:18845   */\n      0x04\n        /* \"#utility.yul\":18837:18852   */\n      mstore\n        /* \"#utility.yul\":18871:18875   */\n      0x24\n        /* \"#utility.yul\":18868:18869   */\n      0x00\n        /* \"#utility.yul\":18861:18876   */\n      revert\n        /* \"#utility.yul\":18888:19298   */\n    tag_143:\n        /* \"#utility.yul\":18928:18935   */\n      0x00\n        /* \"#utility.yul\":18951:18971   */\n      tag_595\n        /* \"#utility.yul\":18969:18970   */\n      dup3\n        /* \"#utility.yul\":18951:18971   */\n      tag_317\n      jump\t// in\n    tag_595:\n        /* \"#utility.yul\":18946:18971   */\n      swap2\n      pop\n        /* \"#utility.yul\":18985:19005   */\n      tag_596\n        /* \"#utility.yul\":19003:19004   */\n      dup4\n        /* \"#utility.yul\":18985:19005   */\n      tag_317\n      jump\t// in\n    tag_596:\n        /* \"#utility.yul\":18980:19005   */\n      swap3\n      pop\n        /* \"#utility.yul\":19040:19041   */\n      dup3\n        /* \"#utility.yul\":19037:19038   */\n      dup3\n        /* \"#utility.yul\":19033:19042   */\n      mul\n        /* \"#utility.yul\":19062:19092   */\n      tag_597\n        /* \"#utility.yul\":19080:19091   */\n      dup2\n        /* \"#utility.yul\":19062:19092   */\n      tag_317\n      jump\t// in\n    tag_597:\n        /* \"#utility.yul\":19051:19092   */\n      swap2\n      pop\n        /* \"#utility.yul\":19241:19242   */\n      dup3\n        /* \"#utility.yul\":19232:19239   */\n      dup3\n        /* \"#utility.yul\":19228:19243   */\n      div\n        /* \"#utility.yul\":19225:19226   */\n      dup5\n        /* \"#utility.yul\":19222:19244   */\n      eq\n        /* \"#utility.yul\":19202:19203   */\n      dup4\n        /* \"#utility.yul\":19195:19204   */\n      iszero\n        /* \"#utility.yul\":19175:19258   */\n      or\n        /* \"#utility.yul\":19152:19291   */\n      tag_598\n      jumpi\n        /* \"#utility.yul\":19271:19289   */\n      tag_599\n      tag_365\n      jump\t// in\n    tag_599:\n        /* \"#utility.yul\":19152:19291   */\n    tag_598:\n        /* \"#utility.yul\":18936:19298   */\n      pop\n        /* \"#utility.yul\":18888:19298   */\n      swap3\n      swap2\n      pop\n      pop\n      jump\t// out\n        /* \"#utility.yul\":19304:19484   */\n    tag_366:\n        /* \"#utility.yul\":19352:19429   */\n      0x4e487b7100000000000000000000000000000000000000000000000000000000\n        /* \"#utility.yul\":19349:19350   */\n      0x00\n        /* \"#utility.yul\":19342:19430   */\n      mstore\n        /* \"#utility.yul\":19449:19453   */\n      0x12\n        /* \"#utility.yul\":19446:19447   */\n      0x04\n        /* \"#utility.yul\":19439:19454   */\n      mstore\n        /* \"#utility.yul\":19473:19477   */\n      0x24\n        /* \"#utility.yul\":19470:19471   */\n      0x00\n        /* \"#utility.yul\":19463:19478   */\n      revert\n        /* \"#utility.yul\":19490:19675   */\n    tag_145:\n        /* \"#utility.yul\":19530:19531   */\n      0x00\n        /* \"#utility.yul\":19547:19567   */\n      tag_602\n        /* \"#utility.yul\":19565:19566   */\n      dup3\n        /* \"#utility.yul\":19547:19567   */\n      tag_317\n      jump\t// in\n    tag_602:\n        /* \"#utility.yul\":19542:19567   */\n      swap2\n      pop\n        /* \"#utility.yul\":19581:19601   */\n      tag_603\n        /* \"#utility.yul\":19599:19600   */\n      dup4\n        /* \"#utility.yul\":19581:19601   */\n      tag_317\n      jump\t// in\n    tag_603:\n        /* \"#utility.yul\":19576:19601   */\n      swap3\n      pop\n        /* \"#utility.yul\":19620:19621   */\n      dup3\n        /* \"#utility.yul\":19610:19645   */\n      tag_604\n      jumpi\n        /* \"#utility.yul\":19625:19643   */\n      tag_605\n      tag_366\n      jump\t// in\n    tag_605:\n        /* \"#utility.yul\":19610:19645   */\n    tag_604:\n        /* \"#utility.yul\":19667:19668   */\n      dup3\n        /* \"#utility.yul\":19664:19665   */\n      dup3\n        /* \"#utility.yul\":19660:19669   */\n      div\n        /* \"#utility.yul\":19655:19669   */\n      swap1\n      pop\n        /* \"#utility.yul\":19490:19675   */\n      swap3\n      swap2\n      pop\n      pop\n      jump\t// out\n        /* \"#utility.yul\":19681:19875   */\n    tag_148:\n        /* \"#utility.yul\":19721:19725   */\n      0x00\n        /* \"#utility.yul\":19741:19761   */\n      tag_607\n        /* \"#utility.yul\":19759:19760   */\n      dup3\n        /* \"#utility.yul\":19741:19761   */\n      tag_317\n      jump\t// in\n    tag_607:\n        /* \"#utility.yul\":19736:19761   */\n      swap2\n      pop\n        /* \"#utility.yul\":19775:19795   */\n      tag_608\n        /* \"#utility.yul\":19793:19794   */\n      dup4\n        /* \"#utility.yul\":19775:19795   */\n      tag_317\n      jump\t// in\n    tag_608:\n        /* \"#utility.yul\":19770:19795   */\n      swap3\n      pop\n        /* \"#utility.yul\":19819:19820   */\n      dup3\n        /* \"#utility.yul\":19816:19817   */\n      dup3\n        /* \"#utility.yul\":19812:19821   */\n      sub\n        /* \"#utility.yul\":19804:19821   */\n      swap1\n      pop\n        /* \"#utility.yul\":19843:19844   */\n      dup2\n        /* \"#utility.yul\":19837:19841   */\n      dup2\n        /* \"#utility.yul\":19834:19845   */\n      gt\n        /* \"#utility.yul\":19831:19868   */\n      iszero\n      tag_609\n      jumpi\n        /* \"#utility.yul\":19848:19866   */\n      tag_610\n      tag_365\n      jump\t// in\n    tag_610:\n        /* \"#utility.yul\":19831:19868   */\n    tag_609:\n        /* \"#utility.yul\":19681:19875   */\n      swap3\n      swap2\n      pop\n      pop\n      jump\t// out\n        /* \"#utility.yul\":19881:20072   */\n    tag_152:\n        /* \"#utility.yul\":19921:19924   */\n      0x00\n        /* \"#utility.yul\":19940:19960   */\n      tag_612\n        /* \"#utility.yul\":19958:19959   */\n      dup3\n        /* \"#utility.yul\":19940:19960   */\n      tag_317\n      jump\t// in\n    tag_612:\n        /* \"#utility.yul\":19935:19960   */\n      swap2\n      pop\n        /* \"#utility.yul\":19974:19994   */\n      tag_613\n        /* \"#utility.yul\":19992:19993   */\n      dup4\n        /* \"#utility.yul\":19974:19994   */\n      tag_317\n      jump\t// in\n    tag_613:\n        /* \"#utility.yul\":19969:19994   */\n      swap3\n      pop\n        /* \"#utility.yul\":20017:20018   */\n      dup3\n        /* \"#utility.yul\":20014:20015   */\n      dup3\n        /* \"#utility.yul\":20010:20019   */\n      add\n        /* \"#utility.yul\":20003:20019   */\n      swap1\n      pop\n        /* \"#utility.yul\":20038:20041   */\n      dup1\n        /* \"#utility.yul\":20035:20036   */\n      dup3\n        /* \"#utility.yul\":20032:20042   */\n      gt\n        /* \"#utility.yul\":20029:20065   */\n      iszero\n      tag_614\n      jumpi\n        /* \"#utility.yul\":20045:20063   */\n      tag_615\n      tag_365\n      jump\t// in\n    tag_615:\n        /* \"#utility.yul\":20029:20065   */\n    tag_614:\n        /* \"#utility.yul\":19881:20072   */\n      swap3\n      swap2\n      pop\n      pop\n      jump\t// out\n        /* \"#utility.yul\":20078:20311   */\n    tag_156:\n        /* \"#utility.yul\":20117:20120   */\n      0x00\n        /* \"#utility.yul\":20140:20164   */\n      tag_617\n        /* \"#utility.yul\":20158:20163   */\n      dup3\n        /* \"#utility.yul\":20140:20164   */\n      tag_317\n      jump\t// in\n    tag_617:\n        /* \"#utility.yul\":20131:20164   */\n      swap2\n      pop\n        /* \"#utility.yul\":20186:20252   */\n      0xffffffffffffffffffffffffffffffffffffffffffffffffffffffffffffffff\n        /* \"#utility.yul\":20179:20184   */\n      dup3\n        /* \"#utility.yul\":20176:20253   */\n      sub\n        /* \"#utility.yul\":20173:20276   */\n      tag_618\n      jumpi\n        /* \"#utility.yul\":20256:20274   */\n      tag_619\n      tag_365\n      jump\t// in\n    tag_619:\n        /* \"#utility.yul\":20173:20276   */\n    tag_618:\n        /* \"#utility.yul\":20303:20304   */\n      0x01\n        /* \"#utility.yul\":20296:20301   */\n      dup3\n        /* \"#utility.yul\":20292:20305   */\n      add\n        /* \"#utility.yul\":20285:20305   */\n      swap1\n      pop\n        /* \"#utility.yul\":20078:20311   */\n      swap2\n      swap1\n      pop\n      jump\t// out\n        /* \"#utility.yul\":20317:20476   */\n    tag_367:\n        /* \"#utility.yul\":20457:20468   */\n      0x4449535055545445440000000000000000000000000000000000000000000000\n        /* \"#utility.yul\":20453:20454   */\n      0x00\n        /* \"#utility.yul\":20445:20451   */\n      dup3\n        /* \"#utility.yul\":20441:20455   */\n      add\n        /* \"#utility.yul\":20434:20469   */\n      mstore\n        /* \"#utility.yul\":20317:20476   */\n      pop\n      jump\t// out\n        /* \"#utility.yul\":20482:20847   */\n    tag_368:\n        /* \"#utility.yul\":20624:20627   */\n      0x00\n        /* \"#utility.yul\":20645:20711   */\n      tag_622\n        /* \"#utility.yul\":20709:20710   */\n      0x09\n        /* \"#utility.yul\":20704:20707   */\n      dup4\n        /* \"#utility.yul\":20645:20711   */\n      tag_358\n      jump\t// in\n    tag_622:\n        /* \"#utility.yul\":20638:20711   */\n      swap2\n      pop\n        /* \"#utility.yul\":20720:20813   */\n      tag_623\n        /* \"#utility.yul\":20809:20812   */\n      dup3\n        /* \"#utility.yul\":20720:20813   */\n      tag_367\n      jump\t// in\n    tag_623:\n        /* \"#utility.yul\":20838:20840   */\n      0x20\n        /* \"#utility.yul\":20833:20836   */\n      dup3\n        /* \"#utility.yul\":20829:20841   */\n      add\n        /* \"#utility.yul\":20822:20841   */\n      swap1\n      pop\n        /* \"#utility.yul\":20482:20847   */\n      swap2\n      swap1\n      pop\n      jump\t// out\n        /* \"#utility.yul\":20853:21000   */\n    tag_369:\n        /* \"#utility.yul\":20948:20993   */\n      tag_625\n        /* \"#utility.yul\":20987:20992   */\n      dup2\n        /* \"#utility.yul\":20948:20993   */\n      tag_338\n      jump\t// in\n    tag_625:\n        /* \"#utility.yul\":20943:20946   */\n      dup3\n        /* \"#utility.yul\":20936:20994   */\n      mstore\n        /* \"#utility.yul\":20853:21000   */\n      pop\n      pop\n      jump\t// out\n        /* \"#utility.yul\":21006:21661   */\n    tag_161:\n        /* \"#utility.yul\":21236:21240   */\n      0x00\n        /* \"#utility.yul\":21274:21276   */\n      0x60\n        /* \"#utility.yul\":21263:21272   */\n      dup3\n        /* \"#utility.yul\":21259:21277   */\n      add\n        /* \"#utility.yul\":21251:21277   */\n      swap1\n      pop\n        /* \"#utility.yul\":21287:21358   */\n      tag_627\n        /* \"#utility.yul\":21355:21356   */\n      0x00\n        /* \"#utility.yul\":21344:21353   */\n      dup4\n        /* \"#utility.yul\":21340:21357   */\n      add\n        /* \"#utility.yul\":21331:21337   */\n      dup6\n        /* \"#utility.yul\":21287:21358   */\n      tag_345\n      jump\t// in\n    tag_627:\n        /* \"#utility.yul\":21405:21414   */\n      dup2\n        /* \"#utility.yul\":21399:21403   */\n      dup2\n        /* \"#utility.yul\":21395:21415   */\n      sub\n        /* \"#utility.yul\":21390:21392   */\n      0x20\n        /* \"#utility.yul\":21379:21388   */\n      dup4\n        /* \"#utility.yul\":21375:21393   */\n      add\n        /* \"#utility.yul\":21368:21416   */\n      mstore\n        /* \"#utility.yul\":21433:21564   */\n      tag_628\n        /* \"#utility.yul\":21559:21563   */\n      dup2\n        /* \"#utility.yul\":21433:21564   */\n      tag_368\n      jump\t// in\n    tag_628:\n        /* \"#utility.yul\":21425:21564   */\n      swap1\n      pop\n        /* \"#utility.yul\":21574:21654   */\n      tag_629\n        /* \"#utility.yul\":21650:21652   */\n      0x40\n        /* \"#utility.yul\":21639:21648   */\n      dup4\n        /* \"#utility.yul\":21635:21653   */\n      add\n        /* \"#utility.yul\":21626:21632   */\n      dup5\n        /* \"#utility.yul\":21574:21654   */\n      tag_369\n      jump\t// in\n    tag_629:\n        /* \"#utility.yul\":21006:21661   */\n      swap4\n      swap3\n      pop\n      pop\n      pop\n      jump\t// out\n        /* \"#utility.yul\":21667:21847   */\n    tag_370:\n        /* \"#utility.yul\":21715:21792   */\n      0x4e487b7100000000000000000000000000000000000000000000000000000000\n        /* \"#utility.yul\":21712:21713   */\n      0x00\n        /* \"#utility.yul\":21705:21793   */\n      mstore\n        /* \"#utility.yul\":21812:21816   */\n      0x22\n        /* \"#utility.yul\":21809:21810   */\n      0x04\n        /* \"#utility.yul\":21802:21817   */\n      mstore\n        /* \"#utility.yul\":21836:21840   */\n      0x24\n        /* \"#utility.yul\":21833:21834   */\n      0x00\n        /* \"#utility.yul\":21826:21841   */\n      revert\n        /* \"#utility.yul\":21853:22173   */\n    tag_167:\n        /* \"#utility.yul\":21897:21903   */\n      0x00\n        /* \"#utility.yul\":21934:21935   */\n      0x02\n        /* \"#utility.yul\":21928:21932   */\n      dup3\n        /* \"#utility.yul\":21924:21936   */\n      div\n        /* \"#utility.yul\":21914:21936   */\n      swap1\n      pop\n        /* \"#utility.yul\":21981:21982   */\n      0x01\n        /* \"#utility.yul\":21975:21979   */\n      dup3\n        /* \"#utility.yul\":21971:21983   */\n      and\n        /* \"#utility.yul\":22002:22020   */\n      dup1\n        /* \"#utility.yul\":21992:22073   */\n      tag_632\n      jumpi\n        /* \"#utility.yul\":22058:22062   */\n      0x7f\n        /* \"#utility.yul\":22050:22056   */\n      dup3\n        /* \"#utility.yul\":22046:22063   */\n      and\n        /* \"#utility.yul\":22036:22063   */\n      swap2\n      pop\n        /* \"#utility.yul\":21992:22073   */\n    tag_632:\n        /* \"#utility.yul\":22120:22122   */\n      0x20\n        /* \"#utility.yul\":22112:22118   */\n      dup3\n        /* \"#utility.yul\":22109:22123   */\n      lt\n        /* \"#utility.yul\":22089:22107   */\n      dup2\n        /* \"#utility.yul\":22086:22124   */\n      sub\n        /* \"#utility.yul\":22083:22167   */\n      tag_633\n      jumpi\n        /* \"#utility.yul\":22139:22157   */\n      tag_634\n      tag_370\n      jump\t// in\n    tag_634:\n        /* \"#utility.yul\":22083:22167   */\n    tag_633:\n        /* \"#utility.yul\":21904:22173   */\n      pop\n        /* \"#utility.yul\":21853:22173   */\n      swap2\n      swap1\n      pop\n      jump\t// out\n        /* \"#utility.yul\":22179:22348   */\n    tag_371:\n        /* \"#utility.yul\":22319:22340   */\n      0x4f6e6c7920457363726f7720616c6c6f77656400000000000000000000000000\n        /* \"#utility.yul\":22315:22316   */\n      0x00\n        /* \"#utility.yul\":22307:22313   */\n      dup3\n        /* \"#utility.yul\":22303:22317   */\n      add\n        /* \"#utility.yul\":22296:22341   */\n      mstore\n        /* \"#utility.yul\":22179:22348   */\n      pop\n      jump\t// out\n        /* \"#utility.yul\":22354:22720   */\n    tag_372:\n        /* \"#utility.yul\":22496:22499   */\n      0x00\n        /* \"#utility.yul\":22517:22584   */\n      tag_637\n        /* \"#utility.yul\":22581:22583   */\n      0x13\n        /* \"#utility.yul\":22576:22579   */\n      dup4\n        /* \"#utility.yul\":22517:22584   */\n      tag_358\n      jump\t// in\n    tag_637:\n        /* \"#utility.yul\":22510:22584   */\n      swap2\n      pop\n        /* \"#utility.yul\":22593:22686   */\n      tag_638\n        /* \"#utility.yul\":22682:22685   */\n      dup3\n        /* \"#utility.yul\":22593:22686   */\n      tag_371\n      jump\t// in\n    tag_638:\n        /* \"#utility.yul\":22711:22713   */\n      0x20\n        /* \"#utility.yul\":22706:22709   */\n      dup3\n        /* \"#utility.yul\":22702:22714   */\n      add\n        /* \"#utility.yul\":22695:22714   */\n      swap1\n      pop\n        /* \"#utility.yul\":22354:22720   */\n      swap2\n      swap1\n      pop\n      jump\t// out\n        /* \"#utility.yul\":22726:23145   */\n    tag_179:\n        /* \"#utility.yul\":22892:22896   */\n      0x00\n        /* \"#utility.yul\":22930:22932   */\n      0x20\n        /* \"#utility.yul\":22919:22928   */\n      dup3\n        /* \"#utility.yul\":22915:22933   */\n      add\n        /* \"#utility.yul\":22907:22933   */\n      swap1\n      pop\n        /* \"#utility.yul\":22979:22988   */\n      dup2\n        /* \"#utility.yul\":22973:22977   */\n      dup2\n        /* \"#utility.yul\":22969:22989   */\n      sub\n        /* \"#utility.yul\":22965:22966   */\n      0x00\n        /* \"#utility.yul\":22954:22963   */\n      dup4\n        /* \"#utility.yul\":22950:22967   */\n      add\n        /* \"#utility.yul\":22943:22990   */\n      mstore\n        /* \"#utility.yul\":23007:23138   */\n      tag_640\n        /* \"#utility.yul\":23133:23137   */\n      dup2\n        /* \"#utility.yul\":23007:23138   */\n      tag_372\n      jump\t// in\n    tag_640:\n        /* \"#utility.yul\":22999:23138   */\n      swap1\n      pop\n        /* \"#utility.yul\":22726:23145   */\n      swap2\n      swap1\n      pop\n      jump\t// out\n        /* \"#utility.yul\":23151:23325   */\n    tag_373:\n        /* \"#utility.yul\":23291:23317   */\n      0x5365727669636520616c72656164792070726f76696465640000000000000000\n        /* \"#utility.yul\":23287:23288   */\n      0x00\n        /* \"#utility.yul\":23279:23285   */\n      dup3\n        /* \"#utility.yul\":23275:23289   */\n      add\n        /* \"#utility.yul\":23268:23318   */\n      mstore\n        /* \"#utility.yul\":23151:23325   */\n      pop\n      jump\t// out\n        /* \"#utility.yul\":23331:23697   */\n    tag_374:\n        /* \"#utility.yul\":23473:23476   */\n      0x00\n        /* \"#utility.yul\":23494:23561   */\n      tag_643\n        /* \"#utility.yul\":23558:23560   */\n      0x18\n        /* \"#utility.yul\":23553:23556   */\n      dup4\n        /* \"#utility.yul\":23494:23561   */\n      tag_358\n      jump\t// in\n    tag_643:\n        /* \"#utility.yul\":23487:23561   */\n      swap2\n      pop\n        /* \"#utility.yul\":23570:23663   */\n      tag_644\n        /* \"#utility.yul\":23659:23662   */\n      dup3\n        /* \"#utility.yul\":23570:23663   */\n      tag_373\n      jump\t// in\n    tag_644:\n        /* \"#utility.yul\":23688:23690   */\n      0x20\n        /* \"#utility.yul\":23683:23686   */\n      dup3\n        /* \"#utility.yul\":23679:23691   */\n      add\n        /* \"#utility.yul\":23672:23691   */\n      swap1\n      pop\n        /* \"#utility.yul\":23331:23697   */\n      swap2\n      swap1\n      pop\n      jump\t// out\n        /* \"#utility.yul\":23703:24122   */\n    tag_182:\n        /* \"#utility.yul\":23869:23873   */\n      0x00\n        /* \"#utility.yul\":23907:23909   */\n      0x20\n        /* \"#utility.yul\":23896:23905   */\n      dup3\n        /* \"#utility.yul\":23892:23910   */\n      add\n        /* \"#utility.yul\":23884:23910   */\n      swap1\n      pop\n        /* \"#utility.yul\":23956:23965   */\n      dup2\n        /* \"#utility.yul\":23950:23954   */\n      dup2\n        /* \"#utility.yul\":23946:23966   */\n      sub\n        /* \"#utility.yul\":23942:23943   */\n      0x00\n        /* \"#utility.yul\":23931:23940   */\n      dup4\n        /* \"#utility.yul\":23927:23944   */\n      add\n        /* \"#utility.yul\":23920:23967   */\n      mstore\n        /* \"#utility.yul\":23984:24115   */\n      tag_646\n        /* \"#utility.yul\":24110:24114   */\n      dup2\n        /* \"#utility.yul\":23984:24115   */\n      tag_374\n      jump\t// in\n    tag_646:\n        /* \"#utility.yul\":23976:24115   */\n      swap1\n      pop\n        /* \"#utility.yul\":23703:24122   */\n      swap2\n      swap1\n      pop\n      jump\t// out\n        /* \"#utility.yul\":24128:24286   */\n    tag_375:\n        /* \"#utility.yul\":24268:24278   */\n      0x524546554e444544000000000000000000000000000000000000000000000000\n        /* \"#utility.yul\":24264:24265   */\n      0x00\n        /* \"#utility.yul\":24256:24262   */\n      dup3\n        /* \"#utility.yul\":24252:24266   */\n      add\n        /* \"#utility.yul\":24245:24279   */\n      mstore\n        /* \"#utility.yul\":24128:24286   */\n      pop\n      jump\t// out\n        /* \"#utility.yul\":24292:24657   */\n    tag_376:\n        /* \"#utility.yul\":24434:24437   */\n      0x00\n        /* \"#utility.yul\":24455:24521   */\n      tag_649\n        /* \"#utility.yul\":24519:24520   */\n      0x08\n        /* \"#utility.yul\":24514:24517   */\n      dup4\n        /* \"#utility.yul\":24455:24521   */\n      tag_358\n      jump\t// in\n    tag_649:\n        /* \"#utility.yul\":24448:24521   */\n      swap2\n      pop\n        /* \"#utility.yul\":24530:24623   */\n      tag_650\n        /* \"#utility.yul\":24619:24622   */\n      dup3\n        /* \"#utility.yul\":24530:24623   */\n      tag_375\n      jump\t// in\n    tag_650:\n        /* \"#utility.yul\":24648:24650   */\n      0x20\n        /* \"#utility.yul\":24643:24646   */\n      dup3\n        /* \"#utility.yul\":24639:24651   */\n      add\n        /* \"#utility.yul\":24632:24651   */\n      swap1\n      pop\n        /* \"#utility.yul\":24292:24657   */\n      swap2\n      swap1\n      pop\n      jump\t// out\n        /* \"#utility.yul\":24663:25318   */\n    tag_189:\n        /* \"#utility.yul\":24893:24897   */\n      0x00\n        /* \"#utility.yul\":24931:24933   */\n      0x60\n        /* \"#utility.yul\":24920:24929   */\n      dup3\n        /* \"#utility.yul\":24916:24934   */\n      add\n        /* \"#utility.yul\":24908:24934   */\n      swap1\n      pop\n        /* \"#utility.yul\":24944:25015   */\n      tag_652\n        /* \"#utility.yul\":25012:25013   */\n      0x00\n        /* \"#utility.yul\":25001:25010   */\n      dup4\n        /* \"#utility.yul\":24997:25014   */\n      add\n        /* \"#utility.yul\":24988:24994   */\n      dup6\n        /* \"#utility.yul\":24944:25015   */\n      tag_345\n      jump\t// in\n    tag_652:\n        /* \"#utility.yul\":25062:25071   */\n      dup2\n        /* \"#utility.yul\":25056:25060   */\n      dup2\n        /* \"#utility.yul\":25052:25072   */\n      sub\n        /* \"#utility.yul\":25047:25049   */\n      0x20\n        /* \"#utility.yul\":25036:25045   */\n      dup4\n        /* \"#utility.yul\":25032:25050   */\n      add\n        /* \"#utility.yul\":25025:25073   */\n      mstore\n        /* \"#utility.yul\":25090:25221   */\n      tag_653\n        /* \"#utility.yul\":25216:25220   */\n      dup2\n        /* \"#utility.yul\":25090:25221   */\n      tag_376\n      jump\t// in\n    tag_653:\n        /* \"#utility.yul\":25082:25221   */\n      swap1\n      pop\n        /* \"#utility.yul\":25231:25311   */\n      tag_654\n        /* \"#utility.yul\":25307:25309   */\n      0x40\n        /* \"#utility.yul\":25296:25305   */\n      dup4\n        /* \"#utility.yul\":25292:25310   */\n      add\n        /* \"#utility.yul\":25283:25289   */\n      dup5\n        /* \"#utility.yul\":25231:25311   */\n      tag_369\n      jump\t// in\n    tag_654:\n        /* \"#utility.yul\":24663:25318   */\n      swap4\n      swap3\n      pop\n      pop\n      pop\n      jump\t// out\n        /* \"#utility.yul\":25324:25497   */\n    tag_377:\n        /* \"#utility.yul\":25464:25489   */\n      0x507572706f73652063616e6e6f7420626520656d707479000000000000000000\n        /* \"#utility.yul\":25460:25461   */\n      0x00\n        /* \"#utility.yul\":25452:25458   */\n      dup3\n        /* \"#utility.yul\":25448:25462   */\n      add\n        /* \"#utility.yul\":25441:25490   */\n      mstore\n        /* \"#utility.yul\":25324:25497   */\n      pop\n      jump\t// out\n        /* \"#utility.yul\":25503:25869   */\n    tag_378:\n        /* \"#utility.yul\":25645:25648   */\n      0x00\n        /* \"#utility.yul\":25666:25733   */\n      tag_657\n        /* \"#utility.yul\":25730:25732   */\n      0x17\n        /* \"#utility.yul\":25725:25728   */\n      dup4\n        /* \"#utility.yul\":25666:25733   */\n      tag_358\n      jump\t// in\n    tag_657:\n        /* \"#utility.yul\":25659:25733   */\n      swap2\n      pop\n        /* \"#utility.yul\":25742:25835   */\n      tag_658\n        /* \"#utility.yul\":25831:25834   */\n      dup3\n        /* \"#utility.yul\":25742:25835   */\n      tag_377\n      jump\t// in\n    tag_658:\n        /* \"#utility.yul\":25860:25862   */\n      0x20\n        /* \"#utility.yul\":25855:25858   */\n      dup3\n        /* \"#utility.yul\":25851:25863   */\n      add\n        /* \"#utility.yul\":25844:25863   */\n      swap1\n      pop\n        /* \"#utility.yul\":25503:25869   */\n      swap2\n      swap1\n      pop\n      jump\t// out\n        /* \"#utility.yul\":25875:26294   */\n    tag_205:\n        /* \"#utility.yul\":26041:26045   */\n      0x00\n        /* \"#utility.yul\":26079:26081   */\n      0x20\n        /* \"#utility.yul\":26068:26077   */\n      dup3\n        /* \"#utility.yul\":26064:26082   */\n      add\n        /* \"#utility.yul\":26056:26082   */\n      swap1\n      pop\n        /* \"#utility.yul\":26128:26137   */\n      dup2\n        /* \"#utility.yul\":26122:26126   */\n      dup2\n        /* \"#utility.yul\":26118:26138   */\n      sub\n        /* \"#utility.yul\":26114:26115   */\n      0x00\n        /* \"#utility.yul\":26103:26112   */\n      dup4\n        /* \"#utility.yul\":26099:26116   */\n      add\n        /* \"#utility.yul\":26092:26139   */\n      mstore\n        /* \"#utility.yul\":26156:26287   */\n      tag_660\n        /* \"#utility.yul\":26282:26286   */\n      dup2\n        /* \"#utility.yul\":26156:26287   */\n      tag_378\n      jump\t// in\n    tag_660:\n        /* \"#utility.yul\":26148:26287   */\n      swap1\n      pop\n        /* \"#utility.yul\":25875:26294   */\n      swap2\n      swap1\n      pop\n      jump\t// out\n        /* \"#utility.yul\":26300:26476   */\n    tag_379:\n        /* \"#utility.yul\":26440:26468   */\n      0x4974656d2063616e6e6f74206265207a65726f20657468657273000000000000\n        /* \"#utility.yul\":26436:26437   */\n      0x00\n        /* \"#utility.yul\":26428:26434   */\n      dup3\n        /* \"#utility.yul\":26424:26438   */\n      add\n        /* \"#utility.yul\":26417:26469   */\n      mstore\n        /* \"#utility.yul\":26300:26476   */\n      pop\n      jump\t// out\n        /* \"#utility.yul\":26482:26848   */\n    tag_380:\n        /* \"#utility.yul\":26624:26627   */\n      0x00\n        /* \"#utility.yul\":26645:26712   */\n      tag_663\n        /* \"#utility.yul\":26709:26711   */\n      0x1a\n        /* \"#utility.yul\":26704:26707   */\n      dup4\n        /* \"#utility.yul\":26645:26712   */\n      tag_358\n      jump\t// in\n    tag_663:\n        /* \"#utility.yul\":26638:26712   */\n      swap2\n      pop\n        /* \"#utility.yul\":26721:26814   */\n      tag_664\n        /* \"#utility.yul\":26810:26813   */\n      dup3\n        /* \"#utility.yul\":26721:26814   */\n      tag_379\n      jump\t// in\n    tag_664:\n        /* \"#utility.yul\":26839:26841   */\n      0x20\n        /* \"#utility.yul\":26834:26837   */\n      dup3\n        /* \"#utility.yul\":26830:26842   */\n      add\n        /* \"#utility.yul\":26823:26842   */\n      swap1\n      pop\n        /* \"#utility.yul\":26482:26848   */\n      swap2\n      swap1\n      pop\n      jump\t// out\n        /* \"#utility.yul\":26854:27273   */\n    tag_208:\n        /* \"#utility.yul\":27020:27024   */\n      0x00\n        /* \"#utility.yul\":27058:27060   */\n      0x20\n        /* \"#utility.yul\":27047:27056   */\n      dup3\n        /* \"#utility.yul\":27043:27061   */\n      add\n        /* \"#utility.yul\":27035:27061   */\n      swap1\n      pop\n        /* \"#utility.yul\":27107:27116   */\n      dup2\n        /* \"#utility.yul\":27101:27105   */\n      dup2\n        /* \"#utility.yul\":27097:27117   */\n      sub\n        /* \"#utility.yul\":27093:27094   */\n      0x00\n        /* \"#utility.yul\":27082:27091   */\n      dup4\n        /* \"#utility.yul\":27078:27095   */\n      add\n        /* \"#utility.yul\":27071:27118   */\n      mstore\n        /* \"#utility.yul\":27135:27266   */\n      tag_666\n        /* \"#utility.yul\":27261:27265   */\n      dup2\n        /* \"#utility.yul\":27135:27266   */\n      tag_380\n      jump\t// in\n    tag_666:\n        /* \"#utility.yul\":27127:27266   */\n      swap1\n      pop\n        /* \"#utility.yul\":26854:27273   */\n      swap2\n      swap1\n      pop\n      jump\t// out\n        /* \"#utility.yul\":27279:27376   */\n    tag_381:\n        /* \"#utility.yul\":27338:27344   */\n      0x00\n        /* \"#utility.yul\":27366:27369   */\n      dup3\n        /* \"#utility.yul\":27356:27369   */\n      swap1\n      pop\n        /* \"#utility.yul\":27279:27376   */\n      swap3\n      swap2\n      pop\n      pop\n      jump\t// out\n        /* \"#utility.yul\":27382:27562   */\n    tag_227:\n        /* \"#utility.yul\":27430:27507   */\n      0x4e487b7100000000000000000000000000000000000000000000000000000000\n        /* \"#utility.yul\":27427:27428   */\n      0x00\n        /* \"#utility.yul\":27420:27508   */\n      mstore\n        /* \"#utility.yul\":27527:27531   */\n      0x41\n        /* \"#utility.yul\":27524:27525   */\n      0x04\n        /* \"#utility.yul\":27517:27532   */\n      mstore\n        /* \"#utility.yul\":27551:27555   */\n      0x24\n        /* \"#utility.yul\":27548:27549   */\n      0x00\n        /* \"#utility.yul\":27541:27556   */\n      revert\n        /* \"#utility.yul\":27568:27709   */\n    tag_382:\n        /* \"#utility.yul\":27617:27621   */\n      0x00\n        /* \"#utility.yul\":27640:27643   */\n      dup2\n        /* \"#utility.yul\":27632:27643   */\n      swap1\n      pop\n        /* \"#utility.yul\":27663:27666   */\n      dup2\n        /* \"#utility.yul\":27660:27661   */\n      0x00\n        /* \"#utility.yul\":27653:27667   */\n      mstore\n        /* \"#utility.yul\":27697:27701   */\n      0x20\n        /* \"#utility.yul\":27694:27695   */\n      0x00\n        /* \"#utility.yul\":27684:27702   */\n      keccak256\n        /* \"#utility.yul\":27676:27702   */\n      swap1\n      pop\n        /* \"#utility.yul\":27568:27709   */\n      swap2\n      swap1\n      pop\n      jump\t// out\n        /* \"#utility.yul\":27715:27808   */\n    tag_383:\n        /* \"#utility.yul\":27752:27758   */\n      0x00\n        /* \"#utility.yul\":27799:27801   */\n      0x20\n        /* \"#utility.yul\":27794:27796   */\n      0x1f\n        /* \"#utility.yul\":27787:27792   */\n      dup4\n        /* \"#utility.yul\":27783:27797   */\n      add\n        /* \"#utility.yul\":27779:27802   */\n      div\n        /* \"#utility.yul\":27769:27802   */\n      swap1\n      pop\n        /* \"#utility.yul\":27715:27808   */\n      swap2\n      swap1\n      pop\n      jump\t// out\n        /* \"#utility.yul\":27814:27921   */\n    tag_384:\n        /* \"#utility.yul\":27858:27866   */\n      0x00\n        /* \"#utility.yul\":27908:27913   */\n      dup3\n        /* \"#utility.yul\":27902:27906   */\n      dup3\n        /* \"#utility.yul\":27898:27914   */\n      shl\n        /* \"#utility.yul\":27877:27914   */\n      swap1\n      pop\n        /* \"#utility.yul\":27814:27921   */\n      swap3\n      swap2\n      pop\n      pop\n      jump\t// out\n        /* \"#utility.yul\":27927:28320   */\n    tag_385:\n        /* \"#utility.yul\":27996:28002   */\n      0x00\n        /* \"#utility.yul\":28046:28047   */\n      0x08\n        /* \"#utility.yul\":28034:28044   */\n      dup4\n        /* \"#utility.yul\":28030:28048   */\n      mul\n        /* \"#utility.yul\":28069:28166   */\n      tag_673\n        /* \"#utility.yul\":28099:28165   */\n      0xffffffffffffffffffffffffffffffffffffffffffffffffffffffffffffffff\n        /* \"#utility.yul\":28088:28097   */\n      dup3\n        /* \"#utility.yul\":28069:28166   */\n      tag_384\n      jump\t// in\n    tag_673:\n        /* \"#utility.yul\":28187:28226   */\n      tag_674\n        /* \"#utility.yul\":28217:28225   */\n      dup7\n        /* \"#utility.yul\":28206:28215   */\n      dup4\n        /* \"#utility.yul\":28187:28226   */\n      tag_384\n      jump\t// in\n    tag_674:\n        /* \"#utility.yul\":28175:28226   */\n      swap6\n      pop\n        /* \"#utility.yul\":28259:28263   */\n      dup1\n        /* \"#utility.yul\":28255:28264   */\n      not\n        /* \"#utility.yul\":28248:28253   */\n      dup5\n        /* \"#utility.yul\":28244:28265   */\n      and\n        /* \"#utility.yul\":28235:28265   */\n      swap4\n      pop\n        /* \"#utility.yul\":28308:28312   */\n      dup1\n        /* \"#utility.yul\":28298:28306   */\n      dup7\n        /* \"#utility.yul\":28294:28313   */\n      and\n        /* \"#utility.yul\":28287:28292   */\n      dup5\n        /* \"#utility.yul\":28284:28314   */\n      or\n        /* \"#utility.yul\":28274:28314   */\n      swap3\n      pop\n        /* \"#utility.yul\":28003:28320   */\n      pop\n      pop\n        /* \"#utility.yul\":27927:28320   */\n      swap4\n      swap3\n      pop\n      pop\n      pop\n      jump\t// out\n        /* \"#utility.yul\":28326:28386   */\n    tag_386:\n        /* \"#utility.yul\":28354:28357   */\n      0x00\n        /* \"#utility.yul\":28375:28380   */\n      dup2\n        /* \"#utility.yul\":28368:28380   */\n      swap1\n      pop\n        /* \"#utility.yul\":28326:28386   */\n      swap2\n      swap1\n      pop\n      jump\t// out\n        /* \"#utility.yul\":28392:28534   */\n    tag_387:\n        /* \"#utility.yul\":28442:28451   */\n      0x00\n        /* \"#utility.yul\":28475:28528   */\n      tag_677\n        /* \"#utility.yul\":28493:28527   */\n      tag_678\n        /* \"#utility.yul\":28502:28526   */\n      tag_679\n        /* \"#utility.yul\":28520:28525   */\n      dup5\n        /* \"#utility.yul\":28502:28526   */\n      tag_317\n      jump\t// in\n    tag_679:\n        /* \"#utility.yul\":28493:28527   */\n      tag_386\n      jump\t// in\n    tag_678:\n        /* \"#utility.yul\":28475:28528   */\n      tag_317\n      jump\t// in\n    tag_677:\n        /* \"#utility.yul\":28462:28528   */\n      swap1\n      pop\n        /* \"#utility.yul\":28392:28534   */\n      swap2\n      swap1\n      pop\n      jump\t// out\n        /* \"#utility.yul\":28540:28615   */\n    tag_388:\n        /* \"#utility.yul\":28583:28586   */\n      0x00\n        /* \"#utility.yul\":28604:28609   */\n      dup2\n        /* \"#utility.yul\":28597:28609   */\n      swap1\n      pop\n        /* \"#utility.yul\":28540:28615   */\n      swap2\n      swap1\n      pop\n      jump\t// out\n        /* \"#utility.yul\":28621:28890   */\n    tag_389:\n        /* \"#utility.yul\":28731:28770   */\n      tag_682\n        /* \"#utility.yul\":28762:28769   */\n      dup4\n        /* \"#utility.yul\":28731:28770   */\n      tag_387\n      jump\t// in\n    tag_682:\n        /* \"#utility.yul\":28792:28883   */\n      tag_683\n        /* \"#utility.yul\":28841:28882   */\n      tag_684\n        /* \"#utility.yul\":28865:28881   */\n      dup3\n        /* \"#utility.yul\":28841:28882   */\n      tag_388\n      jump\t// in\n    tag_684:\n        /* \"#utility.yul\":28833:28839   */\n      dup5\n        /* \"#utility.yul\":28826:28830   */\n      dup5\n        /* \"#utility.yul\":28820:28831   */\n      sload\n        /* \"#utility.yul\":28792:28883   */\n      tag_385\n      jump\t// in\n    tag_683:\n        /* \"#utility.yul\":28786:28790   */\n      dup3\n        /* \"#utility.yul\":28779:28884   */\n      sstore\n        /* \"#utility.yul\":28697:28890   */\n      pop\n        /* \"#utility.yul\":28621:28890   */\n      pop\n      pop\n      pop\n      jump\t// out\n        /* \"#utility.yul\":28896:28969   */\n    tag_390:\n        /* \"#utility.yul\":28941:28944   */\n      0x00\n        /* \"#utility.yul\":28896:28969   */\n      swap1\n      jump\t// out\n        /* \"#utility.yul\":28975:29164   */\n    tag_391:\n        /* \"#utility.yul\":29052:29084   */\n      tag_687\n      tag_390\n      jump\t// in\n    tag_687:\n        /* \"#utility.yul\":29093:29158   */\n      tag_688\n        /* \"#utility.yul\":29151:29157   */\n      dup2\n        /* \"#utility.yul\":29143:29149   */\n      dup5\n        /* \"#utility.yul\":29137:29141   */\n      dup5\n        /* \"#utility.yul\":29093:29158   */\n      tag_389\n      jump\t// in\n    tag_688:\n        /* \"#utility.yul\":29028:29164   */\n      pop\n        /* \"#utility.yul\":28975:29164   */\n      pop\n      pop\n      jump\t// out\n        /* \"#utility.yul\":29170:29356   */\n    tag_392:\n        /* \"#utility.yul\":29230:29350   */\n    tag_690:\n        /* \"#utility.yul\":29247:29250   */\n      dup2\n        /* \"#utility.yul\":29240:29245   */\n      dup2\n        /* \"#utility.yul\":29237:29251   */\n      lt\n        /* \"#utility.yul\":29230:29350   */\n      iszero\n      tag_692\n      jumpi\n        /* \"#utility.yul\":29301:29340   */\n      tag_693\n        /* \"#utility.yul\":29338:29339   */\n      0x00\n        /* \"#utility.yul\":29331:29336   */\n      dup3\n        /* \"#utility.yul\":29301:29340   */\n      tag_391\n      jump\t// in\n    tag_693:\n        /* \"#utility.yul\":29274:29275   */\n      0x01\n        /* \"#utility.yul\":29267:29272   */\n      dup2\n        /* \"#utility.yul\":29263:29276   */\n      add\n        /* \"#utility.yul\":29254:29276   */\n      swap1\n      pop\n        /* \"#utility.yul\":29230:29350   */\n      jump(tag_690)\n    tag_692:\n        /* \"#utility.yul\":29170:29356   */\n      pop\n      pop\n      jump\t// out\n        /* \"#utility.yul\":29362:29905   */\n    tag_393:\n        /* \"#utility.yul\":29463:29465   */\n      0x1f\n        /* \"#utility.yul\":29458:29461   */\n      dup3\n        /* \"#utility.yul\":29455:29466   */\n      gt\n        /* \"#utility.yul\":29452:29898   */\n      iszero\n      tag_695\n      jumpi\n        /* \"#utility.yul\":29497:29535   */\n      tag_696\n        /* \"#utility.yul\":29529:29534   */\n      dup2\n        /* \"#utility.yul\":29497:29535   */\n      tag_382\n      jump\t// in\n    tag_696:\n        /* \"#utility.yul\":29581:29610   */\n      tag_697\n        /* \"#utility.yul\":29599:29609   */\n      dup5\n        /* \"#utility.yul\":29581:29610   */\n      tag_383\n      jump\t// in\n    tag_697:\n        /* \"#utility.yul\":29571:29579   */\n      dup2\n        /* \"#utility.yul\":29567:29611   */\n      add\n        /* \"#utility.yul\":29764:29766   */\n      0x20\n        /* \"#utility.yul\":29752:29762   */\n      dup6\n        /* \"#utility.yul\":29749:29767   */\n      lt\n        /* \"#utility.yul\":29746:29795   */\n      iszero\n      tag_698\n      jumpi\n        /* \"#utility.yul\":29785:29793   */\n      dup2\n        /* \"#utility.yul\":29770:29793   */\n      swap1\n      pop\n        /* \"#utility.yul\":29746:29795   */\n    tag_698:\n        /* \"#utility.yul\":29808:29888   */\n      tag_699\n        /* \"#utility.yul\":29864:29886   */\n      tag_700\n        /* \"#utility.yul\":29882:29885   */\n      dup6\n        /* \"#utility.yul\":29864:29886   */\n      tag_383\n      jump\t// in\n    tag_700:\n        /* \"#utility.yul\":29854:29862   */\n      dup4\n        /* \"#utility.yul\":29850:29887   */\n      add\n        /* \"#utility.yul\":29837:29848   */\n      dup3\n        /* \"#utility.yul\":29808:29888   */\n      tag_392\n      jump\t// in\n    tag_699:\n        /* \"#utility.yul\":29467:29898   */\n      pop\n      pop\n        /* \"#utility.yul\":29452:29898   */\n    tag_695:\n        /* \"#utility.yul\":29362:29905   */\n      pop\n      pop\n      pop\n      jump\t// out\n        /* \"#utility.yul\":29911:30028   */\n    tag_394:\n        /* \"#utility.yul\":29965:29973   */\n      0x00\n        /* \"#utility.yul\":30015:30020   */\n      dup3\n        /* \"#utility.yul\":30009:30013   */\n      dup3\n        /* \"#utility.yul\":30005:30021   */\n      shr\n        /* \"#utility.yul\":29984:30021   */\n      swap1\n      pop\n        /* \"#utility.yul\":29911:30028   */\n      swap3\n      swap2\n      pop\n      pop\n      jump\t// out\n        /* \"#utility.yul\":30034:30203   */\n    tag_395:\n        /* \"#utility.yul\":30078:30084   */\n      0x00\n        /* \"#utility.yul\":30111:30162   */\n      tag_703\n        /* \"#utility.yul\":30159:30160   */\n      0x00\n        /* \"#utility.yul\":30155:30161   */\n      not\n        /* \"#utility.yul\":30147:30152   */\n      dup5\n        /* \"#utility.yul\":30144:30145   */\n      0x08\n        /* \"#utility.yul\":30140:30153   */\n      mul\n        /* \"#utility.yul\":30111:30162   */\n      tag_394\n      jump\t// in\n    tag_703:\n        /* \"#utility.yul\":30107:30163   */\n      not\n        /* \"#utility.yul\":30192:30196   */\n      dup1\n        /* \"#utility.yul\":30186:30190   */\n      dup4\n        /* \"#utility.yul\":30182:30197   */\n      and\n        /* \"#utility.yul\":30172:30197   */\n      swap2\n      pop\n        /* \"#utility.yul\":30085:30203   */\n      pop\n        /* \"#utility.yul\":30034:30203   */\n      swap3\n      swap2\n      pop\n      pop\n      jump\t// out\n        /* \"#utility.yul\":30208:30503   */\n    tag_396:\n        /* \"#utility.yul\":30284:30288   */\n      0x00\n        /* \"#utility.yul\":30430:30459   */\n      tag_705\n        /* \"#utility.yul\":30455:30458   */\n      dup4\n        /* \"#utility.yul\":30449:30453   */\n      dup4\n        /* \"#utility.yul\":30430:30459   */\n      tag_395\n      jump\t// in\n    tag_705:\n        /* \"#utility.yul\":30422:30459   */\n      swap2\n      pop\n        /* \"#utility.yul\":30492:30495   */\n      dup3\n        /* \"#utility.yul\":30489:30490   */\n      0x02\n        /* \"#utility.yul\":30485:30496   */\n      mul\n        /* \"#utility.yul\":30479:30483   */\n      dup3\n        /* \"#utility.yul\":30476:30497   */\n      or\n        /* \"#utility.yul\":30468:30497   */\n      swap1\n      pop\n        /* \"#utility.yul\":30208:30503   */\n      swap3\n      swap2\n      pop\n      pop\n      jump\t// out\n        /* \"#utility.yul\":30508:31911   */\n    tag_211:\n        /* \"#utility.yul\":30632:30676   */\n      tag_707\n        /* \"#utility.yul\":30672:30675   */\n      dup4\n        /* \"#utility.yul\":30667:30670   */\n      dup4\n        /* \"#utility.yul\":30632:30676   */\n      tag_381\n      jump\t// in\n    tag_707:\n        /* \"#utility.yul\":30741:30759   */\n      0xffffffffffffffff\n        /* \"#utility.yul\":30733:30739   */\n      dup2\n        /* \"#utility.yul\":30730:30760   */\n      gt\n        /* \"#utility.yul\":30727:30783   */\n      iszero\n      tag_708\n      jumpi\n        /* \"#utility.yul\":30763:30781   */\n      tag_709\n      tag_227\n      jump\t// in\n    tag_709:\n        /* \"#utility.yul\":30727:30783   */\n    tag_708:\n        /* \"#utility.yul\":30807:30845   */\n      tag_710\n        /* \"#utility.yul\":30839:30843   */\n      dup3\n        /* \"#utility.yul\":30833:30844   */\n      sload\n        /* \"#utility.yul\":30807:30845   */\n      tag_167\n      jump\t// in\n    tag_710:\n        /* \"#utility.yul\":30892:30959   */\n      tag_711\n        /* \"#utility.yul\":30952:30958   */\n      dup3\n        /* \"#utility.yul\":30944:30950   */\n      dup3\n        /* \"#utility.yul\":30938:30942   */\n      dup6\n        /* \"#utility.yul\":30892:30959   */\n      tag_393\n      jump\t// in\n    tag_711:\n        /* \"#utility.yul\":30986:30987   */\n      0x00\n        /* \"#utility.yul\":31015:31017   */\n      0x1f\n        /* \"#utility.yul\":31007:31013   */\n      dup4\n        /* \"#utility.yul\":31004:31018   */\n      gt\n        /* \"#utility.yul\":31032:31033   */\n      0x01\n        /* \"#utility.yul\":31027:31659   */\n      dup2\n      eq\n      tag_713\n      jumpi\n        /* \"#utility.yul\":31703:31704   */\n      0x00\n        /* \"#utility.yul\":31720:31726   */\n      dup5\n        /* \"#utility.yul\":31717:31801   */\n      iszero\n      tag_714\n      jumpi\n        /* \"#utility.yul\":31776:31785   */\n      dup3\n        /* \"#utility.yul\":31771:31774   */\n      dup8\n        /* \"#utility.yul\":31767:31786   */\n      add\n        /* \"#utility.yul\":31754:31787   */\n      calldataload\n        /* \"#utility.yul\":31745:31787   */\n      swap1\n      pop\n        /* \"#utility.yul\":31717:31801   */\n    tag_714:\n        /* \"#utility.yul\":31827:31894   */\n      tag_715\n        /* \"#utility.yul\":31887:31893   */\n      dup6\n        /* \"#utility.yul\":31880:31885   */\n      dup3\n        /* \"#utility.yul\":31827:31894   */\n      tag_396\n      jump\t// in\n    tag_715:\n        /* \"#utility.yul\":31821:31825   */\n      dup7\n        /* \"#utility.yul\":31814:31895   */\n      sstore\n        /* \"#utility.yul\":31676:31905   */\n      pop\n        /* \"#utility.yul\":30997:31905   */\n      jump(tag_712)\n        /* \"#utility.yul\":31027:31659   */\n    tag_713:\n        /* \"#utility.yul\":31079:31083   */\n      0x1f\n        /* \"#utility.yul\":31075:31084   */\n      not\n        /* \"#utility.yul\":31067:31073   */\n      dup5\n        /* \"#utility.yul\":31063:31085   */\n      and\n        /* \"#utility.yul\":31113:31150   */\n      tag_716\n        /* \"#utility.yul\":31145:31149   */\n      dup7\n        /* \"#utility.yul\":31113:31150   */\n      tag_382\n      jump\t// in\n    tag_716:\n        /* \"#utility.yul\":31172:31173   */\n      0x00\n        /* \"#utility.yul\":31186:31401   */\n    tag_717:\n        /* \"#utility.yul\":31200:31207   */\n      dup3\n        /* \"#utility.yul\":31197:31198   */\n      dup2\n        /* \"#utility.yul\":31194:31208   */\n      lt\n        /* \"#utility.yul\":31186:31401   */\n      iszero\n      tag_719\n      jumpi\n        /* \"#utility.yul\":31286:31295   */\n      dup5\n        /* \"#utility.yul\":31281:31284   */\n      dup10\n        /* \"#utility.yul\":31277:31296   */\n      add\n        /* \"#utility.yul\":31264:31297   */\n      calldataload\n        /* \"#utility.yul\":31256:31262   */\n      dup3\n        /* \"#utility.yul\":31249:31298   */\n      sstore\n        /* \"#utility.yul\":31337:31338   */\n      0x01\n        /* \"#utility.yul\":31329:31335   */\n      dup3\n        /* \"#utility.yul\":31325:31339   */\n      add\n        /* \"#utility.yul\":31315:31339   */\n      swap2\n      pop\n        /* \"#utility.yul\":31384:31386   */\n      0x20\n        /* \"#utility.yul\":31373:31382   */\n      dup6\n        /* \"#utility.yul\":31369:31387   */\n      add\n        /* \"#utility.yul\":31356:31387   */\n      swap5\n      pop\n        /* \"#utility.yul\":31223:31227   */\n      0x20\n        /* \"#utility.yul\":31220:31221   */\n      dup2\n        /* \"#utility.yul\":31216:31228   */\n      add\n        /* \"#utility.yul\":31211:31228   */\n      swap1\n      pop\n        /* \"#utility.yul\":31186:31401   */\n      jump(tag_717)\n    tag_719:\n        /* \"#utility.yul\":31429:31435   */\n      dup7\n        /* \"#utility.yul\":31420:31427   */\n      dup4\n        /* \"#utility.yul\":31417:31436   */\n      lt\n        /* \"#utility.yul\":31414:31600   */\n      iszero\n      tag_720\n      jumpi\n        /* \"#utility.yul\":31494:31503   */\n      dup5\n        /* \"#utility.yul\":31489:31492   */\n      dup10\n        /* \"#utility.yul\":31485:31504   */\n      add\n        /* \"#utility.yul\":31472:31505   */\n      calldataload\n        /* \"#utility.yul\":31537:31585   */\n      tag_721\n        /* \"#utility.yul\":31579:31583   */\n      0x1f\n        /* \"#utility.yul\":31571:31577   */\n      dup10\n        /* \"#utility.yul\":31567:31584   */\n      and\n        /* \"#utility.yul\":31556:31565   */\n      dup3\n        /* \"#utility.yul\":31537:31585   */\n      tag_395\n      jump\t// in\n    tag_721:\n        /* \"#utility.yul\":31529:31535   */\n      dup4\n        /* \"#utility.yul\":31522:31586   */\n      sstore\n        /* \"#utility.yul\":31437:31600   */\n      pop\n        /* \"#utility.yul\":31414:31600   */\n    tag_720:\n        /* \"#utility.yul\":31646:31647   */\n      0x01\n        /* \"#utility.yul\":31642:31643   */\n      0x02\n        /* \"#utility.yul\":31634:31640   */\n      dup9\n        /* \"#utility.yul\":31630:31644   */\n      mul\n        /* \"#utility.yul\":31626:31648   */\n      add\n        /* \"#utility.yul\":31620:31624   */\n      dup9\n        /* \"#utility.yul\":31613:31649   */\n      sstore\n        /* \"#utility.yul\":31034:31659   */\n      pop\n      pop\n      pop\n        /* \"#utility.yul\":30997:31905   */\n    tag_712:\n      pop\n        /* \"#utility.yul\":30607:31911   */\n      pop\n      pop\n      pop\n        /* \"#utility.yul\":30508:31911   */\n      pop\n      pop\n      pop\n      jump\t// out\n        /* \"#utility.yul\":31917:32066   */\n    tag_397:\n        /* \"#utility.yul\":31966:31972   */\n      0x00\n        /* \"#utility.yul\":32000:32005   */\n      dup2\n        /* \"#utility.yul\":31994:32006   */\n      sload\n        /* \"#utility.yul\":31984:32006   */\n      swap1\n      pop\n        /* \"#utility.yul\":32026:32059   */\n      tag_723\n        /* \"#utility.yul\":32052:32058   */\n      dup2\n        /* \"#utility.yul\":32026:32059   */\n      tag_167\n      jump\t// in\n    tag_723:\n        /* \"#utility.yul\":32016:32059   */\n      swap1\n      pop\n        /* \"#utility.yul\":31917:32066   */\n      swap2\n      swap1\n      pop\n      jump\t// out\n        /* \"#utility.yul\":32072:33523   */\n    tag_216:\n        /* \"#utility.yul\":32183:32186   */\n      dup2\n        /* \"#utility.yul\":32177:32181   */\n      dup2\n        /* \"#utility.yul\":32174:32187   */\n      sub\n        /* \"#utility.yul\":32171:32197   */\n      tag_725\n      jumpi\n        /* \"#utility.yul\":32190:32195   */\n      pop\n      pop\n      jump(tag_724)\n        /* \"#utility.yul\":32171:32197   */\n    tag_725:\n        /* \"#utility.yul\":32221:32255   */\n      tag_726\n        /* \"#utility.yul\":32251:32254   */\n      dup3\n        /* \"#utility.yul\":32221:32255   */\n      tag_397\n      jump\t// in\n    tag_726:\n        /* \"#utility.yul\":32320:32338   */\n      0xffffffffffffffff\n        /* \"#utility.yul\":32312:32318   */\n      dup2\n        /* \"#utility.yul\":32309:32339   */\n      gt\n        /* \"#utility.yul\":32306:32362   */\n      iszero\n      tag_727\n      jumpi\n        /* \"#utility.yul\":32342:32360   */\n      tag_728\n      tag_227\n      jump\t// in\n    tag_728:\n        /* \"#utility.yul\":32306:32362   */\n    tag_727:\n        /* \"#utility.yul\":32386:32424   */\n      tag_729\n        /* \"#utility.yul\":32418:32422   */\n      dup3\n        /* \"#utility.yul\":32412:32423   */\n      sload\n        /* \"#utility.yul\":32386:32424   */\n      tag_167\n      jump\t// in\n    tag_729:\n        /* \"#utility.yul\":32471:32538   */\n      tag_730\n        /* \"#utility.yul\":32531:32537   */\n      dup3\n        /* \"#utility.yul\":32523:32529   */\n      dup3\n        /* \"#utility.yul\":32517:32521   */\n      dup6\n        /* \"#utility.yul\":32471:32538   */\n      tag_393\n      jump\t// in\n    tag_730:\n        /* \"#utility.yul\":32565:32566   */\n      0x00\n        /* \"#utility.yul\":32594:32596   */\n      0x1f\n        /* \"#utility.yul\":32586:32592   */\n      dup4\n        /* \"#utility.yul\":32583:32597   */\n      gt\n        /* \"#utility.yul\":32611:32612   */\n      0x01\n        /* \"#utility.yul\":32606:33278   */\n      dup2\n      eq\n      tag_732\n      jumpi\n        /* \"#utility.yul\":33322:33323   */\n      0x00\n        /* \"#utility.yul\":33339:33345   */\n      dup5\n        /* \"#utility.yul\":33336:33413   */\n      iszero\n      tag_733\n      jumpi\n        /* \"#utility.yul\":33388:33397   */\n      dup3\n        /* \"#utility.yul\":33383:33386   */\n      dup8\n        /* \"#utility.yul\":33379:33398   */\n      add\n        /* \"#utility.yul\":33373:33399   */\n      sload\n        /* \"#utility.yul\":33364:33399   */\n      swap1\n      pop\n        /* \"#utility.yul\":33336:33413   */\n    tag_733:\n        /* \"#utility.yul\":33439:33506   */\n      tag_734\n        /* \"#utility.yul\":33499:33505   */\n      dup6\n        /* \"#utility.yul\":33492:33497   */\n      dup3\n        /* \"#utility.yul\":33439:33506   */\n      tag_396\n      jump\t// in\n    tag_734:\n        /* \"#utility.yul\":33433:33437   */\n      dup7\n        /* \"#utility.yul\":33426:33507   */\n      sstore\n        /* \"#utility.yul\":33295:33517   */\n      pop\n        /* \"#utility.yul\":32576:33517   */\n      jump(tag_731)\n        /* \"#utility.yul\":32606:33278   */\n    tag_732:\n        /* \"#utility.yul\":32658:32662   */\n      0x1f\n        /* \"#utility.yul\":32654:32663   */\n      not\n        /* \"#utility.yul\":32646:32652   */\n      dup5\n        /* \"#utility.yul\":32642:32664   */\n      and\n        /* \"#utility.yul\":32684:32720   */\n      tag_735\n        /* \"#utility.yul\":32716:32719   */\n      dup8\n        /* \"#utility.yul\":32684:32720   */\n      tag_382\n      jump\t// in\n    tag_735:\n        /* \"#utility.yul\":32677:32720   */\n      swap7\n      pop\n        /* \"#utility.yul\":32747:32784   */\n      tag_736\n        /* \"#utility.yul\":32779:32783   */\n      dup7\n        /* \"#utility.yul\":32747:32784   */\n      tag_382\n      jump\t// in\n    tag_736:\n        /* \"#utility.yul\":32806:32807   */\n      0x00\n        /* \"#utility.yul\":32820:33027   */\n    tag_737:\n        /* \"#utility.yul\":32834:32841   */\n      dup3\n        /* \"#utility.yul\":32831:32832   */\n      dup2\n        /* \"#utility.yul\":32828:32842   */\n      lt\n        /* \"#utility.yul\":32820:33027   */\n      iszero\n      tag_739\n      jumpi\n        /* \"#utility.yul\":32913:32922   */\n      dup5\n        /* \"#utility.yul\":32908:32911   */\n      dup10\n        /* \"#utility.yul\":32904:32923   */\n      add\n        /* \"#utility.yul\":32898:32924   */\n      sload\n        /* \"#utility.yul\":32890:32896   */\n      dup3\n        /* \"#utility.yul\":32883:32925   */\n      sstore\n        /* \"#utility.yul\":32964:32965   */\n      0x01\n        /* \"#utility.yul\":32956:32962   */\n      dup3\n        /* \"#utility.yul\":32952:32966   */\n      add\n        /* \"#utility.yul\":32942:32966   */\n      swap2\n      pop\n        /* \"#utility.yul\":33011:33012   */\n      0x01\n        /* \"#utility.yul\":33000:33009   */\n      dup6\n        /* \"#utility.yul\":32996:33013   */\n      add\n        /* \"#utility.yul\":32983:33013   */\n      swap5\n      pop\n        /* \"#utility.yul\":32857:32861   */\n      0x20\n        /* \"#utility.yul\":32854:32855   */\n      dup2\n        /* \"#utility.yul\":32850:32862   */\n      add\n        /* \"#utility.yul\":32845:32862   */\n      swap1\n      pop\n        /* \"#utility.yul\":32820:33027   */\n      jump(tag_737)\n    tag_739:\n        /* \"#utility.yul\":33055:33061   */\n      dup7\n        /* \"#utility.yul\":33046:33053   */\n      dup4\n        /* \"#utility.yul\":33043:33062   */\n      lt\n        /* \"#utility.yul\":33040:33219   */\n      iszero\n      tag_740\n      jumpi\n        /* \"#utility.yul\":33113:33122   */\n      dup5\n        /* \"#utility.yul\":33108:33111   */\n      dup10\n        /* \"#utility.yul\":33104:33123   */\n      add\n        /* \"#utility.yul\":33098:33124   */\n      sload\n        /* \"#utility.yul\":33156:33204   */\n      tag_741\n        /* \"#utility.yul\":33198:33202   */\n      0x1f\n        /* \"#utility.yul\":33190:33196   */\n      dup10\n        /* \"#utility.yul\":33186:33203   */\n      and\n        /* \"#utility.yul\":33175:33184   */\n      dup3\n        /* \"#utility.yul\":33156:33204   */\n      tag_395\n      jump\t// in\n    tag_741:\n        /* \"#utility.yul\":33148:33154   */\n      dup4\n        /* \"#utility.yul\":33141:33205   */\n      sstore\n        /* \"#utility.yul\":33063:33219   */\n      pop\n        /* \"#utility.yul\":33040:33219   */\n    tag_740:\n        /* \"#utility.yul\":33265:33266   */\n      0x01\n        /* \"#utility.yul\":33261:33262   */\n      0x02\n        /* \"#utility.yul\":33253:33259   */\n      dup9\n        /* \"#utility.yul\":33249:33263   */\n      mul\n        /* \"#utility.yul\":33245:33267   */\n      add\n        /* \"#utility.yul\":33239:33243   */\n      dup9\n        /* \"#utility.yul\":33232:33268   */\n      sstore\n        /* \"#utility.yul\":32613:33278   */\n      pop\n      pop\n      pop\n        /* \"#utility.yul\":32576:33517   */\n    tag_731:\n      pop\n        /* \"#utility.yul\":32161:33523   */\n      pop\n      pop\n      pop\n        /* \"#utility.yul\":32072:33523   */\n      pop\n      pop\n    tag_724:\n      jump\t// out\n        /* \"#utility.yul\":33529:33691   */\n    tag_398:\n        /* \"#utility.yul\":33669:33683   */\n      0x4954454d20435245415445440000000000000000000000000000000000000000\n        /* \"#utility.yul\":33665:33666   */\n      0x00\n        /* \"#utility.yul\":33657:33663   */\n      dup3\n        /* \"#utility.yul\":33653:33667   */\n      add\n        /* \"#utility.yul\":33646:33684   */\n      mstore\n        /* \"#utility.yul\":33529:33691   */\n      pop\n      jump\t// out\n        /* \"#utility.yul\":33697:34063   */\n    tag_399:\n        /* \"#utility.yul\":33839:33842   */\n      0x00\n        /* \"#utility.yul\":33860:33927   */\n      tag_744\n        /* \"#utility.yul\":33924:33926   */\n      0x0c\n        /* \"#utility.yul\":33919:33922   */\n      dup4\n        /* \"#utility.yul\":33860:33927   */\n      tag_358\n      jump\t// in\n    tag_744:\n        /* \"#utility.yul\":33853:33927   */\n      swap2\n      pop\n        /* \"#utility.yul\":33936:34029   */\n      tag_745\n        /* \"#utility.yul\":34025:34028   */\n      dup3\n        /* \"#utility.yul\":33936:34029   */\n      tag_398\n      jump\t// in\n    tag_745:\n        /* \"#utility.yul\":34054:34056   */\n      0x20\n        /* \"#utility.yul\":34049:34052   */\n      dup3\n        /* \"#utility.yul\":34045:34057   */\n      add\n        /* \"#utility.yul\":34038:34057   */\n      swap1\n      pop\n        /* \"#utility.yul\":33697:34063   */\n      swap2\n      swap1\n      pop\n      jump\t// out\n        /* \"#utility.yul\":34069:34724   */\n    tag_223:\n        /* \"#utility.yul\":34299:34303   */\n      0x00\n        /* \"#utility.yul\":34337:34339   */\n      0x60\n        /* \"#utility.yul\":34326:34335   */\n      dup3\n        /* \"#utility.yul\":34322:34340   */\n      add\n        /* \"#utility.yul\":34314:34340   */\n      swap1\n      pop\n        /* \"#utility.yul\":34350:34421   */\n      tag_747\n        /* \"#utility.yul\":34418:34419   */\n      0x00\n        /* \"#utility.yul\":34407:34416   */\n      dup4\n        /* \"#utility.yul\":34403:34420   */\n      add\n        /* \"#utility.yul\":34394:34400   */\n      dup6\n        /* \"#utility.yul\":34350:34421   */\n      tag_345\n      jump\t// in\n    tag_747:\n        /* \"#utility.yul\":34468:34477   */\n      dup2\n        /* \"#utility.yul\":34462:34466   */\n      dup2\n        /* \"#utility.yul\":34458:34478   */\n      sub\n        /* \"#utility.yul\":34453:34455   */\n      0x20\n        /* \"#utility.yul\":34442:34451   */\n      dup4\n        /* \"#utility.yul\":34438:34456   */\n      add\n        /* \"#utility.yul\":34431:34479   */\n      mstore\n        /* \"#utility.yul\":34496:34627   */\n      tag_748\n        /* \"#utility.yul\":34622:34626   */\n      dup2\n        /* \"#utility.yul\":34496:34627   */\n      tag_399\n      jump\t// in\n    tag_748:\n        /* \"#utility.yul\":34488:34627   */\n      swap1\n      pop\n        /* \"#utility.yul\":34637:34717   */\n      tag_749\n        /* \"#utility.yul\":34713:34715   */\n      0x40\n        /* \"#utility.yul\":34702:34711   */\n      dup4\n        /* \"#utility.yul\":34698:34716   */\n      add\n        /* \"#utility.yul\":34689:34695   */\n      dup5\n        /* \"#utility.yul\":34637:34717   */\n      tag_369\n      jump\t// in\n    tag_749:\n        /* \"#utility.yul\":34069:34724   */\n      swap4\n      swap3\n      pop\n      pop\n      pop\n      jump\t// out\n        /* \"#utility.yul\":34730:34910   */\n    tag_245:\n        /* \"#utility.yul\":34778:34855   */\n      0x4e487b7100000000000000000000000000000000000000000000000000000000\n        /* \"#utility.yul\":34775:34776   */\n      0x00\n        /* \"#utility.yul\":34768:34856   */\n      mstore\n        /* \"#utility.yul\":34875:34879   */\n      0x32\n        /* \"#utility.yul\":34872:34873   */\n      0x04\n        /* \"#utility.yul\":34865:34880   */\n      mstore\n        /* \"#utility.yul\":34899:34903   */\n      0x24\n        /* \"#utility.yul\":34896:34897   */\n      0x00\n        /* \"#utility.yul\":34889:34904   */\n      revert\n        /* \"#utility.yul\":34916:35092   */\n    tag_400:\n        /* \"#utility.yul\":35056:35084   */\n      0x53657276696365206e6f74206177617264656420746f20796f75000000000000\n        /* \"#utility.yul\":35052:35053   */\n      0x00\n        /* \"#utility.yul\":35044:35050   */\n      dup3\n        /* \"#utility.yul\":35040:35054   */\n      add\n        /* \"#utility.yul\":35033:35085   */\n      mstore\n        /* \"#utility.yul\":34916:35092   */\n      pop\n      jump\t// out\n        /* \"#utility.yul\":35098:35464   */\n    tag_401:\n        /* \"#utility.yul\":35240:35243   */\n      0x00\n        /* \"#utility.yul\":35261:35328   */\n      tag_753\n        /* \"#utility.yul\":35325:35327   */\n      0x1a\n        /* \"#utility.yul\":35320:35323   */\n      dup4\n        /* \"#utility.yul\":35261:35328   */\n      tag_358\n      jump\t// in\n    tag_753:\n        /* \"#utility.yul\":35254:35328   */\n      swap2\n      pop\n        /* \"#utility.yul\":35337:35430   */\n      tag_754\n        /* \"#utility.yul\":35426:35429   */\n      dup3\n        /* \"#utility.yul\":35337:35430   */\n      tag_400\n      jump\t// in\n    tag_754:\n        /* \"#utility.yul\":35455:35457   */\n      0x20\n        /* \"#utility.yul\":35450:35453   */\n      dup3\n        /* \"#utility.yul\":35446:35458   */\n      add\n        /* \"#utility.yul\":35439:35458   */\n      swap1\n      pop\n        /* \"#utility.yul\":35098:35464   */\n      swap2\n      swap1\n      pop\n      jump\t// out\n        /* \"#utility.yul\":35470:35889   */\n    tag_249:\n        /* \"#utility.yul\":35636:35640   */\n      0x00\n        /* \"#utility.yul\":35674:35676   */\n      0x20\n        /* \"#utility.yul\":35663:35672   */\n      dup3\n        /* \"#utility.yul\":35659:35677   */\n      add\n        /* \"#utility.yul\":35651:35677   */\n      swap1\n      pop\n        /* \"#utility.yul\":35723:35732   */\n      dup2\n        /* \"#utility.yul\":35717:35721   */\n      dup2\n        /* \"#utility.yul\":35713:35733   */\n      sub\n        /* \"#utility.yul\":35709:35710   */\n      0x00\n        /* \"#utility.yul\":35698:35707   */\n      dup4\n        /* \"#utility.yul\":35694:35711   */\n      add\n        /* \"#utility.yul\":35687:35734   */\n      mstore\n        /* \"#utility.yul\":35751:35882   */\n      tag_756\n        /* \"#utility.yul\":35877:35881   */\n      dup2\n        /* \"#utility.yul\":35751:35882   */\n      tag_401\n      jump\t// in\n    tag_756:\n        /* \"#utility.yul\":35743:35882   */\n      swap1\n      pop\n        /* \"#utility.yul\":35470:35889   */\n      swap2\n      swap1\n      pop\n      jump\t// out\n        /* \"#utility.yul\":35895:36070   */\n    tag_402:\n        /* \"#utility.yul\":36035:36062   */\n      0x5365727669636520616c726561647920636f6e6669726d656400000000000000\n        /* \"#utility.yul\":36031:36032   */\n      0x00\n        /* \"#utility.yul\":36023:36029   */\n      dup3\n        /* \"#utility.yul\":36019:36033   */\n      add\n        /* \"#utility.yul\":36012:36063   */\n      mstore\n        /* \"#utility.yul\":35895:36070   */\n      pop\n      jump\t// out\n        /* \"#utility.yul\":36076:36442   */\n    tag_403:\n        /* \"#utility.yul\":36218:36221   */\n      0x00\n        /* \"#utility.yul\":36239:36306   */\n      tag_759\n        /* \"#utility.yul\":36303:36305   */\n      0x19\n        /* \"#utility.yul\":36298:36301   */\n      dup4\n        /* \"#utility.yul\":36239:36306   */\n      tag_358\n      jump\t// in\n    tag_759:\n        /* \"#utility.yul\":36232:36306   */\n      swap2\n      pop\n        /* \"#utility.yul\":36315:36408   */\n      tag_760\n        /* \"#utility.yul\":36404:36407   */\n      dup3\n        /* \"#utility.yul\":36315:36408   */\n      tag_402\n      jump\t// in\n    tag_760:\n        /* \"#utility.yul\":36433:36435   */\n      0x20\n        /* \"#utility.yul\":36428:36431   */\n      dup3\n        /* \"#utility.yul\":36424:36436   */\n      add\n        /* \"#utility.yul\":36417:36436   */\n      swap1\n      pop\n        /* \"#utility.yul\":36076:36442   */\n      swap2\n      swap1\n      pop\n      jump\t// out\n        /* \"#utility.yul\":36448:36867   */\n    tag_254:\n        /* \"#utility.yul\":36614:36618   */\n      0x00\n        /* \"#utility.yul\":36652:36654   */\n      0x20\n        /* \"#utility.yul\":36641:36650   */\n      dup3\n        /* \"#utility.yul\":36637:36655   */\n      add\n        /* \"#utility.yul\":36629:36655   */\n      swap1\n      pop\n        /* \"#utility.yul\":36701:36710   */\n      dup2\n        /* \"#utility.yul\":36695:36699   */\n      dup2\n        /* \"#utility.yul\":36691:36711   */\n      sub\n        /* \"#utility.yul\":36687:36688   */\n      0x00\n        /* \"#utility.yul\":36676:36685   */\n      dup4\n        /* \"#utility.yul\":36672:36689   */\n      add\n        /* \"#utility.yul\":36665:36712   */\n      mstore\n        /* \"#utility.yul\":36729:36860   */\n      tag_762\n        /* \"#utility.yul\":36855:36859   */\n      dup2\n        /* \"#utility.yul\":36729:36860   */\n      tag_403\n      jump\t// in\n    tag_762:\n        /* \"#utility.yul\":36721:36860   */\n      swap1\n      pop\n        /* \"#utility.yul\":36448:36867   */\n      swap2\n      swap1\n      pop\n      jump\t// out\n        /* \"#utility.yul\":36873:37040   */\n    tag_404:\n        /* \"#utility.yul\":37013:37032   */\n      0x44454c495645525920494e544941544544000000000000000000000000000000\n        /* \"#utility.yul\":37009:37010   */\n      0x00\n        /* \"#utility.yul\":37001:37007   */\n      dup3\n        /* \"#utility.yul\":36997:37011   */\n      add\n        /* \"#utility.yul\":36990:37033   */\n      mstore\n        /* \"#utility.yul\":36873:37040   */\n      pop\n      jump\t// out\n        /* \"#utility.yul\":37046:37412   */\n    tag_405:\n        /* \"#utility.yul\":37188:37191   */\n      0x00\n        /* \"#utility.yul\":37209:37276   */\n      tag_765\n        /* \"#utility.yul\":37273:37275   */\n      0x11\n        /* \"#utility.yul\":37268:37271   */\n      dup4\n        /* \"#utility.yul\":37209:37276   */\n      tag_358\n      jump\t// in\n    tag_765:\n        /* \"#utility.yul\":37202:37276   */\n      swap2\n      pop\n        /* \"#utility.yul\":37285:37378   */\n      tag_766\n        /* \"#utility.yul\":37374:37377   */\n      dup3\n        /* \"#utility.yul\":37285:37378   */\n      tag_404\n      jump\t// in\n    tag_766:\n        /* \"#utility.yul\":37403:37405   */\n      0x20\n        /* \"#utility.yul\":37398:37401   */\n      dup3\n        /* \"#utility.yul\":37394:37406   */\n      add\n        /* \"#utility.yul\":37387:37406   */\n      swap1\n      pop\n        /* \"#utility.yul\":37046:37412   */\n      swap2\n      swap1\n      pop\n      jump\t// out\n        /* \"#utility.yul\":37418:38073   */\n    tag_258:\n        /* \"#utility.yul\":37648:37652   */\n      0x00\n        /* \"#utility.yul\":37686:37688   */\n      0x60\n        /* \"#utility.yul\":37675:37684   */\n      dup3\n        /* \"#utility.yul\":37671:37689   */\n      add\n        /* \"#utility.yul\":37663:37689   */\n      swap1\n      pop\n        /* \"#utility.yul\":37699:37770   */\n      tag_768\n        /* \"#utility.yul\":37767:37768   */\n      0x00\n        /* \"#utility.yul\":37756:37765   */\n      dup4\n        /* \"#utility.yul\":37752:37769   */\n      add\n        /* \"#utility.yul\":37743:37749   */\n      dup6\n        /* \"#utility.yul\":37699:37770   */\n      tag_345\n      jump\t// in\n    tag_768:\n        /* \"#utility.yul\":37817:37826   */\n      dup2\n        /* \"#utility.yul\":37811:37815   */\n      dup2\n        /* \"#utility.yul\":37807:37827   */\n      sub\n        /* \"#utility.yul\":37802:37804   */\n      0x20\n        /* \"#utility.yul\":37791:37800   */\n      dup4\n        /* \"#utility.yul\":37787:37805   */\n      add\n        /* \"#utility.yul\":37780:37828   */\n      mstore\n        /* \"#utility.yul\":37845:37976   */\n      tag_769\n        /* \"#utility.yul\":37971:37975   */\n      dup2\n        /* \"#utility.yul\":37845:37976   */\n      tag_405\n      jump\t// in\n    tag_769:\n        /* \"#utility.yul\":37837:37976   */\n      swap1\n      pop\n        /* \"#utility.yul\":37986:38066   */\n      tag_770\n        /* \"#utility.yul\":38062:38064   */\n      0x40\n        /* \"#utility.yul\":38051:38060   */\n      dup4\n        /* \"#utility.yul\":38047:38065   */\n      add\n        /* \"#utility.yul\":38038:38044   */\n      dup5\n        /* \"#utility.yul\":37986:38066   */\n      tag_369\n      jump\t// in\n    tag_770:\n        /* \"#utility.yul\":37418:38073   */\n      swap4\n      swap3\n      pop\n      pop\n      pop\n      jump\t// out\n        /* \"#utility.yul\":38079:38247   */\n    tag_406:\n        /* \"#utility.yul\":38219:38239   */\n      0x4974656d206e6f7420617661696c61626c650000000000000000000000000000\n        /* \"#utility.yul\":38215:38216   */\n      0x00\n        /* \"#utility.yul\":38207:38213   */\n      dup3\n        /* \"#utility.yul\":38203:38217   */\n      add\n        /* \"#utility.yul\":38196:38240   */\n      mstore\n        /* \"#utility.yul\":38079:38247   */\n      pop\n      jump\t// out\n        /* \"#utility.yul\":38253:38619   */\n    tag_407:\n        /* \"#utility.yul\":38395:38398   */\n      0x00\n        /* \"#utility.yul\":38416:38483   */\n      tag_773\n        /* \"#utility.yul\":38480:38482   */\n      0x12\n        /* \"#utility.yul\":38475:38478   */\n      dup4\n        /* \"#utility.yul\":38416:38483   */\n      tag_358\n      jump\t// in\n    tag_773:\n        /* \"#utility.yul\":38409:38483   */\n      swap2\n      pop\n        /* \"#utility.yul\":38492:38585   */\n      tag_774\n        /* \"#utility.yul\":38581:38584   */\n      dup3\n        /* \"#utility.yul\":38492:38585   */\n      tag_406\n      jump\t// in\n    tag_774:\n        /* \"#utility.yul\":38610:38612   */\n      0x20\n        /* \"#utility.yul\":38605:38608   */\n      dup3\n        /* \"#utility.yul\":38601:38613   */\n      add\n        /* \"#utility.yul\":38594:38613   */\n      swap1\n      pop\n        /* \"#utility.yul\":38253:38619   */\n      swap2\n      swap1\n      pop\n      jump\t// out\n        /* \"#utility.yul\":38625:39044   */\n    tag_268:\n        /* \"#utility.yul\":38791:38795   */\n      0x00\n        /* \"#utility.yul\":38829:38831   */\n      0x20\n        /* \"#utility.yul\":38818:38827   */\n      dup3\n        /* \"#utility.yul\":38814:38832   */\n      add\n        /* \"#utility.yul\":38806:38832   */\n      swap1\n      pop\n        /* \"#utility.yul\":38878:38887   */\n      dup2\n        /* \"#utility.yul\":38872:38876   */\n      dup2\n        /* \"#utility.yul\":38868:38888   */\n      sub\n        /* \"#utility.yul\":38864:38865   */\n      0x00\n        /* \"#utility.yul\":38853:38862   */\n      dup4\n        /* \"#utility.yul\":38849:38866   */\n      add\n        /* \"#utility.yul\":38842:38889   */\n      mstore\n        /* \"#utility.yul\":38906:39037   */\n      tag_776\n        /* \"#utility.yul\":39032:39036   */\n      dup2\n        /* \"#utility.yul\":38906:39037   */\n      tag_407\n      jump\t// in\n    tag_776:\n        /* \"#utility.yul\":38898:39037   */\n      swap1\n      pop\n        /* \"#utility.yul\":38625:39044   */\n      swap2\n      swap1\n      pop\n      jump\t// out\n        /* \"#utility.yul\":39050:39224   */\n    tag_408:\n        /* \"#utility.yul\":39190:39216   */\n      0x50726f7669646572206e6f74206f6e20746865206c6973740000000000000000\n        /* \"#utility.yul\":39186:39187   */\n      0x00\n        /* \"#utility.yul\":39178:39184   */\n      dup3\n        /* \"#utility.yul\":39174:39188   */\n      add\n        /* \"#utility.yul\":39167:39217   */\n      mstore\n        /* \"#utility.yul\":39050:39224   */\n      pop\n      jump\t// out\n        /* \"#utility.yul\":39230:39596   */\n    tag_409:\n        /* \"#utility.yul\":39372:39375   */\n      0x00\n        /* \"#utility.yul\":39393:39460   */\n      tag_779\n        /* \"#utility.yul\":39457:39459   */\n      0x18\n        /* \"#utility.yul\":39452:39455   */\n      dup4\n        /* \"#utility.yul\":39393:39460   */\n      tag_358\n      jump\t// in\n    tag_779:\n        /* \"#utility.yul\":39386:39460   */\n      swap2\n      pop\n        /* \"#utility.yul\":39469:39562   */\n      tag_780\n        /* \"#utility.yul\":39558:39561   */\n      dup3\n        /* \"#utility.yul\":39469:39562   */\n      tag_408\n      jump\t// in\n    tag_780:\n        /* \"#utility.yul\":39587:39589   */\n      0x20\n        /* \"#utility.yul\":39582:39585   */\n      dup3\n        /* \"#utility.yul\":39578:39590   */\n      add\n        /* \"#utility.yul\":39571:39590   */\n      swap1\n      pop\n        /* \"#utility.yul\":39230:39596   */\n      swap2\n      swap1\n      pop\n      jump\t// out\n        /* \"#utility.yul\":39602:40021   */\n    tag_271:\n        /* \"#utility.yul\":39768:39772   */\n      0x00\n        /* \"#utility.yul\":39806:39808   */\n      0x20\n        /* \"#utility.yul\":39795:39804   */\n      dup3\n        /* \"#utility.yul\":39791:39809   */\n      add\n        /* \"#utility.yul\":39783:39809   */\n      swap1\n      pop\n        /* \"#utility.yul\":39855:39864   */\n      dup2\n        /* \"#utility.yul\":39849:39853   */\n      dup2\n        /* \"#utility.yul\":39845:39865   */\n      sub\n        /* \"#utility.yul\":39841:39842   */\n      0x00\n        /* \"#utility.yul\":39830:39839   */\n      dup4\n        /* \"#utility.yul\":39826:39843   */\n      add\n        /* \"#utility.yul\":39819:39866   */\n      mstore\n        /* \"#utility.yul\":39883:40014   */\n      tag_782\n        /* \"#utility.yul\":40009:40013   */\n      dup2\n        /* \"#utility.yul\":39883:40014   */\n      tag_409\n      jump\t// in\n    tag_782:\n        /* \"#utility.yul\":39875:40014   */\n      swap1\n      pop\n        /* \"#utility.yul\":39602:40021   */\n      swap2\n      swap1\n      pop\n      jump\t// out\n        /* \"#utility.yul\":40027:40185   */\n    tag_410:\n        /* \"#utility.yul\":40167:40177   */\n      0x415050524f564544000000000000000000000000000000000000000000000000\n        /* \"#utility.yul\":40163:40164   */\n      0x00\n        /* \"#utility.yul\":40155:40161   */\n      dup3\n        /* \"#utility.yul\":40151:40165   */\n      add\n        /* \"#utility.yul\":40144:40178   */\n      mstore\n        /* \"#utility.yul\":40027:40185   */\n      pop\n      jump\t// out\n        /* \"#utility.yul\":40191:40556   */\n    tag_411:\n        /* \"#utility.yul\":40333:40336   */\n      0x00\n        /* \"#utility.yul\":40354:40420   */\n      tag_785\n        /* \"#utility.yul\":40418:40419   */\n      0x08\n        /* \"#utility.yul\":40413:40416   */\n      dup4\n        /* \"#utility.yul\":40354:40420   */\n      tag_358\n      jump\t// in\n    tag_785:\n        /* \"#utility.yul\":40347:40420   */\n      swap2\n      pop\n        /* \"#utility.yul\":40429:40522   */\n      tag_786\n        /* \"#utility.yul\":40518:40521   */\n      dup3\n        /* \"#utility.yul\":40429:40522   */\n      tag_410\n      jump\t// in\n    tag_786:\n        /* \"#utility.yul\":40547:40549   */\n      0x20\n        /* \"#utility.yul\":40542:40545   */\n      dup3\n        /* \"#utility.yul\":40538:40550   */\n      add\n        /* \"#utility.yul\":40531:40550   */\n      swap1\n      pop\n        /* \"#utility.yul\":40191:40556   */\n      swap2\n      swap1\n      pop\n      jump\t// out\n        /* \"#utility.yul\":40562:41217   */\n    tag_279:\n        /* \"#utility.yul\":40792:40796   */\n      0x00\n        /* \"#utility.yul\":40830:40832   */\n      0x60\n        /* \"#utility.yul\":40819:40828   */\n      dup3\n        /* \"#utility.yul\":40815:40833   */\n      add\n        /* \"#utility.yul\":40807:40833   */\n      swap1\n      pop\n        /* \"#utility.yul\":40843:40914   */\n      tag_788\n        /* \"#utility.yul\":40911:40912   */\n      0x00\n        /* \"#utility.yul\":40900:40909   */\n      dup4\n        /* \"#utility.yul\":40896:40913   */\n      add\n        /* \"#utility.yul\":40887:40893   */\n      dup6\n        /* \"#utility.yul\":40843:40914   */\n      tag_345\n      jump\t// in\n    tag_788:\n        /* \"#utility.yul\":40961:40970   */\n      dup2\n        /* \"#utility.yul\":40955:40959   */\n      dup2\n        /* \"#utility.yul\":40951:40971   */\n      sub\n        /* \"#utility.yul\":40946:40948   */\n      0x20\n        /* \"#utility.yul\":40935:40944   */\n      dup4\n        /* \"#utility.yul\":40931:40949   */\n      add\n        /* \"#utility.yul\":40924:40972   */\n      mstore\n        /* \"#utility.yul\":40989:41120   */\n      tag_789\n        /* \"#utility.yul\":41115:41119   */\n      dup2\n        /* \"#utility.yul\":40989:41120   */\n      tag_411\n      jump\t// in\n    tag_789:\n        /* \"#utility.yul\":40981:41120   */\n      swap1\n      pop\n        /* \"#utility.yul\":41130:41210   */\n      tag_790\n        /* \"#utility.yul\":41206:41208   */\n      0x40\n        /* \"#utility.yul\":41195:41204   */\n      dup4\n        /* \"#utility.yul\":41191:41209   */\n      add\n        /* \"#utility.yul\":41182:41188   */\n      dup5\n        /* \"#utility.yul\":41130:41210   */\n      tag_369\n      jump\t// in\n    tag_790:\n        /* \"#utility.yul\":40562:41217   */\n      swap4\n      swap3\n      pop\n      pop\n      pop\n      jump\t// out\n        /* \"#utility.yul\":41223:41390   */\n    tag_412:\n        /* \"#utility.yul\":41363:41382   */\n      0x4f776e6572206e6f7420616c6c6f776564000000000000000000000000000000\n        /* \"#utility.yul\":41359:41360   */\n      0x00\n        /* \"#utility.yul\":41351:41357   */\n      dup3\n        /* \"#utility.yul\":41347:41361   */\n      add\n        /* \"#utility.yul\":41340:41383   */\n      mstore\n        /* \"#utility.yul\":41223:41390   */\n      pop\n      jump\t// out\n        /* \"#utility.yul\":41396:41762   */\n    tag_413:\n        /* \"#utility.yul\":41538:41541   */\n      0x00\n        /* \"#utility.yul\":41559:41626   */\n      tag_793\n        /* \"#utility.yul\":41623:41625   */\n      0x11\n        /* \"#utility.yul\":41618:41621   */\n      dup4\n        /* \"#utility.yul\":41559:41626   */\n      tag_358\n      jump\t// in\n    tag_793:\n        /* \"#utility.yul\":41552:41626   */\n      swap2\n      pop\n        /* \"#utility.yul\":41635:41728   */\n      tag_794\n        /* \"#utility.yul\":41724:41727   */\n      dup3\n        /* \"#utility.yul\":41635:41728   */\n      tag_412\n      jump\t// in\n    tag_794:\n        /* \"#utility.yul\":41753:41755   */\n      0x20\n        /* \"#utility.yul\":41748:41751   */\n      dup3\n        /* \"#utility.yul\":41744:41756   */\n      add\n        /* \"#utility.yul\":41737:41756   */\n      swap1\n      pop\n        /* \"#utility.yul\":41396:41762   */\n      swap2\n      swap1\n      pop\n      jump\t// out\n        /* \"#utility.yul\":41768:42187   */\n    tag_283:\n        /* \"#utility.yul\":41934:41938   */\n      0x00\n        /* \"#utility.yul\":41972:41974   */\n      0x20\n        /* \"#utility.yul\":41961:41970   */\n      dup3\n        /* \"#utility.yul\":41957:41975   */\n      add\n        /* \"#utility.yul\":41949:41975   */\n      swap1\n      pop\n        /* \"#utility.yul\":42021:42030   */\n      dup2\n        /* \"#utility.yul\":42015:42019   */\n      dup2\n        /* \"#utility.yul\":42011:42031   */\n      sub\n        /* \"#utility.yul\":42007:42008   */\n      0x00\n        /* \"#utility.yul\":41996:42005   */\n      dup4\n        /* \"#utility.yul\":41992:42009   */\n      add\n        /* \"#utility.yul\":41985:42032   */\n      mstore\n        /* \"#utility.yul\":42049:42180   */\n      tag_796\n        /* \"#utility.yul\":42175:42179   */\n      dup2\n        /* \"#utility.yul\":42049:42180   */\n      tag_413\n      jump\t// in\n    tag_796:\n        /* \"#utility.yul\":42041:42180   */\n      swap1\n      pop\n        /* \"#utility.yul\":41768:42187   */\n      swap2\n      swap1\n      pop\n      jump\t// out\n        /* \"#utility.yul\":42193:42352   */\n    tag_414:\n        /* \"#utility.yul\":42333:42344   */\n      0x5245515545535445440000000000000000000000000000000000000000000000\n        /* \"#utility.yul\":42329:42330   */\n      0x00\n        /* \"#utility.yul\":42321:42327   */\n      dup3\n        /* \"#utility.yul\":42317:42331   */\n      add\n        /* \"#utility.yul\":42310:42345   */\n      mstore\n        /* \"#utility.yul\":42193:42352   */\n      pop\n      jump\t// out\n        /* \"#utility.yul\":42358:42723   */\n    tag_415:\n        /* \"#utility.yul\":42500:42503   */\n      0x00\n        /* \"#utility.yul\":42521:42587   */\n      tag_799\n        /* \"#utility.yul\":42585:42586   */\n      0x09\n        /* \"#utility.yul\":42580:42583   */\n      dup4\n        /* \"#utility.yul\":42521:42587   */\n      tag_358\n      jump\t// in\n    tag_799:\n        /* \"#utility.yul\":42514:42587   */\n      swap2\n      pop\n        /* \"#utility.yul\":42596:42689   */\n      tag_800\n        /* \"#utility.yul\":42685:42688   */\n      dup3\n        /* \"#utility.yul\":42596:42689   */\n      tag_414\n      jump\t// in\n    tag_800:\n        /* \"#utility.yul\":42714:42716   */\n      0x20\n        /* \"#utility.yul\":42709:42712   */\n      dup3\n        /* \"#utility.yul\":42705:42717   */\n      add\n        /* \"#utility.yul\":42698:42717   */\n      swap1\n      pop\n        /* \"#utility.yul\":42358:42723   */\n      swap2\n      swap1\n      pop\n      jump\t// out\n        /* \"#utility.yul\":42729:43384   */\n    tag_291:\n        /* \"#utility.yul\":42959:42963   */\n      0x00\n        /* \"#utility.yul\":42997:42999   */\n      0x60\n        /* \"#utility.yul\":42986:42995   */\n      dup3\n        /* \"#utility.yul\":42982:43000   */\n      add\n        /* \"#utility.yul\":42974:43000   */\n      swap1\n      pop\n        /* \"#utility.yul\":43010:43081   */\n      tag_802\n        /* \"#utility.yul\":43078:43079   */\n      0x00\n        /* \"#utility.yul\":43067:43076   */\n      dup4\n        /* \"#utility.yul\":43063:43080   */\n      add\n        /* \"#utility.yul\":43054:43060   */\n      dup6\n        /* \"#utility.yul\":43010:43081   */\n      tag_345\n      jump\t// in\n    tag_802:\n        /* \"#utility.yul\":43128:43137   */\n      dup2\n        /* \"#utility.yul\":43122:43126   */\n      dup2\n        /* \"#utility.yul\":43118:43138   */\n      sub\n        /* \"#utility.yul\":43113:43115   */\n      0x20\n        /* \"#utility.yul\":43102:43111   */\n      dup4\n        /* \"#utility.yul\":43098:43116   */\n      add\n        /* \"#utility.yul\":43091:43139   */\n      mstore\n        /* \"#utility.yul\":43156:43287   */\n      tag_803\n        /* \"#utility.yul\":43282:43286   */\n      dup2\n        /* \"#utility.yul\":43156:43287   */\n      tag_415\n      jump\t// in\n    tag_803:\n        /* \"#utility.yul\":43148:43287   */\n      swap1\n      pop\n        /* \"#utility.yul\":43297:43377   */\n      tag_804\n        /* \"#utility.yul\":43373:43375   */\n      0x40\n        /* \"#utility.yul\":43362:43371   */\n      dup4\n        /* \"#utility.yul\":43358:43376   */\n      add\n        /* \"#utility.yul\":43349:43355   */\n      dup5\n        /* \"#utility.yul\":43297:43377   */\n      tag_369\n      jump\t// in\n    tag_804:\n        /* \"#utility.yul\":42729:43384   */\n      swap4\n      swap3\n      pop\n      pop\n      pop\n      jump\t// out\n        /* \"#utility.yul\":43390:43567   */\n    tag_416:\n        /* \"#utility.yul\":43530:43559   */\n      0x5a65726f207769746864726177616c206e6f7420616c6c6f7765640000000000\n        /* \"#utility.yul\":43526:43527   */\n      0x00\n        /* \"#utility.yul\":43518:43524   */\n      dup3\n        /* \"#utility.yul\":43514:43528   */\n      add\n        /* \"#utility.yul\":43507:43560   */\n      mstore\n        /* \"#utility.yul\":43390:43567   */\n      pop\n      jump\t// out\n        /* \"#utility.yul\":43573:43939   */\n    tag_417:\n        /* \"#utility.yul\":43715:43718   */\n      0x00\n        /* \"#utility.yul\":43736:43803   */\n      tag_807\n        /* \"#utility.yul\":43800:43802   */\n      0x1b\n        /* \"#utility.yul\":43795:43798   */\n      dup4\n        /* \"#utility.yul\":43736:43803   */\n      tag_358\n      jump\t// in\n    tag_807:\n        /* \"#utility.yul\":43729:43803   */\n      swap2\n      pop\n        /* \"#utility.yul\":43812:43905   */\n      tag_808\n        /* \"#utility.yul\":43901:43904   */\n      dup3\n        /* \"#utility.yul\":43812:43905   */\n      tag_416\n      jump\t// in\n    tag_808:\n        /* \"#utility.yul\":43930:43932   */\n      0x20\n        /* \"#utility.yul\":43925:43928   */\n      dup3\n        /* \"#utility.yul\":43921:43933   */\n      add\n        /* \"#utility.yul\":43914:43933   */\n      swap1\n      pop\n        /* \"#utility.yul\":43573:43939   */\n      swap2\n      swap1\n      pop\n      jump\t// out\n        /* \"#utility.yul\":43945:44364   */\n    tag_298:\n        /* \"#utility.yul\":44111:44115   */\n      0x00\n        /* \"#utility.yul\":44149:44151   */\n      0x20\n        /* \"#utility.yul\":44138:44147   */\n      dup3\n        /* \"#utility.yul\":44134:44152   */\n      add\n        /* \"#utility.yul\":44126:44152   */\n      swap1\n      pop\n        /* \"#utility.yul\":44198:44207   */\n      dup2\n        /* \"#utility.yul\":44192:44196   */\n      dup2\n        /* \"#utility.yul\":44188:44208   */\n      sub\n        /* \"#utility.yul\":44184:44185   */\n      0x00\n        /* \"#utility.yul\":44173:44182   */\n      dup4\n        /* \"#utility.yul\":44169:44186   */\n      add\n        /* \"#utility.yul\":44162:44209   */\n      mstore\n        /* \"#utility.yul\":44226:44357   */\n      tag_810\n        /* \"#utility.yul\":44352:44356   */\n      dup2\n        /* \"#utility.yul\":44226:44357   */\n      tag_417\n      jump\t// in\n    tag_810:\n        /* \"#utility.yul\":44218:44357   */\n      swap1\n      pop\n        /* \"#utility.yul\":43945:44364   */\n      swap2\n      swap1\n      pop\n      jump\t// out\n        /* \"#utility.yul\":44370:44530   */\n    tag_418:\n        /* \"#utility.yul\":44510:44522   */\n      0x5749544844524157454400000000000000000000000000000000000000000000\n        /* \"#utility.yul\":44506:44507   */\n      0x00\n        /* \"#utility.yul\":44498:44504   */\n      dup3\n        /* \"#utility.yul\":44494:44508   */\n      add\n        /* \"#utility.yul\":44487:44523   */\n      mstore\n        /* \"#utility.yul\":44370:44530   */\n      pop\n      jump\t// out\n        /* \"#utility.yul\":44536:44902   */\n    tag_419:\n        /* \"#utility.yul\":44678:44681   */\n      0x00\n        /* \"#utility.yul\":44699:44766   */\n      tag_813\n        /* \"#utility.yul\":44763:44765   */\n      0x0a\n        /* \"#utility.yul\":44758:44761   */\n      dup4\n        /* \"#utility.yul\":44699:44766   */\n      tag_358\n      jump\t// in\n    tag_813:\n        /* \"#utility.yul\":44692:44766   */\n      swap2\n      pop\n        /* \"#utility.yul\":44775:44868   */\n      tag_814\n        /* \"#utility.yul\":44864:44867   */\n      dup3\n        /* \"#utility.yul\":44775:44868   */\n      tag_418\n      jump\t// in\n    tag_814:\n        /* \"#utility.yul\":44893:44895   */\n      0x20\n        /* \"#utility.yul\":44888:44891   */\n      dup3\n        /* \"#utility.yul\":44884:44896   */\n      add\n        /* \"#utility.yul\":44877:44896   */\n      swap1\n      pop\n        /* \"#utility.yul\":44536:44902   */\n      swap2\n      swap1\n      pop\n      jump\t// out\n        /* \"#utility.yul\":44908:45563   */\n    tag_302:\n        /* \"#utility.yul\":45138:45142   */\n      0x00\n        /* \"#utility.yul\":45176:45178   */\n      0x60\n        /* \"#utility.yul\":45165:45174   */\n      dup3\n        /* \"#utility.yul\":45161:45179   */\n      add\n        /* \"#utility.yul\":45153:45179   */\n      swap1\n      pop\n        /* \"#utility.yul\":45189:45260   */\n      tag_816\n        /* \"#utility.yul\":45257:45258   */\n      0x00\n        /* \"#utility.yul\":45246:45255   */\n      dup4\n        /* \"#utility.yul\":45242:45259   */\n      add\n        /* \"#utility.yul\":45233:45239   */\n      dup6\n        /* \"#utility.yul\":45189:45260   */\n      tag_345\n      jump\t// in\n    tag_816:\n        /* \"#utility.yul\":45307:45316   */\n      dup2\n        /* \"#utility.yul\":45301:45305   */\n      dup2\n        /* \"#utility.yul\":45297:45317   */\n      sub\n        /* \"#utility.yul\":45292:45294   */\n      0x20\n        /* \"#utility.yul\":45281:45290   */\n      dup4\n        /* \"#utility.yul\":45277:45295   */\n      add\n        /* \"#utility.yul\":45270:45318   */\n      mstore\n        /* \"#utility.yul\":45335:45466   */\n      tag_817\n        /* \"#utility.yul\":45461:45465   */\n      dup2\n        /* \"#utility.yul\":45335:45466   */\n      tag_419\n      jump\t// in\n    tag_817:\n        /* \"#utility.yul\":45327:45466   */\n      swap1\n      pop\n        /* \"#utility.yul\":45476:45556   */\n      tag_818\n        /* \"#utility.yul\":45552:45554   */\n      0x40\n        /* \"#utility.yul\":45541:45550   */\n      dup4\n        /* \"#utility.yul\":45537:45555   */\n      add\n        /* \"#utility.yul\":45528:45534   */\n      dup5\n        /* \"#utility.yul\":45476:45556   */\n      tag_369\n      jump\t// in\n    tag_818:\n        /* \"#utility.yul\":44908:45563   */\n      swap4\n      swap3\n      pop\n      pop\n      pop\n      jump\t// out\n        /* \"#utility.yul\":45569:45716   */\n    tag_420:\n        /* \"#utility.yul\":45670:45681   */\n      0x00\n        /* \"#utility.yul\":45707:45710   */\n      dup2\n        /* \"#utility.yul\":45692:45710   */\n      swap1\n      pop\n        /* \"#utility.yul\":45569:45716   */\n      swap3\n      swap2\n      pop\n      pop\n      jump\t// out\n        /* \"#utility.yul\":45722:45836   */\n    tag_421:\n      pop\n      jump\t// out\n        /* \"#utility.yul\":45842:46240   */\n    tag_422:\n        /* \"#utility.yul\":46001:46004   */\n      0x00\n        /* \"#utility.yul\":46022:46105   */\n      tag_822\n        /* \"#utility.yul\":46103:46104   */\n      0x00\n        /* \"#utility.yul\":46098:46101   */\n      dup4\n        /* \"#utility.yul\":46022:46105   */\n      tag_420\n      jump\t// in\n    tag_822:\n        /* \"#utility.yul\":46015:46105   */\n      swap2\n      pop\n        /* \"#utility.yul\":46114:46207   */\n      tag_823\n        /* \"#utility.yul\":46203:46206   */\n      dup3\n        /* \"#utility.yul\":46114:46207   */\n      tag_421\n      jump\t// in\n    tag_823:\n        /* \"#utility.yul\":46232:46233   */\n      0x00\n        /* \"#utility.yul\":46227:46230   */\n      dup3\n        /* \"#utility.yul\":46223:46234   */\n      add\n        /* \"#utility.yul\":46216:46234   */\n      swap1\n      pop\n        /* \"#utility.yul\":45842:46240   */\n      swap2\n      swap1\n      pop\n      jump\t// out\n        /* \"#utility.yul\":46246:46625   */\n    tag_305:\n        /* \"#utility.yul\":46430:46433   */\n      0x00\n        /* \"#utility.yul\":46452:46599   */\n      tag_825\n        /* \"#utility.yul\":46595:46598   */\n      dup3\n        /* \"#utility.yul\":46452:46599   */\n      tag_422\n      jump\t// in\n    tag_825:\n        /* \"#utility.yul\":46445:46599   */\n      swap2\n      pop\n        /* \"#utility.yul\":46616:46619   */\n      dup2\n        /* \"#utility.yul\":46609:46619   */\n      swap1\n      pop\n        /* \"#utility.yul\":46246:46625   */\n      swap2\n      swap1\n      pop\n      jump\t// out\n        /* \"#utility.yul\":46631:46795   */\n    tag_423:\n        /* \"#utility.yul\":46771:46787   */\n      0x5061796d656e74206661696c6564000000000000000000000000000000000000\n        /* \"#utility.yul\":46767:46768   */\n      0x00\n        /* \"#utility.yul\":46759:46765   */\n      dup3\n        /* \"#utility.yul\":46755:46769   */\n      add\n        /* \"#utility.yul\":46748:46788   */\n      mstore\n        /* \"#utility.yul\":46631:46795   */\n      pop\n      jump\t// out\n        /* \"#utility.yul\":46801:47167   */\n    tag_424:\n        /* \"#utility.yul\":46943:46946   */\n      0x00\n        /* \"#utility.yul\":46964:47031   */\n      tag_828\n        /* \"#utility.yul\":47028:47030   */\n      0x0e\n        /* \"#utility.yul\":47023:47026   */\n      dup4\n        /* \"#utility.yul\":46964:47031   */\n      tag_358\n      jump\t// in\n    tag_828:\n        /* \"#utility.yul\":46957:47031   */\n      swap2\n      pop\n        /* \"#utility.yul\":47040:47133   */\n      tag_829\n        /* \"#utility.yul\":47129:47132   */\n      dup3\n        /* \"#utility.yul\":47040:47133   */\n      tag_423\n      jump\t// in\n    tag_829:\n        /* \"#utility.yul\":47158:47160   */\n      0x20\n        /* \"#utility.yul\":47153:47156   */\n      dup3\n        /* \"#utility.yul\":47149:47161   */\n      add\n        /* \"#utility.yul\":47142:47161   */\n      swap1\n      pop\n        /* \"#utility.yul\":46801:47167   */\n      swap2\n      swap1\n      pop\n      jump\t// out\n        /* \"#utility.yul\":47173:47592   */\n    tag_311:\n        /* \"#utility.yul\":47339:47343   */\n      0x00\n        /* \"#utility.yul\":47377:47379   */\n      0x20\n        /* \"#utility.yul\":47366:47375   */\n      dup3\n        /* \"#utility.yul\":47362:47380   */\n      add\n        /* \"#utility.yul\":47354:47380   */\n      swap1\n      pop\n        /* \"#utility.yul\":47426:47435   */\n      dup2\n        /* \"#utility.yul\":47420:47424   */\n      dup2\n        /* \"#utility.yul\":47416:47436   */\n      sub\n        /* \"#utility.yul\":47412:47413   */\n      0x00\n        /* \"#utility.yul\":47401:47410   */\n      dup4\n        /* \"#utility.yul\":47397:47414   */\n      add\n        /* \"#utility.yul\":47390:47437   */\n      mstore\n        /* \"#utility.yul\":47454:47585   */\n      tag_831\n        /* \"#utility.yul\":47580:47584   */\n      dup2\n        /* \"#utility.yul\":47454:47585   */\n      tag_424\n      jump\t// in\n    tag_831:\n        /* \"#utility.yul\":47446:47585   */\n      swap1\n      pop\n        /* \"#utility.yul\":47173:47592   */\n      swap2\n      swap1\n      pop\n      jump\t// out\n\n    auxdata: 0xa26469706673582212202f3841e652f540ad8b812a2c9f339955d5d7ddec491ba5ba008c5a7186548d3064736f6c63430008160033\n}\n",
				"bytecode": {
					"linkReferences": {},
					"object": "60806040525f6005555f6006555f6007553480156200001c575f80fd5b50604051620037be380380620037be8339818101604052810190620000429190620000e1565b60015f819055503360015f6101000a81548173ffffffffffffffffffffffffffffffffffffffff021916908373ffffffffffffffffffffffffffffffffffffffff1602179055505f6002819055505f600381905550806004819055505062000111565b5f80fd5b5f819050919050565b620000bd81620000a9565b8114620000c8575f80fd5b50565b5f81519050620000db81620000b2565b92915050565b5f60208284031215620000f957620000f8620000a5565b5b5f6200010884828501620000cb565b91505092915050565b61369f806200011f5f395ff3fe60806040526004361061011e575f3560e01c806350f18cb71161009f578063bc045df811610063578063bc045df81461041c578063c86d9da214610458578063c9958c4d14610482578063d62a4887146104ac578063f7c8d221146104e85761011e565b806350f18cb714610314578063618f0ea71461033e5780636352211e146103685780636754cc28146103a45780637216f123146103e05761011e565b80633a178d99116100e65780633a178d991461022a5780633d54eebb146102665780634028a0f114610296578063410d59cc146102c05780634e47368b146102ea5761011e565b806304ef07811461012257806310dd7a4c1461015e57806318059aad146101885780632799276d146101c45780633129e773146101ee575b5f80fd5b34801561012d575f80fd5b506101486004803603810190610143919061208f565b610524565b60405161015591906120dc565b60405180910390f35b348015610169575f80fd5b506101726108a4565b60405161017f91906123cc565b60405180910390f35b348015610193575f80fd5b506101ae60048036038101906101a991906123ec565b610b04565b6040516101bb91906120dc565b60405180910390f35b3480156101cf575f80fd5b506101d8610d22565b6040516101e59190612426565b60405180910390f35b3480156101f9575f80fd5b50610214600480360381019061020f91906123ec565b610d28565b6040516102219190612501565b60405180910390f35b348015610235575f80fd5b50610250600480360381019061024b91906123ec565b610f1c565b60405161025d9190612567565b60405180910390f35b610280600480360381019061027b91906125e1565b610f39565b60405161028d91906120dc565b60405180910390f35b3480156102a1575f80fd5b506102aa61137e565b6040516102b79190612426565b60405180910390f35b3480156102cb575f80fd5b506102d4611384565b6040516102e191906123cc565b60405180910390f35b3480156102f5575f80fd5b506102fe6115fe565b60405161030b9190612426565b60405180910390f35b34801561031f575f80fd5b50610328611604565b6040516103359190612426565b60405180910390f35b348015610349575f80fd5b5061035261160a565b60405161035f919061263b565b60405180910390f35b348015610373575f80fd5b5061038e600480360381019061038991906123ec565b61162f565b60405161039b919061263b565b60405180910390f35b3480156103af575f80fd5b506103ca60048036038101906103c5919061267e565b61165f565b6040516103d791906120dc565b60405180910390f35b3480156103eb575f80fd5b50610406600480360381019061040191906123ec565b611689565b60405161041391906120dc565b60405180910390f35b348015610427575f80fd5b50610442600480360381019061043d91906126bc565b6118b3565b60405161044f91906120dc565b60405180910390f35b348015610463575f80fd5b5061046c611b9c565b6040516104799190612426565b60405180910390f35b34801561048d575f80fd5b50610496611ba2565b6040516104a39190612426565b60405180910390f35b3480156104b7575f80fd5b506104d260048036038101906104cd91906123ec565b611ba8565b6040516104df91906120dc565b60405180910390f35b3480156104f3575f80fd5b5061050e6004803603810190610509919061267e565b611d87565b60405161051b91906120dc565b60405180910390f35b5f600b5f8481526020019081526020015f205f9054906101000a900473ffffffffffffffffffffffffffffffffffffffff1673ffffffffffffffffffffffffffffffffffffffff163373ffffffffffffffffffffffffffffffffffffffff16146105c3576040517f08c379a00000000000000000000000000000000000000000000000000000000081526004016105ba90612754565b60405180910390fd5b60085f8481526020019081526020015f2060050160159054906101000a900460ff16610624576040517f08c379a000000000000000000000000000000000000000000000000000000000815260040161061b906127bc565b60405180910390fd5b60056006811115610638576106376121f6565b5b60085f8581526020019081526020015f2060050160149054906101000a900460ff16600681111561066c5761066b6121f6565b5b036106ac576040517f08c379a00000000000000000000000000000000000000000000000000000000081526004016106a39061284a565b60405180910390fd5b811561080b575f606460045460085f8781526020019081526020015f20600201546106d79190612895565b6106e19190612903565b905061073f60085f8681526020019081526020015f206005015f9054906101000a900473ffffffffffffffffffffffffffffffffffffffff168260085f8881526020019081526020015f206002015461073a9190612933565b611ee5565b5060085f8581526020019081526020015f206002015460025f8282546107659190612933565b925050819055508060035f82825461077d9190612966565b92505081905550600160085f8681526020019081526020015f2060050160166101000a81548160ff021916908315150217905550600360085f8681526020019081526020015f2060050160146101000a81548160ff021916908360068111156107e9576107e86121f6565b5b021790555060065f81548092919061080090612999565b919050555050610849565b600460085f8581526020019081526020015f2060050160146101000a81548160ff02191690836006811115610843576108426121f6565b5b02179055505b3373ffffffffffffffffffffffffffffffffffffffff167f23ad0062ad47da0f27f5c07751751e4b60afc16bf6fe03a24266a01ec4897931846004604051610892929190612a39565b60405180910390a26001905092915050565b606060095f3373ffffffffffffffffffffffffffffffffffffffff1673ffffffffffffffffffffffffffffffffffffffff1681526020019081526020015f20805480602002602001604051908101604052809291908181526020015f905b82821015610afb578382905f5260205f209060060201604051806101200160405290815f820154815260200160018201805461093d90612aa0565b80601f016020809104026020016040519081016040528092919081815260200182805461096990612aa0565b80156109b45780601f1061098b576101008083540402835291602001916109b4565b820191905f5260205f20905b81548152906001019060200180831161099757829003601f168201915b505050505081526020016002820154815260200160038201548152602001600482015f9054906101000a900473ffffffffffffffffffffffffffffffffffffffff1673ffffffffffffffffffffffffffffffffffffffff1673ffffffffffffffffffffffffffffffffffffffff168152602001600582015f9054906101000a900473ffffffffffffffffffffffffffffffffffffffff1673ffffffffffffffffffffffffffffffffffffffff1673ffffffffffffffffffffffffffffffffffffffff1681526020016005820160149054906101000a900460ff166006811115610aa057610a9f6121f6565b5b6006811115610ab257610ab16121f6565b5b81526020016005820160159054906101000a900460ff161515151581526020016005820160169054906101000a900460ff16151515158152505081526020019060010190610902565b50505050905090565b5f60015f9054906101000a900473ffffffffffffffffffffffffffffffffffffffff1673ffffffffffffffffffffffffffffffffffffffff163373ffffffffffffffffffffffffffffffffffffffff1614610b94576040517f08c379a0000000000000000000000000000000000000000000000000000000008152600401610b8b90612b1a565b60405180910390fd5b60085f8381526020019081526020015f2060050160169054906101000a900460ff1615610bf6576040517f08c379a0000000000000000000000000000000000000000000000000000000008152600401610bed90612b82565b60405180910390fd5b610c4760085f8481526020019081526020015f206004015f9054906101000a900473ffffffffffffffffffffffffffffffffffffffff1660085f8581526020019081526020015f2060020154611ee5565b5060085f8381526020019081526020015f206002015460025f828254610c6d9190612933565b92505081905550600560085f8481526020019081526020015f2060050160146101000a81548160ff02191690836006811115610cac57610cab6121f6565b5b021790555060075f815480929190610cc390612999565b91905055503373ffffffffffffffffffffffffffffffffffffffff167f23ad0062ad47da0f27f5c07751751e4b60afc16bf6fe03a24266a01ec4897931836005604051610d11929190612bea565b60405180910390a260019050919050565b60055481565b610d30611f99565b60085f8381526020019081526020015f20604051806101200160405290815f8201548152602001600182018054610d6690612aa0565b80601f0160208091040260200160405190810160405280929190818152602001828054610d9290612aa0565b8015610ddd5780601f10610db457610100808354040283529160200191610ddd565b820191905f5260205f20905b815481529060010190602001808311610dc057829003601f168201915b505050505081526020016002820154815260200160038201548152602001600482015f9054906101000a900473ffffffffffffffffffffffffffffffffffffffff1673ffffffffffffffffffffffffffffffffffffffff1673ffffffffffffffffffffffffffffffffffffffff168152602001600582015f9054906101000a900473ffffffffffffffffffffffffffffffffffffffff1673ffffffffffffffffffffffffffffffffffffffff1673ffffffffffffffffffffffffffffffffffffffff1681526020016005820160149054906101000a900460ff166006811115610ec957610ec86121f6565b5b6006811115610edb57610eda6121f6565b5b81526020016005820160159054906101000a900460ff161515151581526020016005820160169054906101000a900460ff1615151515815250509050919050565b600c602052805f5260405f205f915054906101000a900460ff1681565b5f808383905011610f7f576040517f08c379a0000000000000000000000000000000000000000000000000000000008152600401610f7690612c6e565b60405180910390fd5b5f3411610fc1576040517f08c379a0000000000000000000000000000000000000000000000000000000008152600401610fb890612cd6565b60405180910390fd5b5f60055f815480929190610fd490612999565b9190505590505f60085f8381526020019081526020015f20905081815f01819055508484826001019182611009929190612ec8565b5034816002018190555042816003018190555033816004015f6101000a81548173ffffffffffffffffffffffffffffffffffffffff021916908373ffffffffffffffffffffffffffffffffffffffff1602179055505f8160050160146101000a81548160ff02191690836006811115611085576110846121f6565b5b021790555060095f3373ffffffffffffffffffffffffffffffffffffffff1673ffffffffffffffffffffffffffffffffffffffff1681526020019081526020015f2081908060018154018082558091505060019003905f5260205f2090600602015f909190919091505f820154815f01556001820181600101908161110a9190612faa565b506002820154816002015560038201548160030155600482015f9054906101000a900473ffffffffffffffffffffffffffffffffffffffff16816004015f6101000a81548173ffffffffffffffffffffffffffffffffffffffff021916908373ffffffffffffffffffffffffffffffffffffffff160217905550600582015f9054906101000a900473ffffffffffffffffffffffffffffffffffffffff16816005015f6101000a81548173ffffffffffffffffffffffffffffffffffffffff021916908373ffffffffffffffffffffffffffffffffffffffff1602179055506005820160149054906101000a900460ff168160050160146101000a81548160ff02191690836006811115611221576112206121f6565b5b02179055506005820160159054906101000a900460ff168160050160156101000a81548160ff0219169083151502179055506005820160169054906101000a900460ff168160050160166101000a81548160ff021916908315150217905550505033600b5f8481526020019081526020015f205f6101000a81548173ffffffffffffffffffffffffffffffffffffffff021916908373ffffffffffffffffffffffffffffffffffffffff1602179055506001600c5f8481526020019081526020015f205f6101000a81548160ff02191690836001811115611305576113046121f6565b5b02179055503460025f82825461131b9190612966565b925050819055503373ffffffffffffffffffffffffffffffffffffffff167f23ad0062ad47da0f27f5c07751751e4b60afc16bf6fe03a24266a01ec4897931835f60405161136a9291906130d9565b60405180910390a260019250505092915050565b60065481565b606060055467ffffffffffffffff8111156113a2576113a1612cfe565b5b6040519080825280602002602001820160405280156113db57816020015b6113c8611f99565b8152602001906001900390816113c05790505b5090505f5b6005548110156115fa5760085f8281526020019081526020015f20604051806101200160405290815f820154815260200160018201805461142090612aa0565b80601f016020809104026020016040519081016040528092919081815260200182805461144c90612aa0565b80156114975780601f1061146e57610100808354040283529160200191611497565b820191905f5260205f20905b81548152906001019060200180831161147a57829003601f168201915b505050505081526020016002820154815260200160038201548152602001600482015f9054906101000a900473ffffffffffffffffffffffffffffffffffffffff1673ffffffffffffffffffffffffffffffffffffffff1673ffffffffffffffffffffffffffffffffffffffff168152602001600582015f9054906101000a900473ffffffffffffffffffffffffffffffffffffffff1673ffffffffffffffffffffffffffffffffffffffff1673ffffffffffffffffffffffffffffffffffffffff1681526020016005820160149054906101000a900460ff166006811115611583576115826121f6565b5b6006811115611595576115946121f6565b5b81526020016005820160159054906101000a900460ff161515151581526020016005820160169054906101000a900460ff1615151515815250508282815181106115e2576115e1613113565b5b602002602001018190525080806001019150506113e0565b5090565b60045481565b60035481565b60015f9054906101000a900473ffffffffffffffffffffffffffffffffffffffff1681565b600b602052805f5260405f205f915054906101000a900473ffffffffffffffffffffffffffffffffffffffff1681565b600a602052815f5260405f20602052805f5260405f205f915091509054906101000a900460ff1681565b5f60085f8381526020019081526020015f206005015f9054906101000a900473ffffffffffffffffffffffffffffffffffffffff1673ffffffffffffffffffffffffffffffffffffffff163373ffffffffffffffffffffffffffffffffffffffff161461172b576040517f08c379a00000000000000000000000000000000000000000000000000000000081526004016117229061318a565b60405180910390fd5b60085f8381526020019081526020015f2060050160159054906101000a900460ff161561178d576040517f08c379a000000000000000000000000000000000000000000000000000000000815260040161178490612b82565b60405180910390fd5b60085f8381526020019081526020015f2060050160169054906101000a900460ff16156117ef576040517f08c379a00000000000000000000000000000000000000000000000000000000081526004016117e6906131f2565b60405180910390fd5b600160085f8481526020019081526020015f2060050160156101000a81548160ff021916908315150217905550600260085f8481526020019081526020015f2060050160146101000a81548160ff02191690836006811115611854576118536121f6565b5b02179055503373ffffffffffffffffffffffffffffffffffffffff167f23ad0062ad47da0f27f5c07751751e4b60afc16bf6fe03a24266a01ec48979318360026040516118a292919061325a565b60405180910390a260019050919050565b5f600b5f8481526020019081526020015f205f9054906101000a900473ffffffffffffffffffffffffffffffffffffffff1673ffffffffffffffffffffffffffffffffffffffff163373ffffffffffffffffffffffffffffffffffffffff1614611952576040517f08c379a000000000000000000000000000000000000000000000000000000000815260040161194990612754565b60405180910390fd5b600180811115611965576119646121f6565b5b600c5f8581526020019081526020015f205f9054906101000a900460ff166001811115611995576119946121f6565b5b146119d5576040517f08c379a00000000000000000000000000000000000000000000000000000000081526004016119cc906132de565b60405180910390fd5b600a5f8373ffffffffffffffffffffffffffffffffffffffff1673ffffffffffffffffffffffffffffffffffffffff1681526020019081526020015f205f8481526020019081526020015f205f9054906101000a900460ff16611a6d576040517f08c379a0000000000000000000000000000000000000000000000000000000008152600401611a6490613346565b60405180910390fd5b5f6001811115611a8057611a7f6121f6565b5b600c5f8581526020019081526020015f205f9054906101000a900460ff166001811115611ab057611aaf6121f6565b5b5050600160085f8581526020019081526020015f2060050160146101000a81548160ff02191690836006811115611aea57611ae96121f6565b5b02179055508160085f8581526020019081526020015f206005015f6101000a81548173ffffffffffffffffffffffffffffffffffffffff021916908373ffffffffffffffffffffffffffffffffffffffff1602179055503373ffffffffffffffffffffffffffffffffffffffff167f23ad0062ad47da0f27f5c07751751e4b60afc16bf6fe03a24266a01ec4897931846001604051611b8a9291906133ae565b60405180910390a26001905092915050565b60025481565b60075481565b5f600b5f8381526020019081526020015f205f9054906101000a900473ffffffffffffffffffffffffffffffffffffffff1673ffffffffffffffffffffffffffffffffffffffff163373ffffffffffffffffffffffffffffffffffffffff1603611c47576040517f08c379a0000000000000000000000000000000000000000000000000000000008152600401611c3e90613432565b60405180910390fd5b600180811115611c5a57611c596121f6565b5b600c5f8481526020019081526020015f205f9054906101000a900460ff166001811115611c8a57611c896121f6565b5b14611cca576040517f08c379a0000000000000000000000000000000000000000000000000000000008152600401611cc1906132de565b60405180910390fd5b6001600a5f3373ffffffffffffffffffffffffffffffffffffffff1673ffffffffffffffffffffffffffffffffffffffff1681526020019081526020015f205f8481526020019081526020015f205f6101000a81548160ff0219169083151502179055503373ffffffffffffffffffffffffffffffffffffffff167f23ad0062ad47da0f27f5c07751751e4b60afc16bf6fe03a24266a01ec4897931835f604051611d7692919061349a565b60405180910390a260019050919050565b5f60015f9054906101000a900473ffffffffffffffffffffffffffffffffffffffff1673ffffffffffffffffffffffffffffffffffffffff163373ffffffffffffffffffffffffffffffffffffffff1614611e17576040517f08c379a0000000000000000000000000000000000000000000000000000000008152600401611e0e90612b1a565b60405180910390fd5b5f82118015611e2857506003548211155b611e67576040517f08c379a0000000000000000000000000000000000000000000000000000000008152600401611e5e9061351e565b60405180910390fd5b611e718383611ee5565b508160035f828254611e839190612933565b925050819055503373ffffffffffffffffffffffffffffffffffffffff167f23ad0062ad47da0f27f5c07751751e4b60afc16bf6fe03a24266a01ec4897931426006604051611ed3929190613586565b60405180910390a26001905092915050565b5f808373ffffffffffffffffffffffffffffffffffffffff1683604051611f0b906135ed565b5f6040518083038185875af1925050503d805f8114611f45576040519150601f19603f3d011682016040523d82523d5f602084013e611f4a565b606091505b5050905080611f8e576040517f08c379a0000000000000000000000000000000000000000000000000000000008152600401611f859061364b565b60405180910390fd5b600191505092915050565b6040518061012001604052805f8152602001606081526020015f81526020015f81526020015f73ffffffffffffffffffffffffffffffffffffffff1681526020015f73ffffffffffffffffffffffffffffffffffffffff1681526020015f6006811115612009576120086121f6565b5b81526020015f151581526020015f151581525090565b5f80fd5b5f80fd5b5f819050919050565b61203981612027565b8114612043575f80fd5b50565b5f8135905061205481612030565b92915050565b5f8115159050919050565b61206e8161205a565b8114612078575f80fd5b50565b5f8135905061208981612065565b92915050565b5f80604083850312156120a5576120a461201f565b5b5f6120b285828601612046565b92505060206120c38582860161207b565b9150509250929050565b6120d68161205a565b82525050565b5f6020820190506120ef5f8301846120cd565b92915050565b5f81519050919050565b5f82825260208201905092915050565b5f819050602082019050919050565b61212781612027565b82525050565b5f81519050919050565b5f82825260208201905092915050565b5f5b83811015612164578082015181840152602081019050612149565b5f8484015250505050565b5f601f19601f8301169050919050565b5f6121898261212d565b6121938185612137565b93506121a3818560208601612147565b6121ac8161216f565b840191505092915050565b5f73ffffffffffffffffffffffffffffffffffffffff82169050919050565b5f6121e0826121b7565b9050919050565b6121f0816121d6565b82525050565b7f4e487b71000000000000000000000000000000000000000000000000000000005f52602160045260245ffd5b60078110612234576122336121f6565b5b50565b5f81905061224482612223565b919050565b5f61225382612237565b9050919050565b61226381612249565b82525050565b6122728161205a565b82525050565b5f61012083015f83015161228e5f86018261211e565b50602083015184820360208601526122a6828261217f565b91505060408301516122bb604086018261211e565b5060608301516122ce606086018261211e565b5060808301516122e160808601826121e7565b5060a08301516122f460a08601826121e7565b5060c083015161230760c086018261225a565b5060e083015161231a60e0860182612269565b5061010083015161232f610100860182612269565b508091505092915050565b5f6123458383612278565b905092915050565b5f602082019050919050565b5f612363826120f5565b61236d81856120ff565b93508360208202850161237f8561210f565b805f5b858110156123ba578484038952815161239b858261233a565b94506123a68361234d565b925060208a01995050600181019050612382565b50829750879550505050505092915050565b5f6020820190508181035f8301526123e48184612359565b905092915050565b5f602082840312156124015761240061201f565b5b5f61240e84828501612046565b91505092915050565b61242081612027565b82525050565b5f6020820190506124395f830184612417565b92915050565b5f61012083015f8301516124555f86018261211e565b506020830151848203602086015261246d828261217f565b9150506040830151612482604086018261211e565b506060830151612495606086018261211e565b5060808301516124a860808601826121e7565b5060a08301516124bb60a08601826121e7565b5060c08301516124ce60c086018261225a565b5060e08301516124e160e0860182612269565b506101008301516124f6610100860182612269565b508091505092915050565b5f6020820190508181035f830152612519818461243f565b905092915050565b60028110612532576125316121f6565b5b50565b5f81905061254282612521565b919050565b5f61255182612535565b9050919050565b61256181612547565b82525050565b5f60208201905061257a5f830184612558565b92915050565b5f80fd5b5f80fd5b5f80fd5b5f8083601f8401126125a1576125a0612580565b5b8235905067ffffffffffffffff8111156125be576125bd612584565b5b6020830191508360018202830111156125da576125d9612588565b5b9250929050565b5f80602083850312156125f7576125f661201f565b5b5f83013567ffffffffffffffff81111561261457612613612023565b5b6126208582860161258c565b92509250509250929050565b612635816121d6565b82525050565b5f60208201905061264e5f83018461262c565b92915050565b61265d816121d6565b8114612667575f80fd5b50565b5f8135905061267881612654565b92915050565b5f80604083850312156126945761269361201f565b5b5f6126a18582860161266a565b92505060206126b285828601612046565b9150509250929050565b5f80604083850312156126d2576126d161201f565b5b5f6126df85828601612046565b92505060206126f08582860161266a565b9150509250929050565b5f82825260208201905092915050565b7f4f6e6c79206f776e657220616c6c6f77656400000000000000000000000000005f82015250565b5f61273e6012836126fa565b91506127498261270a565b602082019050919050565b5f6020820190508181035f83015261276b81612732565b9050919050565b7f53657276696365206e6f742070726f76696465640000000000000000000000005f82015250565b5f6127a66014836126fa565b91506127b182612772565b602082019050919050565b5f6020820190508181035f8301526127d38161279a565b9050919050565b7f416c726561647920726566756e6465642c206372656174652061206e657720495f8201527f74656d0000000000000000000000000000000000000000000000000000000000602082015250565b5f6128346023836126fa565b915061283f826127da565b604082019050919050565b5f6020820190508181035f83015261286181612828565b9050919050565b7f4e487b71000000000000000000000000000000000000000000000000000000005f52601160045260245ffd5b5f61289f82612027565b91506128aa83612027565b92508282026128b881612027565b915082820484148315176128cf576128ce612868565b5b5092915050565b7f4e487b71000000000000000000000000000000000000000000000000000000005f52601260045260245ffd5b5f61290d82612027565b915061291883612027565b925082612928576129276128d6565b5b828204905092915050565b5f61293d82612027565b915061294883612027565b92508282039050818111156129605761295f612868565b5b92915050565b5f61297082612027565b915061297b83612027565b925082820190508082111561299357612992612868565b5b92915050565b5f6129a382612027565b91507fffffffffffffffffffffffffffffffffffffffffffffffffffffffffffffffff82036129d5576129d4612868565b5b600182019050919050565b7f44495350555454454400000000000000000000000000000000000000000000005f82015250565b5f612a146009836126fa565b9150612a1f826129e0565b602082019050919050565b612a3381612249565b82525050565b5f606082019050612a4c5f830185612417565b8181036020830152612a5d81612a08565b9050612a6c6040830184612a2a565b9392505050565b7f4e487b71000000000000000000000000000000000000000000000000000000005f52602260045260245ffd5b5f6002820490506001821680612ab757607f821691505b602082108103612aca57612ac9612a73565b5b50919050565b7f4f6e6c7920457363726f7720616c6c6f776564000000000000000000000000005f82015250565b5f612b046013836126fa565b9150612b0f82612ad0565b602082019050919050565b5f6020820190508181035f830152612b3181612af8565b9050919050565b7f5365727669636520616c72656164792070726f766964656400000000000000005f82015250565b5f612b6c6018836126fa565b9150612b7782612b38565b602082019050919050565b5f6020820190508181035f830152612b9981612b60565b9050919050565b7f524546554e4445440000000000000000000000000000000000000000000000005f82015250565b5f612bd46008836126fa565b9150612bdf82612ba0565b602082019050919050565b5f606082019050612bfd5f830185612417565b8181036020830152612c0e81612bc8565b9050612c1d6040830184612a2a565b9392505050565b7f507572706f73652063616e6e6f7420626520656d7074790000000000000000005f82015250565b5f612c586017836126fa565b9150612c6382612c24565b602082019050919050565b5f6020820190508181035f830152612c8581612c4c565b9050919050565b7f4974656d2063616e6e6f74206265207a65726f206574686572730000000000005f82015250565b5f612cc0601a836126fa565b9150612ccb82612c8c565b602082019050919050565b5f6020820190508181035f830152612ced81612cb4565b9050919050565b5f82905092915050565b7f4e487b71000000000000000000000000000000000000000000000000000000005f52604160045260245ffd5b5f819050815f5260205f209050919050565b5f6020601f8301049050919050565b5f82821b905092915050565b5f60088302612d877fffffffffffffffffffffffffffffffffffffffffffffffffffffffffffffffff82612d4c565b612d918683612d4c565b95508019841693508086168417925050509392505050565b5f819050919050565b5f612dcc612dc7612dc284612027565b612da9565b612027565b9050919050565b5f819050919050565b612de583612db2565b612df9612df182612dd3565b848454612d58565b825550505050565b5f90565b612e0d612e01565b612e18818484612ddc565b505050565b5b81811015612e3b57612e305f82612e05565b600181019050612e1e565b5050565b601f821115612e8057612e5181612d2b565b612e5a84612d3d565b81016020851015612e69578190505b612e7d612e7585612d3d565b830182612e1d565b50505b505050565b5f82821c905092915050565b5f612ea05f1984600802612e85565b1980831691505092915050565b5f612eb88383612e91565b9150826002028217905092915050565b612ed28383612cf4565b67ffffffffffffffff811115612eeb57612eea612cfe565b5b612ef58254612aa0565b612f00828285612e3f565b5f601f831160018114612f2d575f8415612f1b578287013590505b612f258582612ead565b865550612f8c565b601f198416612f3b86612d2b565b5f5b82811015612f6257848901358255600182019150602085019450602081019050612f3d565b86831015612f7f5784890135612f7b601f891682612e91565b8355505b6001600288020188555050505b50505050505050565b5f81549050612fa381612aa0565b9050919050565b818103612fb857505061308d565b612fc182612f95565b67ffffffffffffffff811115612fda57612fd9612cfe565b5b612fe48254612aa0565b612fef828285612e3f565b5f601f83116001811461301c575f841561300a578287015490505b6130148582612ead565b865550613086565b601f19841661302a87612d2b565b965061303586612d2b565b5f5b8281101561305c57848901548255600182019150600185019450602081019050613037565b868310156130795784890154613075601f891682612e91565b8355505b6001600288020188555050505b5050505050505b565b7f4954454d204352454154454400000000000000000000000000000000000000005f82015250565b5f6130c3600c836126fa565b91506130ce8261308f565b602082019050919050565b5f6060820190506130ec5f830185612417565b81810360208301526130fd816130b7565b905061310c6040830184612a2a565b9392505050565b7f4e487b71000000000000000000000000000000000000000000000000000000005f52603260045260245ffd5b7f53657276696365206e6f74206177617264656420746f20796f750000000000005f82015250565b5f613174601a836126fa565b915061317f82613140565b602082019050919050565b5f6020820190508181035f8301526131a181613168565b9050919050565b7f5365727669636520616c726561647920636f6e6669726d6564000000000000005f82015250565b5f6131dc6019836126fa565b91506131e7826131a8565b602082019050919050565b5f6020820190508181035f830152613209816131d0565b9050919050565b7f44454c495645525920494e5449415445440000000000000000000000000000005f82015250565b5f6132446011836126fa565b915061324f82613210565b602082019050919050565b5f60608201905061326d5f830185612417565b818103602083015261327e81613238565b905061328d6040830184612a2a565b9392505050565b7f4974656d206e6f7420617661696c61626c6500000000000000000000000000005f82015250565b5f6132c86012836126fa565b91506132d382613294565b602082019050919050565b5f6020820190508181035f8301526132f5816132bc565b9050919050565b7f50726f7669646572206e6f74206f6e20746865206c69737400000000000000005f82015250565b5f6133306018836126fa565b915061333b826132fc565b602082019050919050565b5f6020820190508181035f83015261335d81613324565b9050919050565b7f415050524f5645440000000000000000000000000000000000000000000000005f82015250565b5f6133986008836126fa565b91506133a382613364565b602082019050919050565b5f6060820190506133c15f830185612417565b81810360208301526133d28161338c565b90506133e16040830184612a2a565b9392505050565b7f4f776e6572206e6f7420616c6c6f7765640000000000000000000000000000005f82015250565b5f61341c6011836126fa565b9150613427826133e8565b602082019050919050565b5f6020820190508181035f83015261344981613410565b9050919050565b7f52455155455354454400000000000000000000000000000000000000000000005f82015250565b5f6134846009836126fa565b915061348f82613450565b602082019050919050565b5f6060820190506134ad5f830185612417565b81810360208301526134be81613478565b90506134cd6040830184612a2a565b9392505050565b7f5a65726f207769746864726177616c206e6f7420616c6c6f77656400000000005f82015250565b5f613508601b836126fa565b9150613513826134d4565b602082019050919050565b5f6020820190508181035f830152613535816134fc565b9050919050565b7f57495448445241574544000000000000000000000000000000000000000000005f82015250565b5f613570600a836126fa565b915061357b8261353c565b602082019050919050565b5f6060820190506135995f830185612417565b81810360208301526135aa81613564565b90506135b96040830184612a2a565b9392505050565b5f81905092915050565b50565b5f6135d85f836135c0565b91506135e3826135ca565b5f82019050919050565b5f6135f7826135cd565b9150819050919050565b7f5061796d656e74206661696c65640000000000000000000000000000000000005f82015250565b5f613635600e836126fa565b915061364082613601565b602082019050919050565b5f6020820190508181035f83015261366281613629565b905091905056fea26469706673582212202f3841e652f540ad8b812a2c9f339955d5d7ddec491ba5ba008c5a7186548d3064736f6c63430008160033",
					"opcodes": "PUSH1 0x80 PUSH1 0x40 MSTORE PUSH0 PUSH1 0x5 SSTORE PUSH0 PUSH1 0x6 SSTORE PUSH0 PUSH1 0x7 SSTORE CALLVALUE DUP1 ISZERO PUSH3 0x1C JUMPI PUSH0 DUP1 REVERT JUMPDEST POP PUSH1 0x40 MLOAD PUSH3 0x37BE CODESIZE SUB DUP1 PUSH3 0x37BE DUP4 CODECOPY DUP2 DUP2 ADD PUSH1 0x40 MSTORE DUP2 ADD SWAP1 PUSH3 0x42 SWAP2 SWAP1 PUSH3 0xE1 JUMP JUMPDEST PUSH1 0x1 PUSH0 DUP2 SWAP1 SSTORE POP CALLER PUSH1 0x1 PUSH0 PUSH2 0x100 EXP DUP2 SLOAD DUP2 PUSH20 0xFFFFFFFFFFFFFFFFFFFFFFFFFFFFFFFFFFFFFFFF MUL NOT AND SWAP1 DUP4 PUSH20 0xFFFFFFFFFFFFFFFFFFFFFFFFFFFFFFFFFFFFFFFF AND MUL OR SWAP1 SSTORE POP PUSH0 PUSH1 0x2 DUP2 SWAP1 SSTORE POP PUSH0 PUSH1 0x3 DUP2 SWAP1 SSTORE POP DUP1 PUSH1 0x4 DUP2 SWAP1 SSTORE POP POP PUSH3 0x111 JUMP JUMPDEST PUSH0 DUP1 REVERT JUMPDEST PUSH0 DUP2 SWAP1 POP SWAP2 SWAP1 POP JUMP JUMPDEST PUSH3 0xBD DUP2 PUSH3 0xA9 JUMP JUMPDEST DUP2 EQ PUSH3 0xC8 JUMPI PUSH0 DUP1 REVERT JUMPDEST POP JUMP JUMPDEST PUSH0 DUP2 MLOAD SWAP1 POP PUSH3 0xDB DUP2 PUSH3 0xB2 JUMP JUMPDEST SWAP3 SWAP2 POP POP JUMP JUMPDEST PUSH0 PUSH1 0x20 DUP3 DUP5 SUB SLT ISZERO PUSH3 0xF9 JUMPI PUSH3 0xF8 PUSH3 0xA5 JUMP JUMPDEST JUMPDEST PUSH0 PUSH3 0x108 DUP5 DUP3 DUP6 ADD PUSH3 0xCB JUMP JUMPDEST SWAP2 POP POP SWAP3 SWAP2 POP POP JUMP JUMPDEST PUSH2 0x369F DUP1 PUSH3 0x11F PUSH0 CODECOPY PUSH0 RETURN INVALID PUSH1 0x80 PUSH1 0x40 MSTORE PUSH1 0x4 CALLDATASIZE LT PUSH2 0x11E JUMPI PUSH0 CALLDATALOAD PUSH1 0xE0 SHR DUP1 PUSH4 0x50F18CB7 GT PUSH2 0x9F JUMPI DUP1 PUSH4 0xBC045DF8 GT PUSH2 0x63 JUMPI DUP1 PUSH4 0xBC045DF8 EQ PUSH2 0x41C JUMPI DUP1 PUSH4 0xC86D9DA2 EQ PUSH2 0x458 JUMPI DUP1 PUSH4 0xC9958C4D EQ PUSH2 0x482 JUMPI DUP1 PUSH4 0xD62A4887 EQ PUSH2 0x4AC JUMPI DUP1 PUSH4 0xF7C8D221 EQ PUSH2 0x4E8 JUMPI PUSH2 0x11E JUMP JUMPDEST DUP1 PUSH4 0x50F18CB7 EQ PUSH2 0x314 JUMPI DUP1 PUSH4 0x618F0EA7 EQ PUSH2 0x33E JUMPI DUP1 PUSH4 0x6352211E EQ PUSH2 0x368 JUMPI DUP1 PUSH4 0x6754CC28 EQ PUSH2 0x3A4 JUMPI DUP1 PUSH4 0x7216F123 EQ PUSH2 0x3E0 JUMPI PUSH2 0x11E JUMP JUMPDEST DUP1 PUSH4 0x3A178D99 GT PUSH2 0xE6 JUMPI DUP1 PUSH4 0x3A178D99 EQ PUSH2 0x22A JUMPI DUP1 PUSH4 0x3D54EEBB EQ PUSH2 0x266 JUMPI DUP1 PUSH4 0x4028A0F1 EQ PUSH2 0x296 JUMPI DUP1 PUSH4 0x410D59CC EQ PUSH2 0x2C0 JUMPI DUP1 PUSH4 0x4E47368B EQ PUSH2 0x2EA JUMPI PUSH2 0x11E JUMP JUMPDEST DUP1 PUSH4 0x4EF0781 EQ PUSH2 0x122 JUMPI DUP1 PUSH4 0x10DD7A4C EQ PUSH2 0x15E JUMPI DUP1 PUSH4 0x18059AAD EQ PUSH2 0x188 JUMPI DUP1 PUSH4 0x2799276D EQ PUSH2 0x1C4 JUMPI DUP1 PUSH4 0x3129E773 EQ PUSH2 0x1EE JUMPI JUMPDEST PUSH0 DUP1 REVERT JUMPDEST CALLVALUE DUP1 ISZERO PUSH2 0x12D JUMPI PUSH0 DUP1 REVERT JUMPDEST POP PUSH2 0x148 PUSH1 0x4 DUP1 CALLDATASIZE SUB DUP2 ADD SWAP1 PUSH2 0x143 SWAP2 SWAP1 PUSH2 0x208F JUMP JUMPDEST PUSH2 0x524 JUMP JUMPDEST PUSH1 0x40 MLOAD PUSH2 0x155 SWAP2 SWAP1 PUSH2 0x20DC JUMP JUMPDEST PUSH1 0x40 MLOAD DUP1 SWAP2 SUB SWAP1 RETURN JUMPDEST CALLVALUE DUP1 ISZERO PUSH2 0x169 JUMPI PUSH0 DUP1 REVERT JUMPDEST POP PUSH2 0x172 PUSH2 0x8A4 JUMP JUMPDEST PUSH1 0x40 MLOAD PUSH2 0x17F SWAP2 SWAP1 PUSH2 0x23CC JUMP JUMPDEST PUSH1 0x40 MLOAD DUP1 SWAP2 SUB SWAP1 RETURN JUMPDEST CALLVALUE DUP1 ISZERO PUSH2 0x193 JUMPI PUSH0 DUP1 REVERT JUMPDEST POP PUSH2 0x1AE PUSH1 0x4 DUP1 CALLDATASIZE SUB DUP2 ADD SWAP1 PUSH2 0x1A9 SWAP2 SWAP1 PUSH2 0x23EC JUMP JUMPDEST PUSH2 0xB04 JUMP JUMPDEST PUSH1 0x40 MLOAD PUSH2 0x1BB SWAP2 SWAP1 PUSH2 0x20DC JUMP JUMPDEST PUSH1 0x40 MLOAD DUP1 SWAP2 SUB SWAP1 RETURN JUMPDEST CALLVALUE DUP1 ISZERO PUSH2 0x1CF JUMPI PUSH0 DUP1 REVERT JUMPDEST POP PUSH2 0x1D8 PUSH2 0xD22 JUMP JUMPDEST PUSH1 0x40 MLOAD PUSH2 0x1E5 SWAP2 SWAP1 PUSH2 0x2426 JUMP JUMPDEST PUSH1 0x40 MLOAD DUP1 SWAP2 SUB SWAP1 RETURN JUMPDEST CALLVALUE DUP1 ISZERO PUSH2 0x1F9 JUMPI PUSH0 DUP1 REVERT JUMPDEST POP PUSH2 0x214 PUSH1 0x4 DUP1 CALLDATASIZE SUB DUP2 ADD SWAP1 PUSH2 0x20F SWAP2 SWAP1 PUSH2 0x23EC JUMP JUMPDEST PUSH2 0xD28 JUMP JUMPDEST PUSH1 0x40 MLOAD PUSH2 0x221 SWAP2 SWAP1 PUSH2 0x2501 JUMP JUMPDEST PUSH1 0x40 MLOAD DUP1 SWAP2 SUB SWAP1 RETURN JUMPDEST CALLVALUE DUP1 ISZERO PUSH2 0x235 JUMPI PUSH0 DUP1 REVERT JUMPDEST POP PUSH2 0x250 PUSH1 0x4 DUP1 CALLDATASIZE SUB DUP2 ADD SWAP1 PUSH2 0x24B SWAP2 SWAP1 PUSH2 0x23EC JUMP JUMPDEST PUSH2 0xF1C JUMP JUMPDEST PUSH1 0x40 MLOAD PUSH2 0x25D SWAP2 SWAP1 PUSH2 0x2567 JUMP JUMPDEST PUSH1 0x40 MLOAD DUP1 SWAP2 SUB SWAP1 RETURN JUMPDEST PUSH2 0x280 PUSH1 0x4 DUP1 CALLDATASIZE SUB DUP2 ADD SWAP1 PUSH2 0x27B SWAP2 SWAP1 PUSH2 0x25E1 JUMP JUMPDEST PUSH2 0xF39 JUMP JUMPDEST PUSH1 0x40 MLOAD PUSH2 0x28D SWAP2 SWAP1 PUSH2 0x20DC JUMP JUMPDEST PUSH1 0x40 MLOAD DUP1 SWAP2 SUB SWAP1 RETURN JUMPDEST CALLVALUE DUP1 ISZERO PUSH2 0x2A1 JUMPI PUSH0 DUP1 REVERT JUMPDEST POP PUSH2 0x2AA PUSH2 0x137E JUMP JUMPDEST PUSH1 0x40 MLOAD PUSH2 0x2B7 SWAP2 SWAP1 PUSH2 0x2426 JUMP JUMPDEST PUSH1 0x40 MLOAD DUP1 SWAP2 SUB SWAP1 RETURN JUMPDEST CALLVALUE DUP1 ISZERO PUSH2 0x2CB JUMPI PUSH0 DUP1 REVERT JUMPDEST POP PUSH2 0x2D4 PUSH2 0x1384 JUMP JUMPDEST PUSH1 0x40 MLOAD PUSH2 0x2E1 SWAP2 SWAP1 PUSH2 0x23CC JUMP JUMPDEST PUSH1 0x40 MLOAD DUP1 SWAP2 SUB SWAP1 RETURN JUMPDEST CALLVALUE DUP1 ISZERO PUSH2 0x2F5 JUMPI PUSH0 DUP1 REVERT JUMPDEST POP PUSH2 0x2FE PUSH2 0x15FE JUMP JUMPDEST PUSH1 0x40 MLOAD PUSH2 0x30B SWAP2 SWAP1 PUSH2 0x2426 JUMP JUMPDEST PUSH1 0x40 MLOAD DUP1 SWAP2 SUB SWAP1 RETURN JUMPDEST CALLVALUE DUP1 ISZERO PUSH2 0x31F JUMPI PUSH0 DUP1 REVERT JUMPDEST POP PUSH2 0x328 PUSH2 0x1604 JUMP JUMPDEST PUSH1 0x40 MLOAD PUSH2 0x335 SWAP2 SWAP1 PUSH2 0x2426 JUMP JUMPDEST PUSH1 0x40 MLOAD DUP1 SWAP2 SUB SWAP1 RETURN JUMPDEST CALLVALUE DUP1 ISZERO PUSH2 0x349 JUMPI PUSH0 DUP1 REVERT JUMPDEST POP PUSH2 0x352 PUSH2 0x160A JUMP JUMPDEST PUSH1 0x40 MLOAD PUSH2 0x35F SWAP2 SWAP1 PUSH2 0x263B JUMP JUMPDEST PUSH1 0x40 MLOAD DUP1 SWAP2 SUB SWAP1 RETURN JUMPDEST CALLVALUE DUP1 ISZERO PUSH2 0x373 JUMPI PUSH0 DUP1 REVERT JUMPDEST POP PUSH2 0x38E PUSH1 0x4 DUP1 CALLDATASIZE SUB DUP2 ADD SWAP1 PUSH2 0x389 SWAP2 SWAP1 PUSH2 0x23EC JUMP JUMPDEST PUSH2 0x162F JUMP JUMPDEST PUSH1 0x40 MLOAD PUSH2 0x39B SWAP2 SWAP1 PUSH2 0x263B JUMP JUMPDEST PUSH1 0x40 MLOAD DUP1 SWAP2 SUB SWAP1 RETURN JUMPDEST CALLVALUE DUP1 ISZERO PUSH2 0x3AF JUMPI PUSH0 DUP1 REVERT JUMPDEST POP PUSH2 0x3CA PUSH1 0x4 DUP1 CALLDATASIZE SUB DUP2 ADD SWAP1 PUSH2 0x3C5 SWAP2 SWAP1 PUSH2 0x267E JUMP JUMPDEST PUSH2 0x165F JUMP JUMPDEST PUSH1 0x40 MLOAD PUSH2 0x3D7 SWAP2 SWAP1 PUSH2 0x20DC JUMP JUMPDEST PUSH1 0x40 MLOAD DUP1 SWAP2 SUB SWAP1 RETURN JUMPDEST CALLVALUE DUP1 ISZERO PUSH2 0x3EB JUMPI PUSH0 DUP1 REVERT JUMPDEST POP PUSH2 0x406 PUSH1 0x4 DUP1 CALLDATASIZE SUB DUP2 ADD SWAP1 PUSH2 0x401 SWAP2 SWAP1 PUSH2 0x23EC JUMP JUMPDEST PUSH2 0x1689 JUMP JUMPDEST PUSH1 0x40 MLOAD PUSH2 0x413 SWAP2 SWAP1 PUSH2 0x20DC JUMP JUMPDEST PUSH1 0x40 MLOAD DUP1 SWAP2 SUB SWAP1 RETURN JUMPDEST CALLVALUE DUP1 ISZERO PUSH2 0x427 JUMPI PUSH0 DUP1 REVERT JUMPDEST POP PUSH2 0x442 PUSH1 0x4 DUP1 CALLDATASIZE SUB DUP2 ADD SWAP1 PUSH2 0x43D SWAP2 SWAP1 PUSH2 0x26BC JUMP JUMPDEST PUSH2 0x18B3 JUMP JUMPDEST PUSH1 0x40 MLOAD PUSH2 0x44F SWAP2 SWAP1 PUSH2 0x20DC JUMP JUMPDEST PUSH1 0x40 MLOAD DUP1 SWAP2 SUB SWAP1 RETURN JUMPDEST CALLVALUE DUP1 ISZERO PUSH2 0x463 JUMPI PUSH0 DUP1 REVERT JUMPDEST POP PUSH2 0x46C PUSH2 0x1B9C JUMP JUMPDEST PUSH1 0x40 MLOAD PUSH2 0x479 SWAP2 SWAP1 PUSH2 0x2426 JUMP JUMPDEST PUSH1 0x40 MLOAD DUP1 SWAP2 SUB SWAP1 RETURN JUMPDEST CALLVALUE DUP1 ISZERO PUSH2 0x48D JUMPI PUSH0 DUP1 REVERT JUMPDEST POP PUSH2 0x496 PUSH2 0x1BA2 JUMP JUMPDEST PUSH1 0x40 MLOAD PUSH2 0x4A3 SWAP2 SWAP1 PUSH2 0x2426 JUMP JUMPDEST PUSH1 0x40 MLOAD DUP1 SWAP2 SUB SWAP1 RETURN JUMPDEST CALLVALUE DUP1 ISZERO PUSH2 0x4B7 JUMPI PUSH0 DUP1 REVERT JUMPDEST POP PUSH2 0x4D2 PUSH1 0x4 DUP1 CALLDATASIZE SUB DUP2 ADD SWAP1 PUSH2 0x4CD SWAP2 SWAP1 PUSH2 0x23EC JUMP JUMPDEST PUSH2 0x1BA8 JUMP JUMPDEST PUSH1 0x40 MLOAD PUSH2 0x4DF SWAP2 SWAP1 PUSH2 0x20DC JUMP JUMPDEST PUSH1 0x40 MLOAD DUP1 SWAP2 SUB SWAP1 RETURN JUMPDEST CALLVALUE DUP1 ISZERO PUSH2 0x4F3 JUMPI PUSH0 DUP1 REVERT JUMPDEST POP PUSH2 0x50E PUSH1 0x4 DUP1 CALLDATASIZE SUB DUP2 ADD SWAP1 PUSH2 0x509 SWAP2 SWAP1 PUSH2 0x267E JUMP JUMPDEST PUSH2 0x1D87 JUMP JUMPDEST PUSH1 0x40 MLOAD PUSH2 0x51B SWAP2 SWAP1 PUSH2 0x20DC JUMP JUMPDEST PUSH1 0x40 MLOAD DUP1 SWAP2 SUB SWAP1 RETURN JUMPDEST PUSH0 PUSH1 0xB PUSH0 DUP5 DUP2 MSTORE PUSH1 0x20 ADD SWAP1 DUP2 MSTORE PUSH1 0x20 ADD PUSH0 KECCAK256 PUSH0 SWAP1 SLOAD SWAP1 PUSH2 0x100 EXP SWAP1 DIV PUSH20 0xFFFFFFFFFFFFFFFFFFFFFFFFFFFFFFFFFFFFFFFF AND PUSH20 0xFFFFFFFFFFFFFFFFFFFFFFFFFFFFFFFFFFFFFFFF AND CALLER PUSH20 0xFFFFFFFFFFFFFFFFFFFFFFFFFFFFFFFFFFFFFFFF AND EQ PUSH2 0x5C3 JUMPI PUSH1 0x40 MLOAD PUSH32 0x8C379A000000000000000000000000000000000000000000000000000000000 DUP2 MSTORE PUSH1 0x4 ADD PUSH2 0x5BA SWAP1 PUSH2 0x2754 JUMP JUMPDEST PUSH1 0x40 MLOAD DUP1 SWAP2 SUB SWAP1 REVERT JUMPDEST PUSH1 0x8 PUSH0 DUP5 DUP2 MSTORE PUSH1 0x20 ADD SWAP1 DUP2 MSTORE PUSH1 0x20 ADD PUSH0 KECCAK256 PUSH1 0x5 ADD PUSH1 0x15 SWAP1 SLOAD SWAP1 PUSH2 0x100 EXP SWAP1 DIV PUSH1 0xFF AND PUSH2 0x624 JUMPI PUSH1 0x40 MLOAD PUSH32 0x8C379A000000000000000000000000000000000000000000000000000000000 DUP2 MSTORE PUSH1 0x4 ADD PUSH2 0x61B SWAP1 PUSH2 0x27BC JUMP JUMPDEST PUSH1 0x40 MLOAD DUP1 SWAP2 SUB SWAP1 REVERT JUMPDEST PUSH1 0x5 PUSH1 0x6 DUP2 GT ISZERO PUSH2 0x638 JUMPI PUSH2 0x637 PUSH2 0x21F6 JUMP JUMPDEST JUMPDEST PUSH1 0x8 PUSH0 DUP6 DUP2 MSTORE PUSH1 0x20 ADD SWAP1 DUP2 MSTORE PUSH1 0x20 ADD PUSH0 KECCAK256 PUSH1 0x5 ADD PUSH1 0x14 SWAP1 SLOAD SWAP1 PUSH2 0x100 EXP SWAP1 DIV PUSH1 0xFF AND PUSH1 0x6 DUP2 GT ISZERO PUSH2 0x66C JUMPI PUSH2 0x66B PUSH2 0x21F6 JUMP JUMPDEST JUMPDEST SUB PUSH2 0x6AC JUMPI PUSH1 0x40 MLOAD PUSH32 0x8C379A000000000000000000000000000000000000000000000000000000000 DUP2 MSTORE PUSH1 0x4 ADD PUSH2 0x6A3 SWAP1 PUSH2 0x284A JUMP JUMPDEST PUSH1 0x40 MLOAD DUP1 SWAP2 SUB SWAP1 REVERT JUMPDEST DUP2 ISZERO PUSH2 0x80B JUMPI PUSH0 PUSH1 0x64 PUSH1 0x4 SLOAD PUSH1 0x8 PUSH0 DUP8 DUP2 MSTORE PUSH1 0x20 ADD SWAP1 DUP2 MSTORE PUSH1 0x20 ADD PUSH0 KECCAK256 PUSH1 0x2 ADD SLOAD PUSH2 0x6D7 SWAP2 SWAP1 PUSH2 0x2895 JUMP JUMPDEST PUSH2 0x6E1 SWAP2 SWAP1 PUSH2 0x2903 JUMP JUMPDEST SWAP1 POP PUSH2 0x73F PUSH1 0x8 PUSH0 DUP7 DUP2 MSTORE PUSH1 0x20 ADD SWAP1 DUP2 MSTORE PUSH1 0x20 ADD PUSH0 KECCAK256 PUSH1 0x5 ADD PUSH0 SWAP1 SLOAD SWAP1 PUSH2 0x100 EXP SWAP1 DIV PUSH20 0xFFFFFFFFFFFFFFFFFFFFFFFFFFFFFFFFFFFFFFFF AND DUP3 PUSH1 0x8 PUSH0 DUP9 DUP2 MSTORE PUSH1 0x20 ADD SWAP1 DUP2 MSTORE PUSH1 0x20 ADD PUSH0 KECCAK256 PUSH1 0x2 ADD SLOAD PUSH2 0x73A SWAP2 SWAP1 PUSH2 0x2933 JUMP JUMPDEST PUSH2 0x1EE5 JUMP JUMPDEST POP PUSH1 0x8 PUSH0 DUP6 DUP2 MSTORE PUSH1 0x20 ADD SWAP1 DUP2 MSTORE PUSH1 0x20 ADD PUSH0 KECCAK256 PUSH1 0x2 ADD SLOAD PUSH1 0x2 PUSH0 DUP3 DUP3 SLOAD PUSH2 0x765 SWAP2 SWAP1 PUSH2 0x2933 JUMP JUMPDEST SWAP3 POP POP DUP2 SWAP1 SSTORE POP DUP1 PUSH1 0x3 PUSH0 DUP3 DUP3 SLOAD PUSH2 0x77D SWAP2 SWAP1 PUSH2 0x2966 JUMP JUMPDEST SWAP3 POP POP DUP2 SWAP1 SSTORE POP PUSH1 0x1 PUSH1 0x8 PUSH0 DUP7 DUP2 MSTORE PUSH1 0x20 ADD SWAP1 DUP2 MSTORE PUSH1 0x20 ADD PUSH0 KECCAK256 PUSH1 0x5 ADD PUSH1 0x16 PUSH2 0x100 EXP DUP2 SLOAD DUP2 PUSH1 0xFF MUL NOT AND SWAP1 DUP4 ISZERO ISZERO MUL OR SWAP1 SSTORE POP PUSH1 0x3 PUSH1 0x8 PUSH0 DUP7 DUP2 MSTORE PUSH1 0x20 ADD SWAP1 DUP2 MSTORE PUSH1 0x20 ADD PUSH0 KECCAK256 PUSH1 0x5 ADD PUSH1 0x14 PUSH2 0x100 EXP DUP2 SLOAD DUP2 PUSH1 0xFF MUL NOT AND SWAP1 DUP4 PUSH1 0x6 DUP2 GT ISZERO PUSH2 0x7E9 JUMPI PUSH2 0x7E8 PUSH2 0x21F6 JUMP JUMPDEST JUMPDEST MUL OR SWAP1 SSTORE POP PUSH1 0x6 PUSH0 DUP2 SLOAD DUP1 SWAP3 SWAP2 SWAP1 PUSH2 0x800 SWAP1 PUSH2 0x2999 JUMP JUMPDEST SWAP2 SWAP1 POP SSTORE POP POP PUSH2 0x849 JUMP JUMPDEST PUSH1 0x4 PUSH1 0x8 PUSH0 DUP6 DUP2 MSTORE PUSH1 0x20 ADD SWAP1 DUP2 MSTORE PUSH1 0x20 ADD PUSH0 KECCAK256 PUSH1 0x5 ADD PUSH1 0x14 PUSH2 0x100 EXP DUP2 SLOAD DUP2 PUSH1 0xFF MUL NOT AND SWAP1 DUP4 PUSH1 0x6 DUP2 GT ISZERO PUSH2 0x843 JUMPI PUSH2 0x842 PUSH2 0x21F6 JUMP JUMPDEST JUMPDEST MUL OR SWAP1 SSTORE POP JUMPDEST CALLER PUSH20 0xFFFFFFFFFFFFFFFFFFFFFFFFFFFFFFFFFFFFFFFF AND PUSH32 0x23AD0062AD47DA0F27F5C07751751E4B60AFC16BF6FE03A24266A01EC4897931 DUP5 PUSH1 0x4 PUSH1 0x40 MLOAD PUSH2 0x892 SWAP3 SWAP2 SWAP1 PUSH2 0x2A39 JUMP JUMPDEST PUSH1 0x40 MLOAD DUP1 SWAP2 SUB SWAP1 LOG2 PUSH1 0x1 SWAP1 POP SWAP3 SWAP2 POP POP JUMP JUMPDEST PUSH1 0x60 PUSH1 0x9 PUSH0 CALLER PUSH20 0xFFFFFFFFFFFFFFFFFFFFFFFFFFFFFFFFFFFFFFFF AND PUSH20 0xFFFFFFFFFFFFFFFFFFFFFFFFFFFFFFFFFFFFFFFF AND DUP2 MSTORE PUSH1 0x20 ADD SWAP1 DUP2 MSTORE PUSH1 0x20 ADD PUSH0 KECCAK256 DUP1 SLOAD DUP1 PUSH1 0x20 MUL PUSH1 0x20 ADD PUSH1 0x40 MLOAD SWAP1 DUP2 ADD PUSH1 0x40 MSTORE DUP1 SWAP3 SWAP2 SWAP1 DUP2 DUP2 MSTORE PUSH1 0x20 ADD PUSH0 SWAP1 JUMPDEST DUP3 DUP3 LT ISZERO PUSH2 0xAFB JUMPI DUP4 DUP3 SWAP1 PUSH0 MSTORE PUSH1 0x20 PUSH0 KECCAK256 SWAP1 PUSH1 0x6 MUL ADD PUSH1 0x40 MLOAD DUP1 PUSH2 0x120 ADD PUSH1 0x40 MSTORE SWAP1 DUP2 PUSH0 DUP3 ADD SLOAD DUP2 MSTORE PUSH1 0x20 ADD PUSH1 0x1 DUP3 ADD DUP1 SLOAD PUSH2 0x93D SWAP1 PUSH2 0x2AA0 JUMP JUMPDEST DUP1 PUSH1 0x1F ADD PUSH1 0x20 DUP1 SWAP2 DIV MUL PUSH1 0x20 ADD PUSH1 0x40 MLOAD SWAP1 DUP2 ADD PUSH1 0x40 MSTORE DUP1 SWAP3 SWAP2 SWAP1 DUP2 DUP2 MSTORE PUSH1 0x20 ADD DUP3 DUP1 SLOAD PUSH2 0x969 SWAP1 PUSH2 0x2AA0 JUMP JUMPDEST DUP1 ISZERO PUSH2 0x9B4 JUMPI DUP1 PUSH1 0x1F LT PUSH2 0x98B JUMPI PUSH2 0x100 DUP1 DUP4 SLOAD DIV MUL DUP4 MSTORE SWAP2 PUSH1 0x20 ADD SWAP2 PUSH2 0x9B4 JUMP JUMPDEST DUP3 ADD SWAP2 SWAP1 PUSH0 MSTORE PUSH1 0x20 PUSH0 KECCAK256 SWAP1 JUMPDEST DUP2 SLOAD DUP2 MSTORE SWAP1 PUSH1 0x1 ADD SWAP1 PUSH1 0x20 ADD DUP1 DUP4 GT PUSH2 0x997 JUMPI DUP3 SWAP1 SUB PUSH1 0x1F AND DUP3 ADD SWAP2 JUMPDEST POP POP POP POP POP DUP2 MSTORE PUSH1 0x20 ADD PUSH1 0x2 DUP3 ADD SLOAD DUP2 MSTORE PUSH1 0x20 ADD PUSH1 0x3 DUP3 ADD SLOAD DUP2 MSTORE PUSH1 0x20 ADD PUSH1 0x4 DUP3 ADD PUSH0 SWAP1 SLOAD SWAP1 PUSH2 0x100 EXP SWAP1 DIV PUSH20 0xFFFFFFFFFFFFFFFFFFFFFFFFFFFFFFFFFFFFFFFF AND PUSH20 0xFFFFFFFFFFFFFFFFFFFFFFFFFFFFFFFFFFFFFFFF AND PUSH20 0xFFFFFFFFFFFFFFFFFFFFFFFFFFFFFFFFFFFFFFFF AND DUP2 MSTORE PUSH1 0x20 ADD PUSH1 0x5 DUP3 ADD PUSH0 SWAP1 SLOAD SWAP1 PUSH2 0x100 EXP SWAP1 DIV PUSH20 0xFFFFFFFFFFFFFFFFFFFFFFFFFFFFFFFFFFFFFFFF AND PUSH20 0xFFFFFFFFFFFFFFFFFFFFFFFFFFFFFFFFFFFFFFFF AND PUSH20 0xFFFFFFFFFFFFFFFFFFFFFFFFFFFFFFFFFFFFFFFF AND DUP2 MSTORE PUSH1 0x20 ADD PUSH1 0x5 DUP3 ADD PUSH1 0x14 SWAP1 SLOAD SWAP1 PUSH2 0x100 EXP SWAP1 DIV PUSH1 0xFF AND PUSH1 0x6 DUP2 GT ISZERO PUSH2 0xAA0 JUMPI PUSH2 0xA9F PUSH2 0x21F6 JUMP JUMPDEST JUMPDEST PUSH1 0x6 DUP2 GT ISZERO PUSH2 0xAB2 JUMPI PUSH2 0xAB1 PUSH2 0x21F6 JUMP JUMPDEST JUMPDEST DUP2 MSTORE PUSH1 0x20 ADD PUSH1 0x5 DUP3 ADD PUSH1 0x15 SWAP1 SLOAD SWAP1 PUSH2 0x100 EXP SWAP1 DIV PUSH1 0xFF AND ISZERO ISZERO ISZERO ISZERO DUP2 MSTORE PUSH1 0x20 ADD PUSH1 0x5 DUP3 ADD PUSH1 0x16 SWAP1 SLOAD SWAP1 PUSH2 0x100 EXP SWAP1 DIV PUSH1 0xFF AND ISZERO ISZERO ISZERO ISZERO DUP2 MSTORE POP POP DUP2 MSTORE PUSH1 0x20 ADD SWAP1 PUSH1 0x1 ADD SWAP1 PUSH2 0x902 JUMP JUMPDEST POP POP POP POP SWAP1 POP SWAP1 JUMP JUMPDEST PUSH0 PUSH1 0x1 PUSH0 SWAP1 SLOAD SWAP1 PUSH2 0x100 EXP SWAP1 DIV PUSH20 0xFFFFFFFFFFFFFFFFFFFFFFFFFFFFFFFFFFFFFFFF AND PUSH20 0xFFFFFFFFFFFFFFFFFFFFFFFFFFFFFFFFFFFFFFFF AND CALLER PUSH20 0xFFFFFFFFFFFFFFFFFFFFFFFFFFFFFFFFFFFFFFFF AND EQ PUSH2 0xB94 JUMPI PUSH1 0x40 MLOAD PUSH32 0x8C379A000000000000000000000000000000000000000000000000000000000 DUP2 MSTORE PUSH1 0x4 ADD PUSH2 0xB8B SWAP1 PUSH2 0x2B1A JUMP JUMPDEST PUSH1 0x40 MLOAD DUP1 SWAP2 SUB SWAP1 REVERT JUMPDEST PUSH1 0x8 PUSH0 DUP4 DUP2 MSTORE PUSH1 0x20 ADD SWAP1 DUP2 MSTORE PUSH1 0x20 ADD PUSH0 KECCAK256 PUSH1 0x5 ADD PUSH1 0x16 SWAP1 SLOAD SWAP1 PUSH2 0x100 EXP SWAP1 DIV PUSH1 0xFF AND ISZERO PUSH2 0xBF6 JUMPI PUSH1 0x40 MLOAD PUSH32 0x8C379A000000000000000000000000000000000000000000000000000000000 DUP2 MSTORE PUSH1 0x4 ADD PUSH2 0xBED SWAP1 PUSH2 0x2B82 JUMP JUMPDEST PUSH1 0x40 MLOAD DUP1 SWAP2 SUB SWAP1 REVERT JUMPDEST PUSH2 0xC47 PUSH1 0x8 PUSH0 DUP5 DUP2 MSTORE PUSH1 0x20 ADD SWAP1 DUP2 MSTORE PUSH1 0x20 ADD PUSH0 KECCAK256 PUSH1 0x4 ADD PUSH0 SWAP1 SLOAD SWAP1 PUSH2 0x100 EXP SWAP1 DIV PUSH20 0xFFFFFFFFFFFFFFFFFFFFFFFFFFFFFFFFFFFFFFFF AND PUSH1 0x8 PUSH0 DUP6 DUP2 MSTORE PUSH1 0x20 ADD SWAP1 DUP2 MSTORE PUSH1 0x20 ADD PUSH0 KECCAK256 PUSH1 0x2 ADD SLOAD PUSH2 0x1EE5 JUMP JUMPDEST POP PUSH1 0x8 PUSH0 DUP4 DUP2 MSTORE PUSH1 0x20 ADD SWAP1 DUP2 MSTORE PUSH1 0x20 ADD PUSH0 KECCAK256 PUSH1 0x2 ADD SLOAD PUSH1 0x2 PUSH0 DUP3 DUP3 SLOAD PUSH2 0xC6D SWAP2 SWAP1 PUSH2 0x2933 JUMP JUMPDEST SWAP3 POP POP DUP2 SWAP1 SSTORE POP PUSH1 0x5 PUSH1 0x8 PUSH0 DUP5 DUP2 MSTORE PUSH1 0x20 ADD SWAP1 DUP2 MSTORE PUSH1 0x20 ADD PUSH0 KECCAK256 PUSH1 0x5 ADD PUSH1 0x14 PUSH2 0x100 EXP DUP2 SLOAD DUP2 PUSH1 0xFF MUL NOT AND SWAP1 DUP4 PUSH1 0x6 DUP2 GT ISZERO PUSH2 0xCAC JUMPI PUSH2 0xCAB PUSH2 0x21F6 JUMP JUMPDEST JUMPDEST MUL OR SWAP1 SSTORE POP PUSH1 0x7 PUSH0 DUP2 SLOAD DUP1 SWAP3 SWAP2 SWAP1 PUSH2 0xCC3 SWAP1 PUSH2 0x2999 JUMP JUMPDEST SWAP2 SWAP1 POP SSTORE POP CALLER PUSH20 0xFFFFFFFFFFFFFFFFFFFFFFFFFFFFFFFFFFFFFFFF AND PUSH32 0x23AD0062AD47DA0F27F5C07751751E4B60AFC16BF6FE03A24266A01EC4897931 DUP4 PUSH1 0x5 PUSH1 0x40 MLOAD PUSH2 0xD11 SWAP3 SWAP2 SWAP1 PUSH2 0x2BEA JUMP JUMPDEST PUSH1 0x40 MLOAD DUP1 SWAP2 SUB SWAP1 LOG2 PUSH1 0x1 SWAP1 POP SWAP2 SWAP1 POP JUMP JUMPDEST PUSH1 0x5 SLOAD DUP2 JUMP JUMPDEST PUSH2 0xD30 PUSH2 0x1F99 JUMP JUMPDEST PUSH1 0x8 PUSH0 DUP4 DUP2 MSTORE PUSH1 0x20 ADD SWAP1 DUP2 MSTORE PUSH1 0x20 ADD PUSH0 KECCAK256 PUSH1 0x40 MLOAD DUP1 PUSH2 0x120 ADD PUSH1 0x40 MSTORE SWAP1 DUP2 PUSH0 DUP3 ADD SLOAD DUP2 MSTORE PUSH1 0x20 ADD PUSH1 0x1 DUP3 ADD DUP1 SLOAD PUSH2 0xD66 SWAP1 PUSH2 0x2AA0 JUMP JUMPDEST DUP1 PUSH1 0x1F ADD PUSH1 0x20 DUP1 SWAP2 DIV MUL PUSH1 0x20 ADD PUSH1 0x40 MLOAD SWAP1 DUP2 ADD PUSH1 0x40 MSTORE DUP1 SWAP3 SWAP2 SWAP1 DUP2 DUP2 MSTORE PUSH1 0x20 ADD DUP3 DUP1 SLOAD PUSH2 0xD92 SWAP1 PUSH2 0x2AA0 JUMP JUMPDEST DUP1 ISZERO PUSH2 0xDDD JUMPI DUP1 PUSH1 0x1F LT PUSH2 0xDB4 JUMPI PUSH2 0x100 DUP1 DUP4 SLOAD DIV MUL DUP4 MSTORE SWAP2 PUSH1 0x20 ADD SWAP2 PUSH2 0xDDD JUMP JUMPDEST DUP3 ADD SWAP2 SWAP1 PUSH0 MSTORE PUSH1 0x20 PUSH0 KECCAK256 SWAP1 JUMPDEST DUP2 SLOAD DUP2 MSTORE SWAP1 PUSH1 0x1 ADD SWAP1 PUSH1 0x20 ADD DUP1 DUP4 GT PUSH2 0xDC0 JUMPI DUP3 SWAP1 SUB PUSH1 0x1F AND DUP3 ADD SWAP2 JUMPDEST POP POP POP POP POP DUP2 MSTORE PUSH1 0x20 ADD PUSH1 0x2 DUP3 ADD SLOAD DUP2 MSTORE PUSH1 0x20 ADD PUSH1 0x3 DUP3 ADD SLOAD DUP2 MSTORE PUSH1 0x20 ADD PUSH1 0x4 DUP3 ADD PUSH0 SWAP1 SLOAD SWAP1 PUSH2 0x100 EXP SWAP1 DIV PUSH20 0xFFFFFFFFFFFFFFFFFFFFFFFFFFFFFFFFFFFFFFFF AND PUSH20 0xFFFFFFFFFFFFFFFFFFFFFFFFFFFFFFFFFFFFFFFF AND PUSH20 0xFFFFFFFFFFFFFFFFFFFFFFFFFFFFFFFFFFFFFFFF AND DUP2 MSTORE PUSH1 0x20 ADD PUSH1 0x5 DUP3 ADD PUSH0 SWAP1 SLOAD SWAP1 PUSH2 0x100 EXP SWAP1 DIV PUSH20 0xFFFFFFFFFFFFFFFFFFFFFFFFFFFFFFFFFFFFFFFF AND PUSH20 0xFFFFFFFFFFFFFFFFFFFFFFFFFFFFFFFFFFFFFFFF AND PUSH20 0xFFFFFFFFFFFFFFFFFFFFFFFFFFFFFFFFFFFFFFFF AND DUP2 MSTORE PUSH1 0x20 ADD PUSH1 0x5 DUP3 ADD PUSH1 0x14 SWAP1 SLOAD SWAP1 PUSH2 0x100 EXP SWAP1 DIV PUSH1 0xFF AND PUSH1 0x6 DUP2 GT ISZERO PUSH2 0xEC9 JUMPI PUSH2 0xEC8 PUSH2 0x21F6 JUMP JUMPDEST JUMPDEST PUSH1 0x6 DUP2 GT ISZERO PUSH2 0xEDB JUMPI PUSH2 0xEDA PUSH2 0x21F6 JUMP JUMPDEST JUMPDEST DUP2 MSTORE PUSH1 0x20 ADD PUSH1 0x5 DUP3 ADD PUSH1 0x15 SWAP1 SLOAD SWAP1 PUSH2 0x100 EXP SWAP1 DIV PUSH1 0xFF AND ISZERO ISZERO ISZERO ISZERO DUP2 MSTORE PUSH1 0x20 ADD PUSH1 0x5 DUP3 ADD PUSH1 0x16 SWAP1 SLOAD SWAP1 PUSH2 0x100 EXP SWAP1 DIV PUSH1 0xFF AND ISZERO ISZERO ISZERO ISZERO DUP2 MSTORE POP POP SWAP1 POP SWAP2 SWAP1 POP JUMP JUMPDEST PUSH1 0xC PUSH1 0x20 MSTORE DUP1 PUSH0 MSTORE PUSH1 0x40 PUSH0 KECCAK256 PUSH0 SWAP2 POP SLOAD SWAP1 PUSH2 0x100 EXP SWAP1 DIV PUSH1 0xFF AND DUP2 JUMP JUMPDEST PUSH0 DUP1 DUP4 DUP4 SWAP1 POP GT PUSH2 0xF7F JUMPI PUSH1 0x40 MLOAD PUSH32 0x8C379A000000000000000000000000000000000000000000000000000000000 DUP2 MSTORE PUSH1 0x4 ADD PUSH2 0xF76 SWAP1 PUSH2 0x2C6E JUMP JUMPDEST PUSH1 0x40 MLOAD DUP1 SWAP2 SUB SWAP1 REVERT JUMPDEST PUSH0 CALLVALUE GT PUSH2 0xFC1 JUMPI PUSH1 0x40 MLOAD PUSH32 0x8C379A000000000000000000000000000000000000000000000000000000000 DUP2 MSTORE PUSH1 0x4 ADD PUSH2 0xFB8 SWAP1 PUSH2 0x2CD6 JUMP JUMPDEST PUSH1 0x40 MLOAD DUP1 SWAP2 SUB SWAP1 REVERT JUMPDEST PUSH0 PUSH1 0x5 PUSH0 DUP2 SLOAD DUP1 SWAP3 SWAP2 SWAP1 PUSH2 0xFD4 SWAP1 PUSH2 0x2999 JUMP JUMPDEST SWAP2 SWAP1 POP SSTORE SWAP1 POP PUSH0 PUSH1 0x8 PUSH0 DUP4 DUP2 MSTORE PUSH1 0x20 ADD SWAP1 DUP2 MSTORE PUSH1 0x20 ADD PUSH0 KECCAK256 SWAP1 POP DUP2 DUP2 PUSH0 ADD DUP2 SWAP1 SSTORE POP DUP5 DUP5 DUP3 PUSH1 0x1 ADD SWAP2 DUP3 PUSH2 0x1009 SWAP3 SWAP2 SWAP1 PUSH2 0x2EC8 JUMP JUMPDEST POP CALLVALUE DUP2 PUSH1 0x2 ADD DUP2 SWAP1 SSTORE POP TIMESTAMP DUP2 PUSH1 0x3 ADD DUP2 SWAP1 SSTORE POP CALLER DUP2 PUSH1 0x4 ADD PUSH0 PUSH2 0x100 EXP DUP2 SLOAD DUP2 PUSH20 0xFFFFFFFFFFFFFFFFFFFFFFFFFFFFFFFFFFFFFFFF MUL NOT AND SWAP1 DUP4 PUSH20 0xFFFFFFFFFFFFFFFFFFFFFFFFFFFFFFFFFFFFFFFF AND MUL OR SWAP1 SSTORE POP PUSH0 DUP2 PUSH1 0x5 ADD PUSH1 0x14 PUSH2 0x100 EXP DUP2 SLOAD DUP2 PUSH1 0xFF MUL NOT AND SWAP1 DUP4 PUSH1 0x6 DUP2 GT ISZERO PUSH2 0x1085 JUMPI PUSH2 0x1084 PUSH2 0x21F6 JUMP JUMPDEST JUMPDEST MUL OR SWAP1 SSTORE POP PUSH1 0x9 PUSH0 CALLER PUSH20 0xFFFFFFFFFFFFFFFFFFFFFFFFFFFFFFFFFFFFFFFF AND PUSH20 0xFFFFFFFFFFFFFFFFFFFFFFFFFFFFFFFFFFFFFFFF AND DUP2 MSTORE PUSH1 0x20 ADD SWAP1 DUP2 MSTORE PUSH1 0x20 ADD PUSH0 KECCAK256 DUP2 SWAP1 DUP1 PUSH1 0x1 DUP2 SLOAD ADD DUP1 DUP3 SSTORE DUP1 SWAP2 POP POP PUSH1 0x1 SWAP1 SUB SWAP1 PUSH0 MSTORE PUSH1 0x20 PUSH0 KECCAK256 SWAP1 PUSH1 0x6 MUL ADD PUSH0 SWAP1 SWAP2 SWAP1 SWAP2 SWAP1 SWAP2 POP PUSH0 DUP3 ADD SLOAD DUP2 PUSH0 ADD SSTORE PUSH1 0x1 DUP3 ADD DUP2 PUSH1 0x1 ADD SWAP1 DUP2 PUSH2 0x110A SWAP2 SWAP1 PUSH2 0x2FAA JUMP JUMPDEST POP PUSH1 0x2 DUP3 ADD SLOAD DUP2 PUSH1 0x2 ADD SSTORE PUSH1 0x3 DUP3 ADD SLOAD DUP2 PUSH1 0x3 ADD SSTORE PUSH1 0x4 DUP3 ADD PUSH0 SWAP1 SLOAD SWAP1 PUSH2 0x100 EXP SWAP1 DIV PUSH20 0xFFFFFFFFFFFFFFFFFFFFFFFFFFFFFFFFFFFFFFFF AND DUP2 PUSH1 0x4 ADD PUSH0 PUSH2 0x100 EXP DUP2 SLOAD DUP2 PUSH20 0xFFFFFFFFFFFFFFFFFFFFFFFFFFFFFFFFFFFFFFFF MUL NOT AND SWAP1 DUP4 PUSH20 0xFFFFFFFFFFFFFFFFFFFFFFFFFFFFFFFFFFFFFFFF AND MUL OR SWAP1 SSTORE POP PUSH1 0x5 DUP3 ADD PUSH0 SWAP1 SLOAD SWAP1 PUSH2 0x100 EXP SWAP1 DIV PUSH20 0xFFFFFFFFFFFFFFFFFFFFFFFFFFFFFFFFFFFFFFFF AND DUP2 PUSH1 0x5 ADD PUSH0 PUSH2 0x100 EXP DUP2 SLOAD DUP2 PUSH20 0xFFFFFFFFFFFFFFFFFFFFFFFFFFFFFFFFFFFFFFFF MUL NOT AND SWAP1 DUP4 PUSH20 0xFFFFFFFFFFFFFFFFFFFFFFFFFFFFFFFFFFFFFFFF AND MUL OR SWAP1 SSTORE POP PUSH1 0x5 DUP3 ADD PUSH1 0x14 SWAP1 SLOAD SWAP1 PUSH2 0x100 EXP SWAP1 DIV PUSH1 0xFF AND DUP2 PUSH1 0x5 ADD PUSH1 0x14 PUSH2 0x100 EXP DUP2 SLOAD DUP2 PUSH1 0xFF MUL NOT AND SWAP1 DUP4 PUSH1 0x6 DUP2 GT ISZERO PUSH2 0x1221 JUMPI PUSH2 0x1220 PUSH2 0x21F6 JUMP JUMPDEST JUMPDEST MUL OR SWAP1 SSTORE POP PUSH1 0x5 DUP3 ADD PUSH1 0x15 SWAP1 SLOAD SWAP1 PUSH2 0x100 EXP SWAP1 DIV PUSH1 0xFF AND DUP2 PUSH1 0x5 ADD PUSH1 0x15 PUSH2 0x100 EXP DUP2 SLOAD DUP2 PUSH1 0xFF MUL NOT AND SWAP1 DUP4 ISZERO ISZERO MUL OR SWAP1 SSTORE POP PUSH1 0x5 DUP3 ADD PUSH1 0x16 SWAP1 SLOAD SWAP1 PUSH2 0x100 EXP SWAP1 DIV PUSH1 0xFF AND DUP2 PUSH1 0x5 ADD PUSH1 0x16 PUSH2 0x100 EXP DUP2 SLOAD DUP2 PUSH1 0xFF MUL NOT AND SWAP1 DUP4 ISZERO ISZERO MUL OR SWAP1 SSTORE POP POP POP CALLER PUSH1 0xB PUSH0 DUP5 DUP2 MSTORE PUSH1 0x20 ADD SWAP1 DUP2 MSTORE PUSH1 0x20 ADD PUSH0 KECCAK256 PUSH0 PUSH2 0x100 EXP DUP2 SLOAD DUP2 PUSH20 0xFFFFFFFFFFFFFFFFFFFFFFFFFFFFFFFFFFFFFFFF MUL NOT AND SWAP1 DUP4 PUSH20 0xFFFFFFFFFFFFFFFFFFFFFFFFFFFFFFFFFFFFFFFF AND MUL OR SWAP1 SSTORE POP PUSH1 0x1 PUSH1 0xC PUSH0 DUP5 DUP2 MSTORE PUSH1 0x20 ADD SWAP1 DUP2 MSTORE PUSH1 0x20 ADD PUSH0 KECCAK256 PUSH0 PUSH2 0x100 EXP DUP2 SLOAD DUP2 PUSH1 0xFF MUL NOT AND SWAP1 DUP4 PUSH1 0x1 DUP2 GT ISZERO PUSH2 0x1305 JUMPI PUSH2 0x1304 PUSH2 0x21F6 JUMP JUMPDEST JUMPDEST MUL OR SWAP1 SSTORE POP CALLVALUE PUSH1 0x2 PUSH0 DUP3 DUP3 SLOAD PUSH2 0x131B SWAP2 SWAP1 PUSH2 0x2966 JUMP JUMPDEST SWAP3 POP POP DUP2 SWAP1 SSTORE POP CALLER PUSH20 0xFFFFFFFFFFFFFFFFFFFFFFFFFFFFFFFFFFFFFFFF AND PUSH32 0x23AD0062AD47DA0F27F5C07751751E4B60AFC16BF6FE03A24266A01EC4897931 DUP4 PUSH0 PUSH1 0x40 MLOAD PUSH2 0x136A SWAP3 SWAP2 SWAP1 PUSH2 0x30D9 JUMP JUMPDEST PUSH1 0x40 MLOAD DUP1 SWAP2 SUB SWAP1 LOG2 PUSH1 0x1 SWAP3 POP POP POP SWAP3 SWAP2 POP POP JUMP JUMPDEST PUSH1 0x6 SLOAD DUP2 JUMP JUMPDEST PUSH1 0x60 PUSH1 0x5 SLOAD PUSH8 0xFFFFFFFFFFFFFFFF DUP2 GT ISZERO PUSH2 0x13A2 JUMPI PUSH2 0x13A1 PUSH2 0x2CFE JUMP JUMPDEST JUMPDEST PUSH1 0x40 MLOAD SWAP1 DUP1 DUP3 MSTORE DUP1 PUSH1 0x20 MUL PUSH1 0x20 ADD DUP3 ADD PUSH1 0x40 MSTORE DUP1 ISZERO PUSH2 0x13DB JUMPI DUP2 PUSH1 0x20 ADD JUMPDEST PUSH2 0x13C8 PUSH2 0x1F99 JUMP JUMPDEST DUP2 MSTORE PUSH1 0x20 ADD SWAP1 PUSH1 0x1 SWAP1 SUB SWAP1 DUP2 PUSH2 0x13C0 JUMPI SWAP1 POP JUMPDEST POP SWAP1 POP PUSH0 JUMPDEST PUSH1 0x5 SLOAD DUP2 LT ISZERO PUSH2 0x15FA JUMPI PUSH1 0x8 PUSH0 DUP3 DUP2 MSTORE PUSH1 0x20 ADD SWAP1 DUP2 MSTORE PUSH1 0x20 ADD PUSH0 KECCAK256 PUSH1 0x40 MLOAD DUP1 PUSH2 0x120 ADD PUSH1 0x40 MSTORE SWAP1 DUP2 PUSH0 DUP3 ADD SLOAD DUP2 MSTORE PUSH1 0x20 ADD PUSH1 0x1 DUP3 ADD DUP1 SLOAD PUSH2 0x1420 SWAP1 PUSH2 0x2AA0 JUMP JUMPDEST DUP1 PUSH1 0x1F ADD PUSH1 0x20 DUP1 SWAP2 DIV MUL PUSH1 0x20 ADD PUSH1 0x40 MLOAD SWAP1 DUP2 ADD PUSH1 0x40 MSTORE DUP1 SWAP3 SWAP2 SWAP1 DUP2 DUP2 MSTORE PUSH1 0x20 ADD DUP3 DUP1 SLOAD PUSH2 0x144C SWAP1 PUSH2 0x2AA0 JUMP JUMPDEST DUP1 ISZERO PUSH2 0x1497 JUMPI DUP1 PUSH1 0x1F LT PUSH2 0x146E JUMPI PUSH2 0x100 DUP1 DUP4 SLOAD DIV MUL DUP4 MSTORE SWAP2 PUSH1 0x20 ADD SWAP2 PUSH2 0x1497 JUMP JUMPDEST DUP3 ADD SWAP2 SWAP1 PUSH0 MSTORE PUSH1 0x20 PUSH0 KECCAK256 SWAP1 JUMPDEST DUP2 SLOAD DUP2 MSTORE SWAP1 PUSH1 0x1 ADD SWAP1 PUSH1 0x20 ADD DUP1 DUP4 GT PUSH2 0x147A JUMPI DUP3 SWAP1 SUB PUSH1 0x1F AND DUP3 ADD SWAP2 JUMPDEST POP POP POP POP POP DUP2 MSTORE PUSH1 0x20 ADD PUSH1 0x2 DUP3 ADD SLOAD DUP2 MSTORE PUSH1 0x20 ADD PUSH1 0x3 DUP3 ADD SLOAD DUP2 MSTORE PUSH1 0x20 ADD PUSH1 0x4 DUP3 ADD PUSH0 SWAP1 SLOAD SWAP1 PUSH2 0x100 EXP SWAP1 DIV PUSH20 0xFFFFFFFFFFFFFFFFFFFFFFFFFFFFFFFFFFFFFFFF AND PUSH20 0xFFFFFFFFFFFFFFFFFFFFFFFFFFFFFFFFFFFFFFFF AND PUSH20 0xFFFFFFFFFFFFFFFFFFFFFFFFFFFFFFFFFFFFFFFF AND DUP2 MSTORE PUSH1 0x20 ADD PUSH1 0x5 DUP3 ADD PUSH0 SWAP1 SLOAD SWAP1 PUSH2 0x100 EXP SWAP1 DIV PUSH20 0xFFFFFFFFFFFFFFFFFFFFFFFFFFFFFFFFFFFFFFFF AND PUSH20 0xFFFFFFFFFFFFFFFFFFFFFFFFFFFFFFFFFFFFFFFF AND PUSH20 0xFFFFFFFFFFFFFFFFFFFFFFFFFFFFFFFFFFFFFFFF AND DUP2 MSTORE PUSH1 0x20 ADD PUSH1 0x5 DUP3 ADD PUSH1 0x14 SWAP1 SLOAD SWAP1 PUSH2 0x100 EXP SWAP1 DIV PUSH1 0xFF AND PUSH1 0x6 DUP2 GT ISZERO PUSH2 0x1583 JUMPI PUSH2 0x1582 PUSH2 0x21F6 JUMP JUMPDEST JUMPDEST PUSH1 0x6 DUP2 GT ISZERO PUSH2 0x1595 JUMPI PUSH2 0x1594 PUSH2 0x21F6 JUMP JUMPDEST JUMPDEST DUP2 MSTORE PUSH1 0x20 ADD PUSH1 0x5 DUP3 ADD PUSH1 0x15 SWAP1 SLOAD SWAP1 PUSH2 0x100 EXP SWAP1 DIV PUSH1 0xFF AND ISZERO ISZERO ISZERO ISZERO DUP2 MSTORE PUSH1 0x20 ADD PUSH1 0x5 DUP3 ADD PUSH1 0x16 SWAP1 SLOAD SWAP1 PUSH2 0x100 EXP SWAP1 DIV PUSH1 0xFF AND ISZERO ISZERO ISZERO ISZERO DUP2 MSTORE POP POP DUP3 DUP3 DUP2 MLOAD DUP2 LT PUSH2 0x15E2 JUMPI PUSH2 0x15E1 PUSH2 0x3113 JUMP JUMPDEST JUMPDEST PUSH1 0x20 MUL PUSH1 0x20 ADD ADD DUP2 SWAP1 MSTORE POP DUP1 DUP1 PUSH1 0x1 ADD SWAP2 POP POP PUSH2 0x13E0 JUMP JUMPDEST POP SWAP1 JUMP JUMPDEST PUSH1 0x4 SLOAD DUP2 JUMP JUMPDEST PUSH1 0x3 SLOAD DUP2 JUMP JUMPDEST PUSH1 0x1 PUSH0 SWAP1 SLOAD SWAP1 PUSH2 0x100 EXP SWAP1 DIV PUSH20 0xFFFFFFFFFFFFFFFFFFFFFFFFFFFFFFFFFFFFFFFF AND DUP2 JUMP JUMPDEST PUSH1 0xB PUSH1 0x20 MSTORE DUP1 PUSH0 MSTORE PUSH1 0x40 PUSH0 KECCAK256 PUSH0 SWAP2 POP SLOAD SWAP1 PUSH2 0x100 EXP SWAP1 DIV PUSH20 0xFFFFFFFFFFFFFFFFFFFFFFFFFFFFFFFFFFFFFFFF AND DUP2 JUMP JUMPDEST PUSH1 0xA PUSH1 0x20 MSTORE DUP2 PUSH0 MSTORE PUSH1 0x40 PUSH0 KECCAK256 PUSH1 0x20 MSTORE DUP1 PUSH0 MSTORE PUSH1 0x40 PUSH0 KECCAK256 PUSH0 SWAP2 POP SWAP2 POP SWAP1 SLOAD SWAP1 PUSH2 0x100 EXP SWAP1 DIV PUSH1 0xFF AND DUP2 JUMP JUMPDEST PUSH0 PUSH1 0x8 PUSH0 DUP4 DUP2 MSTORE PUSH1 0x20 ADD SWAP1 DUP2 MSTORE PUSH1 0x20 ADD PUSH0 KECCAK256 PUSH1 0x5 ADD PUSH0 SWAP1 SLOAD SWAP1 PUSH2 0x100 EXP SWAP1 DIV PUSH20 0xFFFFFFFFFFFFFFFFFFFFFFFFFFFFFFFFFFFFFFFF AND PUSH20 0xFFFFFFFFFFFFFFFFFFFFFFFFFFFFFFFFFFFFFFFF AND CALLER PUSH20 0xFFFFFFFFFFFFFFFFFFFFFFFFFFFFFFFFFFFFFFFF AND EQ PUSH2 0x172B JUMPI PUSH1 0x40 MLOAD PUSH32 0x8C379A000000000000000000000000000000000000000000000000000000000 DUP2 MSTORE PUSH1 0x4 ADD PUSH2 0x1722 SWAP1 PUSH2 0x318A JUMP JUMPDEST PUSH1 0x40 MLOAD DUP1 SWAP2 SUB SWAP1 REVERT JUMPDEST PUSH1 0x8 PUSH0 DUP4 DUP2 MSTORE PUSH1 0x20 ADD SWAP1 DUP2 MSTORE PUSH1 0x20 ADD PUSH0 KECCAK256 PUSH1 0x5 ADD PUSH1 0x15 SWAP1 SLOAD SWAP1 PUSH2 0x100 EXP SWAP1 DIV PUSH1 0xFF AND ISZERO PUSH2 0x178D JUMPI PUSH1 0x40 MLOAD PUSH32 0x8C379A000000000000000000000000000000000000000000000000000000000 DUP2 MSTORE PUSH1 0x4 ADD PUSH2 0x1784 SWAP1 PUSH2 0x2B82 JUMP JUMPDEST PUSH1 0x40 MLOAD DUP1 SWAP2 SUB SWAP1 REVERT JUMPDEST PUSH1 0x8 PUSH0 DUP4 DUP2 MSTORE PUSH1 0x20 ADD SWAP1 DUP2 MSTORE PUSH1 0x20 ADD PUSH0 KECCAK256 PUSH1 0x5 ADD PUSH1 0x16 SWAP1 SLOAD SWAP1 PUSH2 0x100 EXP SWAP1 DIV PUSH1 0xFF AND ISZERO PUSH2 0x17EF JUMPI PUSH1 0x40 MLOAD PUSH32 0x8C379A000000000000000000000000000000000000000000000000000000000 DUP2 MSTORE PUSH1 0x4 ADD PUSH2 0x17E6 SWAP1 PUSH2 0x31F2 JUMP JUMPDEST PUSH1 0x40 MLOAD DUP1 SWAP2 SUB SWAP1 REVERT JUMPDEST PUSH1 0x1 PUSH1 0x8 PUSH0 DUP5 DUP2 MSTORE PUSH1 0x20 ADD SWAP1 DUP2 MSTORE PUSH1 0x20 ADD PUSH0 KECCAK256 PUSH1 0x5 ADD PUSH1 0x15 PUSH2 0x100 EXP DUP2 SLOAD DUP2 PUSH1 0xFF MUL NOT AND SWAP1 DUP4 ISZERO ISZERO MUL OR SWAP1 SSTORE POP PUSH1 0x2 PUSH1 0x8 PUSH0 DUP5 DUP2 MSTORE PUSH1 0x20 ADD SWAP1 DUP2 MSTORE PUSH1 0x20 ADD PUSH0 KECCAK256 PUSH1 0x5 ADD PUSH1 0x14 PUSH2 0x100 EXP DUP2 SLOAD DUP2 PUSH1 0xFF MUL NOT AND SWAP1 DUP4 PUSH1 0x6 DUP2 GT ISZERO PUSH2 0x1854 JUMPI PUSH2 0x1853 PUSH2 0x21F6 JUMP JUMPDEST JUMPDEST MUL OR SWAP1 SSTORE POP CALLER PUSH20 0xFFFFFFFFFFFFFFFFFFFFFFFFFFFFFFFFFFFFFFFF AND PUSH32 0x23AD0062AD47DA0F27F5C07751751E4B60AFC16BF6FE03A24266A01EC4897931 DUP4 PUSH1 0x2 PUSH1 0x40 MLOAD PUSH2 0x18A2 SWAP3 SWAP2 SWAP1 PUSH2 0x325A JUMP JUMPDEST PUSH1 0x40 MLOAD DUP1 SWAP2 SUB SWAP1 LOG2 PUSH1 0x1 SWAP1 POP SWAP2 SWAP1 POP JUMP JUMPDEST PUSH0 PUSH1 0xB PUSH0 DUP5 DUP2 MSTORE PUSH1 0x20 ADD SWAP1 DUP2 MSTORE PUSH1 0x20 ADD PUSH0 KECCAK256 PUSH0 SWAP1 SLOAD SWAP1 PUSH2 0x100 EXP SWAP1 DIV PUSH20 0xFFFFFFFFFFFFFFFFFFFFFFFFFFFFFFFFFFFFFFFF AND PUSH20 0xFFFFFFFFFFFFFFFFFFFFFFFFFFFFFFFFFFFFFFFF AND CALLER PUSH20 0xFFFFFFFFFFFFFFFFFFFFFFFFFFFFFFFFFFFFFFFF AND EQ PUSH2 0x1952 JUMPI PUSH1 0x40 MLOAD PUSH32 0x8C379A000000000000000000000000000000000000000000000000000000000 DUP2 MSTORE PUSH1 0x4 ADD PUSH2 0x1949 SWAP1 PUSH2 0x2754 JUMP JUMPDEST PUSH1 0x40 MLOAD DUP1 SWAP2 SUB SWAP1 REVERT JUMPDEST PUSH1 0x1 DUP1 DUP2 GT ISZERO PUSH2 0x1965 JUMPI PUSH2 0x1964 PUSH2 0x21F6 JUMP JUMPDEST JUMPDEST PUSH1 0xC PUSH0 DUP6 DUP2 MSTORE PUSH1 0x20 ADD SWAP1 DUP2 MSTORE PUSH1 0x20 ADD PUSH0 KECCAK256 PUSH0 SWAP1 SLOAD SWAP1 PUSH2 0x100 EXP SWAP1 DIV PUSH1 0xFF AND PUSH1 0x1 DUP2 GT ISZERO PUSH2 0x1995 JUMPI PUSH2 0x1994 PUSH2 0x21F6 JUMP JUMPDEST JUMPDEST EQ PUSH2 0x19D5 JUMPI PUSH1 0x40 MLOAD PUSH32 0x8C379A000000000000000000000000000000000000000000000000000000000 DUP2 MSTORE PUSH1 0x4 ADD PUSH2 0x19CC SWAP1 PUSH2 0x32DE JUMP JUMPDEST PUSH1 0x40 MLOAD DUP1 SWAP2 SUB SWAP1 REVERT JUMPDEST PUSH1 0xA PUSH0 DUP4 PUSH20 0xFFFFFFFFFFFFFFFFFFFFFFFFFFFFFFFFFFFFFFFF AND PUSH20 0xFFFFFFFFFFFFFFFFFFFFFFFFFFFFFFFFFFFFFFFF AND DUP2 MSTORE PUSH1 0x20 ADD SWAP1 DUP2 MSTORE PUSH1 0x20 ADD PUSH0 KECCAK256 PUSH0 DUP5 DUP2 MSTORE PUSH1 0x20 ADD SWAP1 DUP2 MSTORE PUSH1 0x20 ADD PUSH0 KECCAK256 PUSH0 SWAP1 SLOAD SWAP1 PUSH2 0x100 EXP SWAP1 DIV PUSH1 0xFF AND PUSH2 0x1A6D JUMPI PUSH1 0x40 MLOAD PUSH32 0x8C379A000000000000000000000000000000000000000000000000000000000 DUP2 MSTORE PUSH1 0x4 ADD PUSH2 0x1A64 SWAP1 PUSH2 0x3346 JUMP JUMPDEST PUSH1 0x40 MLOAD DUP1 SWAP2 SUB SWAP1 REVERT JUMPDEST PUSH0 PUSH1 0x1 DUP2 GT ISZERO PUSH2 0x1A80 JUMPI PUSH2 0x1A7F PUSH2 0x21F6 JUMP JUMPDEST JUMPDEST PUSH1 0xC PUSH0 DUP6 DUP2 MSTORE PUSH1 0x20 ADD SWAP1 DUP2 MSTORE PUSH1 0x20 ADD PUSH0 KECCAK256 PUSH0 SWAP1 SLOAD SWAP1 PUSH2 0x100 EXP SWAP1 DIV PUSH1 0xFF AND PUSH1 0x1 DUP2 GT ISZERO PUSH2 0x1AB0 JUMPI PUSH2 0x1AAF PUSH2 0x21F6 JUMP JUMPDEST JUMPDEST POP POP PUSH1 0x1 PUSH1 0x8 PUSH0 DUP6 DUP2 MSTORE PUSH1 0x20 ADD SWAP1 DUP2 MSTORE PUSH1 0x20 ADD PUSH0 KECCAK256 PUSH1 0x5 ADD PUSH1 0x14 PUSH2 0x100 EXP DUP2 SLOAD DUP2 PUSH1 0xFF MUL NOT AND SWAP1 DUP4 PUSH1 0x6 DUP2 GT ISZERO PUSH2 0x1AEA JUMPI PUSH2 0x1AE9 PUSH2 0x21F6 JUMP JUMPDEST JUMPDEST MUL OR SWAP1 SSTORE POP DUP2 PUSH1 0x8 PUSH0 DUP6 DUP2 MSTORE PUSH1 0x20 ADD SWAP1 DUP2 MSTORE PUSH1 0x20 ADD PUSH0 KECCAK256 PUSH1 0x5 ADD PUSH0 PUSH2 0x100 EXP DUP2 SLOAD DUP2 PUSH20 0xFFFFFFFFFFFFFFFFFFFFFFFFFFFFFFFFFFFFFFFF MUL NOT AND SWAP1 DUP4 PUSH20 0xFFFFFFFFFFFFFFFFFFFFFFFFFFFFFFFFFFFFFFFF AND MUL OR SWAP1 SSTORE POP CALLER PUSH20 0xFFFFFFFFFFFFFFFFFFFFFFFFFFFFFFFFFFFFFFFF AND PUSH32 0x23AD0062AD47DA0F27F5C07751751E4B60AFC16BF6FE03A24266A01EC4897931 DUP5 PUSH1 0x1 PUSH1 0x40 MLOAD PUSH2 0x1B8A SWAP3 SWAP2 SWAP1 PUSH2 0x33AE JUMP JUMPDEST PUSH1 0x40 MLOAD DUP1 SWAP2 SUB SWAP1 LOG2 PUSH1 0x1 SWAP1 POP SWAP3 SWAP2 POP POP JUMP JUMPDEST PUSH1 0x2 SLOAD DUP2 JUMP JUMPDEST PUSH1 0x7 SLOAD DUP2 JUMP JUMPDEST PUSH0 PUSH1 0xB PUSH0 DUP4 DUP2 MSTORE PUSH1 0x20 ADD SWAP1 DUP2 MSTORE PUSH1 0x20 ADD PUSH0 KECCAK256 PUSH0 SWAP1 SLOAD SWAP1 PUSH2 0x100 EXP SWAP1 DIV PUSH20 0xFFFFFFFFFFFFFFFFFFFFFFFFFFFFFFFFFFFFFFFF AND PUSH20 0xFFFFFFFFFFFFFFFFFFFFFFFFFFFFFFFFFFFFFFFF AND CALLER PUSH20 0xFFFFFFFFFFFFFFFFFFFFFFFFFFFFFFFFFFFFFFFF AND SUB PUSH2 0x1C47 JUMPI PUSH1 0x40 MLOAD PUSH32 0x8C379A000000000000000000000000000000000000000000000000000000000 DUP2 MSTORE PUSH1 0x4 ADD PUSH2 0x1C3E SWAP1 PUSH2 0x3432 JUMP JUMPDEST PUSH1 0x40 MLOAD DUP1 SWAP2 SUB SWAP1 REVERT JUMPDEST PUSH1 0x1 DUP1 DUP2 GT ISZERO PUSH2 0x1C5A JUMPI PUSH2 0x1C59 PUSH2 0x21F6 JUMP JUMPDEST JUMPDEST PUSH1 0xC PUSH0 DUP5 DUP2 MSTORE PUSH1 0x20 ADD SWAP1 DUP2 MSTORE PUSH1 0x20 ADD PUSH0 KECCAK256 PUSH0 SWAP1 SLOAD SWAP1 PUSH2 0x100 EXP SWAP1 DIV PUSH1 0xFF AND PUSH1 0x1 DUP2 GT ISZERO PUSH2 0x1C8A JUMPI PUSH2 0x1C89 PUSH2 0x21F6 JUMP JUMPDEST JUMPDEST EQ PUSH2 0x1CCA JUMPI PUSH1 0x40 MLOAD PUSH32 0x8C379A000000000000000000000000000000000000000000000000000000000 DUP2 MSTORE PUSH1 0x4 ADD PUSH2 0x1CC1 SWAP1 PUSH2 0x32DE JUMP JUMPDEST PUSH1 0x40 MLOAD DUP1 SWAP2 SUB SWAP1 REVERT JUMPDEST PUSH1 0x1 PUSH1 0xA PUSH0 CALLER PUSH20 0xFFFFFFFFFFFFFFFFFFFFFFFFFFFFFFFFFFFFFFFF AND PUSH20 0xFFFFFFFFFFFFFFFFFFFFFFFFFFFFFFFFFFFFFFFF AND DUP2 MSTORE PUSH1 0x20 ADD SWAP1 DUP2 MSTORE PUSH1 0x20 ADD PUSH0 KECCAK256 PUSH0 DUP5 DUP2 MSTORE PUSH1 0x20 ADD SWAP1 DUP2 MSTORE PUSH1 0x20 ADD PUSH0 KECCAK256 PUSH0 PUSH2 0x100 EXP DUP2 SLOAD DUP2 PUSH1 0xFF MUL NOT AND SWAP1 DUP4 ISZERO ISZERO MUL OR SWAP1 SSTORE POP CALLER PUSH20 0xFFFFFFFFFFFFFFFFFFFFFFFFFFFFFFFFFFFFFFFF AND PUSH32 0x23AD0062AD47DA0F27F5C07751751E4B60AFC16BF6FE03A24266A01EC4897931 DUP4 PUSH0 PUSH1 0x40 MLOAD PUSH2 0x1D76 SWAP3 SWAP2 SWAP1 PUSH2 0x349A JUMP JUMPDEST PUSH1 0x40 MLOAD DUP1 SWAP2 SUB SWAP1 LOG2 PUSH1 0x1 SWAP1 POP SWAP2 SWAP1 POP JUMP JUMPDEST PUSH0 PUSH1 0x1 PUSH0 SWAP1 SLOAD SWAP1 PUSH2 0x100 EXP SWAP1 DIV PUSH20 0xFFFFFFFFFFFFFFFFFFFFFFFFFFFFFFFFFFFFFFFF AND PUSH20 0xFFFFFFFFFFFFFFFFFFFFFFFFFFFFFFFFFFFFFFFF AND CALLER PUSH20 0xFFFFFFFFFFFFFFFFFFFFFFFFFFFFFFFFFFFFFFFF AND EQ PUSH2 0x1E17 JUMPI PUSH1 0x40 MLOAD PUSH32 0x8C379A000000000000000000000000000000000000000000000000000000000 DUP2 MSTORE PUSH1 0x4 ADD PUSH2 0x1E0E SWAP1 PUSH2 0x2B1A JUMP JUMPDEST PUSH1 0x40 MLOAD DUP1 SWAP2 SUB SWAP1 REVERT JUMPDEST PUSH0 DUP3 GT DUP1 ISZERO PUSH2 0x1E28 JUMPI POP PUSH1 0x3 SLOAD DUP3 GT ISZERO JUMPDEST PUSH2 0x1E67 JUMPI PUSH1 0x40 MLOAD PUSH32 0x8C379A000000000000000000000000000000000000000000000000000000000 DUP2 MSTORE PUSH1 0x4 ADD PUSH2 0x1E5E SWAP1 PUSH2 0x351E JUMP JUMPDEST PUSH1 0x40 MLOAD DUP1 SWAP2 SUB SWAP1 REVERT JUMPDEST PUSH2 0x1E71 DUP4 DUP4 PUSH2 0x1EE5 JUMP JUMPDEST POP DUP2 PUSH1 0x3 PUSH0 DUP3 DUP3 SLOAD PUSH2 0x1E83 SWAP2 SWAP1 PUSH2 0x2933 JUMP JUMPDEST SWAP3 POP POP DUP2 SWAP1 SSTORE POP CALLER PUSH20 0xFFFFFFFFFFFFFFFFFFFFFFFFFFFFFFFFFFFFFFFF AND PUSH32 0x23AD0062AD47DA0F27F5C07751751E4B60AFC16BF6FE03A24266A01EC4897931 TIMESTAMP PUSH1 0x6 PUSH1 0x40 MLOAD PUSH2 0x1ED3 SWAP3 SWAP2 SWAP1 PUSH2 0x3586 JUMP JUMPDEST PUSH1 0x40 MLOAD DUP1 SWAP2 SUB SWAP1 LOG2 PUSH1 0x1 SWAP1 POP SWAP3 SWAP2 POP POP JUMP JUMPDEST PUSH0 DUP1 DUP4 PUSH20 0xFFFFFFFFFFFFFFFFFFFFFFFFFFFFFFFFFFFFFFFF AND DUP4 PUSH1 0x40 MLOAD PUSH2 0x1F0B SWAP1 PUSH2 0x35ED JUMP JUMPDEST PUSH0 PUSH1 0x40 MLOAD DUP1 DUP4 SUB DUP2 DUP6 DUP8 GAS CALL SWAP3 POP POP POP RETURNDATASIZE DUP1 PUSH0 DUP2 EQ PUSH2 0x1F45 JUMPI PUSH1 0x40 MLOAD SWAP2 POP PUSH1 0x1F NOT PUSH1 0x3F RETURNDATASIZE ADD AND DUP3 ADD PUSH1 0x40 MSTORE RETURNDATASIZE DUP3 MSTORE RETURNDATASIZE PUSH0 PUSH1 0x20 DUP5 ADD RETURNDATACOPY PUSH2 0x1F4A JUMP JUMPDEST PUSH1 0x60 SWAP2 POP JUMPDEST POP POP SWAP1 POP DUP1 PUSH2 0x1F8E JUMPI PUSH1 0x40 MLOAD PUSH32 0x8C379A000000000000000000000000000000000000000000000000000000000 DUP2 MSTORE PUSH1 0x4 ADD PUSH2 0x1F85 SWAP1 PUSH2 0x364B JUMP JUMPDEST PUSH1 0x40 MLOAD DUP1 SWAP2 SUB SWAP1 REVERT JUMPDEST PUSH1 0x1 SWAP2 POP POP SWAP3 SWAP2 POP POP JUMP JUMPDEST PUSH1 0x40 MLOAD DUP1 PUSH2 0x120 ADD PUSH1 0x40 MSTORE DUP1 PUSH0 DUP2 MSTORE PUSH1 0x20 ADD PUSH1 0x60 DUP2 MSTORE PUSH1 0x20 ADD PUSH0 DUP2 MSTORE PUSH1 0x20 ADD PUSH0 DUP2 MSTORE PUSH1 0x20 ADD PUSH0 PUSH20 0xFFFFFFFFFFFFFFFFFFFFFFFFFFFFFFFFFFFFFFFF AND DUP2 MSTORE PUSH1 0x20 ADD PUSH0 PUSH20 0xFFFFFFFFFFFFFFFFFFFFFFFFFFFFFFFFFFFFFFFF AND DUP2 MSTORE PUSH1 0x20 ADD PUSH0 PUSH1 0x6 DUP2 GT ISZERO PUSH2 0x2009 JUMPI PUSH2 0x2008 PUSH2 0x21F6 JUMP JUMPDEST JUMPDEST DUP2 MSTORE PUSH1 0x20 ADD PUSH0 ISZERO ISZERO DUP2 MSTORE PUSH1 0x20 ADD PUSH0 ISZERO ISZERO DUP2 MSTORE POP SWAP1 JUMP JUMPDEST PUSH0 DUP1 REVERT JUMPDEST PUSH0 DUP1 REVERT JUMPDEST PUSH0 DUP2 SWAP1 POP SWAP2 SWAP1 POP JUMP JUMPDEST PUSH2 0x2039 DUP2 PUSH2 0x2027 JUMP JUMPDEST DUP2 EQ PUSH2 0x2043 JUMPI PUSH0 DUP1 REVERT JUMPDEST POP JUMP JUMPDEST PUSH0 DUP2 CALLDATALOAD SWAP1 POP PUSH2 0x2054 DUP2 PUSH2 0x2030 JUMP JUMPDEST SWAP3 SWAP2 POP POP JUMP JUMPDEST PUSH0 DUP2 ISZERO ISZERO SWAP1 POP SWAP2 SWAP1 POP JUMP JUMPDEST PUSH2 0x206E DUP2 PUSH2 0x205A JUMP JUMPDEST DUP2 EQ PUSH2 0x2078 JUMPI PUSH0 DUP1 REVERT JUMPDEST POP JUMP JUMPDEST PUSH0 DUP2 CALLDATALOAD SWAP1 POP PUSH2 0x2089 DUP2 PUSH2 0x2065 JUMP JUMPDEST SWAP3 SWAP2 POP POP JUMP JUMPDEST PUSH0 DUP1 PUSH1 0x40 DUP4 DUP6 SUB SLT ISZERO PUSH2 0x20A5 JUMPI PUSH2 0x20A4 PUSH2 0x201F JUMP JUMPDEST JUMPDEST PUSH0 PUSH2 0x20B2 DUP6 DUP3 DUP7 ADD PUSH2 0x2046 JUMP JUMPDEST SWAP3 POP POP PUSH1 0x20 PUSH2 0x20C3 DUP6 DUP3 DUP7 ADD PUSH2 0x207B JUMP JUMPDEST SWAP2 POP POP SWAP3 POP SWAP3 SWAP1 POP JUMP JUMPDEST PUSH2 0x20D6 DUP2 PUSH2 0x205A JUMP JUMPDEST DUP3 MSTORE POP POP JUMP JUMPDEST PUSH0 PUSH1 0x20 DUP3 ADD SWAP1 POP PUSH2 0x20EF PUSH0 DUP4 ADD DUP5 PUSH2 0x20CD JUMP JUMPDEST SWAP3 SWAP2 POP POP JUMP JUMPDEST PUSH0 DUP2 MLOAD SWAP1 POP SWAP2 SWAP1 POP JUMP JUMPDEST PUSH0 DUP3 DUP3 MSTORE PUSH1 0x20 DUP3 ADD SWAP1 POP SWAP3 SWAP2 POP POP JUMP JUMPDEST PUSH0 DUP2 SWAP1 POP PUSH1 0x20 DUP3 ADD SWAP1 POP SWAP2 SWAP1 POP JUMP JUMPDEST PUSH2 0x2127 DUP2 PUSH2 0x2027 JUMP JUMPDEST DUP3 MSTORE POP POP JUMP JUMPDEST PUSH0 DUP2 MLOAD SWAP1 POP SWAP2 SWAP1 POP JUMP JUMPDEST PUSH0 DUP3 DUP3 MSTORE PUSH1 0x20 DUP3 ADD SWAP1 POP SWAP3 SWAP2 POP POP JUMP JUMPDEST PUSH0 JUMPDEST DUP4 DUP2 LT ISZERO PUSH2 0x2164 JUMPI DUP1 DUP3 ADD MLOAD DUP2 DUP5 ADD MSTORE PUSH1 0x20 DUP2 ADD SWAP1 POP PUSH2 0x2149 JUMP JUMPDEST PUSH0 DUP5 DUP5 ADD MSTORE POP POP POP POP JUMP JUMPDEST PUSH0 PUSH1 0x1F NOT PUSH1 0x1F DUP4 ADD AND SWAP1 POP SWAP2 SWAP1 POP JUMP JUMPDEST PUSH0 PUSH2 0x2189 DUP3 PUSH2 0x212D JUMP JUMPDEST PUSH2 0x2193 DUP2 DUP6 PUSH2 0x2137 JUMP JUMPDEST SWAP4 POP PUSH2 0x21A3 DUP2 DUP6 PUSH1 0x20 DUP7 ADD PUSH2 0x2147 JUMP JUMPDEST PUSH2 0x21AC DUP2 PUSH2 0x216F JUMP JUMPDEST DUP5 ADD SWAP2 POP POP SWAP3 SWAP2 POP POP JUMP JUMPDEST PUSH0 PUSH20 0xFFFFFFFFFFFFFFFFFFFFFFFFFFFFFFFFFFFFFFFF DUP3 AND SWAP1 POP SWAP2 SWAP1 POP JUMP JUMPDEST PUSH0 PUSH2 0x21E0 DUP3 PUSH2 0x21B7 JUMP JUMPDEST SWAP1 POP SWAP2 SWAP1 POP JUMP JUMPDEST PUSH2 0x21F0 DUP2 PUSH2 0x21D6 JUMP JUMPDEST DUP3 MSTORE POP POP JUMP JUMPDEST PUSH32 0x4E487B7100000000000000000000000000000000000000000000000000000000 PUSH0 MSTORE PUSH1 0x21 PUSH1 0x4 MSTORE PUSH1 0x24 PUSH0 REVERT JUMPDEST PUSH1 0x7 DUP2 LT PUSH2 0x2234 JUMPI PUSH2 0x2233 PUSH2 0x21F6 JUMP JUMPDEST JUMPDEST POP JUMP JUMPDEST PUSH0 DUP2 SWAP1 POP PUSH2 0x2244 DUP3 PUSH2 0x2223 JUMP JUMPDEST SWAP2 SWAP1 POP JUMP JUMPDEST PUSH0 PUSH2 0x2253 DUP3 PUSH2 0x2237 JUMP JUMPDEST SWAP1 POP SWAP2 SWAP1 POP JUMP JUMPDEST PUSH2 0x2263 DUP2 PUSH2 0x2249 JUMP JUMPDEST DUP3 MSTORE POP POP JUMP JUMPDEST PUSH2 0x2272 DUP2 PUSH2 0x205A JUMP JUMPDEST DUP3 MSTORE POP POP JUMP JUMPDEST PUSH0 PUSH2 0x120 DUP4 ADD PUSH0 DUP4 ADD MLOAD PUSH2 0x228E PUSH0 DUP7 ADD DUP3 PUSH2 0x211E JUMP JUMPDEST POP PUSH1 0x20 DUP4 ADD MLOAD DUP5 DUP3 SUB PUSH1 0x20 DUP7 ADD MSTORE PUSH2 0x22A6 DUP3 DUP3 PUSH2 0x217F JUMP JUMPDEST SWAP2 POP POP PUSH1 0x40 DUP4 ADD MLOAD PUSH2 0x22BB PUSH1 0x40 DUP7 ADD DUP3 PUSH2 0x211E JUMP JUMPDEST POP PUSH1 0x60 DUP4 ADD MLOAD PUSH2 0x22CE PUSH1 0x60 DUP7 ADD DUP3 PUSH2 0x211E JUMP JUMPDEST POP PUSH1 0x80 DUP4 ADD MLOAD PUSH2 0x22E1 PUSH1 0x80 DUP7 ADD DUP3 PUSH2 0x21E7 JUMP JUMPDEST POP PUSH1 0xA0 DUP4 ADD MLOAD PUSH2 0x22F4 PUSH1 0xA0 DUP7 ADD DUP3 PUSH2 0x21E7 JUMP JUMPDEST POP PUSH1 0xC0 DUP4 ADD MLOAD PUSH2 0x2307 PUSH1 0xC0 DUP7 ADD DUP3 PUSH2 0x225A JUMP JUMPDEST POP PUSH1 0xE0 DUP4 ADD MLOAD PUSH2 0x231A PUSH1 0xE0 DUP7 ADD DUP3 PUSH2 0x2269 JUMP JUMPDEST POP PUSH2 0x100 DUP4 ADD MLOAD PUSH2 0x232F PUSH2 0x100 DUP7 ADD DUP3 PUSH2 0x2269 JUMP JUMPDEST POP DUP1 SWAP2 POP POP SWAP3 SWAP2 POP POP JUMP JUMPDEST PUSH0 PUSH2 0x2345 DUP4 DUP4 PUSH2 0x2278 JUMP JUMPDEST SWAP1 POP SWAP3 SWAP2 POP POP JUMP JUMPDEST PUSH0 PUSH1 0x20 DUP3 ADD SWAP1 POP SWAP2 SWAP1 POP JUMP JUMPDEST PUSH0 PUSH2 0x2363 DUP3 PUSH2 0x20F5 JUMP JUMPDEST PUSH2 0x236D DUP2 DUP6 PUSH2 0x20FF JUMP JUMPDEST SWAP4 POP DUP4 PUSH1 0x20 DUP3 MUL DUP6 ADD PUSH2 0x237F DUP6 PUSH2 0x210F JUMP JUMPDEST DUP1 PUSH0 JUMPDEST DUP6 DUP2 LT ISZERO PUSH2 0x23BA JUMPI DUP5 DUP5 SUB DUP10 MSTORE DUP2 MLOAD PUSH2 0x239B DUP6 DUP3 PUSH2 0x233A JUMP JUMPDEST SWAP5 POP PUSH2 0x23A6 DUP4 PUSH2 0x234D JUMP JUMPDEST SWAP3 POP PUSH1 0x20 DUP11 ADD SWAP10 POP POP PUSH1 0x1 DUP2 ADD SWAP1 POP PUSH2 0x2382 JUMP JUMPDEST POP DUP3 SWAP8 POP DUP8 SWAP6 POP POP POP POP POP POP SWAP3 SWAP2 POP POP JUMP JUMPDEST PUSH0 PUSH1 0x20 DUP3 ADD SWAP1 POP DUP2 DUP2 SUB PUSH0 DUP4 ADD MSTORE PUSH2 0x23E4 DUP2 DUP5 PUSH2 0x2359 JUMP JUMPDEST SWAP1 POP SWAP3 SWAP2 POP POP JUMP JUMPDEST PUSH0 PUSH1 0x20 DUP3 DUP5 SUB SLT ISZERO PUSH2 0x2401 JUMPI PUSH2 0x2400 PUSH2 0x201F JUMP JUMPDEST JUMPDEST PUSH0 PUSH2 0x240E DUP5 DUP3 DUP6 ADD PUSH2 0x2046 JUMP JUMPDEST SWAP2 POP POP SWAP3 SWAP2 POP POP JUMP JUMPDEST PUSH2 0x2420 DUP2 PUSH2 0x2027 JUMP JUMPDEST DUP3 MSTORE POP POP JUMP JUMPDEST PUSH0 PUSH1 0x20 DUP3 ADD SWAP1 POP PUSH2 0x2439 PUSH0 DUP4 ADD DUP5 PUSH2 0x2417 JUMP JUMPDEST SWAP3 SWAP2 POP POP JUMP JUMPDEST PUSH0 PUSH2 0x120 DUP4 ADD PUSH0 DUP4 ADD MLOAD PUSH2 0x2455 PUSH0 DUP7 ADD DUP3 PUSH2 0x211E JUMP JUMPDEST POP PUSH1 0x20 DUP4 ADD MLOAD DUP5 DUP3 SUB PUSH1 0x20 DUP7 ADD MSTORE PUSH2 0x246D DUP3 DUP3 PUSH2 0x217F JUMP JUMPDEST SWAP2 POP POP PUSH1 0x40 DUP4 ADD MLOAD PUSH2 0x2482 PUSH1 0x40 DUP7 ADD DUP3 PUSH2 0x211E JUMP JUMPDEST POP PUSH1 0x60 DUP4 ADD MLOAD PUSH2 0x2495 PUSH1 0x60 DUP7 ADD DUP3 PUSH2 0x211E JUMP JUMPDEST POP PUSH1 0x80 DUP4 ADD MLOAD PUSH2 0x24A8 PUSH1 0x80 DUP7 ADD DUP3 PUSH2 0x21E7 JUMP JUMPDEST POP PUSH1 0xA0 DUP4 ADD MLOAD PUSH2 0x24BB PUSH1 0xA0 DUP7 ADD DUP3 PUSH2 0x21E7 JUMP JUMPDEST POP PUSH1 0xC0 DUP4 ADD MLOAD PUSH2 0x24CE PUSH1 0xC0 DUP7 ADD DUP3 PUSH2 0x225A JUMP JUMPDEST POP PUSH1 0xE0 DUP4 ADD MLOAD PUSH2 0x24E1 PUSH1 0xE0 DUP7 ADD DUP3 PUSH2 0x2269 JUMP JUMPDEST POP PUSH2 0x100 DUP4 ADD MLOAD PUSH2 0x24F6 PUSH2 0x100 DUP7 ADD DUP3 PUSH2 0x2269 JUMP JUMPDEST POP DUP1 SWAP2 POP POP SWAP3 SWAP2 POP POP JUMP JUMPDEST PUSH0 PUSH1 0x20 DUP3 ADD SWAP1 POP DUP2 DUP2 SUB PUSH0 DUP4 ADD MSTORE PUSH2 0x2519 DUP2 DUP5 PUSH2 0x243F JUMP JUMPDEST SWAP1 POP SWAP3 SWAP2 POP POP JUMP JUMPDEST PUSH1 0x2 DUP2 LT PUSH2 0x2532 JUMPI PUSH2 0x2531 PUSH2 0x21F6 JUMP JUMPDEST JUMPDEST POP JUMP JUMPDEST PUSH0 DUP2 SWAP1 POP PUSH2 0x2542 DUP3 PUSH2 0x2521 JUMP JUMPDEST SWAP2 SWAP1 POP JUMP JUMPDEST PUSH0 PUSH2 0x2551 DUP3 PUSH2 0x2535 JUMP JUMPDEST SWAP1 POP SWAP2 SWAP1 POP JUMP JUMPDEST PUSH2 0x2561 DUP2 PUSH2 0x2547 JUMP JUMPDEST DUP3 MSTORE POP POP JUMP JUMPDEST PUSH0 PUSH1 0x20 DUP3 ADD SWAP1 POP PUSH2 0x257A PUSH0 DUP4 ADD DUP5 PUSH2 0x2558 JUMP JUMPDEST SWAP3 SWAP2 POP POP JUMP JUMPDEST PUSH0 DUP1 REVERT JUMPDEST PUSH0 DUP1 REVERT JUMPDEST PUSH0 DUP1 REVERT JUMPDEST PUSH0 DUP1 DUP4 PUSH1 0x1F DUP5 ADD SLT PUSH2 0x25A1 JUMPI PUSH2 0x25A0 PUSH2 0x2580 JUMP JUMPDEST JUMPDEST DUP3 CALLDATALOAD SWAP1 POP PUSH8 0xFFFFFFFFFFFFFFFF DUP2 GT ISZERO PUSH2 0x25BE JUMPI PUSH2 0x25BD PUSH2 0x2584 JUMP JUMPDEST JUMPDEST PUSH1 0x20 DUP4 ADD SWAP2 POP DUP4 PUSH1 0x1 DUP3 MUL DUP4 ADD GT ISZERO PUSH2 0x25DA JUMPI PUSH2 0x25D9 PUSH2 0x2588 JUMP JUMPDEST JUMPDEST SWAP3 POP SWAP3 SWAP1 POP JUMP JUMPDEST PUSH0 DUP1 PUSH1 0x20 DUP4 DUP6 SUB SLT ISZERO PUSH2 0x25F7 JUMPI PUSH2 0x25F6 PUSH2 0x201F JUMP JUMPDEST JUMPDEST PUSH0 DUP4 ADD CALLDATALOAD PUSH8 0xFFFFFFFFFFFFFFFF DUP2 GT ISZERO PUSH2 0x2614 JUMPI PUSH2 0x2613 PUSH2 0x2023 JUMP JUMPDEST JUMPDEST PUSH2 0x2620 DUP6 DUP3 DUP7 ADD PUSH2 0x258C JUMP JUMPDEST SWAP3 POP SWAP3 POP POP SWAP3 POP SWAP3 SWAP1 POP JUMP JUMPDEST PUSH2 0x2635 DUP2 PUSH2 0x21D6 JUMP JUMPDEST DUP3 MSTORE POP POP JUMP JUMPDEST PUSH0 PUSH1 0x20 DUP3 ADD SWAP1 POP PUSH2 0x264E PUSH0 DUP4 ADD DUP5 PUSH2 0x262C JUMP JUMPDEST SWAP3 SWAP2 POP POP JUMP JUMPDEST PUSH2 0x265D DUP2 PUSH2 0x21D6 JUMP JUMPDEST DUP2 EQ PUSH2 0x2667 JUMPI PUSH0 DUP1 REVERT JUMPDEST POP JUMP JUMPDEST PUSH0 DUP2 CALLDATALOAD SWAP1 POP PUSH2 0x2678 DUP2 PUSH2 0x2654 JUMP JUMPDEST SWAP3 SWAP2 POP POP JUMP JUMPDEST PUSH0 DUP1 PUSH1 0x40 DUP4 DUP6 SUB SLT ISZERO PUSH2 0x2694 JUMPI PUSH2 0x2693 PUSH2 0x201F JUMP JUMPDEST JUMPDEST PUSH0 PUSH2 0x26A1 DUP6 DUP3 DUP7 ADD PUSH2 0x266A JUMP JUMPDEST SWAP3 POP POP PUSH1 0x20 PUSH2 0x26B2 DUP6 DUP3 DUP7 ADD PUSH2 0x2046 JUMP JUMPDEST SWAP2 POP POP SWAP3 POP SWAP3 SWAP1 POP JUMP JUMPDEST PUSH0 DUP1 PUSH1 0x40 DUP4 DUP6 SUB SLT ISZERO PUSH2 0x26D2 JUMPI PUSH2 0x26D1 PUSH2 0x201F JUMP JUMPDEST JUMPDEST PUSH0 PUSH2 0x26DF DUP6 DUP3 DUP7 ADD PUSH2 0x2046 JUMP JUMPDEST SWAP3 POP POP PUSH1 0x20 PUSH2 0x26F0 DUP6 DUP3 DUP7 ADD PUSH2 0x266A JUMP JUMPDEST SWAP2 POP POP SWAP3 POP SWAP3 SWAP1 POP JUMP JUMPDEST PUSH0 DUP3 DUP3 MSTORE PUSH1 0x20 DUP3 ADD SWAP1 POP SWAP3 SWAP2 POP POP JUMP JUMPDEST PUSH32 0x4F6E6C79206F776E657220616C6C6F7765640000000000000000000000000000 PUSH0 DUP3 ADD MSTORE POP JUMP JUMPDEST PUSH0 PUSH2 0x273E PUSH1 0x12 DUP4 PUSH2 0x26FA JUMP JUMPDEST SWAP2 POP PUSH2 0x2749 DUP3 PUSH2 0x270A JUMP JUMPDEST PUSH1 0x20 DUP3 ADD SWAP1 POP SWAP2 SWAP1 POP JUMP JUMPDEST PUSH0 PUSH1 0x20 DUP3 ADD SWAP1 POP DUP2 DUP2 SUB PUSH0 DUP4 ADD MSTORE PUSH2 0x276B DUP2 PUSH2 0x2732 JUMP JUMPDEST SWAP1 POP SWAP2 SWAP1 POP JUMP JUMPDEST PUSH32 0x53657276696365206E6F742070726F7669646564000000000000000000000000 PUSH0 DUP3 ADD MSTORE POP JUMP JUMPDEST PUSH0 PUSH2 0x27A6 PUSH1 0x14 DUP4 PUSH2 0x26FA JUMP JUMPDEST SWAP2 POP PUSH2 0x27B1 DUP3 PUSH2 0x2772 JUMP JUMPDEST PUSH1 0x20 DUP3 ADD SWAP1 POP SWAP2 SWAP1 POP JUMP JUMPDEST PUSH0 PUSH1 0x20 DUP3 ADD SWAP1 POP DUP2 DUP2 SUB PUSH0 DUP4 ADD MSTORE PUSH2 0x27D3 DUP2 PUSH2 0x279A JUMP JUMPDEST SWAP1 POP SWAP2 SWAP1 POP JUMP JUMPDEST PUSH32 0x416C726561647920726566756E6465642C206372656174652061206E65772049 PUSH0 DUP3 ADD MSTORE PUSH32 0x74656D0000000000000000000000000000000000000000000000000000000000 PUSH1 0x20 DUP3 ADD MSTORE POP JUMP JUMPDEST PUSH0 PUSH2 0x2834 PUSH1 0x23 DUP4 PUSH2 0x26FA JUMP JUMPDEST SWAP2 POP PUSH2 0x283F DUP3 PUSH2 0x27DA JUMP JUMPDEST PUSH1 0x40 DUP3 ADD SWAP1 POP SWAP2 SWAP1 POP JUMP JUMPDEST PUSH0 PUSH1 0x20 DUP3 ADD SWAP1 POP DUP2 DUP2 SUB PUSH0 DUP4 ADD MSTORE PUSH2 0x2861 DUP2 PUSH2 0x2828 JUMP JUMPDEST SWAP1 POP SWAP2 SWAP1 POP JUMP JUMPDEST PUSH32 0x4E487B7100000000000000000000000000000000000000000000000000000000 PUSH0 MSTORE PUSH1 0x11 PUSH1 0x4 MSTORE PUSH1 0x24 PUSH0 REVERT JUMPDEST PUSH0 PUSH2 0x289F DUP3 PUSH2 0x2027 JUMP JUMPDEST SWAP2 POP PUSH2 0x28AA DUP4 PUSH2 0x2027 JUMP JUMPDEST SWAP3 POP DUP3 DUP3 MUL PUSH2 0x28B8 DUP2 PUSH2 0x2027 JUMP JUMPDEST SWAP2 POP DUP3 DUP3 DIV DUP5 EQ DUP4 ISZERO OR PUSH2 0x28CF JUMPI PUSH2 0x28CE PUSH2 0x2868 JUMP JUMPDEST JUMPDEST POP SWAP3 SWAP2 POP POP JUMP JUMPDEST PUSH32 0x4E487B7100000000000000000000000000000000000000000000000000000000 PUSH0 MSTORE PUSH1 0x12 PUSH1 0x4 MSTORE PUSH1 0x24 PUSH0 REVERT JUMPDEST PUSH0 PUSH2 0x290D DUP3 PUSH2 0x2027 JUMP JUMPDEST SWAP2 POP PUSH2 0x2918 DUP4 PUSH2 0x2027 JUMP JUMPDEST SWAP3 POP DUP3 PUSH2 0x2928 JUMPI PUSH2 0x2927 PUSH2 0x28D6 JUMP JUMPDEST JUMPDEST DUP3 DUP3 DIV SWAP1 POP SWAP3 SWAP2 POP POP JUMP JUMPDEST PUSH0 PUSH2 0x293D DUP3 PUSH2 0x2027 JUMP JUMPDEST SWAP2 POP PUSH2 0x2948 DUP4 PUSH2 0x2027 JUMP JUMPDEST SWAP3 POP DUP3 DUP3 SUB SWAP1 POP DUP2 DUP2 GT ISZERO PUSH2 0x2960 JUMPI PUSH2 0x295F PUSH2 0x2868 JUMP JUMPDEST JUMPDEST SWAP3 SWAP2 POP POP JUMP JUMPDEST PUSH0 PUSH2 0x2970 DUP3 PUSH2 0x2027 JUMP JUMPDEST SWAP2 POP PUSH2 0x297B DUP4 PUSH2 0x2027 JUMP JUMPDEST SWAP3 POP DUP3 DUP3 ADD SWAP1 POP DUP1 DUP3 GT ISZERO PUSH2 0x2993 JUMPI PUSH2 0x2992 PUSH2 0x2868 JUMP JUMPDEST JUMPDEST SWAP3 SWAP2 POP POP JUMP JUMPDEST PUSH0 PUSH2 0x29A3 DUP3 PUSH2 0x2027 JUMP JUMPDEST SWAP2 POP PUSH32 0xFFFFFFFFFFFFFFFFFFFFFFFFFFFFFFFFFFFFFFFFFFFFFFFFFFFFFFFFFFFFFFFF DUP3 SUB PUSH2 0x29D5 JUMPI PUSH2 0x29D4 PUSH2 0x2868 JUMP JUMPDEST JUMPDEST PUSH1 0x1 DUP3 ADD SWAP1 POP SWAP2 SWAP1 POP JUMP JUMPDEST PUSH32 0x4449535055545445440000000000000000000000000000000000000000000000 PUSH0 DUP3 ADD MSTORE POP JUMP JUMPDEST PUSH0 PUSH2 0x2A14 PUSH1 0x9 DUP4 PUSH2 0x26FA JUMP JUMPDEST SWAP2 POP PUSH2 0x2A1F DUP3 PUSH2 0x29E0 JUMP JUMPDEST PUSH1 0x20 DUP3 ADD SWAP1 POP SWAP2 SWAP1 POP JUMP JUMPDEST PUSH2 0x2A33 DUP2 PUSH2 0x2249 JUMP JUMPDEST DUP3 MSTORE POP POP JUMP JUMPDEST PUSH0 PUSH1 0x60 DUP3 ADD SWAP1 POP PUSH2 0x2A4C PUSH0 DUP4 ADD DUP6 PUSH2 0x2417 JUMP JUMPDEST DUP2 DUP2 SUB PUSH1 0x20 DUP4 ADD MSTORE PUSH2 0x2A5D DUP2 PUSH2 0x2A08 JUMP JUMPDEST SWAP1 POP PUSH2 0x2A6C PUSH1 0x40 DUP4 ADD DUP5 PUSH2 0x2A2A JUMP JUMPDEST SWAP4 SWAP3 POP POP POP JUMP JUMPDEST PUSH32 0x4E487B7100000000000000000000000000000000000000000000000000000000 PUSH0 MSTORE PUSH1 0x22 PUSH1 0x4 MSTORE PUSH1 0x24 PUSH0 REVERT JUMPDEST PUSH0 PUSH1 0x2 DUP3 DIV SWAP1 POP PUSH1 0x1 DUP3 AND DUP1 PUSH2 0x2AB7 JUMPI PUSH1 0x7F DUP3 AND SWAP2 POP JUMPDEST PUSH1 0x20 DUP3 LT DUP2 SUB PUSH2 0x2ACA JUMPI PUSH2 0x2AC9 PUSH2 0x2A73 JUMP JUMPDEST JUMPDEST POP SWAP2 SWAP1 POP JUMP JUMPDEST PUSH32 0x4F6E6C7920457363726F7720616C6C6F77656400000000000000000000000000 PUSH0 DUP3 ADD MSTORE POP JUMP JUMPDEST PUSH0 PUSH2 0x2B04 PUSH1 0x13 DUP4 PUSH2 0x26FA JUMP JUMPDEST SWAP2 POP PUSH2 0x2B0F DUP3 PUSH2 0x2AD0 JUMP JUMPDEST PUSH1 0x20 DUP3 ADD SWAP1 POP SWAP2 SWAP1 POP JUMP JUMPDEST PUSH0 PUSH1 0x20 DUP3 ADD SWAP1 POP DUP2 DUP2 SUB PUSH0 DUP4 ADD MSTORE PUSH2 0x2B31 DUP2 PUSH2 0x2AF8 JUMP JUMPDEST SWAP1 POP SWAP2 SWAP1 POP JUMP JUMPDEST PUSH32 0x5365727669636520616C72656164792070726F76696465640000000000000000 PUSH0 DUP3 ADD MSTORE POP JUMP JUMPDEST PUSH0 PUSH2 0x2B6C PUSH1 0x18 DUP4 PUSH2 0x26FA JUMP JUMPDEST SWAP2 POP PUSH2 0x2B77 DUP3 PUSH2 0x2B38 JUMP JUMPDEST PUSH1 0x20 DUP3 ADD SWAP1 POP SWAP2 SWAP1 POP JUMP JUMPDEST PUSH0 PUSH1 0x20 DUP3 ADD SWAP1 POP DUP2 DUP2 SUB PUSH0 DUP4 ADD MSTORE PUSH2 0x2B99 DUP2 PUSH2 0x2B60 JUMP JUMPDEST SWAP1 POP SWAP2 SWAP1 POP JUMP JUMPDEST PUSH32 0x524546554E444544000000000000000000000000000000000000000000000000 PUSH0 DUP3 ADD MSTORE POP JUMP JUMPDEST PUSH0 PUSH2 0x2BD4 PUSH1 0x8 DUP4 PUSH2 0x26FA JUMP JUMPDEST SWAP2 POP PUSH2 0x2BDF DUP3 PUSH2 0x2BA0 JUMP JUMPDEST PUSH1 0x20 DUP3 ADD SWAP1 POP SWAP2 SWAP1 POP JUMP JUMPDEST PUSH0 PUSH1 0x60 DUP3 ADD SWAP1 POP PUSH2 0x2BFD PUSH0 DUP4 ADD DUP6 PUSH2 0x2417 JUMP JUMPDEST DUP2 DUP2 SUB PUSH1 0x20 DUP4 ADD MSTORE PUSH2 0x2C0E DUP2 PUSH2 0x2BC8 JUMP JUMPDEST SWAP1 POP PUSH2 0x2C1D PUSH1 0x40 DUP4 ADD DUP5 PUSH2 0x2A2A JUMP JUMPDEST SWAP4 SWAP3 POP POP POP JUMP JUMPDEST PUSH32 0x507572706F73652063616E6E6F7420626520656D707479000000000000000000 PUSH0 DUP3 ADD MSTORE POP JUMP JUMPDEST PUSH0 PUSH2 0x2C58 PUSH1 0x17 DUP4 PUSH2 0x26FA JUMP JUMPDEST SWAP2 POP PUSH2 0x2C63 DUP3 PUSH2 0x2C24 JUMP JUMPDEST PUSH1 0x20 DUP3 ADD SWAP1 POP SWAP2 SWAP1 POP JUMP JUMPDEST PUSH0 PUSH1 0x20 DUP3 ADD SWAP1 POP DUP2 DUP2 SUB PUSH0 DUP4 ADD MSTORE PUSH2 0x2C85 DUP2 PUSH2 0x2C4C JUMP JUMPDEST SWAP1 POP SWAP2 SWAP1 POP JUMP JUMPDEST PUSH32 0x4974656D2063616E6E6F74206265207A65726F20657468657273000000000000 PUSH0 DUP3 ADD MSTORE POP JUMP JUMPDEST PUSH0 PUSH2 0x2CC0 PUSH1 0x1A DUP4 PUSH2 0x26FA JUMP JUMPDEST SWAP2 POP PUSH2 0x2CCB DUP3 PUSH2 0x2C8C JUMP JUMPDEST PUSH1 0x20 DUP3 ADD SWAP1 POP SWAP2 SWAP1 POP JUMP JUMPDEST PUSH0 PUSH1 0x20 DUP3 ADD SWAP1 POP DUP2 DUP2 SUB PUSH0 DUP4 ADD MSTORE PUSH2 0x2CED DUP2 PUSH2 0x2CB4 JUMP JUMPDEST SWAP1 POP SWAP2 SWAP1 POP JUMP JUMPDEST PUSH0 DUP3 SWAP1 POP SWAP3 SWAP2 POP POP JUMP JUMPDEST PUSH32 0x4E487B7100000000000000000000000000000000000000000000000000000000 PUSH0 MSTORE PUSH1 0x41 PUSH1 0x4 MSTORE PUSH1 0x24 PUSH0 REVERT JUMPDEST PUSH0 DUP2 SWAP1 POP DUP2 PUSH0 MSTORE PUSH1 0x20 PUSH0 KECCAK256 SWAP1 POP SWAP2 SWAP1 POP JUMP JUMPDEST PUSH0 PUSH1 0x20 PUSH1 0x1F DUP4 ADD DIV SWAP1 POP SWAP2 SWAP1 POP JUMP JUMPDEST PUSH0 DUP3 DUP3 SHL SWAP1 POP SWAP3 SWAP2 POP POP JUMP JUMPDEST PUSH0 PUSH1 0x8 DUP4 MUL PUSH2 0x2D87 PUSH32 0xFFFFFFFFFFFFFFFFFFFFFFFFFFFFFFFFFFFFFFFFFFFFFFFFFFFFFFFFFFFFFFFF DUP3 PUSH2 0x2D4C JUMP JUMPDEST PUSH2 0x2D91 DUP7 DUP4 PUSH2 0x2D4C JUMP JUMPDEST SWAP6 POP DUP1 NOT DUP5 AND SWAP4 POP DUP1 DUP7 AND DUP5 OR SWAP3 POP POP POP SWAP4 SWAP3 POP POP POP JUMP JUMPDEST PUSH0 DUP2 SWAP1 POP SWAP2 SWAP1 POP JUMP JUMPDEST PUSH0 PUSH2 0x2DCC PUSH2 0x2DC7 PUSH2 0x2DC2 DUP5 PUSH2 0x2027 JUMP JUMPDEST PUSH2 0x2DA9 JUMP JUMPDEST PUSH2 0x2027 JUMP JUMPDEST SWAP1 POP SWAP2 SWAP1 POP JUMP JUMPDEST PUSH0 DUP2 SWAP1 POP SWAP2 SWAP1 POP JUMP JUMPDEST PUSH2 0x2DE5 DUP4 PUSH2 0x2DB2 JUMP JUMPDEST PUSH2 0x2DF9 PUSH2 0x2DF1 DUP3 PUSH2 0x2DD3 JUMP JUMPDEST DUP5 DUP5 SLOAD PUSH2 0x2D58 JUMP JUMPDEST DUP3 SSTORE POP POP POP POP JUMP JUMPDEST PUSH0 SWAP1 JUMP JUMPDEST PUSH2 0x2E0D PUSH2 0x2E01 JUMP JUMPDEST PUSH2 0x2E18 DUP2 DUP5 DUP5 PUSH2 0x2DDC JUMP JUMPDEST POP POP POP JUMP JUMPDEST JUMPDEST DUP2 DUP2 LT ISZERO PUSH2 0x2E3B JUMPI PUSH2 0x2E30 PUSH0 DUP3 PUSH2 0x2E05 JUMP JUMPDEST PUSH1 0x1 DUP2 ADD SWAP1 POP PUSH2 0x2E1E JUMP JUMPDEST POP POP JUMP JUMPDEST PUSH1 0x1F DUP3 GT ISZERO PUSH2 0x2E80 JUMPI PUSH2 0x2E51 DUP2 PUSH2 0x2D2B JUMP JUMPDEST PUSH2 0x2E5A DUP5 PUSH2 0x2D3D JUMP JUMPDEST DUP2 ADD PUSH1 0x20 DUP6 LT ISZERO PUSH2 0x2E69 JUMPI DUP2 SWAP1 POP JUMPDEST PUSH2 0x2E7D PUSH2 0x2E75 DUP6 PUSH2 0x2D3D JUMP JUMPDEST DUP4 ADD DUP3 PUSH2 0x2E1D JUMP JUMPDEST POP POP JUMPDEST POP POP POP JUMP JUMPDEST PUSH0 DUP3 DUP3 SHR SWAP1 POP SWAP3 SWAP2 POP POP JUMP JUMPDEST PUSH0 PUSH2 0x2EA0 PUSH0 NOT DUP5 PUSH1 0x8 MUL PUSH2 0x2E85 JUMP JUMPDEST NOT DUP1 DUP4 AND SWAP2 POP POP SWAP3 SWAP2 POP POP JUMP JUMPDEST PUSH0 PUSH2 0x2EB8 DUP4 DUP4 PUSH2 0x2E91 JUMP JUMPDEST SWAP2 POP DUP3 PUSH1 0x2 MUL DUP3 OR SWAP1 POP SWAP3 SWAP2 POP POP JUMP JUMPDEST PUSH2 0x2ED2 DUP4 DUP4 PUSH2 0x2CF4 JUMP JUMPDEST PUSH8 0xFFFFFFFFFFFFFFFF DUP2 GT ISZERO PUSH2 0x2EEB JUMPI PUSH2 0x2EEA PUSH2 0x2CFE JUMP JUMPDEST JUMPDEST PUSH2 0x2EF5 DUP3 SLOAD PUSH2 0x2AA0 JUMP JUMPDEST PUSH2 0x2F00 DUP3 DUP3 DUP6 PUSH2 0x2E3F JUMP JUMPDEST PUSH0 PUSH1 0x1F DUP4 GT PUSH1 0x1 DUP2 EQ PUSH2 0x2F2D JUMPI PUSH0 DUP5 ISZERO PUSH2 0x2F1B JUMPI DUP3 DUP8 ADD CALLDATALOAD SWAP1 POP JUMPDEST PUSH2 0x2F25 DUP6 DUP3 PUSH2 0x2EAD JUMP JUMPDEST DUP7 SSTORE POP PUSH2 0x2F8C JUMP JUMPDEST PUSH1 0x1F NOT DUP5 AND PUSH2 0x2F3B DUP7 PUSH2 0x2D2B JUMP JUMPDEST PUSH0 JUMPDEST DUP3 DUP2 LT ISZERO PUSH2 0x2F62 JUMPI DUP5 DUP10 ADD CALLDATALOAD DUP3 SSTORE PUSH1 0x1 DUP3 ADD SWAP2 POP PUSH1 0x20 DUP6 ADD SWAP5 POP PUSH1 0x20 DUP2 ADD SWAP1 POP PUSH2 0x2F3D JUMP JUMPDEST DUP7 DUP4 LT ISZERO PUSH2 0x2F7F JUMPI DUP5 DUP10 ADD CALLDATALOAD PUSH2 0x2F7B PUSH1 0x1F DUP10 AND DUP3 PUSH2 0x2E91 JUMP JUMPDEST DUP4 SSTORE POP JUMPDEST PUSH1 0x1 PUSH1 0x2 DUP9 MUL ADD DUP9 SSTORE POP POP POP JUMPDEST POP POP POP POP POP POP POP JUMP JUMPDEST PUSH0 DUP2 SLOAD SWAP1 POP PUSH2 0x2FA3 DUP2 PUSH2 0x2AA0 JUMP JUMPDEST SWAP1 POP SWAP2 SWAP1 POP JUMP JUMPDEST DUP2 DUP2 SUB PUSH2 0x2FB8 JUMPI POP POP PUSH2 0x308D JUMP JUMPDEST PUSH2 0x2FC1 DUP3 PUSH2 0x2F95 JUMP JUMPDEST PUSH8 0xFFFFFFFFFFFFFFFF DUP2 GT ISZERO PUSH2 0x2FDA JUMPI PUSH2 0x2FD9 PUSH2 0x2CFE JUMP JUMPDEST JUMPDEST PUSH2 0x2FE4 DUP3 SLOAD PUSH2 0x2AA0 JUMP JUMPDEST PUSH2 0x2FEF DUP3 DUP3 DUP6 PUSH2 0x2E3F JUMP JUMPDEST PUSH0 PUSH1 0x1F DUP4 GT PUSH1 0x1 DUP2 EQ PUSH2 0x301C JUMPI PUSH0 DUP5 ISZERO PUSH2 0x300A JUMPI DUP3 DUP8 ADD SLOAD SWAP1 POP JUMPDEST PUSH2 0x3014 DUP6 DUP3 PUSH2 0x2EAD JUMP JUMPDEST DUP7 SSTORE POP PUSH2 0x3086 JUMP JUMPDEST PUSH1 0x1F NOT DUP5 AND PUSH2 0x302A DUP8 PUSH2 0x2D2B JUMP JUMPDEST SWAP7 POP PUSH2 0x3035 DUP7 PUSH2 0x2D2B JUMP JUMPDEST PUSH0 JUMPDEST DUP3 DUP2 LT ISZERO PUSH2 0x305C JUMPI DUP5 DUP10 ADD SLOAD DUP3 SSTORE PUSH1 0x1 DUP3 ADD SWAP2 POP PUSH1 0x1 DUP6 ADD SWAP5 POP PUSH1 0x20 DUP2 ADD SWAP1 POP PUSH2 0x3037 JUMP JUMPDEST DUP7 DUP4 LT ISZERO PUSH2 0x3079 JUMPI DUP5 DUP10 ADD SLOAD PUSH2 0x3075 PUSH1 0x1F DUP10 AND DUP3 PUSH2 0x2E91 JUMP JUMPDEST DUP4 SSTORE POP JUMPDEST PUSH1 0x1 PUSH1 0x2 DUP9 MUL ADD DUP9 SSTORE POP POP POP JUMPDEST POP POP POP POP POP POP JUMPDEST JUMP JUMPDEST PUSH32 0x4954454D20435245415445440000000000000000000000000000000000000000 PUSH0 DUP3 ADD MSTORE POP JUMP JUMPDEST PUSH0 PUSH2 0x30C3 PUSH1 0xC DUP4 PUSH2 0x26FA JUMP JUMPDEST SWAP2 POP PUSH2 0x30CE DUP3 PUSH2 0x308F JUMP JUMPDEST PUSH1 0x20 DUP3 ADD SWAP1 POP SWAP2 SWAP1 POP JUMP JUMPDEST PUSH0 PUSH1 0x60 DUP3 ADD SWAP1 POP PUSH2 0x30EC PUSH0 DUP4 ADD DUP6 PUSH2 0x2417 JUMP JUMPDEST DUP2 DUP2 SUB PUSH1 0x20 DUP4 ADD MSTORE PUSH2 0x30FD DUP2 PUSH2 0x30B7 JUMP JUMPDEST SWAP1 POP PUSH2 0x310C PUSH1 0x40 DUP4 ADD DUP5 PUSH2 0x2A2A JUMP JUMPDEST SWAP4 SWAP3 POP POP POP JUMP JUMPDEST PUSH32 0x4E487B7100000000000000000000000000000000000000000000000000000000 PUSH0 MSTORE PUSH1 0x32 PUSH1 0x4 MSTORE PUSH1 0x24 PUSH0 REVERT JUMPDEST PUSH32 0x53657276696365206E6F74206177617264656420746F20796F75000000000000 PUSH0 DUP3 ADD MSTORE POP JUMP JUMPDEST PUSH0 PUSH2 0x3174 PUSH1 0x1A DUP4 PUSH2 0x26FA JUMP JUMPDEST SWAP2 POP PUSH2 0x317F DUP3 PUSH2 0x3140 JUMP JUMPDEST PUSH1 0x20 DUP3 ADD SWAP1 POP SWAP2 SWAP1 POP JUMP JUMPDEST PUSH0 PUSH1 0x20 DUP3 ADD SWAP1 POP DUP2 DUP2 SUB PUSH0 DUP4 ADD MSTORE PUSH2 0x31A1 DUP2 PUSH2 0x3168 JUMP JUMPDEST SWAP1 POP SWAP2 SWAP1 POP JUMP JUMPDEST PUSH32 0x5365727669636520616C726561647920636F6E6669726D656400000000000000 PUSH0 DUP3 ADD MSTORE POP JUMP JUMPDEST PUSH0 PUSH2 0x31DC PUSH1 0x19 DUP4 PUSH2 0x26FA JUMP JUMPDEST SWAP2 POP PUSH2 0x31E7 DUP3 PUSH2 0x31A8 JUMP JUMPDEST PUSH1 0x20 DUP3 ADD SWAP1 POP SWAP2 SWAP1 POP JUMP JUMPDEST PUSH0 PUSH1 0x20 DUP3 ADD SWAP1 POP DUP2 DUP2 SUB PUSH0 DUP4 ADD MSTORE PUSH2 0x3209 DUP2 PUSH2 0x31D0 JUMP JUMPDEST SWAP1 POP SWAP2 SWAP1 POP JUMP JUMPDEST PUSH32 0x44454C495645525920494E544941544544000000000000000000000000000000 PUSH0 DUP3 ADD MSTORE POP JUMP JUMPDEST PUSH0 PUSH2 0x3244 PUSH1 0x11 DUP4 PUSH2 0x26FA JUMP JUMPDEST SWAP2 POP PUSH2 0x324F DUP3 PUSH2 0x3210 JUMP JUMPDEST PUSH1 0x20 DUP3 ADD SWAP1 POP SWAP2 SWAP1 POP JUMP JUMPDEST PUSH0 PUSH1 0x60 DUP3 ADD SWAP1 POP PUSH2 0x326D PUSH0 DUP4 ADD DUP6 PUSH2 0x2417 JUMP JUMPDEST DUP2 DUP2 SUB PUSH1 0x20 DUP4 ADD MSTORE PUSH2 0x327E DUP2 PUSH2 0x3238 JUMP JUMPDEST SWAP1 POP PUSH2 0x328D PUSH1 0x40 DUP4 ADD DUP5 PUSH2 0x2A2A JUMP JUMPDEST SWAP4 SWAP3 POP POP POP JUMP JUMPDEST PUSH32 0x4974656D206E6F7420617661696C61626C650000000000000000000000000000 PUSH0 DUP3 ADD MSTORE POP JUMP JUMPDEST PUSH0 PUSH2 0x32C8 PUSH1 0x12 DUP4 PUSH2 0x26FA JUMP JUMPDEST SWAP2 POP PUSH2 0x32D3 DUP3 PUSH2 0x3294 JUMP JUMPDEST PUSH1 0x20 DUP3 ADD SWAP1 POP SWAP2 SWAP1 POP JUMP JUMPDEST PUSH0 PUSH1 0x20 DUP3 ADD SWAP1 POP DUP2 DUP2 SUB PUSH0 DUP4 ADD MSTORE PUSH2 0x32F5 DUP2 PUSH2 0x32BC JUMP JUMPDEST SWAP1 POP SWAP2 SWAP1 POP JUMP JUMPDEST PUSH32 0x50726F7669646572206E6F74206F6E20746865206C6973740000000000000000 PUSH0 DUP3 ADD MSTORE POP JUMP JUMPDEST PUSH0 PUSH2 0x3330 PUSH1 0x18 DUP4 PUSH2 0x26FA JUMP JUMPDEST SWAP2 POP PUSH2 0x333B DUP3 PUSH2 0x32FC JUMP JUMPDEST PUSH1 0x20 DUP3 ADD SWAP1 POP SWAP2 SWAP1 POP JUMP JUMPDEST PUSH0 PUSH1 0x20 DUP3 ADD SWAP1 POP DUP2 DUP2 SUB PUSH0 DUP4 ADD MSTORE PUSH2 0x335D DUP2 PUSH2 0x3324 JUMP JUMPDEST SWAP1 POP SWAP2 SWAP1 POP JUMP JUMPDEST PUSH32 0x415050524F564544000000000000000000000000000000000000000000000000 PUSH0 DUP3 ADD MSTORE POP JUMP JUMPDEST PUSH0 PUSH2 0x3398 PUSH1 0x8 DUP4 PUSH2 0x26FA JUMP JUMPDEST SWAP2 POP PUSH2 0x33A3 DUP3 PUSH2 0x3364 JUMP JUMPDEST PUSH1 0x20 DUP3 ADD SWAP1 POP SWAP2 SWAP1 POP JUMP JUMPDEST PUSH0 PUSH1 0x60 DUP3 ADD SWAP1 POP PUSH2 0x33C1 PUSH0 DUP4 ADD DUP6 PUSH2 0x2417 JUMP JUMPDEST DUP2 DUP2 SUB PUSH1 0x20 DUP4 ADD MSTORE PUSH2 0x33D2 DUP2 PUSH2 0x338C JUMP JUMPDEST SWAP1 POP PUSH2 0x33E1 PUSH1 0x40 DUP4 ADD DUP5 PUSH2 0x2A2A JUMP JUMPDEST SWAP4 SWAP3 POP POP POP JUMP JUMPDEST PUSH32 0x4F776E6572206E6F7420616C6C6F776564000000000000000000000000000000 PUSH0 DUP3 ADD MSTORE POP JUMP JUMPDEST PUSH0 PUSH2 0x341C PUSH1 0x11 DUP4 PUSH2 0x26FA JUMP JUMPDEST SWAP2 POP PUSH2 0x3427 DUP3 PUSH2 0x33E8 JUMP JUMPDEST PUSH1 0x20 DUP3 ADD SWAP1 POP SWAP2 SWAP1 POP JUMP JUMPDEST PUSH0 PUSH1 0x20 DUP3 ADD SWAP1 POP DUP2 DUP2 SUB PUSH0 DUP4 ADD MSTORE PUSH2 0x3449 DUP2 PUSH2 0x3410 JUMP JUMPDEST SWAP1 POP SWAP2 SWAP1 POP JUMP JUMPDEST PUSH32 0x5245515545535445440000000000000000000000000000000000000000000000 PUSH0 DUP3 ADD MSTORE POP JUMP JUMPDEST PUSH0 PUSH2 0x3484 PUSH1 0x9 DUP4 PUSH2 0x26FA JUMP JUMPDEST SWAP2 POP PUSH2 0x348F DUP3 PUSH2 0x3450 JUMP JUMPDEST PUSH1 0x20 DUP3 ADD SWAP1 POP SWAP2 SWAP1 POP JUMP JUMPDEST PUSH0 PUSH1 0x60 DUP3 ADD SWAP1 POP PUSH2 0x34AD PUSH0 DUP4 ADD DUP6 PUSH2 0x2417 JUMP JUMPDEST DUP2 DUP2 SUB PUSH1 0x20 DUP4 ADD MSTORE PUSH2 0x34BE DUP2 PUSH2 0x3478 JUMP JUMPDEST SWAP1 POP PUSH2 0x34CD PUSH1 0x40 DUP4 ADD DUP5 PUSH2 0x2A2A JUMP JUMPDEST SWAP4 SWAP3 POP POP POP JUMP JUMPDEST PUSH32 0x5A65726F207769746864726177616C206E6F7420616C6C6F7765640000000000 PUSH0 DUP3 ADD MSTORE POP JUMP JUMPDEST PUSH0 PUSH2 0x3508 PUSH1 0x1B DUP4 PUSH2 0x26FA JUMP JUMPDEST SWAP2 POP PUSH2 0x3513 DUP3 PUSH2 0x34D4 JUMP JUMPDEST PUSH1 0x20 DUP3 ADD SWAP1 POP SWAP2 SWAP1 POP JUMP JUMPDEST PUSH0 PUSH1 0x20 DUP3 ADD SWAP1 POP DUP2 DUP2 SUB PUSH0 DUP4 ADD MSTORE PUSH2 0x3535 DUP2 PUSH2 0x34FC JUMP JUMPDEST SWAP1 POP SWAP2 SWAP1 POP JUMP JUMPDEST PUSH32 0x5749544844524157454400000000000000000000000000000000000000000000 PUSH0 DUP3 ADD MSTORE POP JUMP JUMPDEST PUSH0 PUSH2 0x3570 PUSH1 0xA DUP4 PUSH2 0x26FA JUMP JUMPDEST SWAP2 POP PUSH2 0x357B DUP3 PUSH2 0x353C JUMP JUMPDEST PUSH1 0x20 DUP3 ADD SWAP1 POP SWAP2 SWAP1 POP JUMP JUMPDEST PUSH0 PUSH1 0x60 DUP3 ADD SWAP1 POP PUSH2 0x3599 PUSH0 DUP4 ADD DUP6 PUSH2 0x2417 JUMP JUMPDEST DUP2 DUP2 SUB PUSH1 0x20 DUP4 ADD MSTORE PUSH2 0x35AA DUP2 PUSH2 0x3564 JUMP JUMPDEST SWAP1 POP PUSH2 0x35B9 PUSH1 0x40 DUP4 ADD DUP5 PUSH2 0x2A2A JUMP JUMPDEST SWAP4 SWAP3 POP POP POP JUMP JUMPDEST PUSH0 DUP2 SWAP1 POP SWAP3 SWAP2 POP POP JUMP JUMPDEST POP JUMP JUMPDEST PUSH0 PUSH2 0x35D8 PUSH0 DUP4 PUSH2 0x35C0 JUMP JUMPDEST SWAP2 POP PUSH2 0x35E3 DUP3 PUSH2 0x35CA JUMP JUMPDEST PUSH0 DUP3 ADD SWAP1 POP SWAP2 SWAP1 POP JUMP JUMPDEST PUSH0 PUSH2 0x35F7 DUP3 PUSH2 0x35CD JUMP JUMPDEST SWAP2 POP DUP2 SWAP1 POP SWAP2 SWAP1 POP JUMP JUMPDEST PUSH32 0x5061796D656E74206661696C6564000000000000000000000000000000000000 PUSH0 DUP3 ADD MSTORE POP JUMP JUMPDEST PUSH0 PUSH2 0x3635 PUSH1 0xE DUP4 PUSH2 0x26FA JUMP JUMPDEST SWAP2 POP PUSH2 0x3640 DUP3 PUSH2 0x3601 JUMP JUMPDEST PUSH1 0x20 DUP3 ADD SWAP1 POP SWAP2 SWAP1 POP JUMP JUMPDEST PUSH0 PUSH1 0x20 DUP3 ADD SWAP1 POP DUP2 DUP2 SUB PUSH0 DUP4 ADD MSTORE PUSH2 0x3662 DUP2 PUSH2 0x3629 JUMP JUMPDEST SWAP1 POP SWAP2 SWAP1 POP JUMP INVALID LOG2 PUSH5 0x6970667358 0x22 SLT KECCAK256 0x2F CODESIZE COINBASE 0xE6 MSTORE CREATE2 BLOCKHASH 0xAD DUP12 DUP2 0x2A 0x2C SWAP16 CALLER SWAP10 SSTORE 0xD5 0xD7 0xDD 0xEC 0x49 SHL 0xA5 0xBA STOP DUP13 GAS PUSH18 0x86548D3064736F6C63430008160033000000 "
				},
				"gasEstimates": {
					"creation": {
						"codeDepositCost": "2796600",
						"executionCost": "infinite",
						"totalCost": "infinite"
					},
					"external": {
						"approveRequest(uint256,address)": "infinite",
						"confirmDelivery(uint256,bool)": "infinite",
						"createItem(string)": "infinite",
						"escAcc()": "2553",
						"escAvailBal()": "2448",
						"escBal()": "2469",
						"escFee()": "2536",
						"getItem(uint256)": "infinite",
						"getItems()": "infinite",
						"isAvailable(uint256)": "2896",
						"myItems()": "infinite",
						"ownerOf(uint256)": "2894",
						"performDelievery(uint256)": "infinite",
						"refundItem(uint256)": "infinite",
						"requestItem(uint256)": "infinite",
						"requested(address,uint256)": "3160",
						"totalConfirmed()": "2492",
						"totalDisputed()": "2491",
						"totalItems()": "2515",
						"withdrawFund(address,uint256)": "infinite"
					},
					"internal": {
						"payTo(address,uint256)": "infinite"
					}
				},
				"methodIdentifiers": {
					"approveRequest(uint256,address)": "bc045df8",
					"confirmDelivery(uint256,bool)": "04ef0781",
					"createItem(string)": "3d54eebb",
					"escAcc()": "618f0ea7",
					"escAvailBal()": "50f18cb7",
					"escBal()": "c86d9da2",
					"escFee()": "4e47368b",
					"getItem(uint256)": "3129e773",
					"getItems()": "410d59cc",
					"isAvailable(uint256)": "3a178d99",
					"myItems()": "10dd7a4c",
					"ownerOf(uint256)": "6352211e",
					"performDelievery(uint256)": "7216f123",
					"refundItem(uint256)": "18059aad",
					"requestItem(uint256)": "d62a4887",
					"requested(address,uint256)": "6754cc28",
					"totalConfirmed()": "4028a0f1",
					"totalDisputed()": "c9958c4d",
					"totalItems()": "2799276d",
					"withdrawFund(address,uint256)": "f7c8d221"
				}
			},
			"storageLayout": {
				"storage": [
					{
						"astId": 10,
						"contract": "contracts/Escrow.sol:Escrow",
						"label": "_status",
						"offset": 0,
						"slot": "0",
						"type": "t_uint256"
					},
					{
						"astId": 71,
						"contract": "contracts/Escrow.sol:Escrow",
						"label": "escAcc",
						"offset": 0,
						"slot": "1",
						"type": "t_address"
					},
					{
						"astId": 73,
						"contract": "contracts/Escrow.sol:Escrow",
						"label": "escBal",
						"offset": 0,
						"slot": "2",
						"type": "t_uint256"
					},
					{
						"astId": 75,
						"contract": "contracts/Escrow.sol:Escrow",
						"label": "escAvailBal",
						"offset": 0,
						"slot": "3",
						"type": "t_uint256"
					},
					{
						"astId": 77,
						"contract": "contracts/Escrow.sol:Escrow",
						"label": "escFee",
						"offset": 0,
						"slot": "4",
						"type": "t_uint256"
					},
					{
						"astId": 80,
						"contract": "contracts/Escrow.sol:Escrow",
						"label": "totalItems",
						"offset": 0,
						"slot": "5",
						"type": "t_uint256"
					},
					{
						"astId": 83,
						"contract": "contracts/Escrow.sol:Escrow",
						"label": "totalConfirmed",
						"offset": 0,
						"slot": "6",
						"type": "t_uint256"
					},
					{
						"astId": 86,
						"contract": "contracts/Escrow.sol:Escrow",
						"label": "totalDisputed",
						"offset": 0,
						"slot": "7",
						"type": "t_uint256"
					},
					{
						"astId": 91,
						"contract": "contracts/Escrow.sol:Escrow",
						"label": "items",
						"offset": 0,
						"slot": "8",
						"type": "t_mapping(t_uint256,t_struct(ItemStruct)143_storage)"
					},
					{
						"astId": 97,
						"contract": "contracts/Escrow.sol:Escrow",
						"label": "itemsOf",
						"offset": 0,
						"slot": "9",
						"type": "t_mapping(t_address,t_array(t_struct(ItemStruct)143_storage)dyn_storage)"
					},
					{
						"astId": 103,
						"contract": "contracts/Escrow.sol:Escrow",
						"label": "requested",
						"offset": 0,
						"slot": "10",
						"type": "t_mapping(t_address,t_mapping(t_uint256,t_bool))"
					},
					{
						"astId": 107,
						"contract": "contracts/Escrow.sol:Escrow",
						"label": "ownerOf",
						"offset": 0,
						"slot": "11",
						"type": "t_mapping(t_uint256,t_address)"
					},
					{
						"astId": 112,
						"contract": "contracts/Escrow.sol:Escrow",
						"label": "isAvailable",
						"offset": 0,
						"slot": "12",
						"type": "t_mapping(t_uint256,t_enum(Available)123)"
					}
				],
				"types": {
					"t_address": {
						"encoding": "inplace",
						"label": "address",
						"numberOfBytes": "20"
					},
					"t_array(t_struct(ItemStruct)143_storage)dyn_storage": {
						"base": "t_struct(ItemStruct)143_storage",
						"encoding": "dynamic_array",
						"label": "struct Escrow.ItemStruct[]",
						"numberOfBytes": "32"
					},
					"t_bool": {
						"encoding": "inplace",
						"label": "bool",
						"numberOfBytes": "1"
					},
					"t_enum(Available)123": {
						"encoding": "inplace",
						"label": "enum Escrow.Available",
						"numberOfBytes": "1"
					},
					"t_enum(Status)120": {
						"encoding": "inplace",
						"label": "enum Escrow.Status",
						"numberOfBytes": "1"
					},
					"t_mapping(t_address,t_array(t_struct(ItemStruct)143_storage)dyn_storage)": {
						"encoding": "mapping",
						"key": "t_address",
						"label": "mapping(address => struct Escrow.ItemStruct[])",
						"numberOfBytes": "32",
						"value": "t_array(t_struct(ItemStruct)143_storage)dyn_storage"
					},
					"t_mapping(t_address,t_mapping(t_uint256,t_bool))": {
						"encoding": "mapping",
						"key": "t_address",
						"label": "mapping(address => mapping(uint256 => bool))",
						"numberOfBytes": "32",
						"value": "t_mapping(t_uint256,t_bool)"
					},
					"t_mapping(t_uint256,t_address)": {
						"encoding": "mapping",
						"key": "t_uint256",
						"label": "mapping(uint256 => address)",
						"numberOfBytes": "32",
						"value": "t_address"
					},
					"t_mapping(t_uint256,t_bool)": {
						"encoding": "mapping",
						"key": "t_uint256",
						"label": "mapping(uint256 => bool)",
						"numberOfBytes": "32",
						"value": "t_bool"
					},
					"t_mapping(t_uint256,t_enum(Available)123)": {
						"encoding": "mapping",
						"key": "t_uint256",
						"label": "mapping(uint256 => enum Escrow.Available)",
						"numberOfBytes": "32",
						"value": "t_enum(Available)123"
					},
					"t_mapping(t_uint256,t_struct(ItemStruct)143_storage)": {
						"encoding": "mapping",
						"key": "t_uint256",
						"label": "mapping(uint256 => struct Escrow.ItemStruct)",
						"numberOfBytes": "32",
						"value": "t_struct(ItemStruct)143_storage"
					},
					"t_string_storage": {
						"encoding": "bytes",
						"label": "string",
						"numberOfBytes": "32"
					},
					"t_struct(ItemStruct)143_storage": {
						"encoding": "inplace",
						"label": "struct Escrow.ItemStruct",
						"members": [
							{
								"astId": 125,
								"contract": "contracts/Escrow.sol:Escrow",
								"label": "itemId",
								"offset": 0,
								"slot": "0",
								"type": "t_uint256"
							},
							{
								"astId": 127,
								"contract": "contracts/Escrow.sol:Escrow",
								"label": "purpose",
								"offset": 0,
								"slot": "1",
								"type": "t_string_storage"
							},
							{
								"astId": 129,
								"contract": "contracts/Escrow.sol:Escrow",
								"label": "amount",
								"offset": 0,
								"slot": "2",
								"type": "t_uint256"
							},
							{
								"astId": 131,
								"contract": "contracts/Escrow.sol:Escrow",
								"label": "timestamp",
								"offset": 0,
								"slot": "3",
								"type": "t_uint256"
							},
							{
								"astId": 133,
								"contract": "contracts/Escrow.sol:Escrow",
								"label": "owner",
								"offset": 0,
								"slot": "4",
								"type": "t_address"
							},
							{
								"astId": 135,
								"contract": "contracts/Escrow.sol:Escrow",
								"label": "provider",
								"offset": 0,
								"slot": "5",
								"type": "t_address"
							},
							{
								"astId": 138,
								"contract": "contracts/Escrow.sol:Escrow",
								"label": "status",
								"offset": 20,
								"slot": "5",
								"type": "t_enum(Status)120"
							},
							{
								"astId": 140,
								"contract": "contracts/Escrow.sol:Escrow",
								"label": "provided",
								"offset": 21,
								"slot": "5",
								"type": "t_bool"
							},
							{
								"astId": 142,
								"contract": "contracts/Escrow.sol:Escrow",
								"label": "confirmed",
								"offset": 22,
								"slot": "5",
								"type": "t_bool"
							}
						],
						"numberOfBytes": "192"
					},
					"t_uint256": {
						"encoding": "inplace",
						"label": "uint256",
						"numberOfBytes": "32"
					}
				}
			},
			"userdoc": {
				"kind": "user",
				"methods": {},
				"version": 1
			}
		}
	}
}